{
    "contractName": "FlashLoan",
    "abi": [
        {
            "inputs": [
                {
                    "internalType": "address",
                    "name": "_addressProvider",
                    "type": "address"
                }
            ],
            "stateMutability": "nonpayable",
            "type": "constructor"
        },
        {
            "inputs": [],
            "name": "ADDRESSES_PROVIDER",
            "outputs": [
                {
                    "internalType": "contract IPoolAddressesProvider",
                    "name": "",
                    "type": "address"
                }
            ],
            "stateMutability": "view",
            "type": "function"
        },
        {
            "inputs": [],
            "name": "POOL",
            "outputs": [
                {
                    "internalType": "contract IPool",
                    "name": "",
                    "type": "address"
                }
            ],
            "stateMutability": "view",
            "type": "function"
        },
        {
            "inputs": [
                {
                    "internalType": "address",
                    "name": "asset",
                    "type": "address"
                },
                {
                    "internalType": "uint256",
                    "name": "amount",
                    "type": "uint256"
                },
                {
                    "internalType": "uint256",
                    "name": "premium",
                    "type": "uint256"
                },
                {
                    "internalType": "address",
                    "name": "initiator",
                    "type": "address"
                },
                {
                    "internalType": "bytes",
                    "name": "params",
                    "type": "bytes"
                }
            ],
            "name": "executeOperation",
            "outputs": [
                {
                    "internalType": "bool",
                    "name": "",
                    "type": "bool"
                }
            ],
            "stateMutability": "nonpayable",
            "type": "function"
        },
        {
            "inputs": [
                {
                    "internalType": "address",
                    "name": "_tokenAddress",
                    "type": "address"
                }
            ],
            "name": "getBalance",
            "outputs": [
                {
                    "internalType": "uint256",
                    "name": "",
                    "type": "uint256"
                }
            ],
            "stateMutability": "view",
            "type": "function"
        },
        {
            "inputs": [
                {
                    "internalType": "address",
                    "name": "_token",
                    "type": "address"
                },
                {
                    "internalType": "uint256",
                    "name": "_amount",
                    "type": "uint256"
                }
            ],
            "name": "requestFlashLoan",
            "outputs": [],
            "stateMutability": "nonpayable",
            "type": "function"
        },
        {
            "inputs": [
                {
                    "internalType": "address",
                    "name": "_tokenAddress",
                    "type": "address"
                }
            ],
            "name": "withdraw",
            "outputs": [],
            "stateMutability": "nonpayable",
            "type": "function"
        },
        {
            "stateMutability": "payable",
            "type": "receive"
        }
    ],
    "bytecode": "60c060405234801561000f575f80fd5b506040516107c03803806107c083398101604081905261002e916100cd565b80806001600160a01b03166080816001600160a01b031681525050806001600160a01b031663026b1d5f6040518163ffffffff1660e01b8152600401602060405180830381865afa158015610085573d5f803e3d5ffd5b505050506040513d601f19601f820116820180604052508101906100a991906100cd565b6001600160a01b031660a05250505f80546001600160a01b031916331790556100fa565b5f602082840312156100dd575f80fd5b81516001600160a01b03811681146100f3575f80fd5b9392505050565b60805160a0516106986101285f395f8181610113015281816101a401526103b601525f607301526106985ff3fe608060405260043610610057575f3560e01c80630542975c146100625780631b11d0ff146100b257806351cff8d9146100e15780637535d24614610102578063d54ba95414610135578063f8b2cb4f14610154575f80fd5b3661005e57005b5f80fd5b34801561006d575f80fd5b506100957f000000000000000000000000000000000000000000000000000000000000000081565b6040516001600160a01b0390911681526020015b60405180910390f35b3480156100bd575f80fd5b506100d16100cc3660046104b2565b610181565b60405190151581526020016100a9565b3480156100ec575f80fd5b506101006100fb366004610550565b610232565b005b34801561010d575f80fd5b506100957f000000000000000000000000000000000000000000000000000000000000000081565b348015610140575f80fd5b5061010061014f366004610570565b610389565b34801561015f575f80fd5b5061017361016e366004610550565b610429565b6040519081526020016100a9565b5f8061018d8688610598565b60405163095ea7b360e01b81526001600160a01b037f000000000000000000000000000000000000000000000000000000000000000081166004830152602482018390529192509089169063095ea7b3906044016020604051808303815f875af11580156101fd573d5f803e3d5ffd5b505050506040513d601f19601f8201168201806040525081019061022191906105b7565b5060019150505b9695505050505050565b5f546001600160a01b031633146102a65760405162461bcd60e51b815260206004820152602e60248201527f4f6e6c792074686520636f6e7472616374206f776e65722063616e2063616c6c60448201526d103a3434b990333ab731ba34b7b760911b606482015260840160405180910390fd5b6040516370a0823160e01b815230600482015281906001600160a01b0382169063a9059cbb90339083906370a0823190602401602060405180830381865afa1580156102f4573d5f803e3d5ffd5b505050506040513d601f19601f8201168201806040525081019061031891906105d6565b6040516001600160e01b031960e085901b1681526001600160a01b03909216600483015260248201526044016020604051808303815f875af1158015610360573d5f803e3d5ffd5b505050506040513d601f19601f8201168201806040525081019061038491906105b7565b505050565b604080516020810182525f80825291516310ac2ddf60e21b81523092859285929091906001600160a01b037f000000000000000000000000000000000000000000000000000000000000000016906342b0b77c906103f390889088908890889088906004016105ed565b5f604051808303815f87803b15801561040a575f80fd5b505af115801561041c573d5f803e3d5ffd5b5050505050505050505050565b6040516370a0823160e01b81523060048201525f906001600160a01b038316906370a0823190602401602060405180830381865afa15801561046d573d5f803e3d5ffd5b505050506040513d601f19601f8201168201806040525081019061049191906105d6565b92915050565b80356001600160a01b03811681146104ad575f80fd5b919050565b5f805f805f8060a087890312156104c7575f80fd5b6104d087610497565b955060208701359450604087013593506104ec60608801610497565b9250608087013567ffffffffffffffff80821115610508575f80fd5b818901915089601f83011261051b575f80fd5b813581811115610529575f80fd5b8a602082850101111561053a575f80fd5b6020830194508093505050509295509295509295565b5f60208284031215610560575f80fd5b61056982610497565b9392505050565b5f8060408385031215610581575f80fd5b61058a83610497565b946020939093013593505050565b8082018082111561049157634e487b7160e01b5f52601160045260245ffd5b5f602082840312156105c7575f80fd5b81518015158114610569575f80fd5b5f602082840312156105e6575f80fd5b5051919050565b5f60018060a01b03808816835260208188168185015286604085015260a06060850152855191508160a08501525f5b828110156106385786810182015185820160c00152810161061c565b50505f60c0828501015260c0601f19601f830116840101915050610228608083018461ffff16905256fea2646970667358221220996d52a8ca45209ae197a341c62b9c9b429adff71fcbac8449b80f9b00a2e7af64736f6c63430008140033",
    "sourcePath": "/home/san/TFM/contracts/FlashLoan.sol",
    "compiler": {
        "name": "solc",
        "version": "0.8.20+commit.a1b79de6"
    },
    "functionHashes": {
        "ADDRESSES_PROVIDER()": "0542975c",
        "POOL()": "7535d246",
        "executeOperation(address,uint256,uint256,address,bytes)": "1b11d0ff",
        "getBalance(address)": "f8b2cb4f",
        "requestFlashLoan(address,uint256)": "d54ba954",
        "withdraw(address)": "51cff8d9"
    },
    "gasEstimates": {
        "creation": {
            "codeDepositCost": "337600",
            "executionCost": "infinite",
            "totalCost": "infinite"
        },
        "external": {
            "ADDRESSES_PROVIDER()": "infinite",
            "POOL()": "infinite",
            "executeOperation(address,uint256,uint256,address,bytes)": "infinite",
            "getBalance(address)": "infinite",
            "requestFlashLoan(address,uint256)": "infinite",
            "withdraw(address)": "infinite"
        }
    }
}