{
	"contracts/SwapContract.sol": {
		"SwapContract": {
			"abi": [
				{
					"inputs": [],
					"stateMutability": "nonpayable",
					"type": "constructor"
				},
				{
					"anonymous": false,
					"inputs": [
						{
							"indexed": true,
							"internalType": "address",
							"name": "token",
							"type": "address"
						},
						{
							"indexed": true,
							"internalType": "address",
							"name": "spender",
							"type": "address"
						},
						{
							"indexed": false,
							"internalType": "uint256",
							"name": "amount",
							"type": "uint256"
						}
					],
					"name": "InputSet",
					"type": "event"
				},
				{
					"anonymous": false,
					"inputs": [
						{
							"indexed": false,
							"internalType": "uint256",
							"name": "amountOut",
							"type": "uint256"
						}
					],
					"name": "SwapFinished",
					"type": "event"
				},
				{
					"anonymous": false,
					"inputs": [
						{
							"components": [
								{
									"internalType": "address",
									"name": "tokenIn",
									"type": "address"
								},
								{
									"internalType": "address",
									"name": "tokenOut",
									"type": "address"
								},
								{
									"internalType": "uint24",
									"name": "fee",
									"type": "uint24"
								},
								{
									"internalType": "address",
									"name": "recipient",
									"type": "address"
								},
								{
									"internalType": "uint256",
									"name": "deadline",
									"type": "uint256"
								},
								{
									"internalType": "uint256",
									"name": "amountIn",
									"type": "uint256"
								},
								{
									"internalType": "uint256",
									"name": "amountOutMinimum",
									"type": "uint256"
								},
								{
									"internalType": "uint160",
									"name": "sqrtPriceLimitX96",
									"type": "uint160"
								}
							],
							"indexed": false,
							"internalType": "struct ISwapRouter.ExactInputSingleParams",
							"name": "params",
							"type": "tuple"
						}
					],
					"name": "SwapInitiated",
					"type": "event"
				},
				{
					"inputs": [
						{
							"internalType": "address",
							"name": "_tokenIn",
							"type": "address"
						},
						{
							"internalType": "address",
							"name": "_tokenOut",
							"type": "address"
						},
						{
							"internalType": "address",
							"name": "_swapRouter",
							"type": "address"
						},
						{
							"internalType": "uint256",
							"name": "_amount",
							"type": "uint256"
						},
						{
							"internalType": "uint24",
							"name": "_poolFee",
							"type": "uint24"
						}
					],
					"name": "swapSingle",
					"outputs": [
						{
							"internalType": "uint256",
							"name": "amountOut",
							"type": "uint256"
						}
					],
					"stateMutability": "nonpayable",
					"type": "function"
				}
			],
			"devdoc": {
				"kind": "dev",
				"methods": {},
				"version": 1
			},
			"evm": {
				"assembly": "    /* \"contracts/SwapContract.sol\":338:2026  contract SwapContract {... */\n  mstore(0x40, 0x80)\n    /* \"contracts/SwapContract.sol\":604:709  constructor() {... */\n  callvalue\n  dup1\n  iszero\n  tag_1\n  jumpi\n  0x00\n  dup1\n  revert\ntag_1:\n  pop\n    /* \"contracts/SwapContract.sol\":644:654  msg.sender */\n  caller\n    /* \"contracts/SwapContract.sol\":628:633  owner */\n  0x00\n  dup1\n    /* \"contracts/SwapContract.sol\":628:655  owner = payable(msg.sender) */\n  0x0100\n  exp\n  dup2\n  sload\n  dup2\n  0xffffffffffffffffffffffffffffffffffffffff\n  mul\n  not\n  and\n  swap1\n  dup4\n  0xffffffffffffffffffffffffffffffffffffffff\n  and\n  mul\n  or\n  swap1\n  sstore\n  pop\n    /* \"contracts/SwapContract.sol\":338:2026  contract SwapContract {... */\n  dataSize(sub_0)\n  dup1\n  dataOffset(sub_0)\n  0x00\n  codecopy\n  0x00\n  return\nstop\n\nsub_0: assembly {\n        /* \"contracts/SwapContract.sol\":338:2026  contract SwapContract {... */\n      mstore(0x40, 0x80)\n      callvalue\n      dup1\n      iszero\n      tag_1\n      jumpi\n      0x00\n      dup1\n      revert\n    tag_1:\n      pop\n      jumpi(tag_2, lt(calldatasize, 0x04))\n      shr(0xe0, calldataload(0x00))\n      dup1\n      0xf6e8f4ff\n      eq\n      tag_3\n      jumpi\n    tag_2:\n      0x00\n      dup1\n      revert\n        /* \"contracts/SwapContract.sol\":835:2024  function swapSingle(... */\n    tag_3:\n      tag_4\n      0x04\n      dup1\n      calldatasize\n      sub\n      dup2\n      add\n      swap1\n      tag_5\n      swap2\n      swap1\n      tag_6\n      jump\t// in\n    tag_5:\n      tag_7\n      jump\t// in\n    tag_4:\n      mload(0x40)\n      tag_8\n      swap2\n      swap1\n      tag_9\n      jump\t// in\n    tag_8:\n      mload(0x40)\n      dup1\n      swap2\n      sub\n      swap1\n      return\n    tag_7:\n        /* \"contracts/SwapContract.sol\":1015:1032  uint256 amountOut */\n      0x00\n        /* \"contracts/SwapContract.sol\":1081:1092  _swapRouter */\n      dup4\n        /* \"contracts/SwapContract.sol\":1054:1103  InputSet(_tokenIn, address(_swapRouter), _amount) */\n      0xffffffffffffffffffffffffffffffffffffffff\n      and\n        /* \"contracts/SwapContract.sol\":1063:1071  _tokenIn */\n      dup7\n        /* \"contracts/SwapContract.sol\":1054:1103  InputSet(_tokenIn, address(_swapRouter), _amount) */\n      0xffffffffffffffffffffffffffffffffffffffff\n      and\n      0xae0be8e6252914a661bbfc7564105c224e78711fa1ca76fc41d3209a3ecddd3a\n        /* \"contracts/SwapContract.sol\":1095:1102  _amount */\n      dup6\n        /* \"contracts/SwapContract.sol\":1054:1103  InputSet(_tokenIn, address(_swapRouter), _amount) */\n      mload(0x40)\n      tag_11\n      swap2\n      swap1\n      tag_9\n      jump\t// in\n    tag_11:\n      mload(0x40)\n      dup1\n      swap2\n      sub\n      swap1\n      log3\n        /* \"contracts/SwapContract.sol\":1113:1135  ISwapRouter swapRouter */\n      0x00\n        /* \"contracts/SwapContract.sol\":1150:1161  _swapRouter */\n      dup5\n        /* \"contracts/SwapContract.sol\":1113:1162  ISwapRouter swapRouter = ISwapRouter(_swapRouter) */\n      swap1\n      pop\n        /* \"contracts/SwapContract.sol\":1172:1186  IERC20 tokenIn */\n      0x00\n        /* \"contracts/SwapContract.sol\":1196:1204  _tokenIn */\n      dup8\n        /* \"contracts/SwapContract.sol\":1172:1205  IERC20 tokenIn = IERC20(_tokenIn) */\n      swap1\n      pop\n        /* \"contracts/SwapContract.sol\":1381:1388  tokenIn */\n      dup1\n        /* \"contracts/SwapContract.sol\":1381:1401  tokenIn.transferFrom */\n      0xffffffffffffffffffffffffffffffffffffffff\n      and\n      0x23b872dd\n        /* \"contracts/SwapContract.sol\":1402:1412  msg.sender */\n      caller\n        /* \"contracts/SwapContract.sol\":1422:1426  this */\n      address\n        /* \"contracts/SwapContract.sol\":1429:1436  _amount */\n      dup9\n        /* \"contracts/SwapContract.sol\":1381:1437  tokenIn.transferFrom(msg.sender, address(this), _amount) */\n      mload(0x40)\n      dup5\n      0xffffffff\n      and\n      0xe0\n      shl\n      dup2\n      mstore\n      0x04\n      add\n      tag_12\n      swap4\n      swap3\n      swap2\n      swap1\n      tag_13\n      jump\t// in\n    tag_12:\n      0x20\n      mload(0x40)\n      dup1\n      dup4\n      sub\n      dup2\n      0x00\n      dup8\n      gas\n      call\n      iszero\n      dup1\n      iszero\n      tag_15\n      jumpi\n      returndatasize\n      0x00\n      dup1\n      returndatacopy\n      revert(0x00, returndatasize)\n    tag_15:\n      pop\n      pop\n      pop\n      pop\n      mload(0x40)\n      returndatasize\n      not(0x1f)\n      0x1f\n      dup3\n      add\n      and\n      dup3\n      add\n      dup1\n      0x40\n      mstore\n      pop\n      dup2\n      add\n      swap1\n      tag_16\n      swap2\n      swap1\n      tag_17\n      jump\t// in\n    tag_16:\n      pop\n        /* \"contracts/SwapContract.sol\":1448:1455  tokenIn */\n      dup1\n        /* \"contracts/SwapContract.sol\":1448:1463  tokenIn.approve */\n      0xffffffffffffffffffffffffffffffffffffffff\n      and\n      0x095ea7b3\n        /* \"contracts/SwapContract.sol\":1464:1475  _swapRouter */\n      dup8\n        /* \"contracts/SwapContract.sol\":1477:1484  _amount */\n      dup8\n        /* \"contracts/SwapContract.sol\":1448:1485  tokenIn.approve(_swapRouter, _amount) */\n      mload(0x40)\n      dup4\n      0xffffffff\n      and\n      0xe0\n      shl\n      dup2\n      mstore\n      0x04\n      add\n      tag_18\n      swap3\n      swap2\n      swap1\n      tag_19\n      jump\t// in\n    tag_18:\n      0x20\n      mload(0x40)\n      dup1\n      dup4\n      sub\n      dup2\n      0x00\n      dup8\n      gas\n      call\n      iszero\n      dup1\n      iszero\n      tag_21\n      jumpi\n      returndatasize\n      0x00\n      dup1\n      returndatacopy\n      revert(0x00, returndatasize)\n    tag_21:\n      pop\n      pop\n      pop\n      pop\n      mload(0x40)\n      returndatasize\n      not(0x1f)\n      0x1f\n      dup3\n      add\n      and\n      dup3\n      add\n      dup1\n      0x40\n      mstore\n      pop\n      dup2\n      add\n      swap1\n      tag_22\n      swap2\n      swap1\n      tag_17\n      jump\t// in\n    tag_22:\n      pop\n        /* \"contracts/SwapContract.sol\":1496:1544  ISwapRouter.ExactInputSingleParams memory params */\n      0x00\n        /* \"contracts/SwapContract.sol\":1547:1856  ISwapRouter.ExactInputSingleParams({... */\n      mload(0x40)\n      dup1\n      0x0100\n      add\n      0x40\n      mstore\n      dup1\n        /* \"contracts/SwapContract.sol\":1605:1613  _tokenIn */\n      dup11\n        /* \"contracts/SwapContract.sol\":1547:1856  ISwapRouter.ExactInputSingleParams({... */\n      0xffffffffffffffffffffffffffffffffffffffff\n      and\n      dup2\n      mstore\n      0x20\n      add\n        /* \"contracts/SwapContract.sol\":1637:1646  _tokenOut */\n      dup10\n        /* \"contracts/SwapContract.sol\":1547:1856  ISwapRouter.ExactInputSingleParams({... */\n      0xffffffffffffffffffffffffffffffffffffffff\n      and\n      dup2\n      mstore\n      0x20\n      add\n        /* \"contracts/SwapContract.sol\":1665:1673  _poolFee */\n      dup7\n        /* \"contracts/SwapContract.sol\":1547:1856  ISwapRouter.ExactInputSingleParams({... */\n      0xffffff\n      and\n      dup2\n      mstore\n      0x20\n      add\n        /* \"contracts/SwapContract.sol\":1698:1708  msg.sender */\n      caller\n        /* \"contracts/SwapContract.sol\":1547:1856  ISwapRouter.ExactInputSingleParams({... */\n      0xffffffffffffffffffffffffffffffffffffffff\n      and\n      dup2\n      mstore\n      0x20\n      add\n        /* \"contracts/SwapContract.sol\":1732:1747  block.timestamp */\n      timestamp\n        /* \"contracts/SwapContract.sol\":1547:1856  ISwapRouter.ExactInputSingleParams({... */\n      dup2\n      mstore\n      0x20\n      add\n        /* \"contracts/SwapContract.sol\":1771:1778  _amount */\n      dup8\n        /* \"contracts/SwapContract.sol\":1547:1856  ISwapRouter.ExactInputSingleParams({... */\n      dup2\n      mstore\n      0x20\n      add\n        /* \"contracts/SwapContract.sol\":1810:1811  0 */\n      0x00\n        /* \"contracts/SwapContract.sol\":1547:1856  ISwapRouter.ExactInputSingleParams({... */\n      dup2\n      mstore\n      0x20\n      add\n        /* \"contracts/SwapContract.sol\":1844:1845  0 */\n      0x00\n        /* \"contracts/SwapContract.sol\":1547:1856  ISwapRouter.ExactInputSingleParams({... */\n      0xffffffffffffffffffffffffffffffffffffffff\n      and\n      dup2\n      mstore\n      pop\n        /* \"contracts/SwapContract.sol\":1496:1856  ISwapRouter.ExactInputSingleParams memory params = ISwapRouter.ExactInputSingleParams({... */\n      swap1\n      pop\n        /* \"contracts/SwapContract.sol\":1872:1893  SwapInitiated(params) */\n      0x9cc9e4e0604c38363594f7c8f52370967eee2a7ab393f48c3c38aaa1a015e2c7\n        /* \"contracts/SwapContract.sol\":1886:1892  params */\n      dup2\n        /* \"contracts/SwapContract.sol\":1872:1893  SwapInitiated(params) */\n      mload(0x40)\n      tag_23\n      swap2\n      swap1\n      tag_24\n      jump\t// in\n    tag_23:\n      mload(0x40)\n      dup1\n      swap2\n      sub\n      swap1\n      log1\n        /* \"contracts/SwapContract.sol\":1916:1926  swapRouter */\n      dup3\n        /* \"contracts/SwapContract.sol\":1916:1943  swapRouter.exactInputSingle */\n      0xffffffffffffffffffffffffffffffffffffffff\n      and\n      0x414bf389\n        /* \"contracts/SwapContract.sol\":1944:1950  params */\n      dup3\n        /* \"contracts/SwapContract.sol\":1916:1951  swapRouter.exactInputSingle(params) */\n      mload(0x40)\n      dup3\n      0xffffffff\n      and\n      0xe0\n      shl\n      dup2\n      mstore\n      0x04\n      add\n      tag_25\n      swap2\n      swap1\n      tag_24\n      jump\t// in\n    tag_25:\n      0x20\n      mload(0x40)\n      dup1\n      dup4\n      sub\n      dup2\n      0x00\n      dup8\n      gas\n      call\n      iszero\n      dup1\n      iszero\n      tag_27\n      jumpi\n      returndatasize\n      0x00\n      dup1\n      returndatacopy\n      revert(0x00, returndatasize)\n    tag_27:\n      pop\n      pop\n      pop\n      pop\n      mload(0x40)\n      returndatasize\n      not(0x1f)\n      0x1f\n      dup3\n      add\n      and\n      dup3\n      add\n      dup1\n      0x40\n      mstore\n      pop\n      dup2\n      add\n      swap1\n      tag_28\n      swap2\n      swap1\n      tag_29\n      jump\t// in\n    tag_28:\n        /* \"contracts/SwapContract.sol\":1904:1951  amountOut = swapRouter.exactInputSingle(params) */\n      swap4\n      pop\n        /* \"contracts/SwapContract.sol\":1967:1990  SwapFinished(amountOut) */\n      0xf28e9c4f1b694c726eacd8c6049062f63c124c8af3fe23a314a3e75484d03a56\n        /* \"contracts/SwapContract.sol\":1980:1989  amountOut */\n      dup5\n        /* \"contracts/SwapContract.sol\":1967:1990  SwapFinished(amountOut) */\n      mload(0x40)\n      tag_30\n      swap2\n      swap1\n      tag_9\n      jump\t// in\n    tag_30:\n      mload(0x40)\n      dup1\n      swap2\n      sub\n      swap1\n      log1\n        /* \"contracts/SwapContract.sol\":2001:2017  return amountOut */\n      pop\n      pop\n      pop\n        /* \"contracts/SwapContract.sol\":835:2024  function swapSingle(... */\n      swap6\n      swap5\n      pop\n      pop\n      pop\n      pop\n      pop\n      jump\t// out\n        /* \"#utility.yul\":88:205   */\n    tag_32:\n        /* \"#utility.yul\":197:198   */\n      0x00\n        /* \"#utility.yul\":194:195   */\n      dup1\n        /* \"#utility.yul\":187:199   */\n      revert\n        /* \"#utility.yul\":334:460   */\n    tag_34:\n        /* \"#utility.yul\":371:378   */\n      0x00\n        /* \"#utility.yul\":411:453   */\n      0xffffffffffffffffffffffffffffffffffffffff\n        /* \"#utility.yul\":404:409   */\n      dup3\n        /* \"#utility.yul\":400:454   */\n      and\n        /* \"#utility.yul\":389:454   */\n      swap1\n      pop\n        /* \"#utility.yul\":334:460   */\n      swap2\n      swap1\n      pop\n      jump\t// out\n        /* \"#utility.yul\":466:562   */\n    tag_35:\n        /* \"#utility.yul\":503:510   */\n      0x00\n        /* \"#utility.yul\":532:556   */\n      tag_61\n        /* \"#utility.yul\":550:555   */\n      dup3\n        /* \"#utility.yul\":532:556   */\n      tag_34\n      jump\t// in\n    tag_61:\n        /* \"#utility.yul\":521:556   */\n      swap1\n      pop\n        /* \"#utility.yul\":466:562   */\n      swap2\n      swap1\n      pop\n      jump\t// out\n        /* \"#utility.yul\":568:690   */\n    tag_36:\n        /* \"#utility.yul\":641:665   */\n      tag_63\n        /* \"#utility.yul\":659:664   */\n      dup2\n        /* \"#utility.yul\":641:665   */\n      tag_35\n      jump\t// in\n    tag_63:\n        /* \"#utility.yul\":634:639   */\n      dup2\n        /* \"#utility.yul\":631:666   */\n      eq\n        /* \"#utility.yul\":621:684   */\n      tag_64\n      jumpi\n        /* \"#utility.yul\":680:681   */\n      0x00\n        /* \"#utility.yul\":677:678   */\n      dup1\n        /* \"#utility.yul\":670:682   */\n      revert\n        /* \"#utility.yul\":621:684   */\n    tag_64:\n        /* \"#utility.yul\":568:690   */\n      pop\n      jump\t// out\n        /* \"#utility.yul\":696:835   */\n    tag_37:\n        /* \"#utility.yul\":742:747   */\n      0x00\n        /* \"#utility.yul\":780:786   */\n      dup2\n        /* \"#utility.yul\":767:787   */\n      calldataload\n        /* \"#utility.yul\":758:787   */\n      swap1\n      pop\n        /* \"#utility.yul\":796:829   */\n      tag_66\n        /* \"#utility.yul\":823:828   */\n      dup2\n        /* \"#utility.yul\":796:829   */\n      tag_36\n      jump\t// in\n    tag_66:\n        /* \"#utility.yul\":696:835   */\n      swap3\n      swap2\n      pop\n      pop\n      jump\t// out\n        /* \"#utility.yul\":841:918   */\n    tag_38:\n        /* \"#utility.yul\":878:885   */\n      0x00\n        /* \"#utility.yul\":907:912   */\n      dup2\n        /* \"#utility.yul\":896:912   */\n      swap1\n      pop\n        /* \"#utility.yul\":841:918   */\n      swap2\n      swap1\n      pop\n      jump\t// out\n        /* \"#utility.yul\":924:1046   */\n    tag_39:\n        /* \"#utility.yul\":997:1021   */\n      tag_69\n        /* \"#utility.yul\":1015:1020   */\n      dup2\n        /* \"#utility.yul\":997:1021   */\n      tag_38\n      jump\t// in\n    tag_69:\n        /* \"#utility.yul\":990:995   */\n      dup2\n        /* \"#utility.yul\":987:1022   */\n      eq\n        /* \"#utility.yul\":977:1040   */\n      tag_70\n      jumpi\n        /* \"#utility.yul\":1036:1037   */\n      0x00\n        /* \"#utility.yul\":1033:1034   */\n      dup1\n        /* \"#utility.yul\":1026:1038   */\n      revert\n        /* \"#utility.yul\":977:1040   */\n    tag_70:\n        /* \"#utility.yul\":924:1046   */\n      pop\n      jump\t// out\n        /* \"#utility.yul\":1052:1191   */\n    tag_40:\n        /* \"#utility.yul\":1098:1103   */\n      0x00\n        /* \"#utility.yul\":1136:1142   */\n      dup2\n        /* \"#utility.yul\":1123:1143   */\n      calldataload\n        /* \"#utility.yul\":1114:1143   */\n      swap1\n      pop\n        /* \"#utility.yul\":1152:1185   */\n      tag_72\n        /* \"#utility.yul\":1179:1184   */\n      dup2\n        /* \"#utility.yul\":1152:1185   */\n      tag_39\n      jump\t// in\n    tag_72:\n        /* \"#utility.yul\":1052:1191   */\n      swap3\n      swap2\n      pop\n      pop\n      jump\t// out\n        /* \"#utility.yul\":1197:1288   */\n    tag_41:\n        /* \"#utility.yul\":1233:1240   */\n      0x00\n        /* \"#utility.yul\":1273:1281   */\n      0xffffff\n        /* \"#utility.yul\":1266:1271   */\n      dup3\n        /* \"#utility.yul\":1262:1282   */\n      and\n        /* \"#utility.yul\":1251:1282   */\n      swap1\n      pop\n        /* \"#utility.yul\":1197:1288   */\n      swap2\n      swap1\n      pop\n      jump\t// out\n        /* \"#utility.yul\":1294:1414   */\n    tag_42:\n        /* \"#utility.yul\":1366:1389   */\n      tag_75\n        /* \"#utility.yul\":1383:1388   */\n      dup2\n        /* \"#utility.yul\":1366:1389   */\n      tag_41\n      jump\t// in\n    tag_75:\n        /* \"#utility.yul\":1359:1364   */\n      dup2\n        /* \"#utility.yul\":1356:1390   */\n      eq\n        /* \"#utility.yul\":1346:1408   */\n      tag_76\n      jumpi\n        /* \"#utility.yul\":1404:1405   */\n      0x00\n        /* \"#utility.yul\":1401:1402   */\n      dup1\n        /* \"#utility.yul\":1394:1406   */\n      revert\n        /* \"#utility.yul\":1346:1408   */\n    tag_76:\n        /* \"#utility.yul\":1294:1414   */\n      pop\n      jump\t// out\n        /* \"#utility.yul\":1420:1557   */\n    tag_43:\n        /* \"#utility.yul\":1465:1470   */\n      0x00\n        /* \"#utility.yul\":1503:1509   */\n      dup2\n        /* \"#utility.yul\":1490:1510   */\n      calldataload\n        /* \"#utility.yul\":1481:1510   */\n      swap1\n      pop\n        /* \"#utility.yul\":1519:1551   */\n      tag_78\n        /* \"#utility.yul\":1545:1550   */\n      dup2\n        /* \"#utility.yul\":1519:1551   */\n      tag_42\n      jump\t// in\n    tag_78:\n        /* \"#utility.yul\":1420:1557   */\n      swap3\n      swap2\n      pop\n      pop\n      jump\t// out\n        /* \"#utility.yul\":1563:2472   */\n    tag_6:\n        /* \"#utility.yul\":1657:1663   */\n      0x00\n        /* \"#utility.yul\":1665:1671   */\n      dup1\n        /* \"#utility.yul\":1673:1679   */\n      0x00\n        /* \"#utility.yul\":1681:1687   */\n      dup1\n        /* \"#utility.yul\":1689:1695   */\n      0x00\n        /* \"#utility.yul\":1738:1741   */\n      0xa0\n        /* \"#utility.yul\":1726:1735   */\n      dup7\n        /* \"#utility.yul\":1717:1724   */\n      dup9\n        /* \"#utility.yul\":1713:1736   */\n      sub\n        /* \"#utility.yul\":1709:1742   */\n      slt\n        /* \"#utility.yul\":1706:1826   */\n      iszero\n      tag_80\n      jumpi\n        /* \"#utility.yul\":1745:1824   */\n      tag_81\n      tag_32\n      jump\t// in\n    tag_81:\n        /* \"#utility.yul\":1706:1826   */\n    tag_80:\n        /* \"#utility.yul\":1865:1866   */\n      0x00\n        /* \"#utility.yul\":1890:1943   */\n      tag_82\n        /* \"#utility.yul\":1935:1942   */\n      dup9\n        /* \"#utility.yul\":1926:1932   */\n      dup3\n        /* \"#utility.yul\":1915:1924   */\n      dup10\n        /* \"#utility.yul\":1911:1933   */\n      add\n        /* \"#utility.yul\":1890:1943   */\n      tag_37\n      jump\t// in\n    tag_82:\n        /* \"#utility.yul\":1880:1943   */\n      swap6\n      pop\n        /* \"#utility.yul\":1836:1953   */\n      pop\n        /* \"#utility.yul\":1992:1994   */\n      0x20\n        /* \"#utility.yul\":2018:2071   */\n      tag_83\n        /* \"#utility.yul\":2063:2070   */\n      dup9\n        /* \"#utility.yul\":2054:2060   */\n      dup3\n        /* \"#utility.yul\":2043:2052   */\n      dup10\n        /* \"#utility.yul\":2039:2061   */\n      add\n        /* \"#utility.yul\":2018:2071   */\n      tag_37\n      jump\t// in\n    tag_83:\n        /* \"#utility.yul\":2008:2071   */\n      swap5\n      pop\n        /* \"#utility.yul\":1963:2081   */\n      pop\n        /* \"#utility.yul\":2120:2122   */\n      0x40\n        /* \"#utility.yul\":2146:2199   */\n      tag_84\n        /* \"#utility.yul\":2191:2198   */\n      dup9\n        /* \"#utility.yul\":2182:2188   */\n      dup3\n        /* \"#utility.yul\":2171:2180   */\n      dup10\n        /* \"#utility.yul\":2167:2189   */\n      add\n        /* \"#utility.yul\":2146:2199   */\n      tag_37\n      jump\t// in\n    tag_84:\n        /* \"#utility.yul\":2136:2199   */\n      swap4\n      pop\n        /* \"#utility.yul\":2091:2209   */\n      pop\n        /* \"#utility.yul\":2248:2250   */\n      0x60\n        /* \"#utility.yul\":2274:2327   */\n      tag_85\n        /* \"#utility.yul\":2319:2326   */\n      dup9\n        /* \"#utility.yul\":2310:2316   */\n      dup3\n        /* \"#utility.yul\":2299:2308   */\n      dup10\n        /* \"#utility.yul\":2295:2317   */\n      add\n        /* \"#utility.yul\":2274:2327   */\n      tag_40\n      jump\t// in\n    tag_85:\n        /* \"#utility.yul\":2264:2327   */\n      swap3\n      pop\n        /* \"#utility.yul\":2219:2337   */\n      pop\n        /* \"#utility.yul\":2376:2379   */\n      0x80\n        /* \"#utility.yul\":2403:2455   */\n      tag_86\n        /* \"#utility.yul\":2447:2454   */\n      dup9\n        /* \"#utility.yul\":2438:2444   */\n      dup3\n        /* \"#utility.yul\":2427:2436   */\n      dup10\n        /* \"#utility.yul\":2423:2445   */\n      add\n        /* \"#utility.yul\":2403:2455   */\n      tag_43\n      jump\t// in\n    tag_86:\n        /* \"#utility.yul\":2393:2455   */\n      swap2\n      pop\n        /* \"#utility.yul\":2347:2465   */\n      pop\n        /* \"#utility.yul\":1563:2472   */\n      swap3\n      swap6\n      pop\n      swap3\n      swap6\n      swap1\n      swap4\n      pop\n      jump\t// out\n        /* \"#utility.yul\":2478:2596   */\n    tag_44:\n        /* \"#utility.yul\":2565:2589   */\n      tag_88\n        /* \"#utility.yul\":2583:2588   */\n      dup2\n        /* \"#utility.yul\":2565:2589   */\n      tag_38\n      jump\t// in\n    tag_88:\n        /* \"#utility.yul\":2560:2563   */\n      dup3\n        /* \"#utility.yul\":2553:2590   */\n      mstore\n        /* \"#utility.yul\":2478:2596   */\n      pop\n      pop\n      jump\t// out\n        /* \"#utility.yul\":2602:2824   */\n    tag_9:\n        /* \"#utility.yul\":2695:2699   */\n      0x00\n        /* \"#utility.yul\":2733:2735   */\n      0x20\n        /* \"#utility.yul\":2722:2731   */\n      dup3\n        /* \"#utility.yul\":2718:2736   */\n      add\n        /* \"#utility.yul\":2710:2736   */\n      swap1\n      pop\n        /* \"#utility.yul\":2746:2817   */\n      tag_90\n        /* \"#utility.yul\":2814:2815   */\n      0x00\n        /* \"#utility.yul\":2803:2812   */\n      dup4\n        /* \"#utility.yul\":2799:2816   */\n      add\n        /* \"#utility.yul\":2790:2796   */\n      dup5\n        /* \"#utility.yul\":2746:2817   */\n      tag_44\n      jump\t// in\n    tag_90:\n        /* \"#utility.yul\":2602:2824   */\n      swap3\n      swap2\n      pop\n      pop\n      jump\t// out\n        /* \"#utility.yul\":2830:2948   */\n    tag_45:\n        /* \"#utility.yul\":2917:2941   */\n      tag_92\n        /* \"#utility.yul\":2935:2940   */\n      dup2\n        /* \"#utility.yul\":2917:2941   */\n      tag_35\n      jump\t// in\n    tag_92:\n        /* \"#utility.yul\":2912:2915   */\n      dup3\n        /* \"#utility.yul\":2905:2942   */\n      mstore\n        /* \"#utility.yul\":2830:2948   */\n      pop\n      pop\n      jump\t// out\n        /* \"#utility.yul\":2954:3396   */\n    tag_13:\n        /* \"#utility.yul\":3103:3107   */\n      0x00\n        /* \"#utility.yul\":3141:3143   */\n      0x60\n        /* \"#utility.yul\":3130:3139   */\n      dup3\n        /* \"#utility.yul\":3126:3144   */\n      add\n        /* \"#utility.yul\":3118:3144   */\n      swap1\n      pop\n        /* \"#utility.yul\":3154:3225   */\n      tag_94\n        /* \"#utility.yul\":3222:3223   */\n      0x00\n        /* \"#utility.yul\":3211:3220   */\n      dup4\n        /* \"#utility.yul\":3207:3224   */\n      add\n        /* \"#utility.yul\":3198:3204   */\n      dup7\n        /* \"#utility.yul\":3154:3225   */\n      tag_45\n      jump\t// in\n    tag_94:\n        /* \"#utility.yul\":3235:3307   */\n      tag_95\n        /* \"#utility.yul\":3303:3305   */\n      0x20\n        /* \"#utility.yul\":3292:3301   */\n      dup4\n        /* \"#utility.yul\":3288:3306   */\n      add\n        /* \"#utility.yul\":3279:3285   */\n      dup6\n        /* \"#utility.yul\":3235:3307   */\n      tag_45\n      jump\t// in\n    tag_95:\n        /* \"#utility.yul\":3317:3389   */\n      tag_96\n        /* \"#utility.yul\":3385:3387   */\n      0x40\n        /* \"#utility.yul\":3374:3383   */\n      dup4\n        /* \"#utility.yul\":3370:3388   */\n      add\n        /* \"#utility.yul\":3361:3367   */\n      dup5\n        /* \"#utility.yul\":3317:3389   */\n      tag_44\n      jump\t// in\n    tag_96:\n        /* \"#utility.yul\":2954:3396   */\n      swap5\n      swap4\n      pop\n      pop\n      pop\n      pop\n      jump\t// out\n        /* \"#utility.yul\":3402:3492   */\n    tag_46:\n        /* \"#utility.yul\":3436:3443   */\n      0x00\n        /* \"#utility.yul\":3479:3484   */\n      dup2\n        /* \"#utility.yul\":3472:3485   */\n      iszero\n        /* \"#utility.yul\":3465:3486   */\n      iszero\n        /* \"#utility.yul\":3454:3486   */\n      swap1\n      pop\n        /* \"#utility.yul\":3402:3492   */\n      swap2\n      swap1\n      pop\n      jump\t// out\n        /* \"#utility.yul\":3498:3614   */\n    tag_47:\n        /* \"#utility.yul\":3568:3589   */\n      tag_99\n        /* \"#utility.yul\":3583:3588   */\n      dup2\n        /* \"#utility.yul\":3568:3589   */\n      tag_46\n      jump\t// in\n    tag_99:\n        /* \"#utility.yul\":3561:3566   */\n      dup2\n        /* \"#utility.yul\":3558:3590   */\n      eq\n        /* \"#utility.yul\":3548:3608   */\n      tag_100\n      jumpi\n        /* \"#utility.yul\":3604:3605   */\n      0x00\n        /* \"#utility.yul\":3601:3602   */\n      dup1\n        /* \"#utility.yul\":3594:3606   */\n      revert\n        /* \"#utility.yul\":3548:3608   */\n    tag_100:\n        /* \"#utility.yul\":3498:3614   */\n      pop\n      jump\t// out\n        /* \"#utility.yul\":3620:3757   */\n    tag_48:\n        /* \"#utility.yul\":3674:3679   */\n      0x00\n        /* \"#utility.yul\":3705:3711   */\n      dup2\n        /* \"#utility.yul\":3699:3712   */\n      mload\n        /* \"#utility.yul\":3690:3712   */\n      swap1\n      pop\n        /* \"#utility.yul\":3721:3751   */\n      tag_102\n        /* \"#utility.yul\":3745:3750   */\n      dup2\n        /* \"#utility.yul\":3721:3751   */\n      tag_47\n      jump\t// in\n    tag_102:\n        /* \"#utility.yul\":3620:3757   */\n      swap3\n      swap2\n      pop\n      pop\n      jump\t// out\n        /* \"#utility.yul\":3763:4108   */\n    tag_17:\n        /* \"#utility.yul\":3830:3836   */\n      0x00\n        /* \"#utility.yul\":3879:3881   */\n      0x20\n        /* \"#utility.yul\":3867:3876   */\n      dup3\n        /* \"#utility.yul\":3858:3865   */\n      dup5\n        /* \"#utility.yul\":3854:3877   */\n      sub\n        /* \"#utility.yul\":3850:3882   */\n      slt\n        /* \"#utility.yul\":3847:3966   */\n      iszero\n      tag_104\n      jumpi\n        /* \"#utility.yul\":3885:3964   */\n      tag_105\n      tag_32\n      jump\t// in\n    tag_105:\n        /* \"#utility.yul\":3847:3966   */\n    tag_104:\n        /* \"#utility.yul\":4005:4006   */\n      0x00\n        /* \"#utility.yul\":4030:4091   */\n      tag_106\n        /* \"#utility.yul\":4083:4090   */\n      dup5\n        /* \"#utility.yul\":4074:4080   */\n      dup3\n        /* \"#utility.yul\":4063:4072   */\n      dup6\n        /* \"#utility.yul\":4059:4081   */\n      add\n        /* \"#utility.yul\":4030:4091   */\n      tag_48\n      jump\t// in\n    tag_106:\n        /* \"#utility.yul\":4020:4091   */\n      swap2\n      pop\n        /* \"#utility.yul\":3976:4101   */\n      pop\n        /* \"#utility.yul\":3763:4108   */\n      swap3\n      swap2\n      pop\n      pop\n      jump\t// out\n        /* \"#utility.yul\":4114:4446   */\n    tag_19:\n        /* \"#utility.yul\":4235:4239   */\n      0x00\n        /* \"#utility.yul\":4273:4275   */\n      0x40\n        /* \"#utility.yul\":4262:4271   */\n      dup3\n        /* \"#utility.yul\":4258:4276   */\n      add\n        /* \"#utility.yul\":4250:4276   */\n      swap1\n      pop\n        /* \"#utility.yul\":4286:4357   */\n      tag_108\n        /* \"#utility.yul\":4354:4355   */\n      0x00\n        /* \"#utility.yul\":4343:4352   */\n      dup4\n        /* \"#utility.yul\":4339:4356   */\n      add\n        /* \"#utility.yul\":4330:4336   */\n      dup6\n        /* \"#utility.yul\":4286:4357   */\n      tag_45\n      jump\t// in\n    tag_108:\n        /* \"#utility.yul\":4367:4439   */\n      tag_109\n        /* \"#utility.yul\":4435:4437   */\n      0x20\n        /* \"#utility.yul\":4424:4433   */\n      dup4\n        /* \"#utility.yul\":4420:4438   */\n      add\n        /* \"#utility.yul\":4411:4417   */\n      dup5\n        /* \"#utility.yul\":4367:4439   */\n      tag_44\n      jump\t// in\n    tag_109:\n        /* \"#utility.yul\":4114:4446   */\n      swap4\n      swap3\n      pop\n      pop\n      pop\n      jump\t// out\n        /* \"#utility.yul\":4452:4560   */\n    tag_49:\n        /* \"#utility.yul\":4529:4553   */\n      tag_111\n        /* \"#utility.yul\":4547:4552   */\n      dup2\n        /* \"#utility.yul\":4529:4553   */\n      tag_35\n      jump\t// in\n    tag_111:\n        /* \"#utility.yul\":4524:4527   */\n      dup3\n        /* \"#utility.yul\":4517:4554   */\n      mstore\n        /* \"#utility.yul\":4452:4560   */\n      pop\n      pop\n      jump\t// out\n        /* \"#utility.yul\":4566:4671   */\n    tag_50:\n        /* \"#utility.yul\":4641:4664   */\n      tag_113\n        /* \"#utility.yul\":4658:4663   */\n      dup2\n        /* \"#utility.yul\":4641:4664   */\n      tag_41\n      jump\t// in\n    tag_113:\n        /* \"#utility.yul\":4636:4639   */\n      dup3\n        /* \"#utility.yul\":4629:4665   */\n      mstore\n        /* \"#utility.yul\":4566:4671   */\n      pop\n      pop\n      jump\t// out\n        /* \"#utility.yul\":4677:4785   */\n    tag_51:\n        /* \"#utility.yul\":4754:4778   */\n      tag_115\n        /* \"#utility.yul\":4772:4777   */\n      dup2\n        /* \"#utility.yul\":4754:4778   */\n      tag_38\n      jump\t// in\n    tag_115:\n        /* \"#utility.yul\":4749:4752   */\n      dup3\n        /* \"#utility.yul\":4742:4779   */\n      mstore\n        /* \"#utility.yul\":4677:4785   */\n      pop\n      pop\n      jump\t// out\n        /* \"#utility.yul\":4791:4899   */\n    tag_52:\n        /* \"#utility.yul\":4868:4892   */\n      tag_117\n        /* \"#utility.yul\":4886:4891   */\n      dup2\n        /* \"#utility.yul\":4868:4892   */\n      tag_34\n      jump\t// in\n    tag_117:\n        /* \"#utility.yul\":4863:4866   */\n      dup3\n        /* \"#utility.yul\":4856:4893   */\n      mstore\n        /* \"#utility.yul\":4791:4899   */\n      pop\n      pop\n      jump\t// out\n        /* \"#utility.yul\":4999:6624   */\n    tag_53:\n        /* \"#utility.yul\":5176:5182   */\n      0x0100\n        /* \"#utility.yul\":5171:5174   */\n      dup3\n        /* \"#utility.yul\":5167:5183   */\n      add\n        /* \"#utility.yul\":5268:5272   */\n      0x00\n        /* \"#utility.yul\":5261:5266   */\n      dup3\n        /* \"#utility.yul\":5257:5273   */\n      add\n        /* \"#utility.yul\":5251:5274   */\n      mload\n        /* \"#utility.yul\":5287:5350   */\n      tag_119\n        /* \"#utility.yul\":5344:5348   */\n      0x00\n        /* \"#utility.yul\":5339:5342   */\n      dup6\n        /* \"#utility.yul\":5335:5349   */\n      add\n        /* \"#utility.yul\":5321:5333   */\n      dup3\n        /* \"#utility.yul\":5287:5350   */\n      tag_49\n      jump\t// in\n    tag_119:\n        /* \"#utility.yul\":5193:5360   */\n      pop\n        /* \"#utility.yul\":5446:5450   */\n      0x20\n        /* \"#utility.yul\":5439:5444   */\n      dup3\n        /* \"#utility.yul\":5435:5451   */\n      add\n        /* \"#utility.yul\":5429:5452   */\n      mload\n        /* \"#utility.yul\":5465:5528   */\n      tag_120\n        /* \"#utility.yul\":5522:5526   */\n      0x20\n        /* \"#utility.yul\":5517:5520   */\n      dup6\n        /* \"#utility.yul\":5513:5527   */\n      add\n        /* \"#utility.yul\":5499:5511   */\n      dup3\n        /* \"#utility.yul\":5465:5528   */\n      tag_49\n      jump\t// in\n    tag_120:\n        /* \"#utility.yul\":5370:5538   */\n      pop\n        /* \"#utility.yul\":5619:5623   */\n      0x40\n        /* \"#utility.yul\":5612:5617   */\n      dup3\n        /* \"#utility.yul\":5608:5624   */\n      add\n        /* \"#utility.yul\":5602:5625   */\n      mload\n        /* \"#utility.yul\":5638:5699   */\n      tag_121\n        /* \"#utility.yul\":5693:5697   */\n      0x40\n        /* \"#utility.yul\":5688:5691   */\n      dup6\n        /* \"#utility.yul\":5684:5698   */\n      add\n        /* \"#utility.yul\":5670:5682   */\n      dup3\n        /* \"#utility.yul\":5638:5699   */\n      tag_50\n      jump\t// in\n    tag_121:\n        /* \"#utility.yul\":5548:5709   */\n      pop\n        /* \"#utility.yul\":5796:5800   */\n      0x60\n        /* \"#utility.yul\":5789:5794   */\n      dup3\n        /* \"#utility.yul\":5785:5801   */\n      add\n        /* \"#utility.yul\":5779:5802   */\n      mload\n        /* \"#utility.yul\":5815:5878   */\n      tag_122\n        /* \"#utility.yul\":5872:5876   */\n      0x60\n        /* \"#utility.yul\":5867:5870   */\n      dup6\n        /* \"#utility.yul\":5863:5877   */\n      add\n        /* \"#utility.yul\":5849:5861   */\n      dup3\n        /* \"#utility.yul\":5815:5878   */\n      tag_49\n      jump\t// in\n    tag_122:\n        /* \"#utility.yul\":5719:5888   */\n      pop\n        /* \"#utility.yul\":5974:5978   */\n      0x80\n        /* \"#utility.yul\":5967:5972   */\n      dup3\n        /* \"#utility.yul\":5963:5979   */\n      add\n        /* \"#utility.yul\":5957:5980   */\n      mload\n        /* \"#utility.yul\":5993:6056   */\n      tag_123\n        /* \"#utility.yul\":6050:6054   */\n      0x80\n        /* \"#utility.yul\":6045:6048   */\n      dup6\n        /* \"#utility.yul\":6041:6055   */\n      add\n        /* \"#utility.yul\":6027:6039   */\n      dup3\n        /* \"#utility.yul\":5993:6056   */\n      tag_51\n      jump\t// in\n    tag_123:\n        /* \"#utility.yul\":5898:6066   */\n      pop\n        /* \"#utility.yul\":6152:6156   */\n      0xa0\n        /* \"#utility.yul\":6145:6150   */\n      dup3\n        /* \"#utility.yul\":6141:6157   */\n      add\n        /* \"#utility.yul\":6135:6158   */\n      mload\n        /* \"#utility.yul\":6171:6234   */\n      tag_124\n        /* \"#utility.yul\":6228:6232   */\n      0xa0\n        /* \"#utility.yul\":6223:6226   */\n      dup6\n        /* \"#utility.yul\":6219:6233   */\n      add\n        /* \"#utility.yul\":6205:6217   */\n      dup3\n        /* \"#utility.yul\":6171:6234   */\n      tag_51\n      jump\t// in\n    tag_124:\n        /* \"#utility.yul\":6076:6244   */\n      pop\n        /* \"#utility.yul\":6338:6342   */\n      0xc0\n        /* \"#utility.yul\":6331:6336   */\n      dup3\n        /* \"#utility.yul\":6327:6343   */\n      add\n        /* \"#utility.yul\":6321:6344   */\n      mload\n        /* \"#utility.yul\":6357:6420   */\n      tag_125\n        /* \"#utility.yul\":6414:6418   */\n      0xc0\n        /* \"#utility.yul\":6409:6412   */\n      dup6\n        /* \"#utility.yul\":6405:6419   */\n      add\n        /* \"#utility.yul\":6391:6403   */\n      dup3\n        /* \"#utility.yul\":6357:6420   */\n      tag_51\n      jump\t// in\n    tag_125:\n        /* \"#utility.yul\":6254:6430   */\n      pop\n        /* \"#utility.yul\":6525:6529   */\n      0xe0\n        /* \"#utility.yul\":6518:6523   */\n      dup3\n        /* \"#utility.yul\":6514:6530   */\n      add\n        /* \"#utility.yul\":6508:6531   */\n      mload\n        /* \"#utility.yul\":6544:6607   */\n      tag_126\n        /* \"#utility.yul\":6601:6605   */\n      0xe0\n        /* \"#utility.yul\":6596:6599   */\n      dup6\n        /* \"#utility.yul\":6592:6606   */\n      add\n        /* \"#utility.yul\":6578:6590   */\n      dup3\n        /* \"#utility.yul\":6544:6607   */\n      tag_52\n      jump\t// in\n    tag_126:\n        /* \"#utility.yul\":6440:6617   */\n      pop\n        /* \"#utility.yul\":5145:6624   */\n      pop\n        /* \"#utility.yul\":4999:6624   */\n      pop\n      pop\n      jump\t// out\n        /* \"#utility.yul\":6630:7013   */\n    tag_24:\n        /* \"#utility.yul\":6803:6807   */\n      0x00\n        /* \"#utility.yul\":6841:6844   */\n      0x0100\n        /* \"#utility.yul\":6830:6839   */\n      dup3\n        /* \"#utility.yul\":6826:6845   */\n      add\n        /* \"#utility.yul\":6818:6845   */\n      swap1\n      pop\n        /* \"#utility.yul\":6855:7006   */\n      tag_128\n        /* \"#utility.yul\":7003:7004   */\n      0x00\n        /* \"#utility.yul\":6992:7001   */\n      dup4\n        /* \"#utility.yul\":6988:7005   */\n      add\n        /* \"#utility.yul\":6979:6985   */\n      dup5\n        /* \"#utility.yul\":6855:7006   */\n      tag_53\n      jump\t// in\n    tag_128:\n        /* \"#utility.yul\":6630:7013   */\n      swap3\n      swap2\n      pop\n      pop\n      jump\t// out\n        /* \"#utility.yul\":7019:7162   */\n    tag_54:\n        /* \"#utility.yul\":7076:7081   */\n      0x00\n        /* \"#utility.yul\":7107:7113   */\n      dup2\n        /* \"#utility.yul\":7101:7114   */\n      mload\n        /* \"#utility.yul\":7092:7114   */\n      swap1\n      pop\n        /* \"#utility.yul\":7123:7156   */\n      tag_130\n        /* \"#utility.yul\":7150:7155   */\n      dup2\n        /* \"#utility.yul\":7123:7156   */\n      tag_39\n      jump\t// in\n    tag_130:\n        /* \"#utility.yul\":7019:7162   */\n      swap3\n      swap2\n      pop\n      pop\n      jump\t// out\n        /* \"#utility.yul\":7168:7519   */\n    tag_29:\n        /* \"#utility.yul\":7238:7244   */\n      0x00\n        /* \"#utility.yul\":7287:7289   */\n      0x20\n        /* \"#utility.yul\":7275:7284   */\n      dup3\n        /* \"#utility.yul\":7266:7273   */\n      dup5\n        /* \"#utility.yul\":7262:7285   */\n      sub\n        /* \"#utility.yul\":7258:7290   */\n      slt\n        /* \"#utility.yul\":7255:7374   */\n      iszero\n      tag_132\n      jumpi\n        /* \"#utility.yul\":7293:7372   */\n      tag_133\n      tag_32\n      jump\t// in\n    tag_133:\n        /* \"#utility.yul\":7255:7374   */\n    tag_132:\n        /* \"#utility.yul\":7413:7414   */\n      0x00\n        /* \"#utility.yul\":7438:7502   */\n      tag_134\n        /* \"#utility.yul\":7494:7501   */\n      dup5\n        /* \"#utility.yul\":7485:7491   */\n      dup3\n        /* \"#utility.yul\":7474:7483   */\n      dup6\n        /* \"#utility.yul\":7470:7492   */\n      add\n        /* \"#utility.yul\":7438:7502   */\n      tag_54\n      jump\t// in\n    tag_134:\n        /* \"#utility.yul\":7428:7502   */\n      swap2\n      pop\n        /* \"#utility.yul\":7384:7512   */\n      pop\n        /* \"#utility.yul\":7168:7519   */\n      swap3\n      swap2\n      pop\n      pop\n      jump\t// out\n\n    auxdata: 0xa2646970667358221220a5fcae283cc2c2196150999b3d08f9f8cd9070d469d8f5daafd22c5d175a2b6864736f6c63430008190033\n}\n",
				"bytecode": {
					"linkReferences": {},
					"object": "6080604052348015600e575f80fd5b50335f806101000a81548173ffffffffffffffffffffffffffffffffffffffff021916908373ffffffffffffffffffffffffffffffffffffffff1602179055506106f28061005b5f395ff3fe608060405234801561000f575f80fd5b5060043610610029575f3560e01c8063f6e8f4ff1461002d575b5f80fd5b6100476004803603810190610042919061041d565b61005d565b60405161005491906104a3565b60405180910390f35b5f8373ffffffffffffffffffffffffffffffffffffffff168673ffffffffffffffffffffffffffffffffffffffff167fae0be8e6252914a661bbfc7564105c224e78711fa1ca76fc41d3209a3ecddd3a856040516100bb91906104a3565b60405180910390a35f8490505f8790508073ffffffffffffffffffffffffffffffffffffffff166323b872dd3330886040518463ffffffff1660e01b8152600401610108939291906104cb565b6020604051808303815f875af1158015610124573d5f803e3d5ffd5b505050506040513d601f19601f820116820180604052508101906101489190610535565b508073ffffffffffffffffffffffffffffffffffffffff1663095ea7b387876040518363ffffffff1660e01b8152600401610184929190610560565b6020604051808303815f875af11580156101a0573d5f803e3d5ffd5b505050506040513d601f19601f820116820180604052508101906101c49190610535565b505f6040518061010001604052808a73ffffffffffffffffffffffffffffffffffffffff1681526020018973ffffffffffffffffffffffffffffffffffffffff1681526020018662ffffff1681526020013373ffffffffffffffffffffffffffffffffffffffff1681526020014281526020018781526020015f81526020015f73ffffffffffffffffffffffffffffffffffffffff1681525090507f9cc9e4e0604c38363594f7c8f52370967eee2a7ab393f48c3c38aaa1a015e2c78160405161028e9190610663565b60405180910390a18273ffffffffffffffffffffffffffffffffffffffff1663414bf389826040518263ffffffff1660e01b81526004016102cf9190610663565b6020604051808303815f875af11580156102eb573d5f803e3d5ffd5b505050506040513d601f19601f8201168201806040525081019061030f9190610691565b93507ff28e9c4f1b694c726eacd8c6049062f63c124c8af3fe23a314a3e75484d03a568460405161034091906104a3565b60405180910390a150505095945050505050565b5f80fd5b5f73ffffffffffffffffffffffffffffffffffffffff82169050919050565b5f61038182610358565b9050919050565b61039181610377565b811461039b575f80fd5b50565b5f813590506103ac81610388565b92915050565b5f819050919050565b6103c4816103b2565b81146103ce575f80fd5b50565b5f813590506103df816103bb565b92915050565b5f62ffffff82169050919050565b6103fc816103e5565b8114610406575f80fd5b50565b5f81359050610417816103f3565b92915050565b5f805f805f60a0868803121561043657610435610354565b5b5f6104438882890161039e565b95505060206104548882890161039e565b94505060406104658882890161039e565b9350506060610476888289016103d1565b925050608061048788828901610409565b9150509295509295909350565b61049d816103b2565b82525050565b5f6020820190506104b65f830184610494565b92915050565b6104c581610377565b82525050565b5f6060820190506104de5f8301866104bc565b6104eb60208301856104bc565b6104f86040830184610494565b949350505050565b5f8115159050919050565b61051481610500565b811461051e575f80fd5b50565b5f8151905061052f8161050b565b92915050565b5f6020828403121561054a57610549610354565b5b5f61055784828501610521565b91505092915050565b5f6040820190506105735f8301856104bc565b6105806020830184610494565b9392505050565b61059081610377565b82525050565b61059f816103e5565b82525050565b6105ae816103b2565b82525050565b6105bd81610358565b82525050565b61010082015f8201516105d85f850182610587565b5060208201516105eb6020850182610587565b5060408201516105fe6040850182610596565b5060608201516106116060850182610587565b50608082015161062460808501826105a5565b5060a082015161063760a08501826105a5565b5060c082015161064a60c08501826105a5565b5060e082015161065d60e08501826105b4565b50505050565b5f610100820190506106775f8301846105c3565b92915050565b5f8151905061068b816103bb565b92915050565b5f602082840312156106a6576106a5610354565b5b5f6106b38482850161067d565b9150509291505056fea2646970667358221220a5fcae283cc2c2196150999b3d08f9f8cd9070d469d8f5daafd22c5d175a2b6864736f6c63430008190033",
					"opcodes": "PUSH1 0x80 PUSH1 0x40 MSTORE CALLVALUE DUP1 ISZERO PUSH1 0xE JUMPI PUSH0 DUP1 REVERT JUMPDEST POP CALLER PUSH0 DUP1 PUSH2 0x100 EXP DUP2 SLOAD DUP2 PUSH20 0xFFFFFFFFFFFFFFFFFFFFFFFFFFFFFFFFFFFFFFFF MUL NOT AND SWAP1 DUP4 PUSH20 0xFFFFFFFFFFFFFFFFFFFFFFFFFFFFFFFFFFFFFFFF AND MUL OR SWAP1 SSTORE POP PUSH2 0x6F2 DUP1 PUSH2 0x5B PUSH0 CODECOPY PUSH0 RETURN INVALID PUSH1 0x80 PUSH1 0x40 MSTORE CALLVALUE DUP1 ISZERO PUSH2 0xF JUMPI PUSH0 DUP1 REVERT JUMPDEST POP PUSH1 0x4 CALLDATASIZE LT PUSH2 0x29 JUMPI PUSH0 CALLDATALOAD PUSH1 0xE0 SHR DUP1 PUSH4 0xF6E8F4FF EQ PUSH2 0x2D JUMPI JUMPDEST PUSH0 DUP1 REVERT JUMPDEST PUSH2 0x47 PUSH1 0x4 DUP1 CALLDATASIZE SUB DUP2 ADD SWAP1 PUSH2 0x42 SWAP2 SWAP1 PUSH2 0x41D JUMP JUMPDEST PUSH2 0x5D JUMP JUMPDEST PUSH1 0x40 MLOAD PUSH2 0x54 SWAP2 SWAP1 PUSH2 0x4A3 JUMP JUMPDEST PUSH1 0x40 MLOAD DUP1 SWAP2 SUB SWAP1 RETURN JUMPDEST PUSH0 DUP4 PUSH20 0xFFFFFFFFFFFFFFFFFFFFFFFFFFFFFFFFFFFFFFFF AND DUP7 PUSH20 0xFFFFFFFFFFFFFFFFFFFFFFFFFFFFFFFFFFFFFFFF AND PUSH32 0xAE0BE8E6252914A661BBFC7564105C224E78711FA1CA76FC41D3209A3ECDDD3A DUP6 PUSH1 0x40 MLOAD PUSH2 0xBB SWAP2 SWAP1 PUSH2 0x4A3 JUMP JUMPDEST PUSH1 0x40 MLOAD DUP1 SWAP2 SUB SWAP1 LOG3 PUSH0 DUP5 SWAP1 POP PUSH0 DUP8 SWAP1 POP DUP1 PUSH20 0xFFFFFFFFFFFFFFFFFFFFFFFFFFFFFFFFFFFFFFFF AND PUSH4 0x23B872DD CALLER ADDRESS DUP9 PUSH1 0x40 MLOAD DUP5 PUSH4 0xFFFFFFFF AND PUSH1 0xE0 SHL DUP2 MSTORE PUSH1 0x4 ADD PUSH2 0x108 SWAP4 SWAP3 SWAP2 SWAP1 PUSH2 0x4CB JUMP JUMPDEST PUSH1 0x20 PUSH1 0x40 MLOAD DUP1 DUP4 SUB DUP2 PUSH0 DUP8 GAS CALL ISZERO DUP1 ISZERO PUSH2 0x124 JUMPI RETURNDATASIZE PUSH0 DUP1 RETURNDATACOPY RETURNDATASIZE PUSH0 REVERT JUMPDEST POP POP POP POP PUSH1 0x40 MLOAD RETURNDATASIZE PUSH1 0x1F NOT PUSH1 0x1F DUP3 ADD AND DUP3 ADD DUP1 PUSH1 0x40 MSTORE POP DUP2 ADD SWAP1 PUSH2 0x148 SWAP2 SWAP1 PUSH2 0x535 JUMP JUMPDEST POP DUP1 PUSH20 0xFFFFFFFFFFFFFFFFFFFFFFFFFFFFFFFFFFFFFFFF AND PUSH4 0x95EA7B3 DUP8 DUP8 PUSH1 0x40 MLOAD DUP4 PUSH4 0xFFFFFFFF AND PUSH1 0xE0 SHL DUP2 MSTORE PUSH1 0x4 ADD PUSH2 0x184 SWAP3 SWAP2 SWAP1 PUSH2 0x560 JUMP JUMPDEST PUSH1 0x20 PUSH1 0x40 MLOAD DUP1 DUP4 SUB DUP2 PUSH0 DUP8 GAS CALL ISZERO DUP1 ISZERO PUSH2 0x1A0 JUMPI RETURNDATASIZE PUSH0 DUP1 RETURNDATACOPY RETURNDATASIZE PUSH0 REVERT JUMPDEST POP POP POP POP PUSH1 0x40 MLOAD RETURNDATASIZE PUSH1 0x1F NOT PUSH1 0x1F DUP3 ADD AND DUP3 ADD DUP1 PUSH1 0x40 MSTORE POP DUP2 ADD SWAP1 PUSH2 0x1C4 SWAP2 SWAP1 PUSH2 0x535 JUMP JUMPDEST POP PUSH0 PUSH1 0x40 MLOAD DUP1 PUSH2 0x100 ADD PUSH1 0x40 MSTORE DUP1 DUP11 PUSH20 0xFFFFFFFFFFFFFFFFFFFFFFFFFFFFFFFFFFFFFFFF AND DUP2 MSTORE PUSH1 0x20 ADD DUP10 PUSH20 0xFFFFFFFFFFFFFFFFFFFFFFFFFFFFFFFFFFFFFFFF AND DUP2 MSTORE PUSH1 0x20 ADD DUP7 PUSH3 0xFFFFFF AND DUP2 MSTORE PUSH1 0x20 ADD CALLER PUSH20 0xFFFFFFFFFFFFFFFFFFFFFFFFFFFFFFFFFFFFFFFF AND DUP2 MSTORE PUSH1 0x20 ADD TIMESTAMP DUP2 MSTORE PUSH1 0x20 ADD DUP8 DUP2 MSTORE PUSH1 0x20 ADD PUSH0 DUP2 MSTORE PUSH1 0x20 ADD PUSH0 PUSH20 0xFFFFFFFFFFFFFFFFFFFFFFFFFFFFFFFFFFFFFFFF AND DUP2 MSTORE POP SWAP1 POP PUSH32 0x9CC9E4E0604C38363594F7C8F52370967EEE2A7AB393F48C3C38AAA1A015E2C7 DUP2 PUSH1 0x40 MLOAD PUSH2 0x28E SWAP2 SWAP1 PUSH2 0x663 JUMP JUMPDEST PUSH1 0x40 MLOAD DUP1 SWAP2 SUB SWAP1 LOG1 DUP3 PUSH20 0xFFFFFFFFFFFFFFFFFFFFFFFFFFFFFFFFFFFFFFFF AND PUSH4 0x414BF389 DUP3 PUSH1 0x40 MLOAD DUP3 PUSH4 0xFFFFFFFF AND PUSH1 0xE0 SHL DUP2 MSTORE PUSH1 0x4 ADD PUSH2 0x2CF SWAP2 SWAP1 PUSH2 0x663 JUMP JUMPDEST PUSH1 0x20 PUSH1 0x40 MLOAD DUP1 DUP4 SUB DUP2 PUSH0 DUP8 GAS CALL ISZERO DUP1 ISZERO PUSH2 0x2EB JUMPI RETURNDATASIZE PUSH0 DUP1 RETURNDATACOPY RETURNDATASIZE PUSH0 REVERT JUMPDEST POP POP POP POP PUSH1 0x40 MLOAD RETURNDATASIZE PUSH1 0x1F NOT PUSH1 0x1F DUP3 ADD AND DUP3 ADD DUP1 PUSH1 0x40 MSTORE POP DUP2 ADD SWAP1 PUSH2 0x30F SWAP2 SWAP1 PUSH2 0x691 JUMP JUMPDEST SWAP4 POP PUSH32 0xF28E9C4F1B694C726EACD8C6049062F63C124C8AF3FE23A314A3E75484D03A56 DUP5 PUSH1 0x40 MLOAD PUSH2 0x340 SWAP2 SWAP1 PUSH2 0x4A3 JUMP JUMPDEST PUSH1 0x40 MLOAD DUP1 SWAP2 SUB SWAP1 LOG1 POP POP POP SWAP6 SWAP5 POP POP POP POP POP JUMP JUMPDEST PUSH0 DUP1 REVERT JUMPDEST PUSH0 PUSH20 0xFFFFFFFFFFFFFFFFFFFFFFFFFFFFFFFFFFFFFFFF DUP3 AND SWAP1 POP SWAP2 SWAP1 POP JUMP JUMPDEST PUSH0 PUSH2 0x381 DUP3 PUSH2 0x358 JUMP JUMPDEST SWAP1 POP SWAP2 SWAP1 POP JUMP JUMPDEST PUSH2 0x391 DUP2 PUSH2 0x377 JUMP JUMPDEST DUP2 EQ PUSH2 0x39B JUMPI PUSH0 DUP1 REVERT JUMPDEST POP JUMP JUMPDEST PUSH0 DUP2 CALLDATALOAD SWAP1 POP PUSH2 0x3AC DUP2 PUSH2 0x388 JUMP JUMPDEST SWAP3 SWAP2 POP POP JUMP JUMPDEST PUSH0 DUP2 SWAP1 POP SWAP2 SWAP1 POP JUMP JUMPDEST PUSH2 0x3C4 DUP2 PUSH2 0x3B2 JUMP JUMPDEST DUP2 EQ PUSH2 0x3CE JUMPI PUSH0 DUP1 REVERT JUMPDEST POP JUMP JUMPDEST PUSH0 DUP2 CALLDATALOAD SWAP1 POP PUSH2 0x3DF DUP2 PUSH2 0x3BB JUMP JUMPDEST SWAP3 SWAP2 POP POP JUMP JUMPDEST PUSH0 PUSH3 0xFFFFFF DUP3 AND SWAP1 POP SWAP2 SWAP1 POP JUMP JUMPDEST PUSH2 0x3FC DUP2 PUSH2 0x3E5 JUMP JUMPDEST DUP2 EQ PUSH2 0x406 JUMPI PUSH0 DUP1 REVERT JUMPDEST POP JUMP JUMPDEST PUSH0 DUP2 CALLDATALOAD SWAP1 POP PUSH2 0x417 DUP2 PUSH2 0x3F3 JUMP JUMPDEST SWAP3 SWAP2 POP POP JUMP JUMPDEST PUSH0 DUP1 PUSH0 DUP1 PUSH0 PUSH1 0xA0 DUP7 DUP9 SUB SLT ISZERO PUSH2 0x436 JUMPI PUSH2 0x435 PUSH2 0x354 JUMP JUMPDEST JUMPDEST PUSH0 PUSH2 0x443 DUP9 DUP3 DUP10 ADD PUSH2 0x39E JUMP JUMPDEST SWAP6 POP POP PUSH1 0x20 PUSH2 0x454 DUP9 DUP3 DUP10 ADD PUSH2 0x39E JUMP JUMPDEST SWAP5 POP POP PUSH1 0x40 PUSH2 0x465 DUP9 DUP3 DUP10 ADD PUSH2 0x39E JUMP JUMPDEST SWAP4 POP POP PUSH1 0x60 PUSH2 0x476 DUP9 DUP3 DUP10 ADD PUSH2 0x3D1 JUMP JUMPDEST SWAP3 POP POP PUSH1 0x80 PUSH2 0x487 DUP9 DUP3 DUP10 ADD PUSH2 0x409 JUMP JUMPDEST SWAP2 POP POP SWAP3 SWAP6 POP SWAP3 SWAP6 SWAP1 SWAP4 POP JUMP JUMPDEST PUSH2 0x49D DUP2 PUSH2 0x3B2 JUMP JUMPDEST DUP3 MSTORE POP POP JUMP JUMPDEST PUSH0 PUSH1 0x20 DUP3 ADD SWAP1 POP PUSH2 0x4B6 PUSH0 DUP4 ADD DUP5 PUSH2 0x494 JUMP JUMPDEST SWAP3 SWAP2 POP POP JUMP JUMPDEST PUSH2 0x4C5 DUP2 PUSH2 0x377 JUMP JUMPDEST DUP3 MSTORE POP POP JUMP JUMPDEST PUSH0 PUSH1 0x60 DUP3 ADD SWAP1 POP PUSH2 0x4DE PUSH0 DUP4 ADD DUP7 PUSH2 0x4BC JUMP JUMPDEST PUSH2 0x4EB PUSH1 0x20 DUP4 ADD DUP6 PUSH2 0x4BC JUMP JUMPDEST PUSH2 0x4F8 PUSH1 0x40 DUP4 ADD DUP5 PUSH2 0x494 JUMP JUMPDEST SWAP5 SWAP4 POP POP POP POP JUMP JUMPDEST PUSH0 DUP2 ISZERO ISZERO SWAP1 POP SWAP2 SWAP1 POP JUMP JUMPDEST PUSH2 0x514 DUP2 PUSH2 0x500 JUMP JUMPDEST DUP2 EQ PUSH2 0x51E JUMPI PUSH0 DUP1 REVERT JUMPDEST POP JUMP JUMPDEST PUSH0 DUP2 MLOAD SWAP1 POP PUSH2 0x52F DUP2 PUSH2 0x50B JUMP JUMPDEST SWAP3 SWAP2 POP POP JUMP JUMPDEST PUSH0 PUSH1 0x20 DUP3 DUP5 SUB SLT ISZERO PUSH2 0x54A JUMPI PUSH2 0x549 PUSH2 0x354 JUMP JUMPDEST JUMPDEST PUSH0 PUSH2 0x557 DUP5 DUP3 DUP6 ADD PUSH2 0x521 JUMP JUMPDEST SWAP2 POP POP SWAP3 SWAP2 POP POP JUMP JUMPDEST PUSH0 PUSH1 0x40 DUP3 ADD SWAP1 POP PUSH2 0x573 PUSH0 DUP4 ADD DUP6 PUSH2 0x4BC JUMP JUMPDEST PUSH2 0x580 PUSH1 0x20 DUP4 ADD DUP5 PUSH2 0x494 JUMP JUMPDEST SWAP4 SWAP3 POP POP POP JUMP JUMPDEST PUSH2 0x590 DUP2 PUSH2 0x377 JUMP JUMPDEST DUP3 MSTORE POP POP JUMP JUMPDEST PUSH2 0x59F DUP2 PUSH2 0x3E5 JUMP JUMPDEST DUP3 MSTORE POP POP JUMP JUMPDEST PUSH2 0x5AE DUP2 PUSH2 0x3B2 JUMP JUMPDEST DUP3 MSTORE POP POP JUMP JUMPDEST PUSH2 0x5BD DUP2 PUSH2 0x358 JUMP JUMPDEST DUP3 MSTORE POP POP JUMP JUMPDEST PUSH2 0x100 DUP3 ADD PUSH0 DUP3 ADD MLOAD PUSH2 0x5D8 PUSH0 DUP6 ADD DUP3 PUSH2 0x587 JUMP JUMPDEST POP PUSH1 0x20 DUP3 ADD MLOAD PUSH2 0x5EB PUSH1 0x20 DUP6 ADD DUP3 PUSH2 0x587 JUMP JUMPDEST POP PUSH1 0x40 DUP3 ADD MLOAD PUSH2 0x5FE PUSH1 0x40 DUP6 ADD DUP3 PUSH2 0x596 JUMP JUMPDEST POP PUSH1 0x60 DUP3 ADD MLOAD PUSH2 0x611 PUSH1 0x60 DUP6 ADD DUP3 PUSH2 0x587 JUMP JUMPDEST POP PUSH1 0x80 DUP3 ADD MLOAD PUSH2 0x624 PUSH1 0x80 DUP6 ADD DUP3 PUSH2 0x5A5 JUMP JUMPDEST POP PUSH1 0xA0 DUP3 ADD MLOAD PUSH2 0x637 PUSH1 0xA0 DUP6 ADD DUP3 PUSH2 0x5A5 JUMP JUMPDEST POP PUSH1 0xC0 DUP3 ADD MLOAD PUSH2 0x64A PUSH1 0xC0 DUP6 ADD DUP3 PUSH2 0x5A5 JUMP JUMPDEST POP PUSH1 0xE0 DUP3 ADD MLOAD PUSH2 0x65D PUSH1 0xE0 DUP6 ADD DUP3 PUSH2 0x5B4 JUMP JUMPDEST POP POP POP POP JUMP JUMPDEST PUSH0 PUSH2 0x100 DUP3 ADD SWAP1 POP PUSH2 0x677 PUSH0 DUP4 ADD DUP5 PUSH2 0x5C3 JUMP JUMPDEST SWAP3 SWAP2 POP POP JUMP JUMPDEST PUSH0 DUP2 MLOAD SWAP1 POP PUSH2 0x68B DUP2 PUSH2 0x3BB JUMP JUMPDEST SWAP3 SWAP2 POP POP JUMP JUMPDEST PUSH0 PUSH1 0x20 DUP3 DUP5 SUB SLT ISZERO PUSH2 0x6A6 JUMPI PUSH2 0x6A5 PUSH2 0x354 JUMP JUMPDEST JUMPDEST PUSH0 PUSH2 0x6B3 DUP5 DUP3 DUP6 ADD PUSH2 0x67D JUMP JUMPDEST SWAP2 POP POP SWAP3 SWAP2 POP POP JUMP INVALID LOG2 PUSH5 0x6970667358 0x22 SLT KECCAK256 0xA5 0xFC 0xAE 0x28 EXTCODECOPY 0xC2 0xC2 NOT PUSH2 0x5099 SWAP12 RETURNDATASIZE ADDMOD 0xF9 0xF8 0xCD SWAP1 PUSH17 0xD469D8F5DAAFD22C5D175A2B6864736F6C PUSH4 0x43000819 STOP CALLER "
				},
				"gasEstimates": {
					"creation": {
						"codeDepositCost": "355600",
						"executionCost": "24656",
						"totalCost": "380256"
					},
					"external": {
						"swapSingle(address,address,address,uint256,uint24)": "infinite"
					}
				},
				"methodIdentifiers": {
					"swapSingle(address,address,address,uint256,uint24)": "f6e8f4ff"
				}
			},
			"storageLayout": {
				"storage": [
					{
						"astId": 2086,
						"contract": "contracts/SwapContract.sol:SwapContract",
						"label": "owner",
						"offset": 0,
						"slot": "0",
						"type": "t_address_payable"
					}
				],
				"types": {
					"t_address_payable": {
						"encoding": "inplace",
						"label": "address payable",
						"numberOfBytes": "20"
					}
				}
			},
			"userdoc": {
				"kind": "user",
				"methods": {},
				"version": 1
			}
		}
	}
}