{
	"contracts/FlashLoanOriol.sol": {
		"FlashLoanOriol": {
			"abi": [
				{
					"inputs": [
						{
							"internalType": "address",
							"name": "_addressProvider",
							"type": "address"
						},
						{
							"internalType": "address",
							"name": "_dexContractAddress",
							"type": "address"
						}
					],
					"stateMutability": "nonpayable",
					"type": "constructor"
				},
				{
					"inputs": [],
					"name": "ADDRESSES_PROVIDER",
					"outputs": [
						{
							"internalType": "contract IPoolAddressesProvider",
							"name": "",
							"type": "address"
						}
					],
					"stateMutability": "view",
					"type": "function"
				},
				{
					"inputs": [],
					"name": "POOL",
					"outputs": [
						{
							"internalType": "contract IPool",
							"name": "",
							"type": "address"
						}
					],
					"stateMutability": "view",
					"type": "function"
				},
				{
					"inputs": [
						{
							"internalType": "address",
							"name": "asset",
							"type": "address"
						},
						{
							"internalType": "uint256",
							"name": "amount",
							"type": "uint256"
						},
						{
							"internalType": "uint256",
							"name": "premium",
							"type": "uint256"
						},
						{
							"internalType": "address",
							"name": "initiator",
							"type": "address"
						},
						{
							"internalType": "bytes",
							"name": "params",
							"type": "bytes"
						}
					],
					"name": "executeOperation",
					"outputs": [
						{
							"internalType": "bool",
							"name": "",
							"type": "bool"
						}
					],
					"stateMutability": "nonpayable",
					"type": "function"
				},
				{
					"inputs": [
						{
							"internalType": "address",
							"name": "_tokenAddress",
							"type": "address"
						}
					],
					"name": "getBalance",
					"outputs": [
						{
							"internalType": "uint256",
							"name": "",
							"type": "uint256"
						}
					],
					"stateMutability": "view",
					"type": "function"
				},
				{
					"inputs": [],
					"name": "loanAmount",
					"outputs": [
						{
							"internalType": "uint256",
							"name": "",
							"type": "uint256"
						}
					],
					"stateMutability": "view",
					"type": "function"
				},
				{
					"inputs": [
						{
							"internalType": "uint256",
							"name": "",
							"type": "uint256"
						}
					],
					"name": "poolFees",
					"outputs": [
						{
							"internalType": "uint24",
							"name": "",
							"type": "uint24"
						}
					],
					"stateMutability": "view",
					"type": "function"
				},
				{
					"inputs": [
						{
							"internalType": "uint256",
							"name": "_amount",
							"type": "uint256"
						},
						{
							"internalType": "address[]",
							"name": "_tokens",
							"type": "address[]"
						},
						{
							"internalType": "address[]",
							"name": "_swapRouters",
							"type": "address[]"
						},
						{
							"internalType": "uint24[]",
							"name": "_poolFees",
							"type": "uint24[]"
						}
					],
					"name": "requestFlashLoanArbitrageSimple",
					"outputs": [],
					"stateMutability": "nonpayable",
					"type": "function"
				},
				{
					"inputs": [
						{
							"internalType": "uint256",
							"name": "",
							"type": "uint256"
						}
					],
					"name": "swapRouters",
					"outputs": [
						{
							"internalType": "address",
							"name": "",
							"type": "address"
						}
					],
					"stateMutability": "view",
					"type": "function"
				},
				{
					"inputs": [
						{
							"internalType": "uint256",
							"name": "",
							"type": "uint256"
						}
					],
					"name": "tokens",
					"outputs": [
						{
							"internalType": "address",
							"name": "",
							"type": "address"
						}
					],
					"stateMutability": "view",
					"type": "function"
				},
				{
					"inputs": [
						{
							"internalType": "address",
							"name": "_tokenAddress",
							"type": "address"
						}
					],
					"name": "withdraw",
					"outputs": [],
					"stateMutability": "nonpayable",
					"type": "function"
				},
				{
					"stateMutability": "payable",
					"type": "receive"
				}
			],
			"devdoc": {
				"kind": "dev",
				"methods": {
					"requestFlashLoanArbitrageSimple(uint256,address[],address[],uint24[])": {
						"params": {
							"_amount": "amount to borrow",
							"_poolFees": "array of pool fees. Correlated with _tokens",
							"_swapRouters": "array of swap router addresses. Correlated with _tokens",
							"_tokens": "array of token addresses to swap. [0] will be the one loaned, traded for [1] and traded back for [0]"
						}
					}
				},
				"version": 1
			},
			"evm": {
				"assembly": "    /* \"contracts/FlashLoanOriol.sol\":547:5177  contract FlashLoanOriol is FlashLoanSimpleReceiverBase {... */\n  mstore(0x40, 0xc0)\n    /* \"contracts/FlashLoanOriol.sol\":835:1193  constructor(address _addressProvider, address _dexContractAddress)... */\n  callvalue\n  dup1\n  iszero\n  tag_1\n  jumpi\n  0x00\n  dup1\n  revert\ntag_1:\n  pop\n  mload(0x40)\n  sub(codesize, bytecodeSize)\n  dup1\n  bytecodeSize\n  dup4\n  codecopy\n  dup2\n  dup2\n  add\n  0x40\n  mstore\n  dup2\n  add\n  swap1\n  tag_2\n  swap2\n  swap1\n  tag_3\n  jump\t// in\ntag_2:\n    /* \"contracts/FlashLoanOriol.sol\":961:977  _addressProvider */\n  dup2\n    /* \"@aave/core-v3/contracts/flashloan/base/FlashLoanSimpleReceiverBase.sol\":673:681  provider */\n  dup1\n    /* \"@aave/core-v3/contracts/flashloan/base/FlashLoanSimpleReceiverBase.sol\":652:681  ADDRESSES_PROVIDER = provider */\n  0xffffffffffffffffffffffffffffffffffffffff\n  and\n  0x80\n  dup2\n  0xffffffffffffffffffffffffffffffffffffffff\n  and\n  dup2\n  mstore\n  pop\n  pop\n    /* \"@aave/core-v3/contracts/flashloan/base/FlashLoanSimpleReceiverBase.sol\":700:708  provider */\n  dup1\n    /* \"@aave/core-v3/contracts/flashloan/base/FlashLoanSimpleReceiverBase.sol\":700:716  provider.getPool */\n  0xffffffffffffffffffffffffffffffffffffffff\n  and\n  0x026b1d5f\n    /* \"@aave/core-v3/contracts/flashloan/base/FlashLoanSimpleReceiverBase.sol\":700:718  provider.getPool() */\n  mload(0x40)\n  dup2\n  0xffffffff\n  and\n  0xe0\n  shl\n  dup2\n  mstore\n  0x04\n  add\n  0x20\n  mload(0x40)\n  dup1\n  dup4\n  sub\n  dup2\n  dup7\n  gas\n  staticcall\n  iszero\n  dup1\n  iszero\n  tag_8\n  jumpi\n  returndatasize\n  0x00\n  dup1\n  returndatacopy\n  revert(0x00, returndatasize)\ntag_8:\n  pop\n  pop\n  pop\n  pop\n  mload(0x40)\n  returndatasize\n  not(0x1f)\n  0x1f\n  dup3\n  add\n  and\n  dup3\n  add\n  dup1\n  0x40\n  mstore\n  pop\n  dup2\n  add\n  swap1\n  tag_9\n  swap2\n  swap1\n  tag_10\n  jump\t// in\ntag_9:\n    /* \"@aave/core-v3/contracts/flashloan/base/FlashLoanSimpleReceiverBase.sol\":687:719  POOL = IPool(provider.getPool()) */\n  0xffffffffffffffffffffffffffffffffffffffff\n  and\n  0xa0\n  dup2\n  0xffffffffffffffffffffffffffffffffffffffff\n  and\n  dup2\n  mstore\n  pop\n  pop\n    /* \"@aave/core-v3/contracts/flashloan/base/FlashLoanSimpleReceiverBase.sol\":601:724  constructor(IPoolAddressesProvider provider) {... */\n  pop\n    /* \"contracts/FlashLoanOriol.sol\":1070:1080  msg.sender */\n  caller\n    /* \"contracts/FlashLoanOriol.sol\":1054:1059  owner */\n  0x00\n  dup1\n    /* \"contracts/FlashLoanOriol.sol\":1054:1081  owner = payable(msg.sender) */\n  0x0100\n  exp\n  dup2\n  sload\n  dup2\n  0xffffffffffffffffffffffffffffffffffffffff\n  mul\n  not\n  and\n  swap1\n  dup4\n  0xffffffffffffffffffffffffffffffffffffffff\n  and\n  mul\n  or\n  swap1\n  sstore\n  pop\n    /* \"contracts/FlashLoanOriol.sol\":1166:1185  _dexContractAddress */\n  dup1\n    /* \"contracts/FlashLoanOriol.sol\":1138:1150  swapContract */\n  0x05\n  0x00\n    /* \"contracts/FlashLoanOriol.sol\":1138:1186  swapContract = SwapContract(_dexContractAddress) */\n  0x0100\n  exp\n  dup2\n  sload\n  dup2\n  0xffffffffffffffffffffffffffffffffffffffff\n  mul\n  not\n  and\n  swap1\n  dup4\n  0xffffffffffffffffffffffffffffffffffffffff\n  and\n  mul\n  or\n  swap1\n  sstore\n  pop\n    /* \"contracts/FlashLoanOriol.sol\":835:1193  constructor(address _addressProvider, address _dexContractAddress)... */\n  pop\n  pop\n    /* \"contracts/FlashLoanOriol.sol\":547:5177  contract FlashLoanOriol is FlashLoanSimpleReceiverBase {... */\n  jump(tag_12)\n    /* \"#utility.yul\":88:205   */\ntag_14:\n    /* \"#utility.yul\":197:198   */\n  0x00\n    /* \"#utility.yul\":194:195   */\n  dup1\n    /* \"#utility.yul\":187:199   */\n  revert\n    /* \"#utility.yul\":334:460   */\ntag_16:\n    /* \"#utility.yul\":371:378   */\n  0x00\n    /* \"#utility.yul\":411:453   */\n  0xffffffffffffffffffffffffffffffffffffffff\n    /* \"#utility.yul\":404:409   */\n  dup3\n    /* \"#utility.yul\":400:454   */\n  and\n    /* \"#utility.yul\":389:454   */\n  swap1\n  pop\n    /* \"#utility.yul\":334:460   */\n  swap2\n  swap1\n  pop\n  jump\t// out\n    /* \"#utility.yul\":466:562   */\ntag_17:\n    /* \"#utility.yul\":503:510   */\n  0x00\n    /* \"#utility.yul\":532:556   */\n  tag_26\n    /* \"#utility.yul\":550:555   */\n  dup3\n    /* \"#utility.yul\":532:556   */\n  tag_16\n  jump\t// in\ntag_26:\n    /* \"#utility.yul\":521:556   */\n  swap1\n  pop\n    /* \"#utility.yul\":466:562   */\n  swap2\n  swap1\n  pop\n  jump\t// out\n    /* \"#utility.yul\":568:690   */\ntag_18:\n    /* \"#utility.yul\":641:665   */\n  tag_28\n    /* \"#utility.yul\":659:664   */\n  dup2\n    /* \"#utility.yul\":641:665   */\n  tag_17\n  jump\t// in\ntag_28:\n    /* \"#utility.yul\":634:639   */\n  dup2\n    /* \"#utility.yul\":631:666   */\n  eq\n    /* \"#utility.yul\":621:684   */\n  tag_29\n  jumpi\n    /* \"#utility.yul\":680:681   */\n  0x00\n    /* \"#utility.yul\":677:678   */\n  dup1\n    /* \"#utility.yul\":670:682   */\n  revert\n    /* \"#utility.yul\":621:684   */\ntag_29:\n    /* \"#utility.yul\":568:690   */\n  pop\n  jump\t// out\n    /* \"#utility.yul\":696:839   */\ntag_19:\n    /* \"#utility.yul\":753:758   */\n  0x00\n    /* \"#utility.yul\":784:790   */\n  dup2\n    /* \"#utility.yul\":778:791   */\n  mload\n    /* \"#utility.yul\":769:791   */\n  swap1\n  pop\n    /* \"#utility.yul\":800:833   */\n  tag_31\n    /* \"#utility.yul\":827:832   */\n  dup2\n    /* \"#utility.yul\":800:833   */\n  tag_18\n  jump\t// in\ntag_31:\n    /* \"#utility.yul\":696:839   */\n  swap3\n  swap2\n  pop\n  pop\n  jump\t// out\n    /* \"#utility.yul\":845:1352   */\ntag_3:\n    /* \"#utility.yul\":924:930   */\n  0x00\n    /* \"#utility.yul\":932:938   */\n  dup1\n    /* \"#utility.yul\":981:983   */\n  0x40\n    /* \"#utility.yul\":969:978   */\n  dup4\n    /* \"#utility.yul\":960:967   */\n  dup6\n    /* \"#utility.yul\":956:979   */\n  sub\n    /* \"#utility.yul\":952:984   */\n  slt\n    /* \"#utility.yul\":949:1068   */\n  iszero\n  tag_33\n  jumpi\n    /* \"#utility.yul\":987:1066   */\n  tag_34\n  tag_14\n  jump\t// in\ntag_34:\n    /* \"#utility.yul\":949:1068   */\ntag_33:\n    /* \"#utility.yul\":1107:1108   */\n  0x00\n    /* \"#utility.yul\":1132:1196   */\n  tag_35\n    /* \"#utility.yul\":1188:1195   */\n  dup6\n    /* \"#utility.yul\":1179:1185   */\n  dup3\n    /* \"#utility.yul\":1168:1177   */\n  dup7\n    /* \"#utility.yul\":1164:1186   */\n  add\n    /* \"#utility.yul\":1132:1196   */\n  tag_19\n  jump\t// in\ntag_35:\n    /* \"#utility.yul\":1122:1196   */\n  swap3\n  pop\n    /* \"#utility.yul\":1078:1206   */\n  pop\n    /* \"#utility.yul\":1245:1247   */\n  0x20\n    /* \"#utility.yul\":1271:1335   */\n  tag_36\n    /* \"#utility.yul\":1327:1334   */\n  dup6\n    /* \"#utility.yul\":1318:1324   */\n  dup3\n    /* \"#utility.yul\":1307:1316   */\n  dup7\n    /* \"#utility.yul\":1303:1325   */\n  add\n    /* \"#utility.yul\":1271:1335   */\n  tag_19\n  jump\t// in\ntag_36:\n    /* \"#utility.yul\":1261:1335   */\n  swap2\n  pop\n    /* \"#utility.yul\":1216:1345   */\n  pop\n    /* \"#utility.yul\":845:1352   */\n  swap3\n  pop\n  swap3\n  swap1\n  pop\n  jump\t// out\n    /* \"#utility.yul\":1358:1709   */\ntag_10:\n    /* \"#utility.yul\":1428:1434   */\n  0x00\n    /* \"#utility.yul\":1477:1479   */\n  0x20\n    /* \"#utility.yul\":1465:1474   */\n  dup3\n    /* \"#utility.yul\":1456:1463   */\n  dup5\n    /* \"#utility.yul\":1452:1475   */\n  sub\n    /* \"#utility.yul\":1448:1480   */\n  slt\n    /* \"#utility.yul\":1445:1564   */\n  iszero\n  tag_38\n  jumpi\n    /* \"#utility.yul\":1483:1562   */\n  tag_39\n  tag_14\n  jump\t// in\ntag_39:\n    /* \"#utility.yul\":1445:1564   */\ntag_38:\n    /* \"#utility.yul\":1603:1604   */\n  0x00\n    /* \"#utility.yul\":1628:1692   */\n  tag_40\n    /* \"#utility.yul\":1684:1691   */\n  dup5\n    /* \"#utility.yul\":1675:1681   */\n  dup3\n    /* \"#utility.yul\":1664:1673   */\n  dup6\n    /* \"#utility.yul\":1660:1682   */\n  add\n    /* \"#utility.yul\":1628:1692   */\n  tag_19\n  jump\t// in\ntag_40:\n    /* \"#utility.yul\":1618:1692   */\n  swap2\n  pop\n    /* \"#utility.yul\":1574:1702   */\n  pop\n    /* \"#utility.yul\":1358:1709   */\n  swap3\n  swap2\n  pop\n  pop\n  jump\t// out\n    /* \"contracts/FlashLoanOriol.sol\":547:5177  contract FlashLoanOriol is FlashLoanSimpleReceiverBase {... */\ntag_12:\n  mload(0x80)\n  mload(0xa0)\n  codecopy(0x00, dataOffset(sub_0), dataSize(sub_0))\n  0x00\n  assignImmutable(\"0xdab92d3cfd2fb10847c732668f5be4f526313d660461529e6720c950cca9ea28\")\n  0x00\n  assignImmutable(\"0xaf057546d61dd28804ca035e688a36db5f311bb8c4c9d2e1e5e44c0555cfe3bf\")\n  return(0x00, dataSize(sub_0))\nstop\n\nsub_0: assembly {\n        /* \"contracts/FlashLoanOriol.sol\":547:5177  contract FlashLoanOriol is FlashLoanSimpleReceiverBase {... */\n      mstore(0x40, 0x80)\n      jumpi(tag_1, lt(calldatasize, 0x04))\n      shr(0xe0, calldataload(0x00))\n      dup1\n      0x51cff8d9\n      gt\n      tag_13\n      jumpi\n      dup1\n      0x51cff8d9\n      eq\n      tag_8\n      jumpi\n      dup1\n      0x7535d246\n      eq\n      tag_9\n      jumpi\n      dup1\n      0x9d585f7f\n      eq\n      tag_10\n      jumpi\n      dup1\n      0xa9448971\n      eq\n      tag_11\n      jumpi\n      dup1\n      0xf8b2cb4f\n      eq\n      tag_12\n      jumpi\n      jump(tag_2)\n    tag_13:\n      dup1\n      0x0542975c\n      eq\n      tag_3\n      jumpi\n      dup1\n      0x11236758\n      eq\n      tag_4\n      jumpi\n      dup1\n      0x1b11d0ff\n      eq\n      tag_5\n      jumpi\n      dup1\n      0x1d4794d0\n      eq\n      tag_6\n      jumpi\n      dup1\n      0x4f64b2be\n      eq\n      tag_7\n      jumpi\n      jump(tag_2)\n    tag_1:\n      jumpi(tag_2, calldatasize)\n      stop\n    tag_2:\n      0x00\n      dup1\n      revert\n        /* \"@aave/core-v3/contracts/flashloan/base/FlashLoanSimpleReceiverBase.sol\":489:556  IPoolAddressesProvider public immutable override ADDRESSES_PROVIDER */\n    tag_3:\n      callvalue\n      dup1\n      iszero\n      tag_16\n      jumpi\n      0x00\n      dup1\n      revert\n    tag_16:\n      pop\n      tag_17\n      tag_18\n      jump\t// in\n    tag_17:\n      mload(0x40)\n      tag_19\n      swap2\n      swap1\n      tag_20\n      jump\t// in\n    tag_19:\n      mload(0x40)\n      dup1\n      swap2\n      sub\n      swap1\n      return\n        /* \"contracts/FlashLoanOriol.sol\":765:789  uint24[] public poolFees */\n    tag_4:\n      callvalue\n      dup1\n      iszero\n      tag_21\n      jumpi\n      0x00\n      dup1\n      revert\n    tag_21:\n      pop\n      tag_22\n      0x04\n      dup1\n      calldatasize\n      sub\n      dup2\n      add\n      swap1\n      tag_23\n      swap2\n      swap1\n      tag_24\n      jump\t// in\n    tag_23:\n      tag_25\n      jump\t// in\n    tag_22:\n      mload(0x40)\n      tag_26\n      swap2\n      swap1\n      tag_27\n      jump\t// in\n    tag_26:\n      mload(0x40)\n      dup1\n      swap2\n      sub\n      swap1\n      return\n        /* \"contracts/FlashLoanOriol.sol\":1372:3114  function executeOperation(... */\n    tag_5:\n      callvalue\n      dup1\n      iszero\n      tag_28\n      jumpi\n      0x00\n      dup1\n      revert\n    tag_28:\n      pop\n      tag_29\n      0x04\n      dup1\n      calldatasize\n      sub\n      dup2\n      add\n      swap1\n      tag_30\n      swap2\n      swap1\n      tag_31\n      jump\t// in\n    tag_30:\n      tag_32\n      jump\t// in\n    tag_29:\n      mload(0x40)\n      tag_33\n      swap2\n      swap1\n      tag_34\n      jump\t// in\n    tag_33:\n      mload(0x40)\n      dup1\n      swap2\n      sub\n      swap1\n      return\n        /* \"contracts/FlashLoanOriol.sol\":731:759  address[] public swapRouters */\n    tag_6:\n      callvalue\n      dup1\n      iszero\n      tag_35\n      jumpi\n      0x00\n      dup1\n      revert\n    tag_35:\n      pop\n      tag_36\n      0x04\n      dup1\n      calldatasize\n      sub\n      dup2\n      add\n      swap1\n      tag_37\n      swap2\n      swap1\n      tag_24\n      jump\t// in\n    tag_37:\n      tag_38\n      jump\t// in\n    tag_36:\n      mload(0x40)\n      tag_39\n      swap2\n      swap1\n      tag_40\n      jump\t// in\n    tag_39:\n      mload(0x40)\n      dup1\n      swap2\n      sub\n      swap1\n      return\n        /* \"contracts/FlashLoanOriol.sol\":702:725  address[] public tokens */\n    tag_7:\n      callvalue\n      dup1\n      iszero\n      tag_41\n      jumpi\n      0x00\n      dup1\n      revert\n    tag_41:\n      pop\n      tag_42\n      0x04\n      dup1\n      calldatasize\n      sub\n      dup2\n      add\n      swap1\n      tag_43\n      swap2\n      swap1\n      tag_24\n      jump\t// in\n    tag_43:\n      tag_44\n      jump\t// in\n    tag_42:\n      mload(0x40)\n      tag_45\n      swap2\n      swap1\n      tag_40\n      jump\t// in\n    tag_45:\n      mload(0x40)\n      dup1\n      swap2\n      sub\n      swap1\n      return\n        /* \"contracts/FlashLoanOriol.sol\":4792:4973  function withdraw(address _tokenAddress) external onlyOwner {... */\n    tag_8:\n      callvalue\n      dup1\n      iszero\n      tag_46\n      jumpi\n      0x00\n      dup1\n      revert\n    tag_46:\n      pop\n      tag_47\n      0x04\n      dup1\n      calldatasize\n      sub\n      dup2\n      add\n      swap1\n      tag_48\n      swap2\n      swap1\n      tag_49\n      jump\t// in\n    tag_48:\n      tag_50\n      jump\t// in\n    tag_47:\n      stop\n        /* \"@aave/core-v3/contracts/flashloan/base/FlashLoanSimpleReceiverBase.sol\":560:596  IPool public immutable override POOL */\n    tag_9:\n      callvalue\n      dup1\n      iszero\n      tag_51\n      jumpi\n      0x00\n      dup1\n      revert\n    tag_51:\n      pop\n      tag_52\n      tag_53\n      jump\t// in\n    tag_52:\n      mload(0x40)\n      tag_54\n      swap2\n      swap1\n      tag_55\n      jump\t// in\n    tag_54:\n      mload(0x40)\n      dup1\n      swap2\n      sub\n      swap1\n      return\n        /* \"contracts/FlashLoanOriol.sol\":671:696  uint256 public loanAmount */\n    tag_10:\n      callvalue\n      dup1\n      iszero\n      tag_56\n      jumpi\n      0x00\n      dup1\n      revert\n    tag_56:\n      pop\n      tag_57\n      tag_58\n      jump\t// in\n    tag_57:\n      mload(0x40)\n      tag_59\n      swap2\n      swap1\n      tag_60\n      jump\t// in\n    tag_59:\n      mload(0x40)\n      dup1\n      swap2\n      sub\n      swap1\n      return\n        /* \"contracts/FlashLoanOriol.sol\":3613:4635  function requestFlashLoanArbitrageSimple(... */\n    tag_11:\n      callvalue\n      dup1\n      iszero\n      tag_61\n      jumpi\n      0x00\n      dup1\n      revert\n    tag_61:\n      pop\n      tag_62\n      0x04\n      dup1\n      calldatasize\n      sub\n      dup2\n      add\n      swap1\n      tag_63\n      swap2\n      swap1\n      tag_64\n      jump\t// in\n    tag_63:\n      tag_65\n      jump\t// in\n    tag_62:\n      stop\n        /* \"contracts/FlashLoanOriol.sol\":4641:4786  function getBalance(address _tokenAddress) external view returns (uint256) {... */\n    tag_12:\n      callvalue\n      dup1\n      iszero\n      tag_66\n      jumpi\n      0x00\n      dup1\n      revert\n    tag_66:\n      pop\n      tag_67\n      0x04\n      dup1\n      calldatasize\n      sub\n      dup2\n      add\n      swap1\n      tag_68\n      swap2\n      swap1\n      tag_49\n      jump\t// in\n    tag_68:\n      tag_69\n      jump\t// in\n    tag_67:\n      mload(0x40)\n      tag_70\n      swap2\n      swap1\n      tag_60\n      jump\t// in\n    tag_70:\n      mload(0x40)\n      dup1\n      swap2\n      sub\n      swap1\n      return\n        /* \"@aave/core-v3/contracts/flashloan/base/FlashLoanSimpleReceiverBase.sol\":489:556  IPoolAddressesProvider public immutable override ADDRESSES_PROVIDER */\n    tag_18:\n      immutable(\"0xaf057546d61dd28804ca035e688a36db5f311bb8c4c9d2e1e5e44c0555cfe3bf\")\n      dup2\n      jump\t// out\n        /* \"contracts/FlashLoanOriol.sol\":765:789  uint24[] public poolFees */\n    tag_25:\n      0x04\n      dup2\n      dup2\n      sload\n      dup2\n      lt\n      tag_71\n      jumpi\n      0x00\n      dup1\n      revert\n    tag_71:\n      swap1\n      0x00\n      mstore\n      keccak256(0x00, 0x20)\n      swap1\n      0x0a\n      swap2\n      dup3\n      dup3\n      div\n      add\n      swap2\n      swap1\n      mod\n      0x03\n      mul\n      swap2\n      pop\n      sload\n      swap1\n      0x0100\n      exp\n      swap1\n      div\n      0xffffff\n      and\n      dup2\n      jump\t// out\n        /* \"contracts/FlashLoanOriol.sol\":1372:3114  function executeOperation(... */\n    tag_32:\n        /* \"contracts/FlashLoanOriol.sol\":1668:1672  bool */\n      0x00\n        /* \"contracts/FlashLoanOriol.sol\":1713:1717  this */\n      address\n        /* \"contracts/FlashLoanOriol.sol\":1692:1718  initiator == address(this) */\n      0xffffffffffffffffffffffffffffffffffffffff\n      and\n        /* \"contracts/FlashLoanOriol.sol\":1692:1701  initiator */\n      dup5\n        /* \"contracts/FlashLoanOriol.sol\":1692:1718  initiator == address(this) */\n      0xffffffffffffffffffffffffffffffffffffffff\n      and\n      eq\n        /* \"contracts/FlashLoanOriol.sol\":1684:1754  require(initiator == address(this), \"Initiator must be this contract\") */\n      tag_74\n      jumpi\n      mload(0x40)\n      0x08c379a000000000000000000000000000000000000000000000000000000000\n      dup2\n      mstore\n      0x04\n      add\n      tag_75\n      swap1\n      tag_76\n      jump\t// in\n    tag_75:\n      mload(0x40)\n      dup1\n      swap2\n      sub\n      swap1\n      revert\n    tag_74:\n        /* \"contracts/FlashLoanOriol.sol\":1794:1798  POOL */\n      immutable(\"0xdab92d3cfd2fb10847c732668f5be4f526313d660461529e6720c950cca9ea28\")\n        /* \"contracts/FlashLoanOriol.sol\":1772:1799  msg.sender == address(POOL) */\n      0xffffffffffffffffffffffffffffffffffffffff\n      and\n        /* \"contracts/FlashLoanOriol.sol\":1772:1782  msg.sender */\n      caller\n        /* \"contracts/FlashLoanOriol.sol\":1772:1799  msg.sender == address(POOL) */\n      0xffffffffffffffffffffffffffffffffffffffff\n      and\n      eq\n        /* \"contracts/FlashLoanOriol.sol\":1764:1828  require(msg.sender == address(POOL), \"Call must come from POOL\") */\n      tag_77\n      jumpi\n      mload(0x40)\n      0x08c379a000000000000000000000000000000000000000000000000000000000\n      dup2\n      mstore\n      0x04\n      add\n      tag_78\n      swap1\n      tag_79\n      jump\t// in\n    tag_78:\n      mload(0x40)\n      dup1\n      swap2\n      sub\n      swap1\n      revert\n    tag_77:\n        /* \"contracts/FlashLoanOriol.sol\":1855:1861  tokens */\n      0x02\n        /* \"contracts/FlashLoanOriol.sol\":1862:1863  0 */\n      0x00\n        /* \"contracts/FlashLoanOriol.sol\":1855:1864  tokens[0] */\n      dup2\n      sload\n      dup2\n      lt\n      tag_80\n      jumpi\n      tag_81\n      tag_82\n      jump\t// in\n    tag_81:\n    tag_80:\n      swap1\n      0x00\n      mstore\n      keccak256(0x00, 0x20)\n      add\n      0x00\n      swap1\n      sload\n      swap1\n      0x0100\n      exp\n      swap1\n      div\n      0xffffffffffffffffffffffffffffffffffffffff\n      and\n        /* \"contracts/FlashLoanOriol.sol\":1846:1864  asset == tokens[0] */\n      0xffffffffffffffffffffffffffffffffffffffff\n      and\n        /* \"contracts/FlashLoanOriol.sol\":1846:1851  asset */\n      dup8\n        /* \"contracts/FlashLoanOriol.sol\":1846:1864  asset == tokens[0] */\n      0xffffffffffffffffffffffffffffffffffffffff\n      and\n      eq\n        /* \"contracts/FlashLoanOriol.sol\":1838:1900  require(asset == tokens[0], \"Asset must match the loan token\") */\n      tag_84\n      jumpi\n      mload(0x40)\n      0x08c379a000000000000000000000000000000000000000000000000000000000\n      dup2\n      mstore\n      0x04\n      add\n      tag_85\n      swap1\n      tag_86\n      jump\t// in\n    tag_85:\n      mload(0x40)\n      dup1\n      swap2\n      sub\n      swap1\n      revert\n    tag_84:\n        /* \"contracts/FlashLoanOriol.sol\":2002:2008  tokens */\n      0x02\n        /* \"contracts/FlashLoanOriol.sol\":2009:2010  0 */\n      0x00\n        /* \"contracts/FlashLoanOriol.sol\":2002:2011  tokens[0] */\n      dup2\n      sload\n      dup2\n      lt\n      tag_87\n      jumpi\n      tag_88\n      tag_82\n      jump\t// in\n    tag_88:\n    tag_87:\n      swap1\n      0x00\n      mstore\n      keccak256(0x00, 0x20)\n      add\n      0x00\n      swap1\n      sload\n      swap1\n      0x0100\n      exp\n      swap1\n      div\n      0xffffffffffffffffffffffffffffffffffffffff\n      and\n        /* \"contracts/FlashLoanOriol.sol\":1995:2020  IERC20(tokens[0]).approve */\n      0xffffffffffffffffffffffffffffffffffffffff\n      and\n      0x095ea7b3\n        /* \"contracts/FlashLoanOriol.sol\":2029:2041  swapContract */\n      0x05\n      0x00\n      swap1\n      sload\n      swap1\n      0x0100\n      exp\n      swap1\n      div\n      0xffffffffffffffffffffffffffffffffffffffff\n      and\n        /* \"contracts/FlashLoanOriol.sol\":2044:2050  amount */\n      dup9\n        /* \"contracts/FlashLoanOriol.sol\":1995:2051  IERC20(tokens[0]).approve(address(swapContract), amount) */\n      mload(0x40)\n      dup4\n      0xffffffff\n      and\n      0xe0\n      shl\n      dup2\n      mstore\n      0x04\n      add\n      tag_90\n      swap3\n      swap2\n      swap1\n      tag_91\n      jump\t// in\n    tag_90:\n      0x20\n      mload(0x40)\n      dup1\n      dup4\n      sub\n      dup2\n      0x00\n      dup8\n      gas\n      call\n      iszero\n      dup1\n      iszero\n      tag_93\n      jumpi\n      returndatasize\n      0x00\n      dup1\n      returndatacopy\n      revert(0x00, returndatasize)\n    tag_93:\n      pop\n      pop\n      pop\n      pop\n      mload(0x40)\n      returndatasize\n      not(0x1f)\n      0x1f\n      dup3\n      add\n      and\n      dup3\n      add\n      dup1\n      0x40\n      mstore\n      pop\n      dup2\n      add\n      swap1\n      tag_94\n      swap2\n      swap1\n      tag_95\n      jump\t// in\n    tag_94:\n      pop\n        /* \"contracts/FlashLoanOriol.sol\":2062:2079  uint256 amountOut */\n      0x00\n        /* \"contracts/FlashLoanOriol.sol\":2082:2094  swapContract */\n      0x05\n      0x00\n      swap1\n      sload\n      swap1\n      0x0100\n      exp\n      swap1\n      div\n      0xffffffffffffffffffffffffffffffffffffffff\n      and\n        /* \"contracts/FlashLoanOriol.sol\":2082:2105  swapContract.swapSingle */\n      0xffffffffffffffffffffffffffffffffffffffff\n      and\n      0xf6e8f4ff\n        /* \"contracts/FlashLoanOriol.sol\":2119:2125  tokens */\n      0x02\n        /* \"contracts/FlashLoanOriol.sol\":2126:2127  0 */\n      0x00\n        /* \"contracts/FlashLoanOriol.sol\":2119:2128  tokens[0] */\n      dup2\n      sload\n      dup2\n      lt\n      tag_96\n      jumpi\n      tag_97\n      tag_82\n      jump\t// in\n    tag_97:\n    tag_96:\n      swap1\n      0x00\n      mstore\n      keccak256(0x00, 0x20)\n      add\n      0x00\n      swap1\n      sload\n      swap1\n      0x0100\n      exp\n      swap1\n      div\n      0xffffffffffffffffffffffffffffffffffffffff\n      and\n        /* \"contracts/FlashLoanOriol.sol\":2142:2148  tokens */\n      0x02\n        /* \"contracts/FlashLoanOriol.sol\":2149:2150  1 */\n      0x01\n        /* \"contracts/FlashLoanOriol.sol\":2142:2151  tokens[1] */\n      dup2\n      sload\n      dup2\n      lt\n      tag_99\n      jumpi\n      tag_100\n      tag_82\n      jump\t// in\n    tag_100:\n    tag_99:\n      swap1\n      0x00\n      mstore\n      keccak256(0x00, 0x20)\n      add\n      0x00\n      swap1\n      sload\n      swap1\n      0x0100\n      exp\n      swap1\n      div\n      0xffffffffffffffffffffffffffffffffffffffff\n      and\n        /* \"contracts/FlashLoanOriol.sol\":2233:2244  swapRouters */\n      0x03\n        /* \"contracts/FlashLoanOriol.sol\":2245:2246  0 */\n      0x00\n        /* \"contracts/FlashLoanOriol.sol\":2233:2247  swapRouters[0] */\n      dup2\n      sload\n      dup2\n      lt\n      tag_102\n      jumpi\n      tag_103\n      tag_82\n      jump\t// in\n    tag_103:\n    tag_102:\n      swap1\n      0x00\n      mstore\n      keccak256(0x00, 0x20)\n      add\n      0x00\n      swap1\n      sload\n      swap1\n      0x0100\n      exp\n      swap1\n      div\n      0xffffffffffffffffffffffffffffffffffffffff\n      and\n        /* \"contracts/FlashLoanOriol.sol\":2318:2324  amount */\n      dup12\n        /* \"contracts/FlashLoanOriol.sol\":2372:2380  poolFees */\n      0x04\n        /* \"contracts/FlashLoanOriol.sol\":2381:2382  0 */\n      0x00\n        /* \"contracts/FlashLoanOriol.sol\":2372:2383  poolFees[0] */\n      dup2\n      sload\n      dup2\n      lt\n      tag_105\n      jumpi\n      tag_106\n      tag_82\n      jump\t// in\n    tag_106:\n    tag_105:\n      swap1\n      0x00\n      mstore\n      keccak256(0x00, 0x20)\n      swap1\n      0x0a\n      swap2\n      dup3\n      dup3\n      div\n      add\n      swap2\n      swap1\n      mod\n      0x03\n      mul\n      swap1\n      sload\n      swap1\n      0x0100\n      exp\n      swap1\n      div\n      0xffffff\n      and\n        /* \"contracts/FlashLoanOriol.sol\":2082:2414  swapContract.swapSingle(... */\n      mload(0x40)\n      dup7\n      0xffffffff\n      and\n      0xe0\n      shl\n      dup2\n      mstore\n      0x04\n      add\n      tag_108\n      swap6\n      swap5\n      swap4\n      swap3\n      swap2\n      swap1\n      tag_109\n      jump\t// in\n    tag_108:\n      0x20\n      mload(0x40)\n      dup1\n      dup4\n      sub\n      dup2\n      0x00\n      dup8\n      gas\n      call\n      iszero\n      dup1\n      iszero\n      tag_111\n      jumpi\n      returndatasize\n      0x00\n      dup1\n      returndatacopy\n      revert(0x00, returndatasize)\n    tag_111:\n      pop\n      pop\n      pop\n      pop\n      mload(0x40)\n      returndatasize\n      not(0x1f)\n      0x1f\n      dup3\n      add\n      and\n      dup3\n      add\n      dup1\n      0x40\n      mstore\n      pop\n      dup2\n      add\n      swap1\n      tag_112\n      swap2\n      swap1\n      tag_113\n      jump\t// in\n    tag_112:\n        /* \"contracts/FlashLoanOriol.sol\":2062:2414  uint256 amountOut = swapContract.swapSingle(... */\n      swap1\n      pop\n        /* \"contracts/FlashLoanOriol.sol\":2516:2522  tokens */\n      0x02\n        /* \"contracts/FlashLoanOriol.sol\":2523:2524  1 */\n      0x01\n        /* \"contracts/FlashLoanOriol.sol\":2516:2525  tokens[1] */\n      dup2\n      sload\n      dup2\n      lt\n      tag_114\n      jumpi\n      tag_115\n      tag_82\n      jump\t// in\n    tag_115:\n    tag_114:\n      swap1\n      0x00\n      mstore\n      keccak256(0x00, 0x20)\n      add\n      0x00\n      swap1\n      sload\n      swap1\n      0x0100\n      exp\n      swap1\n      div\n      0xffffffffffffffffffffffffffffffffffffffff\n      and\n        /* \"contracts/FlashLoanOriol.sol\":2509:2534  IERC20(tokens[1]).approve */\n      0xffffffffffffffffffffffffffffffffffffffff\n      and\n      0x095ea7b3\n        /* \"contracts/FlashLoanOriol.sol\":2543:2555  swapContract */\n      0x05\n      0x00\n      swap1\n      sload\n      swap1\n      0x0100\n      exp\n      swap1\n      div\n      0xffffffffffffffffffffffffffffffffffffffff\n      and\n        /* \"contracts/FlashLoanOriol.sol\":2558:2567  amountOut */\n      dup4\n        /* \"contracts/FlashLoanOriol.sol\":2509:2568  IERC20(tokens[1]).approve(address(swapContract), amountOut) */\n      mload(0x40)\n      dup4\n      0xffffffff\n      and\n      0xe0\n      shl\n      dup2\n      mstore\n      0x04\n      add\n      tag_117\n      swap3\n      swap2\n      swap1\n      tag_91\n      jump\t// in\n    tag_117:\n      0x20\n      mload(0x40)\n      dup1\n      dup4\n      sub\n      dup2\n      0x00\n      dup8\n      gas\n      call\n      iszero\n      dup1\n      iszero\n      tag_119\n      jumpi\n      returndatasize\n      0x00\n      dup1\n      returndatacopy\n      revert(0x00, returndatasize)\n    tag_119:\n      pop\n      pop\n      pop\n      pop\n      mload(0x40)\n      returndatasize\n      not(0x1f)\n      0x1f\n      dup3\n      add\n      and\n      dup3\n      add\n      dup1\n      0x40\n      mstore\n      pop\n      dup2\n      add\n      swap1\n      tag_120\n      swap2\n      swap1\n      tag_95\n      jump\t// in\n    tag_120:\n      pop\n        /* \"contracts/FlashLoanOriol.sol\":2579:2591  swapContract */\n      0x05\n      0x00\n      swap1\n      sload\n      swap1\n      0x0100\n      exp\n      swap1\n      div\n      0xffffffffffffffffffffffffffffffffffffffff\n      and\n        /* \"contracts/FlashLoanOriol.sol\":2579:2602  swapContract.swapSingle */\n      0xffffffffffffffffffffffffffffffffffffffff\n      and\n      0xf6e8f4ff\n        /* \"contracts/FlashLoanOriol.sol\":2616:2622  tokens */\n      0x02\n        /* \"contracts/FlashLoanOriol.sol\":2623:2624  1 */\n      0x01\n        /* \"contracts/FlashLoanOriol.sol\":2616:2625  tokens[1] */\n      dup2\n      sload\n      dup2\n      lt\n      tag_121\n      jumpi\n      tag_122\n      tag_82\n      jump\t// in\n    tag_122:\n    tag_121:\n      swap1\n      0x00\n      mstore\n      keccak256(0x00, 0x20)\n      add\n      0x00\n      swap1\n      sload\n      swap1\n      0x0100\n      exp\n      swap1\n      div\n      0xffffffffffffffffffffffffffffffffffffffff\n      and\n        /* \"contracts/FlashLoanOriol.sol\":2639:2645  tokens */\n      0x02\n        /* \"contracts/FlashLoanOriol.sol\":2646:2647  0 */\n      0x00\n        /* \"contracts/FlashLoanOriol.sol\":2639:2648  tokens[0] */\n      dup2\n      sload\n      dup2\n      lt\n      tag_124\n      jumpi\n      tag_125\n      tag_82\n      jump\t// in\n    tag_125:\n    tag_124:\n      swap1\n      0x00\n      mstore\n      keccak256(0x00, 0x20)\n      add\n      0x00\n      swap1\n      sload\n      swap1\n      0x0100\n      exp\n      swap1\n      div\n      0xffffffffffffffffffffffffffffffffffffffff\n      and\n        /* \"contracts/FlashLoanOriol.sol\":2730:2741  swapRouters */\n      0x03\n        /* \"contracts/FlashLoanOriol.sol\":2742:2743  1 */\n      0x01\n        /* \"contracts/FlashLoanOriol.sol\":2730:2744  swapRouters[1] */\n      dup2\n      sload\n      dup2\n      lt\n      tag_127\n      jumpi\n      tag_128\n      tag_82\n      jump\t// in\n    tag_128:\n    tag_127:\n      swap1\n      0x00\n      mstore\n      keccak256(0x00, 0x20)\n      add\n      0x00\n      swap1\n      sload\n      swap1\n      0x0100\n      exp\n      swap1\n      div\n      0xffffffffffffffffffffffffffffffffffffffff\n      and\n        /* \"contracts/FlashLoanOriol.sol\":2815:2824  amountOut */\n      dup6\n        /* \"contracts/FlashLoanOriol.sol\":2872:2880  poolFees */\n      0x04\n        /* \"contracts/FlashLoanOriol.sol\":2881:2882  1 */\n      0x01\n        /* \"contracts/FlashLoanOriol.sol\":2872:2883  poolFees[1] */\n      dup2\n      sload\n      dup2\n      lt\n      tag_130\n      jumpi\n      tag_131\n      tag_82\n      jump\t// in\n    tag_131:\n    tag_130:\n      swap1\n      0x00\n      mstore\n      keccak256(0x00, 0x20)\n      swap1\n      0x0a\n      swap2\n      dup3\n      dup3\n      div\n      add\n      swap2\n      swap1\n      mod\n      0x03\n      mul\n      swap1\n      sload\n      swap1\n      0x0100\n      exp\n      swap1\n      div\n      0xffffff\n      and\n        /* \"contracts/FlashLoanOriol.sol\":2579:2914  swapContract.swapSingle(... */\n      mload(0x40)\n      dup7\n      0xffffffff\n      and\n      0xe0\n      shl\n      dup2\n      mstore\n      0x04\n      add\n      tag_133\n      swap6\n      swap5\n      swap4\n      swap3\n      swap2\n      swap1\n      tag_109\n      jump\t// in\n    tag_133:\n      0x20\n      mload(0x40)\n      dup1\n      dup4\n      sub\n      dup2\n      0x00\n      dup8\n      gas\n      call\n      iszero\n      dup1\n      iszero\n      tag_135\n      jumpi\n      returndatasize\n      0x00\n      dup1\n      returndatacopy\n      revert(0x00, returndatasize)\n    tag_135:\n      pop\n      pop\n      pop\n      pop\n      mload(0x40)\n      returndatasize\n      not(0x1f)\n      0x1f\n      dup3\n      add\n      and\n      dup3\n      add\n      dup1\n      0x40\n      mstore\n      pop\n      dup2\n      add\n      swap1\n      tag_136\n      swap2\n      swap1\n      tag_113\n      jump\t// in\n    tag_136:\n      pop\n        /* \"contracts/FlashLoanOriol.sol\":2990:3008  uint256 amountOwed */\n      0x00\n        /* \"contracts/FlashLoanOriol.sol\":3020:3027  premium */\n      dup7\n        /* \"contracts/FlashLoanOriol.sol\":3011:3017  amount */\n      dup9\n        /* \"contracts/FlashLoanOriol.sol\":3011:3027  amount + premium */\n      tag_137\n      swap2\n      swap1\n      tag_138\n      jump\t// in\n    tag_137:\n        /* \"contracts/FlashLoanOriol.sol\":2990:3027  uint256 amountOwed = amount + premium */\n      swap1\n      pop\n        /* \"contracts/FlashLoanOriol.sol\":3044:3049  asset */\n      dup9\n        /* \"contracts/FlashLoanOriol.sol\":3037:3058  IERC20(asset).approve */\n      0xffffffffffffffffffffffffffffffffffffffff\n      and\n      0x095ea7b3\n        /* \"contracts/FlashLoanOriol.sol\":3067:3071  POOL */\n      immutable(\"0xdab92d3cfd2fb10847c732668f5be4f526313d660461529e6720c950cca9ea28\")\n        /* \"contracts/FlashLoanOriol.sol\":3074:3084  amountOwed */\n      dup4\n        /* \"contracts/FlashLoanOriol.sol\":3037:3085  IERC20(asset).approve(address(POOL), amountOwed) */\n      mload(0x40)\n      dup4\n      0xffffffff\n      and\n      0xe0\n      shl\n      dup2\n      mstore\n      0x04\n      add\n      tag_139\n      swap3\n      swap2\n      swap1\n      tag_91\n      jump\t// in\n    tag_139:\n      0x20\n      mload(0x40)\n      dup1\n      dup4\n      sub\n      dup2\n      0x00\n      dup8\n      gas\n      call\n      iszero\n      dup1\n      iszero\n      tag_141\n      jumpi\n      returndatasize\n      0x00\n      dup1\n      returndatacopy\n      revert(0x00, returndatasize)\n    tag_141:\n      pop\n      pop\n      pop\n      pop\n      mload(0x40)\n      returndatasize\n      not(0x1f)\n      0x1f\n      dup3\n      add\n      and\n      dup3\n      add\n      dup1\n      0x40\n      mstore\n      pop\n      dup2\n      add\n      swap1\n      tag_142\n      swap2\n      swap1\n      tag_95\n      jump\t// in\n    tag_142:\n      pop\n        /* \"contracts/FlashLoanOriol.sol\":3103:3107  true */\n      0x01\n        /* \"contracts/FlashLoanOriol.sol\":3096:3107  return true */\n      swap3\n      pop\n      pop\n      pop\n        /* \"contracts/FlashLoanOriol.sol\":1372:3114  function executeOperation(... */\n      swap7\n      swap6\n      pop\n      pop\n      pop\n      pop\n      pop\n      pop\n      jump\t// out\n        /* \"contracts/FlashLoanOriol.sol\":731:759  address[] public swapRouters */\n    tag_38:\n      0x03\n      dup2\n      dup2\n      sload\n      dup2\n      lt\n      tag_143\n      jumpi\n      0x00\n      dup1\n      revert\n    tag_143:\n      swap1\n      0x00\n      mstore\n      keccak256(0x00, 0x20)\n      add\n      0x00\n      swap2\n      pop\n      sload\n      swap1\n      0x0100\n      exp\n      swap1\n      div\n      0xffffffffffffffffffffffffffffffffffffffff\n      and\n      dup2\n      jump\t// out\n        /* \"contracts/FlashLoanOriol.sol\":702:725  address[] public tokens */\n    tag_44:\n      0x02\n      dup2\n      dup2\n      sload\n      dup2\n      lt\n      tag_145\n      jumpi\n      0x00\n      dup1\n      revert\n    tag_145:\n      swap1\n      0x00\n      mstore\n      keccak256(0x00, 0x20)\n      add\n      0x00\n      swap2\n      pop\n      sload\n      swap1\n      0x0100\n      exp\n      swap1\n      div\n      0xffffffffffffffffffffffffffffffffffffffff\n      and\n      dup2\n      jump\t// out\n        /* \"contracts/FlashLoanOriol.sol\":4792:4973  function withdraw(address _tokenAddress) external onlyOwner {... */\n    tag_50:\n        /* \"contracts/FlashLoanOriol.sol\":5045:5050  owner */\n      0x00\n      dup1\n      sload\n      swap1\n      0x0100\n      exp\n      swap1\n      div\n      0xffffffffffffffffffffffffffffffffffffffff\n      and\n        /* \"contracts/FlashLoanOriol.sol\":5031:5050  msg.sender == owner */\n      0xffffffffffffffffffffffffffffffffffffffff\n      and\n        /* \"contracts/FlashLoanOriol.sol\":5031:5041  msg.sender */\n      caller\n        /* \"contracts/FlashLoanOriol.sol\":5031:5050  msg.sender == owner */\n      0xffffffffffffffffffffffffffffffffffffffff\n      and\n      eq\n        /* \"contracts/FlashLoanOriol.sol\":5010:5122  require(... */\n      tag_148\n      jumpi\n      mload(0x40)\n      0x08c379a000000000000000000000000000000000000000000000000000000000\n      dup2\n      mstore\n      0x04\n      add\n      tag_149\n      swap1\n      tag_150\n      jump\t// in\n    tag_149:\n      mload(0x40)\n      dup1\n      swap2\n      sub\n      swap1\n      revert\n    tag_148:\n        /* \"contracts/FlashLoanOriol.sol\":4862:4874  IERC20 token */\n      0x00\n        /* \"contracts/FlashLoanOriol.sol\":4884:4897  _tokenAddress */\n      dup2\n        /* \"contracts/FlashLoanOriol.sol\":4862:4898  IERC20 token = IERC20(_tokenAddress) */\n      swap1\n      pop\n        /* \"contracts/FlashLoanOriol.sol\":4908:4913  token */\n      dup1\n        /* \"contracts/FlashLoanOriol.sol\":4908:4922  token.transfer */\n      0xffffffffffffffffffffffffffffffffffffffff\n      and\n      0xa9059cbb\n        /* \"contracts/FlashLoanOriol.sol\":4923:4933  msg.sender */\n      caller\n        /* \"contracts/FlashLoanOriol.sol\":4935:4940  token */\n      dup4\n        /* \"contracts/FlashLoanOriol.sol\":4935:4950  token.balanceOf */\n      0xffffffffffffffffffffffffffffffffffffffff\n      and\n      0x70a08231\n        /* \"contracts/FlashLoanOriol.sol\":4959:4963  this */\n      address\n        /* \"contracts/FlashLoanOriol.sol\":4935:4965  token.balanceOf(address(this)) */\n      mload(0x40)\n      dup3\n      0xffffffff\n      and\n      0xe0\n      shl\n      dup2\n      mstore\n      0x04\n      add\n      tag_152\n      swap2\n      swap1\n      tag_40\n      jump\t// in\n    tag_152:\n      0x20\n      mload(0x40)\n      dup1\n      dup4\n      sub\n      dup2\n      dup7\n      gas\n      staticcall\n      iszero\n      dup1\n      iszero\n      tag_154\n      jumpi\n      returndatasize\n      0x00\n      dup1\n      returndatacopy\n      revert(0x00, returndatasize)\n    tag_154:\n      pop\n      pop\n      pop\n      pop\n      mload(0x40)\n      returndatasize\n      not(0x1f)\n      0x1f\n      dup3\n      add\n      and\n      dup3\n      add\n      dup1\n      0x40\n      mstore\n      pop\n      dup2\n      add\n      swap1\n      tag_155\n      swap2\n      swap1\n      tag_113\n      jump\t// in\n    tag_155:\n        /* \"contracts/FlashLoanOriol.sol\":4908:4966  token.transfer(msg.sender, token.balanceOf(address(this))) */\n      mload(0x40)\n      dup4\n      0xffffffff\n      and\n      0xe0\n      shl\n      dup2\n      mstore\n      0x04\n      add\n      tag_156\n      swap3\n      swap2\n      swap1\n      tag_91\n      jump\t// in\n    tag_156:\n      0x20\n      mload(0x40)\n      dup1\n      dup4\n      sub\n      dup2\n      0x00\n      dup8\n      gas\n      call\n      iszero\n      dup1\n      iszero\n      tag_158\n      jumpi\n      returndatasize\n      0x00\n      dup1\n      returndatacopy\n      revert(0x00, returndatasize)\n    tag_158:\n      pop\n      pop\n      pop\n      pop\n      mload(0x40)\n      returndatasize\n      not(0x1f)\n      0x1f\n      dup3\n      add\n      and\n      dup3\n      add\n      dup1\n      0x40\n      mstore\n      pop\n      dup2\n      add\n      swap1\n      tag_159\n      swap2\n      swap1\n      tag_95\n      jump\t// in\n    tag_159:\n      pop\n        /* \"contracts/FlashLoanOriol.sol\":4852:4973  {... */\n      pop\n        /* \"contracts/FlashLoanOriol.sol\":4792:4973  function withdraw(address _tokenAddress) external onlyOwner {... */\n      pop\n      jump\t// out\n        /* \"@aave/core-v3/contracts/flashloan/base/FlashLoanSimpleReceiverBase.sol\":560:596  IPool public immutable override POOL */\n    tag_53:\n      immutable(\"0xdab92d3cfd2fb10847c732668f5be4f526313d660461529e6720c950cca9ea28\")\n      dup2\n      jump\t// out\n        /* \"contracts/FlashLoanOriol.sol\":671:696  uint256 public loanAmount */\n    tag_58:\n      sload(0x01)\n      dup2\n      jump\t// out\n        /* \"contracts/FlashLoanOriol.sol\":3613:4635  function requestFlashLoanArbitrageSimple(... */\n    tag_65:\n        /* \"contracts/FlashLoanOriol.sol\":5045:5050  owner */\n      0x00\n      dup1\n      sload\n      swap1\n      0x0100\n      exp\n      swap1\n      div\n      0xffffffffffffffffffffffffffffffffffffffff\n      and\n        /* \"contracts/FlashLoanOriol.sol\":5031:5050  msg.sender == owner */\n      0xffffffffffffffffffffffffffffffffffffffff\n      and\n        /* \"contracts/FlashLoanOriol.sol\":5031:5041  msg.sender */\n      caller\n        /* \"contracts/FlashLoanOriol.sol\":5031:5050  msg.sender == owner */\n      0xffffffffffffffffffffffffffffffffffffffff\n      and\n      eq\n        /* \"contracts/FlashLoanOriol.sol\":5010:5122  require(... */\n      tag_161\n      jumpi\n      mload(0x40)\n      0x08c379a000000000000000000000000000000000000000000000000000000000\n      dup2\n      mstore\n      0x04\n      add\n      tag_162\n      swap1\n      tag_150\n      jump\t// in\n    tag_162:\n      mload(0x40)\n      dup1\n      swap2\n      sub\n      swap1\n      revert\n    tag_161:\n        /* \"contracts/FlashLoanOriol.sol\":3868:3869  2 */\n      0x02\n        /* \"contracts/FlashLoanOriol.sol\":3850:3857  _tokens */\n      dup4\n        /* \"contracts/FlashLoanOriol.sol\":3850:3864  _tokens.length */\n      mload\n        /* \"contracts/FlashLoanOriol.sol\":3850:3869  _tokens.length == 2 */\n      eq\n        /* \"contracts/FlashLoanOriol.sol\":3842:3896  require(_tokens.length == 2, \"Array length must be 2\") */\n      tag_164\n      jumpi\n      mload(0x40)\n      0x08c379a000000000000000000000000000000000000000000000000000000000\n      dup2\n      mstore\n      0x04\n      add\n      tag_165\n      swap1\n      tag_166\n      jump\t// in\n    tag_165:\n      mload(0x40)\n      dup1\n      swap2\n      sub\n      swap1\n      revert\n    tag_164:\n        /* \"contracts/FlashLoanOriol.sol\":3932:3944  _swapRouters */\n      dup2\n        /* \"contracts/FlashLoanOriol.sol\":3932:3951  _swapRouters.length */\n      mload\n        /* \"contracts/FlashLoanOriol.sol\":3914:3921  _tokens */\n      dup4\n        /* \"contracts/FlashLoanOriol.sol\":3914:3928  _tokens.length */\n      mload\n        /* \"contracts/FlashLoanOriol.sol\":3914:3951  _tokens.length == _swapRouters.length */\n      eq\n        /* \"contracts/FlashLoanOriol.sol\":3914:3989  _tokens.length == _swapRouters.length && _tokens.length == _poolFees.length */\n      dup1\n      iszero\n      tag_167\n      jumpi\n      pop\n        /* \"contracts/FlashLoanOriol.sol\":3973:3982  _poolFees */\n      dup1\n        /* \"contracts/FlashLoanOriol.sol\":3973:3989  _poolFees.length */\n      mload\n        /* \"contracts/FlashLoanOriol.sol\":3955:3962  _tokens */\n      dup4\n        /* \"contracts/FlashLoanOriol.sol\":3955:3969  _tokens.length */\n      mload\n        /* \"contracts/FlashLoanOriol.sol\":3955:3989  _tokens.length == _poolFees.length */\n      eq\n        /* \"contracts/FlashLoanOriol.sol\":3914:3989  _tokens.length == _swapRouters.length && _tokens.length == _poolFees.length */\n    tag_167:\n        /* \"contracts/FlashLoanOriol.sol\":3906:4018  require(_tokens.length == _swapRouters.length && _tokens.length == _poolFees.length, \"Array lengths must match\") */\n      tag_168\n      jumpi\n      mload(0x40)\n      0x08c379a000000000000000000000000000000000000000000000000000000000\n      dup2\n      mstore\n      0x04\n      add\n      tag_169\n      swap1\n      tag_170\n      jump\t// in\n    tag_169:\n      mload(0x40)\n      dup1\n      swap2\n      sub\n      swap1\n      revert\n    tag_168:\n        /* \"contracts/FlashLoanOriol.sol\":4099:4106  _amount */\n      dup4\n        /* \"contracts/FlashLoanOriol.sol\":4086:4096  loanAmount */\n      0x01\n        /* \"contracts/FlashLoanOriol.sol\":4086:4106  loanAmount = _amount */\n      dup2\n      swap1\n      sstore\n      pop\n        /* \"contracts/FlashLoanOriol.sol\":4125:4132  _tokens */\n      dup3\n        /* \"contracts/FlashLoanOriol.sol\":4116:4122  tokens */\n      0x02\n        /* \"contracts/FlashLoanOriol.sol\":4116:4132  tokens = _tokens */\n      swap1\n      dup1\n      mload\n      swap1\n      0x20\n      add\n      swap1\n      tag_171\n      swap3\n      swap2\n      swap1\n      tag_172\n      jump\t// in\n    tag_171:\n      pop\n        /* \"contracts/FlashLoanOriol.sol\":4156:4168  _swapRouters */\n      dup2\n        /* \"contracts/FlashLoanOriol.sol\":4142:4153  swapRouters */\n      0x03\n        /* \"contracts/FlashLoanOriol.sol\":4142:4168  swapRouters = _swapRouters */\n      swap1\n      dup1\n      mload\n      swap1\n      0x20\n      add\n      swap1\n      tag_173\n      swap3\n      swap2\n      swap1\n      tag_172\n      jump\t// in\n    tag_173:\n      pop\n        /* \"contracts/FlashLoanOriol.sol\":4189:4198  _poolFees */\n      dup1\n        /* \"contracts/FlashLoanOriol.sol\":4178:4186  poolFees */\n      0x04\n        /* \"contracts/FlashLoanOriol.sol\":4178:4198  poolFees = _poolFees */\n      swap1\n      dup1\n      mload\n      swap1\n      0x20\n      add\n      swap1\n      tag_174\n      swap3\n      swap2\n      swap1\n      tag_175\n      jump\t// in\n    tag_174:\n      pop\n        /* \"contracts/FlashLoanOriol.sol\":4249:4272  address receiverAddress */\n      0x00\n        /* \"contracts/FlashLoanOriol.sol\":4283:4287  this */\n      address\n        /* \"contracts/FlashLoanOriol.sol\":4249:4288  address receiverAddress = address(this) */\n      swap1\n      pop\n        /* \"contracts/FlashLoanOriol.sol\":4298:4317  bytes memory params */\n      0x00\n        /* \"contracts/FlashLoanOriol.sol\":4298:4322  bytes memory params = \"\" */\n      mload(0x40)\n      dup1\n      0x20\n      add\n      0x40\n      mstore\n      dup1\n      0x00\n      dup2\n      mstore\n      pop\n      swap1\n      pop\n        /* \"contracts/FlashLoanOriol.sol\":4389:4408  uint16 referralCode */\n      0x00\n        /* \"contracts/FlashLoanOriol.sol\":4475:4479  POOL */\n      immutable(\"0xdab92d3cfd2fb10847c732668f5be4f526313d660461529e6720c950cca9ea28\")\n        /* \"contracts/FlashLoanOriol.sol\":4475:4495  POOL.flashLoanSimple */\n      0xffffffffffffffffffffffffffffffffffffffff\n      and\n      0x42b0b77c\n        /* \"contracts/FlashLoanOriol.sol\":4509:4524  receiverAddress */\n      dup5\n        /* \"contracts/FlashLoanOriol.sol\":4538:4545  _tokens */\n      dup9\n        /* \"contracts/FlashLoanOriol.sol\":4546:4547  0 */\n      0x00\n        /* \"contracts/FlashLoanOriol.sol\":4538:4548  _tokens[0] */\n      dup2\n      mload\n      dup2\n      lt\n      tag_176\n      jumpi\n      tag_177\n      tag_82\n      jump\t// in\n    tag_177:\n    tag_176:\n      0x20\n      mul\n      0x20\n      add\n      add\n      mload\n        /* \"contracts/FlashLoanOriol.sol\":4562:4572  loanAmount */\n      sload(0x01)\n        /* \"contracts/FlashLoanOriol.sol\":4586:4592  params */\n      dup7\n        /* \"contracts/FlashLoanOriol.sol\":4606:4618  referralCode */\n      dup7\n        /* \"contracts/FlashLoanOriol.sol\":4475:4628  POOL.flashLoanSimple(... */\n      mload(0x40)\n      dup7\n      0xffffffff\n      and\n      0xe0\n      shl\n      dup2\n      mstore\n      0x04\n      add\n      tag_178\n      swap6\n      swap5\n      swap4\n      swap3\n      swap2\n      swap1\n      tag_179\n      jump\t// in\n    tag_178:\n      0x00\n      mload(0x40)\n      dup1\n      dup4\n      sub\n      dup2\n      0x00\n      dup8\n      dup1\n      extcodesize\n      iszero\n      dup1\n      iszero\n      tag_180\n      jumpi\n      0x00\n      dup1\n      revert\n    tag_180:\n      pop\n      gas\n      call\n      iszero\n      dup1\n      iszero\n      tag_182\n      jumpi\n      returndatasize\n      0x00\n      dup1\n      returndatacopy\n      revert(0x00, returndatasize)\n    tag_182:\n      pop\n      pop\n      pop\n      pop\n        /* \"contracts/FlashLoanOriol.sol\":3832:4635  {... */\n      pop\n      pop\n      pop\n        /* \"contracts/FlashLoanOriol.sol\":3613:4635  function requestFlashLoanArbitrageSimple(... */\n      pop\n      pop\n      pop\n      pop\n      jump\t// out\n        /* \"contracts/FlashLoanOriol.sol\":4641:4786  function getBalance(address _tokenAddress) external view returns (uint256) {... */\n    tag_69:\n        /* \"contracts/FlashLoanOriol.sol\":4707:4714  uint256 */\n      0x00\n        /* \"contracts/FlashLoanOriol.sol\":4740:4753  _tokenAddress */\n      dup2\n        /* \"contracts/FlashLoanOriol.sol\":4733:4764  IERC20(_tokenAddress).balanceOf */\n      0xffffffffffffffffffffffffffffffffffffffff\n      and\n      0x70a08231\n        /* \"contracts/FlashLoanOriol.sol\":4773:4777  this */\n      address\n        /* \"contracts/FlashLoanOriol.sol\":4733:4779  IERC20(_tokenAddress).balanceOf(address(this)) */\n      mload(0x40)\n      dup3\n      0xffffffff\n      and\n      0xe0\n      shl\n      dup2\n      mstore\n      0x04\n      add\n      tag_184\n      swap2\n      swap1\n      tag_40\n      jump\t// in\n    tag_184:\n      0x20\n      mload(0x40)\n      dup1\n      dup4\n      sub\n      dup2\n      dup7\n      gas\n      staticcall\n      iszero\n      dup1\n      iszero\n      tag_186\n      jumpi\n      returndatasize\n      0x00\n      dup1\n      returndatacopy\n      revert(0x00, returndatasize)\n    tag_186:\n      pop\n      pop\n      pop\n      pop\n      mload(0x40)\n      returndatasize\n      not(0x1f)\n      0x1f\n      dup3\n      add\n      and\n      dup3\n      add\n      dup1\n      0x40\n      mstore\n      pop\n      dup2\n      add\n      swap1\n      tag_187\n      swap2\n      swap1\n      tag_113\n      jump\t// in\n    tag_187:\n        /* \"contracts/FlashLoanOriol.sol\":4726:4779  return IERC20(_tokenAddress).balanceOf(address(this)) */\n      swap1\n      pop\n        /* \"contracts/FlashLoanOriol.sol\":4641:4786  function getBalance(address _tokenAddress) external view returns (uint256) {... */\n      swap2\n      swap1\n      pop\n      jump\t// out\n    tag_172:\n      dup3\n      dup1\n      sload\n      dup3\n      dup3\n      sstore\n      swap1\n      0x00\n      mstore\n      keccak256(0x00, 0x20)\n      swap1\n      dup2\n      add\n      swap3\n      dup3\n      iszero\n      tag_188\n      jumpi\n      swap2\n      0x20\n      mul\n      dup3\n      add\n    tag_189:\n      dup3\n      dup2\n      gt\n      iszero\n      tag_190\n      jumpi\n      dup3\n      mload\n      dup3\n      exp(0x0100, 0x00)\n      dup2\n      sload\n      dup2\n      0xffffffffffffffffffffffffffffffffffffffff\n      mul\n      not\n      and\n      swap1\n      dup4\n      0xffffffffffffffffffffffffffffffffffffffff\n      and\n      mul\n      or\n      swap1\n      sstore\n      pop\n      swap2\n      0x20\n      add\n      swap2\n      swap1\n      0x01\n      add\n      swap1\n      jump(tag_189)\n    tag_190:\n    tag_188:\n      pop\n      swap1\n      pop\n      tag_191\n      swap2\n      swap1\n      tag_192\n      jump\t// in\n    tag_191:\n      pop\n      swap1\n      jump\t// out\n    tag_175:\n      dup3\n      dup1\n      sload\n      dup3\n      dup3\n      sstore\n      swap1\n      0x00\n      mstore\n      keccak256(0x00, 0x20)\n      swap1\n      0x09\n      add\n      0x0a\n      swap1\n      div\n      dup2\n      add\n      swap3\n      dup3\n      iszero\n      tag_193\n      jumpi\n      swap2\n      0x20\n      mul\n      dup3\n      add\n      0x00\n    tag_194:\n      dup4\n      dup3\n      gt\n      iszero\n      tag_195\n      jumpi\n      dup4\n      mload\n      dup4\n      dup3\n      0x0100\n      exp\n      dup2\n      sload\n      dup2\n      0xffffff\n      mul\n      not\n      and\n      swap1\n      dup4\n      0xffffff\n      and\n      mul\n      or\n      swap1\n      sstore\n      pop\n      swap3\n      0x20\n      add\n      swap3\n      0x03\n      add\n      0x20\n      dup2\n      0x02\n      add\n      div\n      swap3\n      dup4\n      add\n      swap3\n      0x01\n      sub\n      mul\n      jump(tag_194)\n    tag_195:\n      dup1\n      iszero\n      tag_196\n      jumpi\n      dup3\n      dup2\n      0x0100\n      exp\n      dup2\n      sload\n      swap1\n      0xffffff\n      mul\n      not\n      and\n      swap1\n      sstore\n      0x03\n      add\n      0x20\n      dup2\n      0x02\n      add\n      div\n      swap3\n      dup4\n      add\n      swap3\n      0x01\n      sub\n      mul\n      jump(tag_195)\n    tag_196:\n      pop\n    tag_193:\n      pop\n      swap1\n      pop\n      tag_197\n      swap2\n      swap1\n      tag_192\n      jump\t// in\n    tag_197:\n      pop\n      swap1\n      jump\t// out\n    tag_192:\n    tag_198:\n      dup1\n      dup3\n      gt\n      iszero\n      tag_199\n      jumpi\n      0x00\n      dup2\n      0x00\n      swap1\n      sstore\n      pop\n      0x01\n      add\n      jump(tag_198)\n    tag_199:\n      pop\n      swap1\n      jump\t// out\n        /* \"#utility.yul\":7:133   */\n    tag_200:\n        /* \"#utility.yul\":44:51   */\n      0x00\n        /* \"#utility.yul\":84:126   */\n      0xffffffffffffffffffffffffffffffffffffffff\n        /* \"#utility.yul\":77:82   */\n      dup3\n        /* \"#utility.yul\":73:127   */\n      and\n        /* \"#utility.yul\":62:127   */\n      swap1\n      pop\n        /* \"#utility.yul\":7:133   */\n      swap2\n      swap1\n      pop\n      jump\t// out\n        /* \"#utility.yul\":139:199   */\n    tag_201:\n        /* \"#utility.yul\":167:170   */\n      0x00\n        /* \"#utility.yul\":188:193   */\n      dup2\n        /* \"#utility.yul\":181:193   */\n      swap1\n      pop\n        /* \"#utility.yul\":139:199   */\n      swap2\n      swap1\n      pop\n      jump\t// out\n        /* \"#utility.yul\":205:347   */\n    tag_202:\n        /* \"#utility.yul\":255:264   */\n      0x00\n        /* \"#utility.yul\":288:341   */\n      tag_266\n        /* \"#utility.yul\":306:340   */\n      tag_267\n        /* \"#utility.yul\":315:339   */\n      tag_268\n        /* \"#utility.yul\":333:338   */\n      dup5\n        /* \"#utility.yul\":315:339   */\n      tag_200\n      jump\t// in\n    tag_268:\n        /* \"#utility.yul\":306:340   */\n      tag_201\n      jump\t// in\n    tag_267:\n        /* \"#utility.yul\":288:341   */\n      tag_200\n      jump\t// in\n    tag_266:\n        /* \"#utility.yul\":275:341   */\n      swap1\n      pop\n        /* \"#utility.yul\":205:347   */\n      swap2\n      swap1\n      pop\n      jump\t// out\n        /* \"#utility.yul\":353:479   */\n    tag_203:\n        /* \"#utility.yul\":403:412   */\n      0x00\n        /* \"#utility.yul\":436:473   */\n      tag_270\n        /* \"#utility.yul\":467:472   */\n      dup3\n        /* \"#utility.yul\":436:473   */\n      tag_202\n      jump\t// in\n    tag_270:\n        /* \"#utility.yul\":423:473   */\n      swap1\n      pop\n        /* \"#utility.yul\":353:479   */\n      swap2\n      swap1\n      pop\n      jump\t// out\n        /* \"#utility.yul\":485:642   */\n    tag_204:\n        /* \"#utility.yul\":566:575   */\n      0x00\n        /* \"#utility.yul\":599:636   */\n      tag_272\n        /* \"#utility.yul\":630:635   */\n      dup3\n        /* \"#utility.yul\":599:636   */\n      tag_203\n      jump\t// in\n    tag_272:\n        /* \"#utility.yul\":586:636   */\n      swap1\n      pop\n        /* \"#utility.yul\":485:642   */\n      swap2\n      swap1\n      pop\n      jump\t// out\n        /* \"#utility.yul\":648:841   */\n    tag_205:\n        /* \"#utility.yul\":766:834   */\n      tag_274\n        /* \"#utility.yul\":828:833   */\n      dup2\n        /* \"#utility.yul\":766:834   */\n      tag_204\n      jump\t// in\n    tag_274:\n        /* \"#utility.yul\":761:764   */\n      dup3\n        /* \"#utility.yul\":754:835   */\n      mstore\n        /* \"#utility.yul\":648:841   */\n      pop\n      pop\n      jump\t// out\n        /* \"#utility.yul\":847:1131   */\n    tag_20:\n        /* \"#utility.yul\":971:975   */\n      0x00\n        /* \"#utility.yul\":1009:1011   */\n      0x20\n        /* \"#utility.yul\":998:1007   */\n      dup3\n        /* \"#utility.yul\":994:1012   */\n      add\n        /* \"#utility.yul\":986:1012   */\n      swap1\n      pop\n        /* \"#utility.yul\":1022:1124   */\n      tag_276\n        /* \"#utility.yul\":1121:1122   */\n      0x00\n        /* \"#utility.yul\":1110:1119   */\n      dup4\n        /* \"#utility.yul\":1106:1123   */\n      add\n        /* \"#utility.yul\":1097:1103   */\n      dup5\n        /* \"#utility.yul\":1022:1124   */\n      tag_205\n      jump\t// in\n    tag_276:\n        /* \"#utility.yul\":847:1131   */\n      swap3\n      swap2\n      pop\n      pop\n      jump\t// out\n        /* \"#utility.yul\":1137:1212   */\n    tag_206:\n        /* \"#utility.yul\":1170:1176   */\n      0x00\n        /* \"#utility.yul\":1203:1205   */\n      0x40\n        /* \"#utility.yul\":1197:1206   */\n      mload\n        /* \"#utility.yul\":1187:1206   */\n      swap1\n      pop\n        /* \"#utility.yul\":1137:1212   */\n      swap1\n      jump\t// out\n        /* \"#utility.yul\":1218:1335   */\n    tag_207:\n        /* \"#utility.yul\":1327:1328   */\n      0x00\n        /* \"#utility.yul\":1324:1325   */\n      dup1\n        /* \"#utility.yul\":1317:1329   */\n      revert\n        /* \"#utility.yul\":1341:1458   */\n    tag_208:\n        /* \"#utility.yul\":1450:1451   */\n      0x00\n        /* \"#utility.yul\":1447:1448   */\n      dup1\n        /* \"#utility.yul\":1440:1452   */\n      revert\n        /* \"#utility.yul\":1464:1541   */\n    tag_209:\n        /* \"#utility.yul\":1501:1508   */\n      0x00\n        /* \"#utility.yul\":1530:1535   */\n      dup2\n        /* \"#utility.yul\":1519:1535   */\n      swap1\n      pop\n        /* \"#utility.yul\":1464:1541   */\n      swap2\n      swap1\n      pop\n      jump\t// out\n        /* \"#utility.yul\":1547:1669   */\n    tag_210:\n        /* \"#utility.yul\":1620:1644   */\n      tag_282\n        /* \"#utility.yul\":1638:1643   */\n      dup2\n        /* \"#utility.yul\":1620:1644   */\n      tag_209\n      jump\t// in\n    tag_282:\n        /* \"#utility.yul\":1613:1618   */\n      dup2\n        /* \"#utility.yul\":1610:1645   */\n      eq\n        /* \"#utility.yul\":1600:1663   */\n      tag_283\n      jumpi\n        /* \"#utility.yul\":1659:1660   */\n      0x00\n        /* \"#utility.yul\":1656:1657   */\n      dup1\n        /* \"#utility.yul\":1649:1661   */\n      revert\n        /* \"#utility.yul\":1600:1663   */\n    tag_283:\n        /* \"#utility.yul\":1547:1669   */\n      pop\n      jump\t// out\n        /* \"#utility.yul\":1675:1814   */\n    tag_211:\n        /* \"#utility.yul\":1721:1726   */\n      0x00\n        /* \"#utility.yul\":1759:1765   */\n      dup2\n        /* \"#utility.yul\":1746:1766   */\n      calldataload\n        /* \"#utility.yul\":1737:1766   */\n      swap1\n      pop\n        /* \"#utility.yul\":1775:1808   */\n      tag_285\n        /* \"#utility.yul\":1802:1807   */\n      dup2\n        /* \"#utility.yul\":1775:1808   */\n      tag_210\n      jump\t// in\n    tag_285:\n        /* \"#utility.yul\":1675:1814   */\n      swap3\n      swap2\n      pop\n      pop\n      jump\t// out\n        /* \"#utility.yul\":1820:2149   */\n    tag_24:\n        /* \"#utility.yul\":1879:1885   */\n      0x00\n        /* \"#utility.yul\":1928:1930   */\n      0x20\n        /* \"#utility.yul\":1916:1925   */\n      dup3\n        /* \"#utility.yul\":1907:1914   */\n      dup5\n        /* \"#utility.yul\":1903:1926   */\n      sub\n        /* \"#utility.yul\":1899:1931   */\n      slt\n        /* \"#utility.yul\":1896:2015   */\n      iszero\n      tag_287\n      jumpi\n        /* \"#utility.yul\":1934:2013   */\n      tag_288\n      tag_207\n      jump\t// in\n    tag_288:\n        /* \"#utility.yul\":1896:2015   */\n    tag_287:\n        /* \"#utility.yul\":2054:2055   */\n      0x00\n        /* \"#utility.yul\":2079:2132   */\n      tag_289\n        /* \"#utility.yul\":2124:2131   */\n      dup5\n        /* \"#utility.yul\":2115:2121   */\n      dup3\n        /* \"#utility.yul\":2104:2113   */\n      dup6\n        /* \"#utility.yul\":2100:2122   */\n      add\n        /* \"#utility.yul\":2079:2132   */\n      tag_211\n      jump\t// in\n    tag_289:\n        /* \"#utility.yul\":2069:2132   */\n      swap2\n      pop\n        /* \"#utility.yul\":2025:2142   */\n      pop\n        /* \"#utility.yul\":1820:2149   */\n      swap3\n      swap2\n      pop\n      pop\n      jump\t// out\n        /* \"#utility.yul\":2155:2246   */\n    tag_212:\n        /* \"#utility.yul\":2191:2198   */\n      0x00\n        /* \"#utility.yul\":2231:2239   */\n      0xffffff\n        /* \"#utility.yul\":2224:2229   */\n      dup3\n        /* \"#utility.yul\":2220:2240   */\n      and\n        /* \"#utility.yul\":2209:2240   */\n      swap1\n      pop\n        /* \"#utility.yul\":2155:2246   */\n      swap2\n      swap1\n      pop\n      jump\t// out\n        /* \"#utility.yul\":2252:2367   */\n    tag_213:\n        /* \"#utility.yul\":2337:2360   */\n      tag_292\n        /* \"#utility.yul\":2354:2359   */\n      dup2\n        /* \"#utility.yul\":2337:2360   */\n      tag_212\n      jump\t// in\n    tag_292:\n        /* \"#utility.yul\":2332:2335   */\n      dup3\n        /* \"#utility.yul\":2325:2361   */\n      mstore\n        /* \"#utility.yul\":2252:2367   */\n      pop\n      pop\n      jump\t// out\n        /* \"#utility.yul\":2373:2591   */\n    tag_27:\n        /* \"#utility.yul\":2464:2468   */\n      0x00\n        /* \"#utility.yul\":2502:2504   */\n      0x20\n        /* \"#utility.yul\":2491:2500   */\n      dup3\n        /* \"#utility.yul\":2487:2505   */\n      add\n        /* \"#utility.yul\":2479:2505   */\n      swap1\n      pop\n        /* \"#utility.yul\":2515:2584   */\n      tag_294\n        /* \"#utility.yul\":2581:2582   */\n      0x00\n        /* \"#utility.yul\":2570:2579   */\n      dup4\n        /* \"#utility.yul\":2566:2583   */\n      add\n        /* \"#utility.yul\":2557:2563   */\n      dup5\n        /* \"#utility.yul\":2515:2584   */\n      tag_213\n      jump\t// in\n    tag_294:\n        /* \"#utility.yul\":2373:2591   */\n      swap3\n      swap2\n      pop\n      pop\n      jump\t// out\n        /* \"#utility.yul\":2597:2693   */\n    tag_214:\n        /* \"#utility.yul\":2634:2641   */\n      0x00\n        /* \"#utility.yul\":2663:2687   */\n      tag_296\n        /* \"#utility.yul\":2681:2686   */\n      dup3\n        /* \"#utility.yul\":2663:2687   */\n      tag_200\n      jump\t// in\n    tag_296:\n        /* \"#utility.yul\":2652:2687   */\n      swap1\n      pop\n        /* \"#utility.yul\":2597:2693   */\n      swap2\n      swap1\n      pop\n      jump\t// out\n        /* \"#utility.yul\":2699:2821   */\n    tag_215:\n        /* \"#utility.yul\":2772:2796   */\n      tag_298\n        /* \"#utility.yul\":2790:2795   */\n      dup2\n        /* \"#utility.yul\":2772:2796   */\n      tag_214\n      jump\t// in\n    tag_298:\n        /* \"#utility.yul\":2765:2770   */\n      dup2\n        /* \"#utility.yul\":2762:2797   */\n      eq\n        /* \"#utility.yul\":2752:2815   */\n      tag_299\n      jumpi\n        /* \"#utility.yul\":2811:2812   */\n      0x00\n        /* \"#utility.yul\":2808:2809   */\n      dup1\n        /* \"#utility.yul\":2801:2813   */\n      revert\n        /* \"#utility.yul\":2752:2815   */\n    tag_299:\n        /* \"#utility.yul\":2699:2821   */\n      pop\n      jump\t// out\n        /* \"#utility.yul\":2827:2966   */\n    tag_216:\n        /* \"#utility.yul\":2873:2878   */\n      0x00\n        /* \"#utility.yul\":2911:2917   */\n      dup2\n        /* \"#utility.yul\":2898:2918   */\n      calldataload\n        /* \"#utility.yul\":2889:2918   */\n      swap1\n      pop\n        /* \"#utility.yul\":2927:2960   */\n      tag_301\n        /* \"#utility.yul\":2954:2959   */\n      dup2\n        /* \"#utility.yul\":2927:2960   */\n      tag_215\n      jump\t// in\n    tag_301:\n        /* \"#utility.yul\":2827:2966   */\n      swap3\n      swap2\n      pop\n      pop\n      jump\t// out\n        /* \"#utility.yul\":2972:3089   */\n    tag_217:\n        /* \"#utility.yul\":3081:3082   */\n      0x00\n        /* \"#utility.yul\":3078:3079   */\n      dup1\n        /* \"#utility.yul\":3071:3083   */\n      revert\n        /* \"#utility.yul\":3095:3212   */\n    tag_218:\n        /* \"#utility.yul\":3204:3205   */\n      0x00\n        /* \"#utility.yul\":3201:3202   */\n      dup1\n        /* \"#utility.yul\":3194:3206   */\n      revert\n        /* \"#utility.yul\":3218:3335   */\n    tag_219:\n        /* \"#utility.yul\":3327:3328   */\n      0x00\n        /* \"#utility.yul\":3324:3325   */\n      dup1\n        /* \"#utility.yul\":3317:3329   */\n      revert\n        /* \"#utility.yul\":3354:3906   */\n    tag_220:\n        /* \"#utility.yul\":3411:3419   */\n      0x00\n        /* \"#utility.yul\":3421:3427   */\n      dup1\n        /* \"#utility.yul\":3471:3474   */\n      dup4\n        /* \"#utility.yul\":3464:3468   */\n      0x1f\n        /* \"#utility.yul\":3456:3462   */\n      dup5\n        /* \"#utility.yul\":3452:3469   */\n      add\n        /* \"#utility.yul\":3448:3475   */\n      slt\n        /* \"#utility.yul\":3438:3560   */\n      tag_306\n      jumpi\n        /* \"#utility.yul\":3479:3558   */\n      tag_307\n      tag_217\n      jump\t// in\n    tag_307:\n        /* \"#utility.yul\":3438:3560   */\n    tag_306:\n        /* \"#utility.yul\":3592:3598   */\n      dup3\n        /* \"#utility.yul\":3579:3599   */\n      calldataload\n        /* \"#utility.yul\":3569:3599   */\n      swap1\n      pop\n        /* \"#utility.yul\":3622:3640   */\n      0xffffffffffffffff\n        /* \"#utility.yul\":3614:3620   */\n      dup2\n        /* \"#utility.yul\":3611:3641   */\n      gt\n        /* \"#utility.yul\":3608:3725   */\n      iszero\n      tag_308\n      jumpi\n        /* \"#utility.yul\":3644:3723   */\n      tag_309\n      tag_218\n      jump\t// in\n    tag_309:\n        /* \"#utility.yul\":3608:3725   */\n    tag_308:\n        /* \"#utility.yul\":3758:3762   */\n      0x20\n        /* \"#utility.yul\":3750:3756   */\n      dup4\n        /* \"#utility.yul\":3746:3763   */\n      add\n        /* \"#utility.yul\":3734:3763   */\n      swap2\n      pop\n        /* \"#utility.yul\":3812:3815   */\n      dup4\n        /* \"#utility.yul\":3804:3808   */\n      0x01\n        /* \"#utility.yul\":3796:3802   */\n      dup3\n        /* \"#utility.yul\":3792:3809   */\n      mul\n        /* \"#utility.yul\":3782:3790   */\n      dup4\n        /* \"#utility.yul\":3778:3810   */\n      add\n        /* \"#utility.yul\":3775:3816   */\n      gt\n        /* \"#utility.yul\":3772:3900   */\n      iszero\n      tag_310\n      jumpi\n        /* \"#utility.yul\":3819:3898   */\n      tag_311\n      tag_219\n      jump\t// in\n    tag_311:\n        /* \"#utility.yul\":3772:3900   */\n    tag_310:\n        /* \"#utility.yul\":3354:3906   */\n      swap3\n      pop\n      swap3\n      swap1\n      pop\n      jump\t// out\n        /* \"#utility.yul\":3912:5021   */\n    tag_31:\n        /* \"#utility.yul\":4018:4024   */\n      0x00\n        /* \"#utility.yul\":4026:4032   */\n      dup1\n        /* \"#utility.yul\":4034:4040   */\n      0x00\n        /* \"#utility.yul\":4042:4048   */\n      dup1\n        /* \"#utility.yul\":4050:4056   */\n      0x00\n        /* \"#utility.yul\":4058:4064   */\n      dup1\n        /* \"#utility.yul\":4107:4110   */\n      0xa0\n        /* \"#utility.yul\":4095:4104   */\n      dup8\n        /* \"#utility.yul\":4086:4093   */\n      dup10\n        /* \"#utility.yul\":4082:4105   */\n      sub\n        /* \"#utility.yul\":4078:4111   */\n      slt\n        /* \"#utility.yul\":4075:4195   */\n      iszero\n      tag_313\n      jumpi\n        /* \"#utility.yul\":4114:4193   */\n      tag_314\n      tag_207\n      jump\t// in\n    tag_314:\n        /* \"#utility.yul\":4075:4195   */\n    tag_313:\n        /* \"#utility.yul\":4234:4235   */\n      0x00\n        /* \"#utility.yul\":4259:4312   */\n      tag_315\n        /* \"#utility.yul\":4304:4311   */\n      dup10\n        /* \"#utility.yul\":4295:4301   */\n      dup3\n        /* \"#utility.yul\":4284:4293   */\n      dup11\n        /* \"#utility.yul\":4280:4302   */\n      add\n        /* \"#utility.yul\":4259:4312   */\n      tag_216\n      jump\t// in\n    tag_315:\n        /* \"#utility.yul\":4249:4312   */\n      swap7\n      pop\n        /* \"#utility.yul\":4205:4322   */\n      pop\n        /* \"#utility.yul\":4361:4363   */\n      0x20\n        /* \"#utility.yul\":4387:4440   */\n      tag_316\n        /* \"#utility.yul\":4432:4439   */\n      dup10\n        /* \"#utility.yul\":4423:4429   */\n      dup3\n        /* \"#utility.yul\":4412:4421   */\n      dup11\n        /* \"#utility.yul\":4408:4430   */\n      add\n        /* \"#utility.yul\":4387:4440   */\n      tag_211\n      jump\t// in\n    tag_316:\n        /* \"#utility.yul\":4377:4440   */\n      swap6\n      pop\n        /* \"#utility.yul\":4332:4450   */\n      pop\n        /* \"#utility.yul\":4489:4491   */\n      0x40\n        /* \"#utility.yul\":4515:4568   */\n      tag_317\n        /* \"#utility.yul\":4560:4567   */\n      dup10\n        /* \"#utility.yul\":4551:4557   */\n      dup3\n        /* \"#utility.yul\":4540:4549   */\n      dup11\n        /* \"#utility.yul\":4536:4558   */\n      add\n        /* \"#utility.yul\":4515:4568   */\n      tag_211\n      jump\t// in\n    tag_317:\n        /* \"#utility.yul\":4505:4568   */\n      swap5\n      pop\n        /* \"#utility.yul\":4460:4578   */\n      pop\n        /* \"#utility.yul\":4617:4619   */\n      0x60\n        /* \"#utility.yul\":4643:4696   */\n      tag_318\n        /* \"#utility.yul\":4688:4695   */\n      dup10\n        /* \"#utility.yul\":4679:4685   */\n      dup3\n        /* \"#utility.yul\":4668:4677   */\n      dup11\n        /* \"#utility.yul\":4664:4686   */\n      add\n        /* \"#utility.yul\":4643:4696   */\n      tag_216\n      jump\t// in\n    tag_318:\n        /* \"#utility.yul\":4633:4696   */\n      swap4\n      pop\n        /* \"#utility.yul\":4588:4706   */\n      pop\n        /* \"#utility.yul\":4773:4776   */\n      0x80\n        /* \"#utility.yul\":4762:4771   */\n      dup8\n        /* \"#utility.yul\":4758:4777   */\n      add\n        /* \"#utility.yul\":4745:4778   */\n      calldataload\n        /* \"#utility.yul\":4805:4823   */\n      0xffffffffffffffff\n        /* \"#utility.yul\":4797:4803   */\n      dup2\n        /* \"#utility.yul\":4794:4824   */\n      gt\n        /* \"#utility.yul\":4791:4908   */\n      iszero\n      tag_319\n      jumpi\n        /* \"#utility.yul\":4827:4906   */\n      tag_320\n      tag_208\n      jump\t// in\n    tag_320:\n        /* \"#utility.yul\":4791:4908   */\n    tag_319:\n        /* \"#utility.yul\":4940:5004   */\n      tag_321\n        /* \"#utility.yul\":4996:5003   */\n      dup10\n        /* \"#utility.yul\":4987:4993   */\n      dup3\n        /* \"#utility.yul\":4976:4985   */\n      dup11\n        /* \"#utility.yul\":4972:4994   */\n      add\n        /* \"#utility.yul\":4940:5004   */\n      tag_220\n      jump\t// in\n    tag_321:\n        /* \"#utility.yul\":4922:5004   */\n      swap3\n      pop\n      swap3\n      pop\n        /* \"#utility.yul\":4716:5014   */\n      pop\n        /* \"#utility.yul\":3912:5021   */\n      swap3\n      swap6\n      pop\n      swap3\n      swap6\n      pop\n      swap3\n      swap6\n      jump\t// out\n        /* \"#utility.yul\":5027:5117   */\n    tag_221:\n        /* \"#utility.yul\":5061:5068   */\n      0x00\n        /* \"#utility.yul\":5104:5109   */\n      dup2\n        /* \"#utility.yul\":5097:5110   */\n      iszero\n        /* \"#utility.yul\":5090:5111   */\n      iszero\n        /* \"#utility.yul\":5079:5111   */\n      swap1\n      pop\n        /* \"#utility.yul\":5027:5117   */\n      swap2\n      swap1\n      pop\n      jump\t// out\n        /* \"#utility.yul\":5123:5232   */\n    tag_222:\n        /* \"#utility.yul\":5204:5225   */\n      tag_324\n        /* \"#utility.yul\":5219:5224   */\n      dup2\n        /* \"#utility.yul\":5204:5225   */\n      tag_221\n      jump\t// in\n    tag_324:\n        /* \"#utility.yul\":5199:5202   */\n      dup3\n        /* \"#utility.yul\":5192:5226   */\n      mstore\n        /* \"#utility.yul\":5123:5232   */\n      pop\n      pop\n      jump\t// out\n        /* \"#utility.yul\":5238:5448   */\n    tag_34:\n        /* \"#utility.yul\":5325:5329   */\n      0x00\n        /* \"#utility.yul\":5363:5365   */\n      0x20\n        /* \"#utility.yul\":5352:5361   */\n      dup3\n        /* \"#utility.yul\":5348:5366   */\n      add\n        /* \"#utility.yul\":5340:5366   */\n      swap1\n      pop\n        /* \"#utility.yul\":5376:5441   */\n      tag_326\n        /* \"#utility.yul\":5438:5439   */\n      0x00\n        /* \"#utility.yul\":5427:5436   */\n      dup4\n        /* \"#utility.yul\":5423:5440   */\n      add\n        /* \"#utility.yul\":5414:5420   */\n      dup5\n        /* \"#utility.yul\":5376:5441   */\n      tag_222\n      jump\t// in\n    tag_326:\n        /* \"#utility.yul\":5238:5448   */\n      swap3\n      swap2\n      pop\n      pop\n      jump\t// out\n        /* \"#utility.yul\":5454:5572   */\n    tag_223:\n        /* \"#utility.yul\":5541:5565   */\n      tag_328\n        /* \"#utility.yul\":5559:5564   */\n      dup2\n        /* \"#utility.yul\":5541:5565   */\n      tag_214\n      jump\t// in\n    tag_328:\n        /* \"#utility.yul\":5536:5539   */\n      dup3\n        /* \"#utility.yul\":5529:5566   */\n      mstore\n        /* \"#utility.yul\":5454:5572   */\n      pop\n      pop\n      jump\t// out\n        /* \"#utility.yul\":5578:5800   */\n    tag_40:\n        /* \"#utility.yul\":5671:5675   */\n      0x00\n        /* \"#utility.yul\":5709:5711   */\n      0x20\n        /* \"#utility.yul\":5698:5707   */\n      dup3\n        /* \"#utility.yul\":5694:5712   */\n      add\n        /* \"#utility.yul\":5686:5712   */\n      swap1\n      pop\n        /* \"#utility.yul\":5722:5793   */\n      tag_330\n        /* \"#utility.yul\":5790:5791   */\n      0x00\n        /* \"#utility.yul\":5779:5788   */\n      dup4\n        /* \"#utility.yul\":5775:5792   */\n      add\n        /* \"#utility.yul\":5766:5772   */\n      dup5\n        /* \"#utility.yul\":5722:5793   */\n      tag_223\n      jump\t// in\n    tag_330:\n        /* \"#utility.yul\":5578:5800   */\n      swap3\n      swap2\n      pop\n      pop\n      jump\t// out\n        /* \"#utility.yul\":5806:6135   */\n    tag_49:\n        /* \"#utility.yul\":5865:5871   */\n      0x00\n        /* \"#utility.yul\":5914:5916   */\n      0x20\n        /* \"#utility.yul\":5902:5911   */\n      dup3\n        /* \"#utility.yul\":5893:5900   */\n      dup5\n        /* \"#utility.yul\":5889:5912   */\n      sub\n        /* \"#utility.yul\":5885:5917   */\n      slt\n        /* \"#utility.yul\":5882:6001   */\n      iszero\n      tag_332\n      jumpi\n        /* \"#utility.yul\":5920:5999   */\n      tag_333\n      tag_207\n      jump\t// in\n    tag_333:\n        /* \"#utility.yul\":5882:6001   */\n    tag_332:\n        /* \"#utility.yul\":6040:6041   */\n      0x00\n        /* \"#utility.yul\":6065:6118   */\n      tag_334\n        /* \"#utility.yul\":6110:6117   */\n      dup5\n        /* \"#utility.yul\":6101:6107   */\n      dup3\n        /* \"#utility.yul\":6090:6099   */\n      dup6\n        /* \"#utility.yul\":6086:6108   */\n      add\n        /* \"#utility.yul\":6065:6118   */\n      tag_216\n      jump\t// in\n    tag_334:\n        /* \"#utility.yul\":6055:6118   */\n      swap2\n      pop\n        /* \"#utility.yul\":6011:6128   */\n      pop\n        /* \"#utility.yul\":5806:6135   */\n      swap3\n      swap2\n      pop\n      pop\n      jump\t// out\n        /* \"#utility.yul\":6141:6280   */\n    tag_224:\n        /* \"#utility.yul\":6204:6213   */\n      0x00\n        /* \"#utility.yul\":6237:6274   */\n      tag_336\n        /* \"#utility.yul\":6268:6273   */\n      dup3\n        /* \"#utility.yul\":6237:6274   */\n      tag_203\n      jump\t// in\n    tag_336:\n        /* \"#utility.yul\":6224:6274   */\n      swap1\n      pop\n        /* \"#utility.yul\":6141:6280   */\n      swap2\n      swap1\n      pop\n      jump\t// out\n        /* \"#utility.yul\":6286:6443   */\n    tag_225:\n        /* \"#utility.yul\":6386:6436   */\n      tag_338\n        /* \"#utility.yul\":6430:6435   */\n      dup2\n        /* \"#utility.yul\":6386:6436   */\n      tag_224\n      jump\t// in\n    tag_338:\n        /* \"#utility.yul\":6381:6384   */\n      dup3\n        /* \"#utility.yul\":6374:6437   */\n      mstore\n        /* \"#utility.yul\":6286:6443   */\n      pop\n      pop\n      jump\t// out\n        /* \"#utility.yul\":6449:6697   */\n    tag_55:\n        /* \"#utility.yul\":6555:6559   */\n      0x00\n        /* \"#utility.yul\":6593:6595   */\n      0x20\n        /* \"#utility.yul\":6582:6591   */\n      dup3\n        /* \"#utility.yul\":6578:6596   */\n      add\n        /* \"#utility.yul\":6570:6596   */\n      swap1\n      pop\n        /* \"#utility.yul\":6606:6690   */\n      tag_340\n        /* \"#utility.yul\":6687:6688   */\n      0x00\n        /* \"#utility.yul\":6676:6685   */\n      dup4\n        /* \"#utility.yul\":6672:6689   */\n      add\n        /* \"#utility.yul\":6663:6669   */\n      dup5\n        /* \"#utility.yul\":6606:6690   */\n      tag_225\n      jump\t// in\n    tag_340:\n        /* \"#utility.yul\":6449:6697   */\n      swap3\n      swap2\n      pop\n      pop\n      jump\t// out\n        /* \"#utility.yul\":6703:6821   */\n    tag_226:\n        /* \"#utility.yul\":6790:6814   */\n      tag_342\n        /* \"#utility.yul\":6808:6813   */\n      dup2\n        /* \"#utility.yul\":6790:6814   */\n      tag_209\n      jump\t// in\n    tag_342:\n        /* \"#utility.yul\":6785:6788   */\n      dup3\n        /* \"#utility.yul\":6778:6815   */\n      mstore\n        /* \"#utility.yul\":6703:6821   */\n      pop\n      pop\n      jump\t// out\n        /* \"#utility.yul\":6827:7049   */\n    tag_60:\n        /* \"#utility.yul\":6920:6924   */\n      0x00\n        /* \"#utility.yul\":6958:6960   */\n      0x20\n        /* \"#utility.yul\":6947:6956   */\n      dup3\n        /* \"#utility.yul\":6943:6961   */\n      add\n        /* \"#utility.yul\":6935:6961   */\n      swap1\n      pop\n        /* \"#utility.yul\":6971:7042   */\n      tag_344\n        /* \"#utility.yul\":7039:7040   */\n      0x00\n        /* \"#utility.yul\":7028:7037   */\n      dup4\n        /* \"#utility.yul\":7024:7041   */\n      add\n        /* \"#utility.yul\":7015:7021   */\n      dup5\n        /* \"#utility.yul\":6971:7042   */\n      tag_226\n      jump\t// in\n    tag_344:\n        /* \"#utility.yul\":6827:7049   */\n      swap3\n      swap2\n      pop\n      pop\n      jump\t// out\n        /* \"#utility.yul\":7055:7157   */\n    tag_227:\n        /* \"#utility.yul\":7096:7102   */\n      0x00\n        /* \"#utility.yul\":7147:7149   */\n      0x1f\n        /* \"#utility.yul\":7143:7150   */\n      not\n        /* \"#utility.yul\":7138:7140   */\n      0x1f\n        /* \"#utility.yul\":7131:7136   */\n      dup4\n        /* \"#utility.yul\":7127:7141   */\n      add\n        /* \"#utility.yul\":7123:7151   */\n      and\n        /* \"#utility.yul\":7113:7151   */\n      swap1\n      pop\n        /* \"#utility.yul\":7055:7157   */\n      swap2\n      swap1\n      pop\n      jump\t// out\n        /* \"#utility.yul\":7163:7343   */\n    tag_228:\n        /* \"#utility.yul\":7211:7288   */\n      0x4e487b7100000000000000000000000000000000000000000000000000000000\n        /* \"#utility.yul\":7208:7209   */\n      0x00\n        /* \"#utility.yul\":7201:7289   */\n      mstore\n        /* \"#utility.yul\":7308:7312   */\n      0x41\n        /* \"#utility.yul\":7305:7306   */\n      0x04\n        /* \"#utility.yul\":7298:7313   */\n      mstore\n        /* \"#utility.yul\":7332:7336   */\n      0x24\n        /* \"#utility.yul\":7329:7330   */\n      0x00\n        /* \"#utility.yul\":7322:7337   */\n      revert\n        /* \"#utility.yul\":7349:7630   */\n    tag_229:\n        /* \"#utility.yul\":7432:7459   */\n      tag_348\n        /* \"#utility.yul\":7454:7458   */\n      dup3\n        /* \"#utility.yul\":7432:7459   */\n      tag_227\n      jump\t// in\n    tag_348:\n        /* \"#utility.yul\":7424:7430   */\n      dup2\n        /* \"#utility.yul\":7420:7460   */\n      add\n        /* \"#utility.yul\":7562:7568   */\n      dup2\n        /* \"#utility.yul\":7550:7560   */\n      dup2\n        /* \"#utility.yul\":7547:7569   */\n      lt\n        /* \"#utility.yul\":7526:7544   */\n      0xffffffffffffffff\n        /* \"#utility.yul\":7514:7524   */\n      dup3\n        /* \"#utility.yul\":7511:7545   */\n      gt\n        /* \"#utility.yul\":7508:7570   */\n      or\n        /* \"#utility.yul\":7505:7593   */\n      iszero\n      tag_349\n      jumpi\n        /* \"#utility.yul\":7573:7591   */\n      tag_350\n      tag_228\n      jump\t// in\n    tag_350:\n        /* \"#utility.yul\":7505:7593   */\n    tag_349:\n        /* \"#utility.yul\":7613:7623   */\n      dup1\n        /* \"#utility.yul\":7609:7611   */\n      0x40\n        /* \"#utility.yul\":7602:7624   */\n      mstore\n        /* \"#utility.yul\":7392:7630   */\n      pop\n        /* \"#utility.yul\":7349:7630   */\n      pop\n      pop\n      jump\t// out\n        /* \"#utility.yul\":7636:7765   */\n    tag_230:\n        /* \"#utility.yul\":7670:7676   */\n      0x00\n        /* \"#utility.yul\":7697:7717   */\n      tag_352\n      tag_206\n      jump\t// in\n    tag_352:\n        /* \"#utility.yul\":7687:7717   */\n      swap1\n      pop\n        /* \"#utility.yul\":7726:7759   */\n      tag_353\n        /* \"#utility.yul\":7754:7758   */\n      dup3\n        /* \"#utility.yul\":7746:7752   */\n      dup3\n        /* \"#utility.yul\":7726:7759   */\n      tag_229\n      jump\t// in\n    tag_353:\n        /* \"#utility.yul\":7636:7765   */\n      swap2\n      swap1\n      pop\n      jump\t// out\n        /* \"#utility.yul\":7771:8082   */\n    tag_231:\n        /* \"#utility.yul\":7848:7852   */\n      0x00\n        /* \"#utility.yul\":7938:7956   */\n      0xffffffffffffffff\n        /* \"#utility.yul\":7930:7936   */\n      dup3\n        /* \"#utility.yul\":7927:7957   */\n      gt\n        /* \"#utility.yul\":7924:7980   */\n      iszero\n      tag_355\n      jumpi\n        /* \"#utility.yul\":7960:7978   */\n      tag_356\n      tag_228\n      jump\t// in\n    tag_356:\n        /* \"#utility.yul\":7924:7980   */\n    tag_355:\n        /* \"#utility.yul\":8010:8014   */\n      0x20\n        /* \"#utility.yul\":8002:8008   */\n      dup3\n        /* \"#utility.yul\":7998:8015   */\n      mul\n        /* \"#utility.yul\":7990:8015   */\n      swap1\n      pop\n        /* \"#utility.yul\":8070:8074   */\n      0x20\n        /* \"#utility.yul\":8064:8068   */\n      dup2\n        /* \"#utility.yul\":8060:8075   */\n      add\n        /* \"#utility.yul\":8052:8075   */\n      swap1\n      pop\n        /* \"#utility.yul\":7771:8082   */\n      swap2\n      swap1\n      pop\n      jump\t// out\n        /* \"#utility.yul\":8105:8815   */\n    tag_232:\n        /* \"#utility.yul\":8201:8206   */\n      0x00\n        /* \"#utility.yul\":8226:8307   */\n      tag_358\n        /* \"#utility.yul\":8242:8306   */\n      tag_359\n        /* \"#utility.yul\":8299:8305   */\n      dup5\n        /* \"#utility.yul\":8242:8306   */\n      tag_231\n      jump\t// in\n    tag_359:\n        /* \"#utility.yul\":8226:8307   */\n      tag_230\n      jump\t// in\n    tag_358:\n        /* \"#utility.yul\":8217:8307   */\n      swap1\n      pop\n        /* \"#utility.yul\":8327:8332   */\n      dup1\n        /* \"#utility.yul\":8356:8362   */\n      dup4\n        /* \"#utility.yul\":8349:8354   */\n      dup3\n        /* \"#utility.yul\":8342:8363   */\n      mstore\n        /* \"#utility.yul\":8390:8394   */\n      0x20\n        /* \"#utility.yul\":8383:8388   */\n      dup3\n        /* \"#utility.yul\":8379:8395   */\n      add\n        /* \"#utility.yul\":8372:8395   */\n      swap1\n      pop\n        /* \"#utility.yul\":8443:8447   */\n      0x20\n        /* \"#utility.yul\":8435:8441   */\n      dup5\n        /* \"#utility.yul\":8431:8448   */\n      mul\n        /* \"#utility.yul\":8423:8429   */\n      dup4\n        /* \"#utility.yul\":8419:8449   */\n      add\n        /* \"#utility.yul\":8472:8475   */\n      dup6\n        /* \"#utility.yul\":8464:8470   */\n      dup2\n        /* \"#utility.yul\":8461:8476   */\n      gt\n        /* \"#utility.yul\":8458:8580   */\n      iszero\n      tag_360\n      jumpi\n        /* \"#utility.yul\":8491:8570   */\n      tag_361\n      tag_219\n      jump\t// in\n    tag_361:\n        /* \"#utility.yul\":8458:8580   */\n    tag_360:\n        /* \"#utility.yul\":8606:8612   */\n      dup4\n        /* \"#utility.yul\":8589:8809   */\n    tag_362:\n        /* \"#utility.yul\":8623:8629   */\n      dup2\n        /* \"#utility.yul\":8618:8621   */\n      dup2\n        /* \"#utility.yul\":8615:8630   */\n      lt\n        /* \"#utility.yul\":8589:8809   */\n      iszero\n      tag_364\n      jumpi\n        /* \"#utility.yul\":8698:8701   */\n      dup1\n        /* \"#utility.yul\":8727:8764   */\n      tag_365\n        /* \"#utility.yul\":8760:8763   */\n      dup9\n        /* \"#utility.yul\":8748:8758   */\n      dup3\n        /* \"#utility.yul\":8727:8764   */\n      tag_216\n      jump\t// in\n    tag_365:\n        /* \"#utility.yul\":8722:8725   */\n      dup5\n        /* \"#utility.yul\":8715:8765   */\n      mstore\n        /* \"#utility.yul\":8794:8798   */\n      0x20\n        /* \"#utility.yul\":8789:8792   */\n      dup5\n        /* \"#utility.yul\":8785:8799   */\n      add\n        /* \"#utility.yul\":8778:8799   */\n      swap4\n      pop\n        /* \"#utility.yul\":8665:8809   */\n      pop\n        /* \"#utility.yul\":8649:8653   */\n      0x20\n        /* \"#utility.yul\":8644:8647   */\n      dup2\n        /* \"#utility.yul\":8640:8654   */\n      add\n        /* \"#utility.yul\":8633:8654   */\n      swap1\n      pop\n        /* \"#utility.yul\":8589:8809   */\n      jump(tag_362)\n    tag_364:\n        /* \"#utility.yul\":8593:8614   */\n      pop\n        /* \"#utility.yul\":8207:8815   */\n      pop\n      pop\n        /* \"#utility.yul\":8105:8815   */\n      swap4\n      swap3\n      pop\n      pop\n      pop\n      jump\t// out\n        /* \"#utility.yul\":8838:9208   */\n    tag_233:\n        /* \"#utility.yul\":8909:8914   */\n      0x00\n        /* \"#utility.yul\":8958:8961   */\n      dup3\n        /* \"#utility.yul\":8951:8955   */\n      0x1f\n        /* \"#utility.yul\":8943:8949   */\n      dup4\n        /* \"#utility.yul\":8939:8956   */\n      add\n        /* \"#utility.yul\":8935:8962   */\n      slt\n        /* \"#utility.yul\":8925:9047   */\n      tag_367\n      jumpi\n        /* \"#utility.yul\":8966:9045   */\n      tag_368\n      tag_217\n      jump\t// in\n    tag_368:\n        /* \"#utility.yul\":8925:9047   */\n    tag_367:\n        /* \"#utility.yul\":9083:9089   */\n      dup2\n        /* \"#utility.yul\":9070:9090   */\n      calldataload\n        /* \"#utility.yul\":9108:9202   */\n      tag_369\n        /* \"#utility.yul\":9198:9201   */\n      dup5\n        /* \"#utility.yul\":9190:9196   */\n      dup3\n        /* \"#utility.yul\":9183:9187   */\n      0x20\n        /* \"#utility.yul\":9175:9181   */\n      dup7\n        /* \"#utility.yul\":9171:9188   */\n      add\n        /* \"#utility.yul\":9108:9202   */\n      tag_232\n      jump\t// in\n    tag_369:\n        /* \"#utility.yul\":9099:9202   */\n      swap2\n      pop\n        /* \"#utility.yul\":8915:9208   */\n      pop\n        /* \"#utility.yul\":8838:9208   */\n      swap3\n      swap2\n      pop\n      pop\n      jump\t// out\n        /* \"#utility.yul\":9214:9524   */\n    tag_234:\n        /* \"#utility.yul\":9290:9294   */\n      0x00\n        /* \"#utility.yul\":9380:9398   */\n      0xffffffffffffffff\n        /* \"#utility.yul\":9372:9378   */\n      dup3\n        /* \"#utility.yul\":9369:9399   */\n      gt\n        /* \"#utility.yul\":9366:9422   */\n      iszero\n      tag_371\n      jumpi\n        /* \"#utility.yul\":9402:9420   */\n      tag_372\n      tag_228\n      jump\t// in\n    tag_372:\n        /* \"#utility.yul\":9366:9422   */\n    tag_371:\n        /* \"#utility.yul\":9452:9456   */\n      0x20\n        /* \"#utility.yul\":9444:9450   */\n      dup3\n        /* \"#utility.yul\":9440:9457   */\n      mul\n        /* \"#utility.yul\":9432:9457   */\n      swap1\n      pop\n        /* \"#utility.yul\":9512:9516   */\n      0x20\n        /* \"#utility.yul\":9506:9510   */\n      dup2\n        /* \"#utility.yul\":9502:9517   */\n      add\n        /* \"#utility.yul\":9494:9517   */\n      swap1\n      pop\n        /* \"#utility.yul\":9214:9524   */\n      swap2\n      swap1\n      pop\n      jump\t// out\n        /* \"#utility.yul\":9530:9650   */\n    tag_235:\n        /* \"#utility.yul\":9602:9625   */\n      tag_374\n        /* \"#utility.yul\":9619:9624   */\n      dup2\n        /* \"#utility.yul\":9602:9625   */\n      tag_212\n      jump\t// in\n    tag_374:\n        /* \"#utility.yul\":9595:9600   */\n      dup2\n        /* \"#utility.yul\":9592:9626   */\n      eq\n        /* \"#utility.yul\":9582:9644   */\n      tag_375\n      jumpi\n        /* \"#utility.yul\":9640:9641   */\n      0x00\n        /* \"#utility.yul\":9637:9638   */\n      dup1\n        /* \"#utility.yul\":9630:9642   */\n      revert\n        /* \"#utility.yul\":9582:9644   */\n    tag_375:\n        /* \"#utility.yul\":9530:9650   */\n      pop\n      jump\t// out\n        /* \"#utility.yul\":9656:9793   */\n    tag_236:\n        /* \"#utility.yul\":9701:9706   */\n      0x00\n        /* \"#utility.yul\":9739:9745   */\n      dup2\n        /* \"#utility.yul\":9726:9746   */\n      calldataload\n        /* \"#utility.yul\":9717:9746   */\n      swap1\n      pop\n        /* \"#utility.yul\":9755:9787   */\n      tag_377\n        /* \"#utility.yul\":9781:9786   */\n      dup2\n        /* \"#utility.yul\":9755:9787   */\n      tag_235\n      jump\t// in\n    tag_377:\n        /* \"#utility.yul\":9656:9793   */\n      swap3\n      swap2\n      pop\n      pop\n      jump\t// out\n        /* \"#utility.yul\":9815:10522   */\n    tag_237:\n        /* \"#utility.yul\":9910:9915   */\n      0x00\n        /* \"#utility.yul\":9935:10015   */\n      tag_379\n        /* \"#utility.yul\":9951:10014   */\n      tag_380\n        /* \"#utility.yul\":10007:10013   */\n      dup5\n        /* \"#utility.yul\":9951:10014   */\n      tag_234\n      jump\t// in\n    tag_380:\n        /* \"#utility.yul\":9935:10015   */\n      tag_230\n      jump\t// in\n    tag_379:\n        /* \"#utility.yul\":9926:10015   */\n      swap1\n      pop\n        /* \"#utility.yul\":10035:10040   */\n      dup1\n        /* \"#utility.yul\":10064:10070   */\n      dup4\n        /* \"#utility.yul\":10057:10062   */\n      dup3\n        /* \"#utility.yul\":10050:10071   */\n      mstore\n        /* \"#utility.yul\":10098:10102   */\n      0x20\n        /* \"#utility.yul\":10091:10096   */\n      dup3\n        /* \"#utility.yul\":10087:10103   */\n      add\n        /* \"#utility.yul\":10080:10103   */\n      swap1\n      pop\n        /* \"#utility.yul\":10151:10155   */\n      0x20\n        /* \"#utility.yul\":10143:10149   */\n      dup5\n        /* \"#utility.yul\":10139:10156   */\n      mul\n        /* \"#utility.yul\":10131:10137   */\n      dup4\n        /* \"#utility.yul\":10127:10157   */\n      add\n        /* \"#utility.yul\":10180:10183   */\n      dup6\n        /* \"#utility.yul\":10172:10178   */\n      dup2\n        /* \"#utility.yul\":10169:10184   */\n      gt\n        /* \"#utility.yul\":10166:10288   */\n      iszero\n      tag_381\n      jumpi\n        /* \"#utility.yul\":10199:10278   */\n      tag_382\n      tag_219\n      jump\t// in\n    tag_382:\n        /* \"#utility.yul\":10166:10288   */\n    tag_381:\n        /* \"#utility.yul\":10314:10320   */\n      dup4\n        /* \"#utility.yul\":10297:10516   */\n    tag_383:\n        /* \"#utility.yul\":10331:10337   */\n      dup2\n        /* \"#utility.yul\":10326:10329   */\n      dup2\n        /* \"#utility.yul\":10323:10338   */\n      lt\n        /* \"#utility.yul\":10297:10516   */\n      iszero\n      tag_385\n      jumpi\n        /* \"#utility.yul\":10406:10409   */\n      dup1\n        /* \"#utility.yul\":10435:10471   */\n      tag_386\n        /* \"#utility.yul\":10467:10470   */\n      dup9\n        /* \"#utility.yul\":10455:10465   */\n      dup3\n        /* \"#utility.yul\":10435:10471   */\n      tag_236\n      jump\t// in\n    tag_386:\n        /* \"#utility.yul\":10430:10433   */\n      dup5\n        /* \"#utility.yul\":10423:10472   */\n      mstore\n        /* \"#utility.yul\":10501:10505   */\n      0x20\n        /* \"#utility.yul\":10496:10499   */\n      dup5\n        /* \"#utility.yul\":10492:10506   */\n      add\n        /* \"#utility.yul\":10485:10506   */\n      swap4\n      pop\n        /* \"#utility.yul\":10373:10516   */\n      pop\n        /* \"#utility.yul\":10357:10361   */\n      0x20\n        /* \"#utility.yul\":10352:10355   */\n      dup2\n        /* \"#utility.yul\":10348:10362   */\n      add\n        /* \"#utility.yul\":10341:10362   */\n      swap1\n      pop\n        /* \"#utility.yul\":10297:10516   */\n      jump(tag_383)\n    tag_385:\n        /* \"#utility.yul\":10301:10322   */\n      pop\n        /* \"#utility.yul\":9916:10522   */\n      pop\n      pop\n        /* \"#utility.yul\":9815:10522   */\n      swap4\n      swap3\n      pop\n      pop\n      pop\n      jump\t// out\n        /* \"#utility.yul\":10544:10912   */\n    tag_238:\n        /* \"#utility.yul\":10614:10619   */\n      0x00\n        /* \"#utility.yul\":10663:10666   */\n      dup3\n        /* \"#utility.yul\":10656:10660   */\n      0x1f\n        /* \"#utility.yul\":10648:10654   */\n      dup4\n        /* \"#utility.yul\":10644:10661   */\n      add\n        /* \"#utility.yul\":10640:10667   */\n      slt\n        /* \"#utility.yul\":10630:10752   */\n      tag_388\n      jumpi\n        /* \"#utility.yul\":10671:10750   */\n      tag_389\n      tag_217\n      jump\t// in\n    tag_389:\n        /* \"#utility.yul\":10630:10752   */\n    tag_388:\n        /* \"#utility.yul\":10788:10794   */\n      dup2\n        /* \"#utility.yul\":10775:10795   */\n      calldataload\n        /* \"#utility.yul\":10813:10906   */\n      tag_390\n        /* \"#utility.yul\":10902:10905   */\n      dup5\n        /* \"#utility.yul\":10894:10900   */\n      dup3\n        /* \"#utility.yul\":10887:10891   */\n      0x20\n        /* \"#utility.yul\":10879:10885   */\n      dup7\n        /* \"#utility.yul\":10875:10892   */\n      add\n        /* \"#utility.yul\":10813:10906   */\n      tag_237\n      jump\t// in\n    tag_390:\n        /* \"#utility.yul\":10804:10906   */\n      swap2\n      pop\n        /* \"#utility.yul\":10620:10912   */\n      pop\n        /* \"#utility.yul\":10544:10912   */\n      swap3\n      swap2\n      pop\n      pop\n      jump\t// out\n        /* \"#utility.yul\":10918:12311   */\n    tag_64:\n        /* \"#utility.yul\":11078:11084   */\n      0x00\n        /* \"#utility.yul\":11086:11092   */\n      dup1\n        /* \"#utility.yul\":11094:11100   */\n      0x00\n        /* \"#utility.yul\":11102:11108   */\n      dup1\n        /* \"#utility.yul\":11151:11154   */\n      0x80\n        /* \"#utility.yul\":11139:11148   */\n      dup6\n        /* \"#utility.yul\":11130:11137   */\n      dup8\n        /* \"#utility.yul\":11126:11149   */\n      sub\n        /* \"#utility.yul\":11122:11155   */\n      slt\n        /* \"#utility.yul\":11119:11239   */\n      iszero\n      tag_392\n      jumpi\n        /* \"#utility.yul\":11158:11237   */\n      tag_393\n      tag_207\n      jump\t// in\n    tag_393:\n        /* \"#utility.yul\":11119:11239   */\n    tag_392:\n        /* \"#utility.yul\":11278:11279   */\n      0x00\n        /* \"#utility.yul\":11303:11356   */\n      tag_394\n        /* \"#utility.yul\":11348:11355   */\n      dup8\n        /* \"#utility.yul\":11339:11345   */\n      dup3\n        /* \"#utility.yul\":11328:11337   */\n      dup9\n        /* \"#utility.yul\":11324:11346   */\n      add\n        /* \"#utility.yul\":11303:11356   */\n      tag_211\n      jump\t// in\n    tag_394:\n        /* \"#utility.yul\":11293:11356   */\n      swap5\n      pop\n        /* \"#utility.yul\":11249:11366   */\n      pop\n        /* \"#utility.yul\":11433:11435   */\n      0x20\n        /* \"#utility.yul\":11422:11431   */\n      dup6\n        /* \"#utility.yul\":11418:11436   */\n      add\n        /* \"#utility.yul\":11405:11437   */\n      calldataload\n        /* \"#utility.yul\":11464:11482   */\n      0xffffffffffffffff\n        /* \"#utility.yul\":11456:11462   */\n      dup2\n        /* \"#utility.yul\":11453:11483   */\n      gt\n        /* \"#utility.yul\":11450:11567   */\n      iszero\n      tag_395\n      jumpi\n        /* \"#utility.yul\":11486:11565   */\n      tag_396\n      tag_208\n      jump\t// in\n    tag_396:\n        /* \"#utility.yul\":11450:11567   */\n    tag_395:\n        /* \"#utility.yul\":11591:11669   */\n      tag_397\n        /* \"#utility.yul\":11661:11668   */\n      dup8\n        /* \"#utility.yul\":11652:11658   */\n      dup3\n        /* \"#utility.yul\":11641:11650   */\n      dup9\n        /* \"#utility.yul\":11637:11659   */\n      add\n        /* \"#utility.yul\":11591:11669   */\n      tag_233\n      jump\t// in\n    tag_397:\n        /* \"#utility.yul\":11581:11669   */\n      swap4\n      pop\n        /* \"#utility.yul\":11376:11679   */\n      pop\n        /* \"#utility.yul\":11746:11748   */\n      0x40\n        /* \"#utility.yul\":11735:11744   */\n      dup6\n        /* \"#utility.yul\":11731:11749   */\n      add\n        /* \"#utility.yul\":11718:11750   */\n      calldataload\n        /* \"#utility.yul\":11777:11795   */\n      0xffffffffffffffff\n        /* \"#utility.yul\":11769:11775   */\n      dup2\n        /* \"#utility.yul\":11766:11796   */\n      gt\n        /* \"#utility.yul\":11763:11880   */\n      iszero\n      tag_398\n      jumpi\n        /* \"#utility.yul\":11799:11878   */\n      tag_399\n      tag_208\n      jump\t// in\n    tag_399:\n        /* \"#utility.yul\":11763:11880   */\n    tag_398:\n        /* \"#utility.yul\":11904:11982   */\n      tag_400\n        /* \"#utility.yul\":11974:11981   */\n      dup8\n        /* \"#utility.yul\":11965:11971   */\n      dup3\n        /* \"#utility.yul\":11954:11963   */\n      dup9\n        /* \"#utility.yul\":11950:11972   */\n      add\n        /* \"#utility.yul\":11904:11982   */\n      tag_233\n      jump\t// in\n    tag_400:\n        /* \"#utility.yul\":11894:11982   */\n      swap3\n      pop\n        /* \"#utility.yul\":11689:11992   */\n      pop\n        /* \"#utility.yul\":12059:12061   */\n      0x60\n        /* \"#utility.yul\":12048:12057   */\n      dup6\n        /* \"#utility.yul\":12044:12062   */\n      add\n        /* \"#utility.yul\":12031:12063   */\n      calldataload\n        /* \"#utility.yul\":12090:12108   */\n      0xffffffffffffffff\n        /* \"#utility.yul\":12082:12088   */\n      dup2\n        /* \"#utility.yul\":12079:12109   */\n      gt\n        /* \"#utility.yul\":12076:12193   */\n      iszero\n      tag_401\n      jumpi\n        /* \"#utility.yul\":12112:12191   */\n      tag_402\n      tag_208\n      jump\t// in\n    tag_402:\n        /* \"#utility.yul\":12076:12193   */\n    tag_401:\n        /* \"#utility.yul\":12217:12294   */\n      tag_403\n        /* \"#utility.yul\":12286:12293   */\n      dup8\n        /* \"#utility.yul\":12277:12283   */\n      dup3\n        /* \"#utility.yul\":12266:12275   */\n      dup9\n        /* \"#utility.yul\":12262:12284   */\n      add\n        /* \"#utility.yul\":12217:12294   */\n      tag_238\n      jump\t// in\n    tag_403:\n        /* \"#utility.yul\":12207:12294   */\n      swap2\n      pop\n        /* \"#utility.yul\":12002:12304   */\n      pop\n        /* \"#utility.yul\":10918:12311   */\n      swap3\n      swap6\n      swap2\n      swap5\n      pop\n      swap3\n      pop\n      jump\t// out\n        /* \"#utility.yul\":12317:12486   */\n    tag_239:\n        /* \"#utility.yul\":12401:12412   */\n      0x00\n        /* \"#utility.yul\":12435:12441   */\n      dup3\n        /* \"#utility.yul\":12430:12433   */\n      dup3\n        /* \"#utility.yul\":12423:12442   */\n      mstore\n        /* \"#utility.yul\":12475:12479   */\n      0x20\n        /* \"#utility.yul\":12470:12473   */\n      dup3\n        /* \"#utility.yul\":12466:12480   */\n      add\n        /* \"#utility.yul\":12451:12480   */\n      swap1\n      pop\n        /* \"#utility.yul\":12317:12486   */\n      swap3\n      swap2\n      pop\n      pop\n      jump\t// out\n        /* \"#utility.yul\":12492:12673   */\n    tag_240:\n        /* \"#utility.yul\":12632:12665   */\n      0x496e69746961746f72206d757374206265207468697320636f6e747261637400\n        /* \"#utility.yul\":12628:12629   */\n      0x00\n        /* \"#utility.yul\":12620:12626   */\n      dup3\n        /* \"#utility.yul\":12616:12630   */\n      add\n        /* \"#utility.yul\":12609:12666   */\n      mstore\n        /* \"#utility.yul\":12492:12673   */\n      pop\n      jump\t// out\n        /* \"#utility.yul\":12679:13045   */\n    tag_241:\n        /* \"#utility.yul\":12821:12824   */\n      0x00\n        /* \"#utility.yul\":12842:12909   */\n      tag_407\n        /* \"#utility.yul\":12906:12908   */\n      0x1f\n        /* \"#utility.yul\":12901:12904   */\n      dup4\n        /* \"#utility.yul\":12842:12909   */\n      tag_239\n      jump\t// in\n    tag_407:\n        /* \"#utility.yul\":12835:12909   */\n      swap2\n      pop\n        /* \"#utility.yul\":12918:13011   */\n      tag_408\n        /* \"#utility.yul\":13007:13010   */\n      dup3\n        /* \"#utility.yul\":12918:13011   */\n      tag_240\n      jump\t// in\n    tag_408:\n        /* \"#utility.yul\":13036:13038   */\n      0x20\n        /* \"#utility.yul\":13031:13034   */\n      dup3\n        /* \"#utility.yul\":13027:13039   */\n      add\n        /* \"#utility.yul\":13020:13039   */\n      swap1\n      pop\n        /* \"#utility.yul\":12679:13045   */\n      swap2\n      swap1\n      pop\n      jump\t// out\n        /* \"#utility.yul\":13051:13470   */\n    tag_76:\n        /* \"#utility.yul\":13217:13221   */\n      0x00\n        /* \"#utility.yul\":13255:13257   */\n      0x20\n        /* \"#utility.yul\":13244:13253   */\n      dup3\n        /* \"#utility.yul\":13240:13258   */\n      add\n        /* \"#utility.yul\":13232:13258   */\n      swap1\n      pop\n        /* \"#utility.yul\":13304:13313   */\n      dup2\n        /* \"#utility.yul\":13298:13302   */\n      dup2\n        /* \"#utility.yul\":13294:13314   */\n      sub\n        /* \"#utility.yul\":13290:13291   */\n      0x00\n        /* \"#utility.yul\":13279:13288   */\n      dup4\n        /* \"#utility.yul\":13275:13292   */\n      add\n        /* \"#utility.yul\":13268:13315   */\n      mstore\n        /* \"#utility.yul\":13332:13463   */\n      tag_410\n        /* \"#utility.yul\":13458:13462   */\n      dup2\n        /* \"#utility.yul\":13332:13463   */\n      tag_241\n      jump\t// in\n    tag_410:\n        /* \"#utility.yul\":13324:13463   */\n      swap1\n      pop\n        /* \"#utility.yul\":13051:13470   */\n      swap2\n      swap1\n      pop\n      jump\t// out\n        /* \"#utility.yul\":13476:13650   */\n    tag_242:\n        /* \"#utility.yul\":13616:13642   */\n      0x43616c6c206d75737420636f6d652066726f6d20504f4f4c0000000000000000\n        /* \"#utility.yul\":13612:13613   */\n      0x00\n        /* \"#utility.yul\":13604:13610   */\n      dup3\n        /* \"#utility.yul\":13600:13614   */\n      add\n        /* \"#utility.yul\":13593:13643   */\n      mstore\n        /* \"#utility.yul\":13476:13650   */\n      pop\n      jump\t// out\n        /* \"#utility.yul\":13656:14022   */\n    tag_243:\n        /* \"#utility.yul\":13798:13801   */\n      0x00\n        /* \"#utility.yul\":13819:13886   */\n      tag_413\n        /* \"#utility.yul\":13883:13885   */\n      0x18\n        /* \"#utility.yul\":13878:13881   */\n      dup4\n        /* \"#utility.yul\":13819:13886   */\n      tag_239\n      jump\t// in\n    tag_413:\n        /* \"#utility.yul\":13812:13886   */\n      swap2\n      pop\n        /* \"#utility.yul\":13895:13988   */\n      tag_414\n        /* \"#utility.yul\":13984:13987   */\n      dup3\n        /* \"#utility.yul\":13895:13988   */\n      tag_242\n      jump\t// in\n    tag_414:\n        /* \"#utility.yul\":14013:14015   */\n      0x20\n        /* \"#utility.yul\":14008:14011   */\n      dup3\n        /* \"#utility.yul\":14004:14016   */\n      add\n        /* \"#utility.yul\":13997:14016   */\n      swap1\n      pop\n        /* \"#utility.yul\":13656:14022   */\n      swap2\n      swap1\n      pop\n      jump\t// out\n        /* \"#utility.yul\":14028:14447   */\n    tag_79:\n        /* \"#utility.yul\":14194:14198   */\n      0x00\n        /* \"#utility.yul\":14232:14234   */\n      0x20\n        /* \"#utility.yul\":14221:14230   */\n      dup3\n        /* \"#utility.yul\":14217:14235   */\n      add\n        /* \"#utility.yul\":14209:14235   */\n      swap1\n      pop\n        /* \"#utility.yul\":14281:14290   */\n      dup2\n        /* \"#utility.yul\":14275:14279   */\n      dup2\n        /* \"#utility.yul\":14271:14291   */\n      sub\n        /* \"#utility.yul\":14267:14268   */\n      0x00\n        /* \"#utility.yul\":14256:14265   */\n      dup4\n        /* \"#utility.yul\":14252:14269   */\n      add\n        /* \"#utility.yul\":14245:14292   */\n      mstore\n        /* \"#utility.yul\":14309:14440   */\n      tag_416\n        /* \"#utility.yul\":14435:14439   */\n      dup2\n        /* \"#utility.yul\":14309:14440   */\n      tag_243\n      jump\t// in\n    tag_416:\n        /* \"#utility.yul\":14301:14440   */\n      swap1\n      pop\n        /* \"#utility.yul\":14028:14447   */\n      swap2\n      swap1\n      pop\n      jump\t// out\n        /* \"#utility.yul\":14453:14633   */\n    tag_82:\n        /* \"#utility.yul\":14501:14578   */\n      0x4e487b7100000000000000000000000000000000000000000000000000000000\n        /* \"#utility.yul\":14498:14499   */\n      0x00\n        /* \"#utility.yul\":14491:14579   */\n      mstore\n        /* \"#utility.yul\":14598:14602   */\n      0x32\n        /* \"#utility.yul\":14595:14596   */\n      0x04\n        /* \"#utility.yul\":14588:14603   */\n      mstore\n        /* \"#utility.yul\":14622:14626   */\n      0x24\n        /* \"#utility.yul\":14619:14620   */\n      0x00\n        /* \"#utility.yul\":14612:14627   */\n      revert\n        /* \"#utility.yul\":14639:14820   */\n    tag_244:\n        /* \"#utility.yul\":14779:14812   */\n      0x4173736574206d757374206d6174636820746865206c6f616e20746f6b656e00\n        /* \"#utility.yul\":14775:14776   */\n      0x00\n        /* \"#utility.yul\":14767:14773   */\n      dup3\n        /* \"#utility.yul\":14763:14777   */\n      add\n        /* \"#utility.yul\":14756:14813   */\n      mstore\n        /* \"#utility.yul\":14639:14820   */\n      pop\n      jump\t// out\n        /* \"#utility.yul\":14826:15192   */\n    tag_245:\n        /* \"#utility.yul\":14968:14971   */\n      0x00\n        /* \"#utility.yul\":14989:15056   */\n      tag_420\n        /* \"#utility.yul\":15053:15055   */\n      0x1f\n        /* \"#utility.yul\":15048:15051   */\n      dup4\n        /* \"#utility.yul\":14989:15056   */\n      tag_239\n      jump\t// in\n    tag_420:\n        /* \"#utility.yul\":14982:15056   */\n      swap2\n      pop\n        /* \"#utility.yul\":15065:15158   */\n      tag_421\n        /* \"#utility.yul\":15154:15157   */\n      dup3\n        /* \"#utility.yul\":15065:15158   */\n      tag_244\n      jump\t// in\n    tag_421:\n        /* \"#utility.yul\":15183:15185   */\n      0x20\n        /* \"#utility.yul\":15178:15181   */\n      dup3\n        /* \"#utility.yul\":15174:15186   */\n      add\n        /* \"#utility.yul\":15167:15186   */\n      swap1\n      pop\n        /* \"#utility.yul\":14826:15192   */\n      swap2\n      swap1\n      pop\n      jump\t// out\n        /* \"#utility.yul\":15198:15617   */\n    tag_86:\n        /* \"#utility.yul\":15364:15368   */\n      0x00\n        /* \"#utility.yul\":15402:15404   */\n      0x20\n        /* \"#utility.yul\":15391:15400   */\n      dup3\n        /* \"#utility.yul\":15387:15405   */\n      add\n        /* \"#utility.yul\":15379:15405   */\n      swap1\n      pop\n        /* \"#utility.yul\":15451:15460   */\n      dup2\n        /* \"#utility.yul\":15445:15449   */\n      dup2\n        /* \"#utility.yul\":15441:15461   */\n      sub\n        /* \"#utility.yul\":15437:15438   */\n      0x00\n        /* \"#utility.yul\":15426:15435   */\n      dup4\n        /* \"#utility.yul\":15422:15439   */\n      add\n        /* \"#utility.yul\":15415:15462   */\n      mstore\n        /* \"#utility.yul\":15479:15610   */\n      tag_423\n        /* \"#utility.yul\":15605:15609   */\n      dup2\n        /* \"#utility.yul\":15479:15610   */\n      tag_245\n      jump\t// in\n    tag_423:\n        /* \"#utility.yul\":15471:15610   */\n      swap1\n      pop\n        /* \"#utility.yul\":15198:15617   */\n      swap2\n      swap1\n      pop\n      jump\t// out\n        /* \"#utility.yul\":15623:15955   */\n    tag_91:\n        /* \"#utility.yul\":15744:15748   */\n      0x00\n        /* \"#utility.yul\":15782:15784   */\n      0x40\n        /* \"#utility.yul\":15771:15780   */\n      dup3\n        /* \"#utility.yul\":15767:15785   */\n      add\n        /* \"#utility.yul\":15759:15785   */\n      swap1\n      pop\n        /* \"#utility.yul\":15795:15866   */\n      tag_425\n        /* \"#utility.yul\":15863:15864   */\n      0x00\n        /* \"#utility.yul\":15852:15861   */\n      dup4\n        /* \"#utility.yul\":15848:15865   */\n      add\n        /* \"#utility.yul\":15839:15845   */\n      dup6\n        /* \"#utility.yul\":15795:15866   */\n      tag_223\n      jump\t// in\n    tag_425:\n        /* \"#utility.yul\":15876:15948   */\n      tag_426\n        /* \"#utility.yul\":15944:15946   */\n      0x20\n        /* \"#utility.yul\":15933:15942   */\n      dup4\n        /* \"#utility.yul\":15929:15947   */\n      add\n        /* \"#utility.yul\":15920:15926   */\n      dup5\n        /* \"#utility.yul\":15876:15948   */\n      tag_226\n      jump\t// in\n    tag_426:\n        /* \"#utility.yul\":15623:15955   */\n      swap4\n      swap3\n      pop\n      pop\n      pop\n      jump\t// out\n        /* \"#utility.yul\":15961:16077   */\n    tag_246:\n        /* \"#utility.yul\":16031:16052   */\n      tag_428\n        /* \"#utility.yul\":16046:16051   */\n      dup2\n        /* \"#utility.yul\":16031:16052   */\n      tag_221\n      jump\t// in\n    tag_428:\n        /* \"#utility.yul\":16024:16029   */\n      dup2\n        /* \"#utility.yul\":16021:16053   */\n      eq\n        /* \"#utility.yul\":16011:16071   */\n      tag_429\n      jumpi\n        /* \"#utility.yul\":16067:16068   */\n      0x00\n        /* \"#utility.yul\":16064:16065   */\n      dup1\n        /* \"#utility.yul\":16057:16069   */\n      revert\n        /* \"#utility.yul\":16011:16071   */\n    tag_429:\n        /* \"#utility.yul\":15961:16077   */\n      pop\n      jump\t// out\n        /* \"#utility.yul\":16083:16220   */\n    tag_247:\n        /* \"#utility.yul\":16137:16142   */\n      0x00\n        /* \"#utility.yul\":16168:16174   */\n      dup2\n        /* \"#utility.yul\":16162:16175   */\n      mload\n        /* \"#utility.yul\":16153:16175   */\n      swap1\n      pop\n        /* \"#utility.yul\":16184:16214   */\n      tag_431\n        /* \"#utility.yul\":16208:16213   */\n      dup2\n        /* \"#utility.yul\":16184:16214   */\n      tag_246\n      jump\t// in\n    tag_431:\n        /* \"#utility.yul\":16083:16220   */\n      swap3\n      swap2\n      pop\n      pop\n      jump\t// out\n        /* \"#utility.yul\":16226:16571   */\n    tag_95:\n        /* \"#utility.yul\":16293:16299   */\n      0x00\n        /* \"#utility.yul\":16342:16344   */\n      0x20\n        /* \"#utility.yul\":16330:16339   */\n      dup3\n        /* \"#utility.yul\":16321:16328   */\n      dup5\n        /* \"#utility.yul\":16317:16340   */\n      sub\n        /* \"#utility.yul\":16313:16345   */\n      slt\n        /* \"#utility.yul\":16310:16429   */\n      iszero\n      tag_433\n      jumpi\n        /* \"#utility.yul\":16348:16427   */\n      tag_434\n      tag_207\n      jump\t// in\n    tag_434:\n        /* \"#utility.yul\":16310:16429   */\n    tag_433:\n        /* \"#utility.yul\":16468:16469   */\n      0x00\n        /* \"#utility.yul\":16493:16554   */\n      tag_435\n        /* \"#utility.yul\":16546:16553   */\n      dup5\n        /* \"#utility.yul\":16537:16543   */\n      dup3\n        /* \"#utility.yul\":16526:16535   */\n      dup6\n        /* \"#utility.yul\":16522:16544   */\n      add\n        /* \"#utility.yul\":16493:16554   */\n      tag_247\n      jump\t// in\n    tag_435:\n        /* \"#utility.yul\":16483:16554   */\n      swap2\n      pop\n        /* \"#utility.yul\":16439:16564   */\n      pop\n        /* \"#utility.yul\":16226:16571   */\n      swap3\n      swap2\n      pop\n      pop\n      jump\t// out\n        /* \"#utility.yul\":16577:17237   */\n    tag_109:\n        /* \"#utility.yul\":16780:16784   */\n      0x00\n        /* \"#utility.yul\":16818:16821   */\n      0xa0\n        /* \"#utility.yul\":16807:16816   */\n      dup3\n        /* \"#utility.yul\":16803:16822   */\n      add\n        /* \"#utility.yul\":16795:16822   */\n      swap1\n      pop\n        /* \"#utility.yul\":16832:16903   */\n      tag_437\n        /* \"#utility.yul\":16900:16901   */\n      0x00\n        /* \"#utility.yul\":16889:16898   */\n      dup4\n        /* \"#utility.yul\":16885:16902   */\n      add\n        /* \"#utility.yul\":16876:16882   */\n      dup9\n        /* \"#utility.yul\":16832:16903   */\n      tag_223\n      jump\t// in\n    tag_437:\n        /* \"#utility.yul\":16913:16985   */\n      tag_438\n        /* \"#utility.yul\":16981:16983   */\n      0x20\n        /* \"#utility.yul\":16970:16979   */\n      dup4\n        /* \"#utility.yul\":16966:16984   */\n      add\n        /* \"#utility.yul\":16957:16963   */\n      dup8\n        /* \"#utility.yul\":16913:16985   */\n      tag_223\n      jump\t// in\n    tag_438:\n        /* \"#utility.yul\":16995:17067   */\n      tag_439\n        /* \"#utility.yul\":17063:17065   */\n      0x40\n        /* \"#utility.yul\":17052:17061   */\n      dup4\n        /* \"#utility.yul\":17048:17066   */\n      add\n        /* \"#utility.yul\":17039:17045   */\n      dup7\n        /* \"#utility.yul\":16995:17067   */\n      tag_223\n      jump\t// in\n    tag_439:\n        /* \"#utility.yul\":17077:17149   */\n      tag_440\n        /* \"#utility.yul\":17145:17147   */\n      0x60\n        /* \"#utility.yul\":17134:17143   */\n      dup4\n        /* \"#utility.yul\":17130:17148   */\n      add\n        /* \"#utility.yul\":17121:17127   */\n      dup6\n        /* \"#utility.yul\":17077:17149   */\n      tag_226\n      jump\t// in\n    tag_440:\n        /* \"#utility.yul\":17159:17230   */\n      tag_441\n        /* \"#utility.yul\":17225:17228   */\n      0x80\n        /* \"#utility.yul\":17214:17223   */\n      dup4\n        /* \"#utility.yul\":17210:17229   */\n      add\n        /* \"#utility.yul\":17201:17207   */\n      dup5\n        /* \"#utility.yul\":17159:17230   */\n      tag_213\n      jump\t// in\n    tag_441:\n        /* \"#utility.yul\":16577:17237   */\n      swap7\n      swap6\n      pop\n      pop\n      pop\n      pop\n      pop\n      pop\n      jump\t// out\n        /* \"#utility.yul\":17243:17386   */\n    tag_248:\n        /* \"#utility.yul\":17300:17305   */\n      0x00\n        /* \"#utility.yul\":17331:17337   */\n      dup2\n        /* \"#utility.yul\":17325:17338   */\n      mload\n        /* \"#utility.yul\":17316:17338   */\n      swap1\n      pop\n        /* \"#utility.yul\":17347:17380   */\n      tag_443\n        /* \"#utility.yul\":17374:17379   */\n      dup2\n        /* \"#utility.yul\":17347:17380   */\n      tag_210\n      jump\t// in\n    tag_443:\n        /* \"#utility.yul\":17243:17386   */\n      swap3\n      swap2\n      pop\n      pop\n      jump\t// out\n        /* \"#utility.yul\":17392:17743   */\n    tag_113:\n        /* \"#utility.yul\":17462:17468   */\n      0x00\n        /* \"#utility.yul\":17511:17513   */\n      0x20\n        /* \"#utility.yul\":17499:17508   */\n      dup3\n        /* \"#utility.yul\":17490:17497   */\n      dup5\n        /* \"#utility.yul\":17486:17509   */\n      sub\n        /* \"#utility.yul\":17482:17514   */\n      slt\n        /* \"#utility.yul\":17479:17598   */\n      iszero\n      tag_445\n      jumpi\n        /* \"#utility.yul\":17517:17596   */\n      tag_446\n      tag_207\n      jump\t// in\n    tag_446:\n        /* \"#utility.yul\":17479:17598   */\n    tag_445:\n        /* \"#utility.yul\":17637:17638   */\n      0x00\n        /* \"#utility.yul\":17662:17726   */\n      tag_447\n        /* \"#utility.yul\":17718:17725   */\n      dup5\n        /* \"#utility.yul\":17709:17715   */\n      dup3\n        /* \"#utility.yul\":17698:17707   */\n      dup6\n        /* \"#utility.yul\":17694:17716   */\n      add\n        /* \"#utility.yul\":17662:17726   */\n      tag_248\n      jump\t// in\n    tag_447:\n        /* \"#utility.yul\":17652:17726   */\n      swap2\n      pop\n        /* \"#utility.yul\":17608:17736   */\n      pop\n        /* \"#utility.yul\":17392:17743   */\n      swap3\n      swap2\n      pop\n      pop\n      jump\t// out\n        /* \"#utility.yul\":17749:17929   */\n    tag_249:\n        /* \"#utility.yul\":17797:17874   */\n      0x4e487b7100000000000000000000000000000000000000000000000000000000\n        /* \"#utility.yul\":17794:17795   */\n      0x00\n        /* \"#utility.yul\":17787:17875   */\n      mstore\n        /* \"#utility.yul\":17894:17898   */\n      0x11\n        /* \"#utility.yul\":17891:17892   */\n      0x04\n        /* \"#utility.yul\":17884:17899   */\n      mstore\n        /* \"#utility.yul\":17918:17922   */\n      0x24\n        /* \"#utility.yul\":17915:17916   */\n      0x00\n        /* \"#utility.yul\":17908:17923   */\n      revert\n        /* \"#utility.yul\":17935:18126   */\n    tag_138:\n        /* \"#utility.yul\":17975:17978   */\n      0x00\n        /* \"#utility.yul\":17994:18014   */\n      tag_450\n        /* \"#utility.yul\":18012:18013   */\n      dup3\n        /* \"#utility.yul\":17994:18014   */\n      tag_209\n      jump\t// in\n    tag_450:\n        /* \"#utility.yul\":17989:18014   */\n      swap2\n      pop\n        /* \"#utility.yul\":18028:18048   */\n      tag_451\n        /* \"#utility.yul\":18046:18047   */\n      dup4\n        /* \"#utility.yul\":18028:18048   */\n      tag_209\n      jump\t// in\n    tag_451:\n        /* \"#utility.yul\":18023:18048   */\n      swap3\n      pop\n        /* \"#utility.yul\":18071:18072   */\n      dup3\n        /* \"#utility.yul\":18068:18069   */\n      dup3\n        /* \"#utility.yul\":18064:18073   */\n      add\n        /* \"#utility.yul\":18057:18073   */\n      swap1\n      pop\n        /* \"#utility.yul\":18092:18095   */\n      dup1\n        /* \"#utility.yul\":18089:18090   */\n      dup3\n        /* \"#utility.yul\":18086:18096   */\n      gt\n        /* \"#utility.yul\":18083:18119   */\n      iszero\n      tag_452\n      jumpi\n        /* \"#utility.yul\":18099:18117   */\n      tag_453\n      tag_249\n      jump\t// in\n    tag_453:\n        /* \"#utility.yul\":18083:18119   */\n    tag_452:\n        /* \"#utility.yul\":17935:18126   */\n      swap3\n      swap2\n      pop\n      pop\n      jump\t// out\n        /* \"#utility.yul\":18132:18365   */\n    tag_250:\n        /* \"#utility.yul\":18272:18306   */\n      0x4f6e6c792074686520636f6e7472616374206f776e65722063616e2063616c6c\n        /* \"#utility.yul\":18268:18269   */\n      0x00\n        /* \"#utility.yul\":18260:18266   */\n      dup3\n        /* \"#utility.yul\":18256:18270   */\n      add\n        /* \"#utility.yul\":18249:18307   */\n      mstore\n        /* \"#utility.yul\":18341:18357   */\n      0x20746869732066756e6374696f6e000000000000000000000000000000000000\n        /* \"#utility.yul\":18336:18338   */\n      0x20\n        /* \"#utility.yul\":18328:18334   */\n      dup3\n        /* \"#utility.yul\":18324:18339   */\n      add\n        /* \"#utility.yul\":18317:18358   */\n      mstore\n        /* \"#utility.yul\":18132:18365   */\n      pop\n      jump\t// out\n        /* \"#utility.yul\":18371:18737   */\n    tag_251:\n        /* \"#utility.yul\":18513:18516   */\n      0x00\n        /* \"#utility.yul\":18534:18601   */\n      tag_456\n        /* \"#utility.yul\":18598:18600   */\n      0x2e\n        /* \"#utility.yul\":18593:18596   */\n      dup4\n        /* \"#utility.yul\":18534:18601   */\n      tag_239\n      jump\t// in\n    tag_456:\n        /* \"#utility.yul\":18527:18601   */\n      swap2\n      pop\n        /* \"#utility.yul\":18610:18703   */\n      tag_457\n        /* \"#utility.yul\":18699:18702   */\n      dup3\n        /* \"#utility.yul\":18610:18703   */\n      tag_250\n      jump\t// in\n    tag_457:\n        /* \"#utility.yul\":18728:18730   */\n      0x40\n        /* \"#utility.yul\":18723:18726   */\n      dup3\n        /* \"#utility.yul\":18719:18731   */\n      add\n        /* \"#utility.yul\":18712:18731   */\n      swap1\n      pop\n        /* \"#utility.yul\":18371:18737   */\n      swap2\n      swap1\n      pop\n      jump\t// out\n        /* \"#utility.yul\":18743:19162   */\n    tag_150:\n        /* \"#utility.yul\":18909:18913   */\n      0x00\n        /* \"#utility.yul\":18947:18949   */\n      0x20\n        /* \"#utility.yul\":18936:18945   */\n      dup3\n        /* \"#utility.yul\":18932:18950   */\n      add\n        /* \"#utility.yul\":18924:18950   */\n      swap1\n      pop\n        /* \"#utility.yul\":18996:19005   */\n      dup2\n        /* \"#utility.yul\":18990:18994   */\n      dup2\n        /* \"#utility.yul\":18986:19006   */\n      sub\n        /* \"#utility.yul\":18982:18983   */\n      0x00\n        /* \"#utility.yul\":18971:18980   */\n      dup4\n        /* \"#utility.yul\":18967:18984   */\n      add\n        /* \"#utility.yul\":18960:19007   */\n      mstore\n        /* \"#utility.yul\":19024:19155   */\n      tag_459\n        /* \"#utility.yul\":19150:19154   */\n      dup2\n        /* \"#utility.yul\":19024:19155   */\n      tag_251\n      jump\t// in\n    tag_459:\n        /* \"#utility.yul\":19016:19155   */\n      swap1\n      pop\n        /* \"#utility.yul\":18743:19162   */\n      swap2\n      swap1\n      pop\n      jump\t// out\n        /* \"#utility.yul\":19168:19340   */\n    tag_252:\n        /* \"#utility.yul\":19308:19332   */\n      0x4172726179206c656e677468206d757374206265203200000000000000000000\n        /* \"#utility.yul\":19304:19305   */\n      0x00\n        /* \"#utility.yul\":19296:19302   */\n      dup3\n        /* \"#utility.yul\":19292:19306   */\n      add\n        /* \"#utility.yul\":19285:19333   */\n      mstore\n        /* \"#utility.yul\":19168:19340   */\n      pop\n      jump\t// out\n        /* \"#utility.yul\":19346:19712   */\n    tag_253:\n        /* \"#utility.yul\":19488:19491   */\n      0x00\n        /* \"#utility.yul\":19509:19576   */\n      tag_462\n        /* \"#utility.yul\":19573:19575   */\n      0x16\n        /* \"#utility.yul\":19568:19571   */\n      dup4\n        /* \"#utility.yul\":19509:19576   */\n      tag_239\n      jump\t// in\n    tag_462:\n        /* \"#utility.yul\":19502:19576   */\n      swap2\n      pop\n        /* \"#utility.yul\":19585:19678   */\n      tag_463\n        /* \"#utility.yul\":19674:19677   */\n      dup3\n        /* \"#utility.yul\":19585:19678   */\n      tag_252\n      jump\t// in\n    tag_463:\n        /* \"#utility.yul\":19703:19705   */\n      0x20\n        /* \"#utility.yul\":19698:19701   */\n      dup3\n        /* \"#utility.yul\":19694:19706   */\n      add\n        /* \"#utility.yul\":19687:19706   */\n      swap1\n      pop\n        /* \"#utility.yul\":19346:19712   */\n      swap2\n      swap1\n      pop\n      jump\t// out\n        /* \"#utility.yul\":19718:20137   */\n    tag_166:\n        /* \"#utility.yul\":19884:19888   */\n      0x00\n        /* \"#utility.yul\":19922:19924   */\n      0x20\n        /* \"#utility.yul\":19911:19920   */\n      dup3\n        /* \"#utility.yul\":19907:19925   */\n      add\n        /* \"#utility.yul\":19899:19925   */\n      swap1\n      pop\n        /* \"#utility.yul\":19971:19980   */\n      dup2\n        /* \"#utility.yul\":19965:19969   */\n      dup2\n        /* \"#utility.yul\":19961:19981   */\n      sub\n        /* \"#utility.yul\":19957:19958   */\n      0x00\n        /* \"#utility.yul\":19946:19955   */\n      dup4\n        /* \"#utility.yul\":19942:19959   */\n      add\n        /* \"#utility.yul\":19935:19982   */\n      mstore\n        /* \"#utility.yul\":19999:20130   */\n      tag_465\n        /* \"#utility.yul\":20125:20129   */\n      dup2\n        /* \"#utility.yul\":19999:20130   */\n      tag_253\n      jump\t// in\n    tag_465:\n        /* \"#utility.yul\":19991:20130   */\n      swap1\n      pop\n        /* \"#utility.yul\":19718:20137   */\n      swap2\n      swap1\n      pop\n      jump\t// out\n        /* \"#utility.yul\":20143:20317   */\n    tag_254:\n        /* \"#utility.yul\":20283:20309   */\n      0x4172726179206c656e67746873206d757374206d617463680000000000000000\n        /* \"#utility.yul\":20279:20280   */\n      0x00\n        /* \"#utility.yul\":20271:20277   */\n      dup3\n        /* \"#utility.yul\":20267:20281   */\n      add\n        /* \"#utility.yul\":20260:20310   */\n      mstore\n        /* \"#utility.yul\":20143:20317   */\n      pop\n      jump\t// out\n        /* \"#utility.yul\":20323:20689   */\n    tag_255:\n        /* \"#utility.yul\":20465:20468   */\n      0x00\n        /* \"#utility.yul\":20486:20553   */\n      tag_468\n        /* \"#utility.yul\":20550:20552   */\n      0x18\n        /* \"#utility.yul\":20545:20548   */\n      dup4\n        /* \"#utility.yul\":20486:20553   */\n      tag_239\n      jump\t// in\n    tag_468:\n        /* \"#utility.yul\":20479:20553   */\n      swap2\n      pop\n        /* \"#utility.yul\":20562:20655   */\n      tag_469\n        /* \"#utility.yul\":20651:20654   */\n      dup3\n        /* \"#utility.yul\":20562:20655   */\n      tag_254\n      jump\t// in\n    tag_469:\n        /* \"#utility.yul\":20680:20682   */\n      0x20\n        /* \"#utility.yul\":20675:20678   */\n      dup3\n        /* \"#utility.yul\":20671:20683   */\n      add\n        /* \"#utility.yul\":20664:20683   */\n      swap1\n      pop\n        /* \"#utility.yul\":20323:20689   */\n      swap2\n      swap1\n      pop\n      jump\t// out\n        /* \"#utility.yul\":20695:21114   */\n    tag_170:\n        /* \"#utility.yul\":20861:20865   */\n      0x00\n        /* \"#utility.yul\":20899:20901   */\n      0x20\n        /* \"#utility.yul\":20888:20897   */\n      dup3\n        /* \"#utility.yul\":20884:20902   */\n      add\n        /* \"#utility.yul\":20876:20902   */\n      swap1\n      pop\n        /* \"#utility.yul\":20948:20957   */\n      dup2\n        /* \"#utility.yul\":20942:20946   */\n      dup2\n        /* \"#utility.yul\":20938:20958   */\n      sub\n        /* \"#utility.yul\":20934:20935   */\n      0x00\n        /* \"#utility.yul\":20923:20932   */\n      dup4\n        /* \"#utility.yul\":20919:20936   */\n      add\n        /* \"#utility.yul\":20912:20959   */\n      mstore\n        /* \"#utility.yul\":20976:21107   */\n      tag_471\n        /* \"#utility.yul\":21102:21106   */\n      dup2\n        /* \"#utility.yul\":20976:21107   */\n      tag_255\n      jump\t// in\n    tag_471:\n        /* \"#utility.yul\":20968:21107   */\n      swap1\n      pop\n        /* \"#utility.yul\":20695:21114   */\n      swap2\n      swap1\n      pop\n      jump\t// out\n        /* \"#utility.yul\":21120:21218   */\n    tag_256:\n        /* \"#utility.yul\":21171:21177   */\n      0x00\n        /* \"#utility.yul\":21205:21210   */\n      dup2\n        /* \"#utility.yul\":21199:21211   */\n      mload\n        /* \"#utility.yul\":21189:21211   */\n      swap1\n      pop\n        /* \"#utility.yul\":21120:21218   */\n      swap2\n      swap1\n      pop\n      jump\t// out\n        /* \"#utility.yul\":21224:21392   */\n    tag_257:\n        /* \"#utility.yul\":21307:21318   */\n      0x00\n        /* \"#utility.yul\":21341:21347   */\n      dup3\n        /* \"#utility.yul\":21336:21339   */\n      dup3\n        /* \"#utility.yul\":21329:21348   */\n      mstore\n        /* \"#utility.yul\":21381:21385   */\n      0x20\n        /* \"#utility.yul\":21376:21379   */\n      dup3\n        /* \"#utility.yul\":21372:21386   */\n      add\n        /* \"#utility.yul\":21357:21386   */\n      swap1\n      pop\n        /* \"#utility.yul\":21224:21392   */\n      swap3\n      swap2\n      pop\n      pop\n      jump\t// out\n        /* \"#utility.yul\":21398:21537   */\n    tag_258:\n        /* \"#utility.yul\":21487:21493   */\n      dup3\n        /* \"#utility.yul\":21482:21485   */\n      dup2\n        /* \"#utility.yul\":21477:21480   */\n      dup4\n        /* \"#utility.yul\":21471:21494   */\n      mcopy\n        /* \"#utility.yul\":21528:21529   */\n      0x00\n        /* \"#utility.yul\":21519:21525   */\n      dup4\n        /* \"#utility.yul\":21514:21517   */\n      dup4\n        /* \"#utility.yul\":21510:21526   */\n      add\n        /* \"#utility.yul\":21503:21530   */\n      mstore\n        /* \"#utility.yul\":21398:21537   */\n      pop\n      pop\n      pop\n      jump\t// out\n        /* \"#utility.yul\":21543:21916   */\n    tag_259:\n        /* \"#utility.yul\":21629:21632   */\n      0x00\n        /* \"#utility.yul\":21657:21695   */\n      tag_476\n        /* \"#utility.yul\":21689:21694   */\n      dup3\n        /* \"#utility.yul\":21657:21695   */\n      tag_256\n      jump\t// in\n    tag_476:\n        /* \"#utility.yul\":21711:21781   */\n      tag_477\n        /* \"#utility.yul\":21774:21780   */\n      dup2\n        /* \"#utility.yul\":21769:21772   */\n      dup6\n        /* \"#utility.yul\":21711:21781   */\n      tag_257\n      jump\t// in\n    tag_477:\n        /* \"#utility.yul\":21704:21781   */\n      swap4\n      pop\n        /* \"#utility.yul\":21790:21855   */\n      tag_478\n        /* \"#utility.yul\":21848:21854   */\n      dup2\n        /* \"#utility.yul\":21843:21846   */\n      dup6\n        /* \"#utility.yul\":21836:21840   */\n      0x20\n        /* \"#utility.yul\":21829:21834   */\n      dup7\n        /* \"#utility.yul\":21825:21841   */\n      add\n        /* \"#utility.yul\":21790:21855   */\n      tag_258\n      jump\t// in\n    tag_478:\n        /* \"#utility.yul\":21880:21909   */\n      tag_479\n        /* \"#utility.yul\":21902:21908   */\n      dup2\n        /* \"#utility.yul\":21880:21909   */\n      tag_227\n      jump\t// in\n    tag_479:\n        /* \"#utility.yul\":21875:21878   */\n      dup5\n        /* \"#utility.yul\":21871:21910   */\n      add\n        /* \"#utility.yul\":21864:21910   */\n      swap2\n      pop\n        /* \"#utility.yul\":21633:21916   */\n      pop\n        /* \"#utility.yul\":21543:21916   */\n      swap3\n      swap2\n      pop\n      pop\n      jump\t// out\n        /* \"#utility.yul\":21922:22011   */\n    tag_260:\n        /* \"#utility.yul\":21958:21965   */\n      0x00\n        /* \"#utility.yul\":21998:22004   */\n      0xffff\n        /* \"#utility.yul\":21991:21996   */\n      dup3\n        /* \"#utility.yul\":21987:22005   */\n      and\n        /* \"#utility.yul\":21976:22005   */\n      swap1\n      pop\n        /* \"#utility.yul\":21922:22011   */\n      swap2\n      swap1\n      pop\n      jump\t// out\n        /* \"#utility.yul\":22017:22132   */\n    tag_261:\n        /* \"#utility.yul\":22102:22125   */\n      tag_482\n        /* \"#utility.yul\":22119:22124   */\n      dup2\n        /* \"#utility.yul\":22102:22125   */\n      tag_260\n      jump\t// in\n    tag_482:\n        /* \"#utility.yul\":22097:22100   */\n      dup3\n        /* \"#utility.yul\":22090:22126   */\n      mstore\n        /* \"#utility.yul\":22017:22132   */\n      pop\n      pop\n      jump\t// out\n        /* \"#utility.yul\":22138:22885   */\n    tag_179:\n        /* \"#utility.yul\":22359:22363   */\n      0x00\n        /* \"#utility.yul\":22397:22400   */\n      0xa0\n        /* \"#utility.yul\":22386:22395   */\n      dup3\n        /* \"#utility.yul\":22382:22401   */\n      add\n        /* \"#utility.yul\":22374:22401   */\n      swap1\n      pop\n        /* \"#utility.yul\":22411:22482   */\n      tag_484\n        /* \"#utility.yul\":22479:22480   */\n      0x00\n        /* \"#utility.yul\":22468:22477   */\n      dup4\n        /* \"#utility.yul\":22464:22481   */\n      add\n        /* \"#utility.yul\":22455:22461   */\n      dup9\n        /* \"#utility.yul\":22411:22482   */\n      tag_223\n      jump\t// in\n    tag_484:\n        /* \"#utility.yul\":22492:22564   */\n      tag_485\n        /* \"#utility.yul\":22560:22562   */\n      0x20\n        /* \"#utility.yul\":22549:22558   */\n      dup4\n        /* \"#utility.yul\":22545:22563   */\n      add\n        /* \"#utility.yul\":22536:22542   */\n      dup8\n        /* \"#utility.yul\":22492:22564   */\n      tag_223\n      jump\t// in\n    tag_485:\n        /* \"#utility.yul\":22574:22646   */\n      tag_486\n        /* \"#utility.yul\":22642:22644   */\n      0x40\n        /* \"#utility.yul\":22631:22640   */\n      dup4\n        /* \"#utility.yul\":22627:22645   */\n      add\n        /* \"#utility.yul\":22618:22624   */\n      dup7\n        /* \"#utility.yul\":22574:22646   */\n      tag_226\n      jump\t// in\n    tag_486:\n        /* \"#utility.yul\":22693:22702   */\n      dup2\n        /* \"#utility.yul\":22687:22691   */\n      dup2\n        /* \"#utility.yul\":22683:22703   */\n      sub\n        /* \"#utility.yul\":22678:22680   */\n      0x60\n        /* \"#utility.yul\":22667:22676   */\n      dup4\n        /* \"#utility.yul\":22663:22681   */\n      add\n        /* \"#utility.yul\":22656:22704   */\n      mstore\n        /* \"#utility.yul\":22721:22797   */\n      tag_487\n        /* \"#utility.yul\":22792:22796   */\n      dup2\n        /* \"#utility.yul\":22783:22789   */\n      dup6\n        /* \"#utility.yul\":22721:22797   */\n      tag_259\n      jump\t// in\n    tag_487:\n        /* \"#utility.yul\":22713:22797   */\n      swap1\n      pop\n        /* \"#utility.yul\":22807:22878   */\n      tag_488\n        /* \"#utility.yul\":22873:22876   */\n      0x80\n        /* \"#utility.yul\":22862:22871   */\n      dup4\n        /* \"#utility.yul\":22858:22877   */\n      add\n        /* \"#utility.yul\":22849:22855   */\n      dup5\n        /* \"#utility.yul\":22807:22878   */\n      tag_261\n      jump\t// in\n    tag_488:\n        /* \"#utility.yul\":22138:22885   */\n      swap7\n      swap6\n      pop\n      pop\n      pop\n      pop\n      pop\n      pop\n      jump\t// out\n\n    auxdata: 0xa2646970667358221220921ee66b85dcb003d0a22d3d674c39bd1f4136e78bc08800e32c6b87d203c60764736f6c63430008190033\n}\n",
				"bytecode": {
					"linkReferences": {},
					"object": "60c060405234801561000f575f80fd5b50604051611e59380380611e59833981810160405281019061003191906101eb565b818073ffffffffffffffffffffffffffffffffffffffff1660808173ffffffffffffffffffffffffffffffffffffffff16815250508073ffffffffffffffffffffffffffffffffffffffff1663026b1d5f6040518163ffffffff1660e01b8152600401602060405180830381865afa1580156100af573d5f803e3d5ffd5b505050506040513d601f19601f820116820180604052508101906100d39190610229565b73ffffffffffffffffffffffffffffffffffffffff1660a08173ffffffffffffffffffffffffffffffffffffffff168152505050335f806101000a81548173ffffffffffffffffffffffffffffffffffffffff021916908373ffffffffffffffffffffffffffffffffffffffff1602179055508060055f6101000a81548173ffffffffffffffffffffffffffffffffffffffff021916908373ffffffffffffffffffffffffffffffffffffffff1602179055505050610254565b5f80fd5b5f73ffffffffffffffffffffffffffffffffffffffff82169050919050565b5f6101ba82610191565b9050919050565b6101ca816101b0565b81146101d4575f80fd5b50565b5f815190506101e5816101c1565b92915050565b5f80604083850312156102015761020061018d565b5b5f61020e858286016101d7565b925050602061021f858286016101d7565b9150509250929050565b5f6020828403121561023e5761023d61018d565b5b5f61024b848285016101d7565b91505092915050565b60805160a051611bcf61028a5f395f81816103640152818161099101528181610c1f0152610dce01525f61029b0152611bcf5ff3fe608060405260043610610094575f3560e01c806351cff8d91161005857806351cff8d9146101b95780637535d246146101e15780639d585f7f1461020b578063a944897114610235578063f8b2cb4f1461025d5761009b565b80630542975c1461009f57806311236758146100c95780631b11d0ff146101055780631d4794d0146101415780634f64b2be1461017d5761009b565b3661009b57005b5f80fd5b3480156100aa575f80fd5b506100b3610299565b6040516100c091906110c5565b60405180910390f35b3480156100d4575f80fd5b506100ef60048036038101906100ea9190611122565b6102bd565b6040516100fc919061116a565b60405180910390f35b348015610110575f80fd5b5061012b6004803603810190610126919061121f565b6102f3565b60405161013891906112cf565b60405180910390f35b34801561014c575f80fd5b5061016760048036038101906101629190611122565b610a1f565b60405161017491906112f7565b60405180910390f35b348015610188575f80fd5b506101a3600480360381019061019e9190611122565b610a5a565b6040516101b091906112f7565b60405180910390f35b3480156101c4575f80fd5b506101df60048036038101906101da9190611310565b610a95565b005b3480156101ec575f80fd5b506101f5610c1d565b604051610202919061135b565b60405180910390f35b348015610216575f80fd5b5061021f610c41565b60405161022c9190611383565b60405180910390f35b348015610240575f80fd5b5061025b600480360381019061025691906115ce565b610c47565b005b348015610268575f80fd5b50610283600480360381019061027e9190611310565b610e7f565b6040516102909190611383565b60405180910390f35b7f000000000000000000000000000000000000000000000000000000000000000081565b600481815481106102cc575f80fd5b905f5260205f2090600a9182820401919006600302915054906101000a900462ffffff1681565b5f3073ffffffffffffffffffffffffffffffffffffffff168473ffffffffffffffffffffffffffffffffffffffff1614610362576040517f08c379a0000000000000000000000000000000000000000000000000000000008152600401610359906116e0565b60405180910390fd5b7f000000000000000000000000000000000000000000000000000000000000000073ffffffffffffffffffffffffffffffffffffffff163373ffffffffffffffffffffffffffffffffffffffff16146103f0576040517f08c379a00000000000000000000000000000000000000000000000000000000081526004016103e790611748565b60405180910390fd5b60025f8154811061040457610403611766565b5b905f5260205f20015f9054906101000a900473ffffffffffffffffffffffffffffffffffffffff1673ffffffffffffffffffffffffffffffffffffffff168773ffffffffffffffffffffffffffffffffffffffff1614610499576040517f08c379a0000000000000000000000000000000000000000000000000000000008152600401610490906117dd565b60405180910390fd5b60025f815481106104ad576104ac611766565b5b905f5260205f20015f9054906101000a900473ffffffffffffffffffffffffffffffffffffffff1673ffffffffffffffffffffffffffffffffffffffff1663095ea7b360055f9054906101000a900473ffffffffffffffffffffffffffffffffffffffff16886040518363ffffffff1660e01b81526004016105309291906117fb565b6020604051808303815f875af115801561054c573d5f803e3d5ffd5b505050506040513d601f19601f82011682018060405250810190610570919061184c565b505f60055f9054906101000a900473ffffffffffffffffffffffffffffffffffffffff1673ffffffffffffffffffffffffffffffffffffffff1663f6e8f4ff60025f815481106105c3576105c2611766565b5b905f5260205f20015f9054906101000a900473ffffffffffffffffffffffffffffffffffffffff166002600181548110610600576105ff611766565b5b905f5260205f20015f9054906101000a900473ffffffffffffffffffffffffffffffffffffffff1660035f8154811061063c5761063b611766565b5b905f5260205f20015f9054906101000a900473ffffffffffffffffffffffffffffffffffffffff168b60045f8154811061067957610678611766565b5b905f5260205f2090600a91828204019190066003029054906101000a900462ffffff166040518663ffffffff1660e01b81526004016106bc959493929190611877565b6020604051808303815f875af11580156106d8573d5f803e3d5ffd5b505050506040513d601f19601f820116820180604052508101906106fc91906118dc565b9050600260018154811061071357610712611766565b5b905f5260205f20015f9054906101000a900473ffffffffffffffffffffffffffffffffffffffff1673ffffffffffffffffffffffffffffffffffffffff1663095ea7b360055f9054906101000a900473ffffffffffffffffffffffffffffffffffffffff16836040518363ffffffff1660e01b81526004016107969291906117fb565b6020604051808303815f875af11580156107b2573d5f803e3d5ffd5b505050506040513d601f19601f820116820180604052508101906107d6919061184c565b5060055f9054906101000a900473ffffffffffffffffffffffffffffffffffffffff1673ffffffffffffffffffffffffffffffffffffffff1663f6e8f4ff600260018154811061082957610828611766565b5b905f5260205f20015f9054906101000a900473ffffffffffffffffffffffffffffffffffffffff1660025f8154811061086557610864611766565b5b905f5260205f20015f9054906101000a900473ffffffffffffffffffffffffffffffffffffffff1660036001815481106108a2576108a1611766565b5b905f5260205f20015f9054906101000a900473ffffffffffffffffffffffffffffffffffffffff168560046001815481106108e0576108df611766565b5b905f5260205f2090600a91828204019190066003029054906101000a900462ffffff166040518663ffffffff1660e01b8152600401610923959493929190611877565b6020604051808303815f875af115801561093f573d5f803e3d5ffd5b505050506040513d601f19601f8201168201806040525081019061096391906118dc565b505f86886109719190611934565b90508873ffffffffffffffffffffffffffffffffffffffff1663095ea7b37f0000000000000000000000000000000000000000000000000000000000000000836040518363ffffffff1660e01b81526004016109ce9291906117fb565b6020604051808303815f875af11580156109ea573d5f803e3d5ffd5b505050506040513d601f19601f82011682018060405250810190610a0e919061184c565b506001925050509695505050505050565b60038181548110610a2e575f80fd5b905f5260205f20015f915054906101000a900473ffffffffffffffffffffffffffffffffffffffff1681565b60028181548110610a69575f80fd5b905f5260205f20015f915054906101000a900473ffffffffffffffffffffffffffffffffffffffff1681565b5f8054906101000a900473ffffffffffffffffffffffffffffffffffffffff1673ffffffffffffffffffffffffffffffffffffffff163373ffffffffffffffffffffffffffffffffffffffff1614610b22576040517f08c379a0000000000000000000000000000000000000000000000000000000008152600401610b19906119d7565b60405180910390fd5b5f8190508073ffffffffffffffffffffffffffffffffffffffff1663a9059cbb338373ffffffffffffffffffffffffffffffffffffffff166370a08231306040518263ffffffff1660e01b8152600401610b7c91906112f7565b602060405180830381865afa158015610b97573d5f803e3d5ffd5b505050506040513d601f19601f82011682018060405250810190610bbb91906118dc565b6040518363ffffffff1660e01b8152600401610bd89291906117fb565b6020604051808303815f875af1158015610bf4573d5f803e3d5ffd5b505050506040513d601f19601f82011682018060405250810190610c18919061184c565b505050565b7f000000000000000000000000000000000000000000000000000000000000000081565b60015481565b5f8054906101000a900473ffffffffffffffffffffffffffffffffffffffff1673ffffffffffffffffffffffffffffffffffffffff163373ffffffffffffffffffffffffffffffffffffffff1614610cd4576040517f08c379a0000000000000000000000000000000000000000000000000000000008152600401610ccb906119d7565b60405180910390fd5b6002835114610d18576040517f08c379a0000000000000000000000000000000000000000000000000000000008152600401610d0f90611a3f565b60405180910390fd5b81518351148015610d2a575080518351145b610d69576040517f08c379a0000000000000000000000000000000000000000000000000000000008152600401610d6090611aa7565b60405180910390fd5b836001819055508260029080519060200190610d86929190610eff565b508160039080519060200190610d9d929190610eff565b508060049080519060200190610db4929190610f86565b505f3090505f60405180602001604052805f81525090505f7f000000000000000000000000000000000000000000000000000000000000000073ffffffffffffffffffffffffffffffffffffffff166342b0b77c84885f81518110610e1c57610e1b611766565b5b602002602001015160015486866040518663ffffffff1660e01b8152600401610e49959493929190611b41565b5f604051808303815f87803b158015610e60575f80fd5b505af1158015610e72573d5f803e3d5ffd5b5050505050505050505050565b5f8173ffffffffffffffffffffffffffffffffffffffff166370a08231306040518263ffffffff1660e01b8152600401610eb991906112f7565b602060405180830381865afa158015610ed4573d5f803e3d5ffd5b505050506040513d601f19601f82011682018060405250810190610ef891906118dc565b9050919050565b828054828255905f5260205f20908101928215610f75579160200282015b82811115610f74578251825f6101000a81548173ffffffffffffffffffffffffffffffffffffffff021916908373ffffffffffffffffffffffffffffffffffffffff16021790555091602001919060010190610f1d565b5b509050610f829190611030565b5090565b828054828255905f5260205f2090600901600a9004810192821561101f579160200282015f5b83821115610fee57835183826101000a81548162ffffff021916908362ffffff1602179055509260200192600301602081600201049283019260010302610fac565b801561101d5782816101000a81549062ffffff0219169055600301602081600201049283019260010302610fee565b505b50905061102c9190611030565b5090565b5b80821115611047575f815f905550600101611031565b5090565b5f73ffffffffffffffffffffffffffffffffffffffff82169050919050565b5f819050919050565b5f61108d6110886110838461104b565b61106a565b61104b565b9050919050565b5f61109e82611073565b9050919050565b5f6110af82611094565b9050919050565b6110bf816110a5565b82525050565b5f6020820190506110d85f8301846110b6565b92915050565b5f604051905090565b5f80fd5b5f80fd5b5f819050919050565b611101816110ef565b811461110b575f80fd5b50565b5f8135905061111c816110f8565b92915050565b5f60208284031215611137576111366110e7565b5b5f6111448482850161110e565b91505092915050565b5f62ffffff82169050919050565b6111648161114d565b82525050565b5f60208201905061117d5f83018461115b565b92915050565b5f61118d8261104b565b9050919050565b61119d81611183565b81146111a7575f80fd5b50565b5f813590506111b881611194565b92915050565b5f80fd5b5f80fd5b5f80fd5b5f8083601f8401126111df576111de6111be565b5b8235905067ffffffffffffffff8111156111fc576111fb6111c2565b5b602083019150836001820283011115611218576112176111c6565b5b9250929050565b5f805f805f8060a08789031215611239576112386110e7565b5b5f61124689828a016111aa565b965050602061125789828a0161110e565b955050604061126889828a0161110e565b945050606061127989828a016111aa565b935050608087013567ffffffffffffffff81111561129a576112996110eb565b5b6112a689828a016111ca565b92509250509295509295509295565b5f8115159050919050565b6112c9816112b5565b82525050565b5f6020820190506112e25f8301846112c0565b92915050565b6112f181611183565b82525050565b5f60208201905061130a5f8301846112e8565b92915050565b5f60208284031215611325576113246110e7565b5b5f611332848285016111aa565b91505092915050565b5f61134582611094565b9050919050565b6113558161133b565b82525050565b5f60208201905061136e5f83018461134c565b92915050565b61137d816110ef565b82525050565b5f6020820190506113965f830184611374565b92915050565b5f601f19601f8301169050919050565b7f4e487b71000000000000000000000000000000000000000000000000000000005f52604160045260245ffd5b6113e28261139c565b810181811067ffffffffffffffff82111715611401576114006113ac565b5b80604052505050565b5f6114136110de565b905061141f82826113d9565b919050565b5f67ffffffffffffffff82111561143e5761143d6113ac565b5b602082029050602081019050919050565b5f61146161145c84611424565b61140a565b90508083825260208201905060208402830185811115611484576114836111c6565b5b835b818110156114ad578061149988826111aa565b845260208401935050602081019050611486565b5050509392505050565b5f82601f8301126114cb576114ca6111be565b5b81356114db84826020860161144f565b91505092915050565b5f67ffffffffffffffff8211156114fe576114fd6113ac565b5b602082029050602081019050919050565b6115188161114d565b8114611522575f80fd5b50565b5f813590506115338161150f565b92915050565b5f61154b611546846114e4565b61140a565b9050808382526020820190506020840283018581111561156e5761156d6111c6565b5b835b8181101561159757806115838882611525565b845260208401935050602081019050611570565b5050509392505050565b5f82601f8301126115b5576115b46111be565b5b81356115c5848260208601611539565b91505092915050565b5f805f80608085870312156115e6576115e56110e7565b5b5f6115f38782880161110e565b945050602085013567ffffffffffffffff811115611614576116136110eb565b5b611620878288016114b7565b935050604085013567ffffffffffffffff811115611641576116406110eb565b5b61164d878288016114b7565b925050606085013567ffffffffffffffff81111561166e5761166d6110eb565b5b61167a878288016115a1565b91505092959194509250565b5f82825260208201905092915050565b7f496e69746961746f72206d757374206265207468697320636f6e7472616374005f82015250565b5f6116ca601f83611686565b91506116d582611696565b602082019050919050565b5f6020820190508181035f8301526116f7816116be565b9050919050565b7f43616c6c206d75737420636f6d652066726f6d20504f4f4c00000000000000005f82015250565b5f611732601883611686565b915061173d826116fe565b602082019050919050565b5f6020820190508181035f83015261175f81611726565b9050919050565b7f4e487b71000000000000000000000000000000000000000000000000000000005f52603260045260245ffd5b7f4173736574206d757374206d6174636820746865206c6f616e20746f6b656e005f82015250565b5f6117c7601f83611686565b91506117d282611793565b602082019050919050565b5f6020820190508181035f8301526117f4816117bb565b9050919050565b5f60408201905061180e5f8301856112e8565b61181b6020830184611374565b9392505050565b61182b816112b5565b8114611835575f80fd5b50565b5f8151905061184681611822565b92915050565b5f60208284031215611861576118606110e7565b5b5f61186e84828501611838565b91505092915050565b5f60a08201905061188a5f8301886112e8565b61189760208301876112e8565b6118a460408301866112e8565b6118b16060830185611374565b6118be608083018461115b565b9695505050505050565b5f815190506118d6816110f8565b92915050565b5f602082840312156118f1576118f06110e7565b5b5f6118fe848285016118c8565b91505092915050565b7f4e487b71000000000000000000000000000000000000000000000000000000005f52601160045260245ffd5b5f61193e826110ef565b9150611949836110ef565b925082820190508082111561196157611960611907565b5b92915050565b7f4f6e6c792074686520636f6e7472616374206f776e65722063616e2063616c6c5f8201527f20746869732066756e6374696f6e000000000000000000000000000000000000602082015250565b5f6119c1602e83611686565b91506119cc82611967565b604082019050919050565b5f6020820190508181035f8301526119ee816119b5565b9050919050565b7f4172726179206c656e677468206d7573742062652032000000000000000000005f82015250565b5f611a29601683611686565b9150611a34826119f5565b602082019050919050565b5f6020820190508181035f830152611a5681611a1d565b9050919050565b7f4172726179206c656e67746873206d757374206d6174636800000000000000005f82015250565b5f611a91601883611686565b9150611a9c82611a5d565b602082019050919050565b5f6020820190508181035f830152611abe81611a85565b9050919050565b5f81519050919050565b5f82825260208201905092915050565b8281835e5f83830152505050565b5f611af782611ac5565b611b018185611acf565b9350611b11818560208601611adf565b611b1a8161139c565b840191505092915050565b5f61ffff82169050919050565b611b3b81611b25565b82525050565b5f60a082019050611b545f8301886112e8565b611b6160208301876112e8565b611b6e6040830186611374565b8181036060830152611b808185611aed565b9050611b8f6080830184611b32565b969550505050505056fea2646970667358221220921ee66b85dcb003d0a22d3d674c39bd1f4136e78bc08800e32c6b87d203c60764736f6c63430008190033",
					"opcodes": "PUSH1 0xC0 PUSH1 0x40 MSTORE CALLVALUE DUP1 ISZERO PUSH2 0xF JUMPI PUSH0 DUP1 REVERT JUMPDEST POP PUSH1 0x40 MLOAD PUSH2 0x1E59 CODESIZE SUB DUP1 PUSH2 0x1E59 DUP4 CODECOPY DUP2 DUP2 ADD PUSH1 0x40 MSTORE DUP2 ADD SWAP1 PUSH2 0x31 SWAP2 SWAP1 PUSH2 0x1EB JUMP JUMPDEST DUP2 DUP1 PUSH20 0xFFFFFFFFFFFFFFFFFFFFFFFFFFFFFFFFFFFFFFFF AND PUSH1 0x80 DUP2 PUSH20 0xFFFFFFFFFFFFFFFFFFFFFFFFFFFFFFFFFFFFFFFF AND DUP2 MSTORE POP POP DUP1 PUSH20 0xFFFFFFFFFFFFFFFFFFFFFFFFFFFFFFFFFFFFFFFF AND PUSH4 0x26B1D5F PUSH1 0x40 MLOAD DUP2 PUSH4 0xFFFFFFFF AND PUSH1 0xE0 SHL DUP2 MSTORE PUSH1 0x4 ADD PUSH1 0x20 PUSH1 0x40 MLOAD DUP1 DUP4 SUB DUP2 DUP7 GAS STATICCALL ISZERO DUP1 ISZERO PUSH2 0xAF JUMPI RETURNDATASIZE PUSH0 DUP1 RETURNDATACOPY RETURNDATASIZE PUSH0 REVERT JUMPDEST POP POP POP POP PUSH1 0x40 MLOAD RETURNDATASIZE PUSH1 0x1F NOT PUSH1 0x1F DUP3 ADD AND DUP3 ADD DUP1 PUSH1 0x40 MSTORE POP DUP2 ADD SWAP1 PUSH2 0xD3 SWAP2 SWAP1 PUSH2 0x229 JUMP JUMPDEST PUSH20 0xFFFFFFFFFFFFFFFFFFFFFFFFFFFFFFFFFFFFFFFF AND PUSH1 0xA0 DUP2 PUSH20 0xFFFFFFFFFFFFFFFFFFFFFFFFFFFFFFFFFFFFFFFF AND DUP2 MSTORE POP POP POP CALLER PUSH0 DUP1 PUSH2 0x100 EXP DUP2 SLOAD DUP2 PUSH20 0xFFFFFFFFFFFFFFFFFFFFFFFFFFFFFFFFFFFFFFFF MUL NOT AND SWAP1 DUP4 PUSH20 0xFFFFFFFFFFFFFFFFFFFFFFFFFFFFFFFFFFFFFFFF AND MUL OR SWAP1 SSTORE POP DUP1 PUSH1 0x5 PUSH0 PUSH2 0x100 EXP DUP2 SLOAD DUP2 PUSH20 0xFFFFFFFFFFFFFFFFFFFFFFFFFFFFFFFFFFFFFFFF MUL NOT AND SWAP1 DUP4 PUSH20 0xFFFFFFFFFFFFFFFFFFFFFFFFFFFFFFFFFFFFFFFF AND MUL OR SWAP1 SSTORE POP POP POP PUSH2 0x254 JUMP JUMPDEST PUSH0 DUP1 REVERT JUMPDEST PUSH0 PUSH20 0xFFFFFFFFFFFFFFFFFFFFFFFFFFFFFFFFFFFFFFFF DUP3 AND SWAP1 POP SWAP2 SWAP1 POP JUMP JUMPDEST PUSH0 PUSH2 0x1BA DUP3 PUSH2 0x191 JUMP JUMPDEST SWAP1 POP SWAP2 SWAP1 POP JUMP JUMPDEST PUSH2 0x1CA DUP2 PUSH2 0x1B0 JUMP JUMPDEST DUP2 EQ PUSH2 0x1D4 JUMPI PUSH0 DUP1 REVERT JUMPDEST POP JUMP JUMPDEST PUSH0 DUP2 MLOAD SWAP1 POP PUSH2 0x1E5 DUP2 PUSH2 0x1C1 JUMP JUMPDEST SWAP3 SWAP2 POP POP JUMP JUMPDEST PUSH0 DUP1 PUSH1 0x40 DUP4 DUP6 SUB SLT ISZERO PUSH2 0x201 JUMPI PUSH2 0x200 PUSH2 0x18D JUMP JUMPDEST JUMPDEST PUSH0 PUSH2 0x20E DUP6 DUP3 DUP7 ADD PUSH2 0x1D7 JUMP JUMPDEST SWAP3 POP POP PUSH1 0x20 PUSH2 0x21F DUP6 DUP3 DUP7 ADD PUSH2 0x1D7 JUMP JUMPDEST SWAP2 POP POP SWAP3 POP SWAP3 SWAP1 POP JUMP JUMPDEST PUSH0 PUSH1 0x20 DUP3 DUP5 SUB SLT ISZERO PUSH2 0x23E JUMPI PUSH2 0x23D PUSH2 0x18D JUMP JUMPDEST JUMPDEST PUSH0 PUSH2 0x24B DUP5 DUP3 DUP6 ADD PUSH2 0x1D7 JUMP JUMPDEST SWAP2 POP POP SWAP3 SWAP2 POP POP JUMP JUMPDEST PUSH1 0x80 MLOAD PUSH1 0xA0 MLOAD PUSH2 0x1BCF PUSH2 0x28A PUSH0 CODECOPY PUSH0 DUP2 DUP2 PUSH2 0x364 ADD MSTORE DUP2 DUP2 PUSH2 0x991 ADD MSTORE DUP2 DUP2 PUSH2 0xC1F ADD MSTORE PUSH2 0xDCE ADD MSTORE PUSH0 PUSH2 0x29B ADD MSTORE PUSH2 0x1BCF PUSH0 RETURN INVALID PUSH1 0x80 PUSH1 0x40 MSTORE PUSH1 0x4 CALLDATASIZE LT PUSH2 0x94 JUMPI PUSH0 CALLDATALOAD PUSH1 0xE0 SHR DUP1 PUSH4 0x51CFF8D9 GT PUSH2 0x58 JUMPI DUP1 PUSH4 0x51CFF8D9 EQ PUSH2 0x1B9 JUMPI DUP1 PUSH4 0x7535D246 EQ PUSH2 0x1E1 JUMPI DUP1 PUSH4 0x9D585F7F EQ PUSH2 0x20B JUMPI DUP1 PUSH4 0xA9448971 EQ PUSH2 0x235 JUMPI DUP1 PUSH4 0xF8B2CB4F EQ PUSH2 0x25D JUMPI PUSH2 0x9B JUMP JUMPDEST DUP1 PUSH4 0x542975C EQ PUSH2 0x9F JUMPI DUP1 PUSH4 0x11236758 EQ PUSH2 0xC9 JUMPI DUP1 PUSH4 0x1B11D0FF EQ PUSH2 0x105 JUMPI DUP1 PUSH4 0x1D4794D0 EQ PUSH2 0x141 JUMPI DUP1 PUSH4 0x4F64B2BE EQ PUSH2 0x17D JUMPI PUSH2 0x9B JUMP JUMPDEST CALLDATASIZE PUSH2 0x9B JUMPI STOP JUMPDEST PUSH0 DUP1 REVERT JUMPDEST CALLVALUE DUP1 ISZERO PUSH2 0xAA JUMPI PUSH0 DUP1 REVERT JUMPDEST POP PUSH2 0xB3 PUSH2 0x299 JUMP JUMPDEST PUSH1 0x40 MLOAD PUSH2 0xC0 SWAP2 SWAP1 PUSH2 0x10C5 JUMP JUMPDEST PUSH1 0x40 MLOAD DUP1 SWAP2 SUB SWAP1 RETURN JUMPDEST CALLVALUE DUP1 ISZERO PUSH2 0xD4 JUMPI PUSH0 DUP1 REVERT JUMPDEST POP PUSH2 0xEF PUSH1 0x4 DUP1 CALLDATASIZE SUB DUP2 ADD SWAP1 PUSH2 0xEA SWAP2 SWAP1 PUSH2 0x1122 JUMP JUMPDEST PUSH2 0x2BD JUMP JUMPDEST PUSH1 0x40 MLOAD PUSH2 0xFC SWAP2 SWAP1 PUSH2 0x116A JUMP JUMPDEST PUSH1 0x40 MLOAD DUP1 SWAP2 SUB SWAP1 RETURN JUMPDEST CALLVALUE DUP1 ISZERO PUSH2 0x110 JUMPI PUSH0 DUP1 REVERT JUMPDEST POP PUSH2 0x12B PUSH1 0x4 DUP1 CALLDATASIZE SUB DUP2 ADD SWAP1 PUSH2 0x126 SWAP2 SWAP1 PUSH2 0x121F JUMP JUMPDEST PUSH2 0x2F3 JUMP JUMPDEST PUSH1 0x40 MLOAD PUSH2 0x138 SWAP2 SWAP1 PUSH2 0x12CF JUMP JUMPDEST PUSH1 0x40 MLOAD DUP1 SWAP2 SUB SWAP1 RETURN JUMPDEST CALLVALUE DUP1 ISZERO PUSH2 0x14C JUMPI PUSH0 DUP1 REVERT JUMPDEST POP PUSH2 0x167 PUSH1 0x4 DUP1 CALLDATASIZE SUB DUP2 ADD SWAP1 PUSH2 0x162 SWAP2 SWAP1 PUSH2 0x1122 JUMP JUMPDEST PUSH2 0xA1F JUMP JUMPDEST PUSH1 0x40 MLOAD PUSH2 0x174 SWAP2 SWAP1 PUSH2 0x12F7 JUMP JUMPDEST PUSH1 0x40 MLOAD DUP1 SWAP2 SUB SWAP1 RETURN JUMPDEST CALLVALUE DUP1 ISZERO PUSH2 0x188 JUMPI PUSH0 DUP1 REVERT JUMPDEST POP PUSH2 0x1A3 PUSH1 0x4 DUP1 CALLDATASIZE SUB DUP2 ADD SWAP1 PUSH2 0x19E SWAP2 SWAP1 PUSH2 0x1122 JUMP JUMPDEST PUSH2 0xA5A JUMP JUMPDEST PUSH1 0x40 MLOAD PUSH2 0x1B0 SWAP2 SWAP1 PUSH2 0x12F7 JUMP JUMPDEST PUSH1 0x40 MLOAD DUP1 SWAP2 SUB SWAP1 RETURN JUMPDEST CALLVALUE DUP1 ISZERO PUSH2 0x1C4 JUMPI PUSH0 DUP1 REVERT JUMPDEST POP PUSH2 0x1DF PUSH1 0x4 DUP1 CALLDATASIZE SUB DUP2 ADD SWAP1 PUSH2 0x1DA SWAP2 SWAP1 PUSH2 0x1310 JUMP JUMPDEST PUSH2 0xA95 JUMP JUMPDEST STOP JUMPDEST CALLVALUE DUP1 ISZERO PUSH2 0x1EC JUMPI PUSH0 DUP1 REVERT JUMPDEST POP PUSH2 0x1F5 PUSH2 0xC1D JUMP JUMPDEST PUSH1 0x40 MLOAD PUSH2 0x202 SWAP2 SWAP1 PUSH2 0x135B JUMP JUMPDEST PUSH1 0x40 MLOAD DUP1 SWAP2 SUB SWAP1 RETURN JUMPDEST CALLVALUE DUP1 ISZERO PUSH2 0x216 JUMPI PUSH0 DUP1 REVERT JUMPDEST POP PUSH2 0x21F PUSH2 0xC41 JUMP JUMPDEST PUSH1 0x40 MLOAD PUSH2 0x22C SWAP2 SWAP1 PUSH2 0x1383 JUMP JUMPDEST PUSH1 0x40 MLOAD DUP1 SWAP2 SUB SWAP1 RETURN JUMPDEST CALLVALUE DUP1 ISZERO PUSH2 0x240 JUMPI PUSH0 DUP1 REVERT JUMPDEST POP PUSH2 0x25B PUSH1 0x4 DUP1 CALLDATASIZE SUB DUP2 ADD SWAP1 PUSH2 0x256 SWAP2 SWAP1 PUSH2 0x15CE JUMP JUMPDEST PUSH2 0xC47 JUMP JUMPDEST STOP JUMPDEST CALLVALUE DUP1 ISZERO PUSH2 0x268 JUMPI PUSH0 DUP1 REVERT JUMPDEST POP PUSH2 0x283 PUSH1 0x4 DUP1 CALLDATASIZE SUB DUP2 ADD SWAP1 PUSH2 0x27E SWAP2 SWAP1 PUSH2 0x1310 JUMP JUMPDEST PUSH2 0xE7F JUMP JUMPDEST PUSH1 0x40 MLOAD PUSH2 0x290 SWAP2 SWAP1 PUSH2 0x1383 JUMP JUMPDEST PUSH1 0x40 MLOAD DUP1 SWAP2 SUB SWAP1 RETURN JUMPDEST PUSH32 0x0 DUP2 JUMP JUMPDEST PUSH1 0x4 DUP2 DUP2 SLOAD DUP2 LT PUSH2 0x2CC JUMPI PUSH0 DUP1 REVERT JUMPDEST SWAP1 PUSH0 MSTORE PUSH1 0x20 PUSH0 KECCAK256 SWAP1 PUSH1 0xA SWAP2 DUP3 DUP3 DIV ADD SWAP2 SWAP1 MOD PUSH1 0x3 MUL SWAP2 POP SLOAD SWAP1 PUSH2 0x100 EXP SWAP1 DIV PUSH3 0xFFFFFF AND DUP2 JUMP JUMPDEST PUSH0 ADDRESS PUSH20 0xFFFFFFFFFFFFFFFFFFFFFFFFFFFFFFFFFFFFFFFF AND DUP5 PUSH20 0xFFFFFFFFFFFFFFFFFFFFFFFFFFFFFFFFFFFFFFFF AND EQ PUSH2 0x362 JUMPI PUSH1 0x40 MLOAD PUSH32 0x8C379A000000000000000000000000000000000000000000000000000000000 DUP2 MSTORE PUSH1 0x4 ADD PUSH2 0x359 SWAP1 PUSH2 0x16E0 JUMP JUMPDEST PUSH1 0x40 MLOAD DUP1 SWAP2 SUB SWAP1 REVERT JUMPDEST PUSH32 0x0 PUSH20 0xFFFFFFFFFFFFFFFFFFFFFFFFFFFFFFFFFFFFFFFF AND CALLER PUSH20 0xFFFFFFFFFFFFFFFFFFFFFFFFFFFFFFFFFFFFFFFF AND EQ PUSH2 0x3F0 JUMPI PUSH1 0x40 MLOAD PUSH32 0x8C379A000000000000000000000000000000000000000000000000000000000 DUP2 MSTORE PUSH1 0x4 ADD PUSH2 0x3E7 SWAP1 PUSH2 0x1748 JUMP JUMPDEST PUSH1 0x40 MLOAD DUP1 SWAP2 SUB SWAP1 REVERT JUMPDEST PUSH1 0x2 PUSH0 DUP2 SLOAD DUP2 LT PUSH2 0x404 JUMPI PUSH2 0x403 PUSH2 0x1766 JUMP JUMPDEST JUMPDEST SWAP1 PUSH0 MSTORE PUSH1 0x20 PUSH0 KECCAK256 ADD PUSH0 SWAP1 SLOAD SWAP1 PUSH2 0x100 EXP SWAP1 DIV PUSH20 0xFFFFFFFFFFFFFFFFFFFFFFFFFFFFFFFFFFFFFFFF AND PUSH20 0xFFFFFFFFFFFFFFFFFFFFFFFFFFFFFFFFFFFFFFFF AND DUP8 PUSH20 0xFFFFFFFFFFFFFFFFFFFFFFFFFFFFFFFFFFFFFFFF AND EQ PUSH2 0x499 JUMPI PUSH1 0x40 MLOAD PUSH32 0x8C379A000000000000000000000000000000000000000000000000000000000 DUP2 MSTORE PUSH1 0x4 ADD PUSH2 0x490 SWAP1 PUSH2 0x17DD JUMP JUMPDEST PUSH1 0x40 MLOAD DUP1 SWAP2 SUB SWAP1 REVERT JUMPDEST PUSH1 0x2 PUSH0 DUP2 SLOAD DUP2 LT PUSH2 0x4AD JUMPI PUSH2 0x4AC PUSH2 0x1766 JUMP JUMPDEST JUMPDEST SWAP1 PUSH0 MSTORE PUSH1 0x20 PUSH0 KECCAK256 ADD PUSH0 SWAP1 SLOAD SWAP1 PUSH2 0x100 EXP SWAP1 DIV PUSH20 0xFFFFFFFFFFFFFFFFFFFFFFFFFFFFFFFFFFFFFFFF AND PUSH20 0xFFFFFFFFFFFFFFFFFFFFFFFFFFFFFFFFFFFFFFFF AND PUSH4 0x95EA7B3 PUSH1 0x5 PUSH0 SWAP1 SLOAD SWAP1 PUSH2 0x100 EXP SWAP1 DIV PUSH20 0xFFFFFFFFFFFFFFFFFFFFFFFFFFFFFFFFFFFFFFFF AND DUP9 PUSH1 0x40 MLOAD DUP4 PUSH4 0xFFFFFFFF AND PUSH1 0xE0 SHL DUP2 MSTORE PUSH1 0x4 ADD PUSH2 0x530 SWAP3 SWAP2 SWAP1 PUSH2 0x17FB JUMP JUMPDEST PUSH1 0x20 PUSH1 0x40 MLOAD DUP1 DUP4 SUB DUP2 PUSH0 DUP8 GAS CALL ISZERO DUP1 ISZERO PUSH2 0x54C JUMPI RETURNDATASIZE PUSH0 DUP1 RETURNDATACOPY RETURNDATASIZE PUSH0 REVERT JUMPDEST POP POP POP POP PUSH1 0x40 MLOAD RETURNDATASIZE PUSH1 0x1F NOT PUSH1 0x1F DUP3 ADD AND DUP3 ADD DUP1 PUSH1 0x40 MSTORE POP DUP2 ADD SWAP1 PUSH2 0x570 SWAP2 SWAP1 PUSH2 0x184C JUMP JUMPDEST POP PUSH0 PUSH1 0x5 PUSH0 SWAP1 SLOAD SWAP1 PUSH2 0x100 EXP SWAP1 DIV PUSH20 0xFFFFFFFFFFFFFFFFFFFFFFFFFFFFFFFFFFFFFFFF AND PUSH20 0xFFFFFFFFFFFFFFFFFFFFFFFFFFFFFFFFFFFFFFFF AND PUSH4 0xF6E8F4FF PUSH1 0x2 PUSH0 DUP2 SLOAD DUP2 LT PUSH2 0x5C3 JUMPI PUSH2 0x5C2 PUSH2 0x1766 JUMP JUMPDEST JUMPDEST SWAP1 PUSH0 MSTORE PUSH1 0x20 PUSH0 KECCAK256 ADD PUSH0 SWAP1 SLOAD SWAP1 PUSH2 0x100 EXP SWAP1 DIV PUSH20 0xFFFFFFFFFFFFFFFFFFFFFFFFFFFFFFFFFFFFFFFF AND PUSH1 0x2 PUSH1 0x1 DUP2 SLOAD DUP2 LT PUSH2 0x600 JUMPI PUSH2 0x5FF PUSH2 0x1766 JUMP JUMPDEST JUMPDEST SWAP1 PUSH0 MSTORE PUSH1 0x20 PUSH0 KECCAK256 ADD PUSH0 SWAP1 SLOAD SWAP1 PUSH2 0x100 EXP SWAP1 DIV PUSH20 0xFFFFFFFFFFFFFFFFFFFFFFFFFFFFFFFFFFFFFFFF AND PUSH1 0x3 PUSH0 DUP2 SLOAD DUP2 LT PUSH2 0x63C JUMPI PUSH2 0x63B PUSH2 0x1766 JUMP JUMPDEST JUMPDEST SWAP1 PUSH0 MSTORE PUSH1 0x20 PUSH0 KECCAK256 ADD PUSH0 SWAP1 SLOAD SWAP1 PUSH2 0x100 EXP SWAP1 DIV PUSH20 0xFFFFFFFFFFFFFFFFFFFFFFFFFFFFFFFFFFFFFFFF AND DUP12 PUSH1 0x4 PUSH0 DUP2 SLOAD DUP2 LT PUSH2 0x679 JUMPI PUSH2 0x678 PUSH2 0x1766 JUMP JUMPDEST JUMPDEST SWAP1 PUSH0 MSTORE PUSH1 0x20 PUSH0 KECCAK256 SWAP1 PUSH1 0xA SWAP2 DUP3 DUP3 DIV ADD SWAP2 SWAP1 MOD PUSH1 0x3 MUL SWAP1 SLOAD SWAP1 PUSH2 0x100 EXP SWAP1 DIV PUSH3 0xFFFFFF AND PUSH1 0x40 MLOAD DUP7 PUSH4 0xFFFFFFFF AND PUSH1 0xE0 SHL DUP2 MSTORE PUSH1 0x4 ADD PUSH2 0x6BC SWAP6 SWAP5 SWAP4 SWAP3 SWAP2 SWAP1 PUSH2 0x1877 JUMP JUMPDEST PUSH1 0x20 PUSH1 0x40 MLOAD DUP1 DUP4 SUB DUP2 PUSH0 DUP8 GAS CALL ISZERO DUP1 ISZERO PUSH2 0x6D8 JUMPI RETURNDATASIZE PUSH0 DUP1 RETURNDATACOPY RETURNDATASIZE PUSH0 REVERT JUMPDEST POP POP POP POP PUSH1 0x40 MLOAD RETURNDATASIZE PUSH1 0x1F NOT PUSH1 0x1F DUP3 ADD AND DUP3 ADD DUP1 PUSH1 0x40 MSTORE POP DUP2 ADD SWAP1 PUSH2 0x6FC SWAP2 SWAP1 PUSH2 0x18DC JUMP JUMPDEST SWAP1 POP PUSH1 0x2 PUSH1 0x1 DUP2 SLOAD DUP2 LT PUSH2 0x713 JUMPI PUSH2 0x712 PUSH2 0x1766 JUMP JUMPDEST JUMPDEST SWAP1 PUSH0 MSTORE PUSH1 0x20 PUSH0 KECCAK256 ADD PUSH0 SWAP1 SLOAD SWAP1 PUSH2 0x100 EXP SWAP1 DIV PUSH20 0xFFFFFFFFFFFFFFFFFFFFFFFFFFFFFFFFFFFFFFFF AND PUSH20 0xFFFFFFFFFFFFFFFFFFFFFFFFFFFFFFFFFFFFFFFF AND PUSH4 0x95EA7B3 PUSH1 0x5 PUSH0 SWAP1 SLOAD SWAP1 PUSH2 0x100 EXP SWAP1 DIV PUSH20 0xFFFFFFFFFFFFFFFFFFFFFFFFFFFFFFFFFFFFFFFF AND DUP4 PUSH1 0x40 MLOAD DUP4 PUSH4 0xFFFFFFFF AND PUSH1 0xE0 SHL DUP2 MSTORE PUSH1 0x4 ADD PUSH2 0x796 SWAP3 SWAP2 SWAP1 PUSH2 0x17FB JUMP JUMPDEST PUSH1 0x20 PUSH1 0x40 MLOAD DUP1 DUP4 SUB DUP2 PUSH0 DUP8 GAS CALL ISZERO DUP1 ISZERO PUSH2 0x7B2 JUMPI RETURNDATASIZE PUSH0 DUP1 RETURNDATACOPY RETURNDATASIZE PUSH0 REVERT JUMPDEST POP POP POP POP PUSH1 0x40 MLOAD RETURNDATASIZE PUSH1 0x1F NOT PUSH1 0x1F DUP3 ADD AND DUP3 ADD DUP1 PUSH1 0x40 MSTORE POP DUP2 ADD SWAP1 PUSH2 0x7D6 SWAP2 SWAP1 PUSH2 0x184C JUMP JUMPDEST POP PUSH1 0x5 PUSH0 SWAP1 SLOAD SWAP1 PUSH2 0x100 EXP SWAP1 DIV PUSH20 0xFFFFFFFFFFFFFFFFFFFFFFFFFFFFFFFFFFFFFFFF AND PUSH20 0xFFFFFFFFFFFFFFFFFFFFFFFFFFFFFFFFFFFFFFFF AND PUSH4 0xF6E8F4FF PUSH1 0x2 PUSH1 0x1 DUP2 SLOAD DUP2 LT PUSH2 0x829 JUMPI PUSH2 0x828 PUSH2 0x1766 JUMP JUMPDEST JUMPDEST SWAP1 PUSH0 MSTORE PUSH1 0x20 PUSH0 KECCAK256 ADD PUSH0 SWAP1 SLOAD SWAP1 PUSH2 0x100 EXP SWAP1 DIV PUSH20 0xFFFFFFFFFFFFFFFFFFFFFFFFFFFFFFFFFFFFFFFF AND PUSH1 0x2 PUSH0 DUP2 SLOAD DUP2 LT PUSH2 0x865 JUMPI PUSH2 0x864 PUSH2 0x1766 JUMP JUMPDEST JUMPDEST SWAP1 PUSH0 MSTORE PUSH1 0x20 PUSH0 KECCAK256 ADD PUSH0 SWAP1 SLOAD SWAP1 PUSH2 0x100 EXP SWAP1 DIV PUSH20 0xFFFFFFFFFFFFFFFFFFFFFFFFFFFFFFFFFFFFFFFF AND PUSH1 0x3 PUSH1 0x1 DUP2 SLOAD DUP2 LT PUSH2 0x8A2 JUMPI PUSH2 0x8A1 PUSH2 0x1766 JUMP JUMPDEST JUMPDEST SWAP1 PUSH0 MSTORE PUSH1 0x20 PUSH0 KECCAK256 ADD PUSH0 SWAP1 SLOAD SWAP1 PUSH2 0x100 EXP SWAP1 DIV PUSH20 0xFFFFFFFFFFFFFFFFFFFFFFFFFFFFFFFFFFFFFFFF AND DUP6 PUSH1 0x4 PUSH1 0x1 DUP2 SLOAD DUP2 LT PUSH2 0x8E0 JUMPI PUSH2 0x8DF PUSH2 0x1766 JUMP JUMPDEST JUMPDEST SWAP1 PUSH0 MSTORE PUSH1 0x20 PUSH0 KECCAK256 SWAP1 PUSH1 0xA SWAP2 DUP3 DUP3 DIV ADD SWAP2 SWAP1 MOD PUSH1 0x3 MUL SWAP1 SLOAD SWAP1 PUSH2 0x100 EXP SWAP1 DIV PUSH3 0xFFFFFF AND PUSH1 0x40 MLOAD DUP7 PUSH4 0xFFFFFFFF AND PUSH1 0xE0 SHL DUP2 MSTORE PUSH1 0x4 ADD PUSH2 0x923 SWAP6 SWAP5 SWAP4 SWAP3 SWAP2 SWAP1 PUSH2 0x1877 JUMP JUMPDEST PUSH1 0x20 PUSH1 0x40 MLOAD DUP1 DUP4 SUB DUP2 PUSH0 DUP8 GAS CALL ISZERO DUP1 ISZERO PUSH2 0x93F JUMPI RETURNDATASIZE PUSH0 DUP1 RETURNDATACOPY RETURNDATASIZE PUSH0 REVERT JUMPDEST POP POP POP POP PUSH1 0x40 MLOAD RETURNDATASIZE PUSH1 0x1F NOT PUSH1 0x1F DUP3 ADD AND DUP3 ADD DUP1 PUSH1 0x40 MSTORE POP DUP2 ADD SWAP1 PUSH2 0x963 SWAP2 SWAP1 PUSH2 0x18DC JUMP JUMPDEST POP PUSH0 DUP7 DUP9 PUSH2 0x971 SWAP2 SWAP1 PUSH2 0x1934 JUMP JUMPDEST SWAP1 POP DUP9 PUSH20 0xFFFFFFFFFFFFFFFFFFFFFFFFFFFFFFFFFFFFFFFF AND PUSH4 0x95EA7B3 PUSH32 0x0 DUP4 PUSH1 0x40 MLOAD DUP4 PUSH4 0xFFFFFFFF AND PUSH1 0xE0 SHL DUP2 MSTORE PUSH1 0x4 ADD PUSH2 0x9CE SWAP3 SWAP2 SWAP1 PUSH2 0x17FB JUMP JUMPDEST PUSH1 0x20 PUSH1 0x40 MLOAD DUP1 DUP4 SUB DUP2 PUSH0 DUP8 GAS CALL ISZERO DUP1 ISZERO PUSH2 0x9EA JUMPI RETURNDATASIZE PUSH0 DUP1 RETURNDATACOPY RETURNDATASIZE PUSH0 REVERT JUMPDEST POP POP POP POP PUSH1 0x40 MLOAD RETURNDATASIZE PUSH1 0x1F NOT PUSH1 0x1F DUP3 ADD AND DUP3 ADD DUP1 PUSH1 0x40 MSTORE POP DUP2 ADD SWAP1 PUSH2 0xA0E SWAP2 SWAP1 PUSH2 0x184C JUMP JUMPDEST POP PUSH1 0x1 SWAP3 POP POP POP SWAP7 SWAP6 POP POP POP POP POP POP JUMP JUMPDEST PUSH1 0x3 DUP2 DUP2 SLOAD DUP2 LT PUSH2 0xA2E JUMPI PUSH0 DUP1 REVERT JUMPDEST SWAP1 PUSH0 MSTORE PUSH1 0x20 PUSH0 KECCAK256 ADD PUSH0 SWAP2 POP SLOAD SWAP1 PUSH2 0x100 EXP SWAP1 DIV PUSH20 0xFFFFFFFFFFFFFFFFFFFFFFFFFFFFFFFFFFFFFFFF AND DUP2 JUMP JUMPDEST PUSH1 0x2 DUP2 DUP2 SLOAD DUP2 LT PUSH2 0xA69 JUMPI PUSH0 DUP1 REVERT JUMPDEST SWAP1 PUSH0 MSTORE PUSH1 0x20 PUSH0 KECCAK256 ADD PUSH0 SWAP2 POP SLOAD SWAP1 PUSH2 0x100 EXP SWAP1 DIV PUSH20 0xFFFFFFFFFFFFFFFFFFFFFFFFFFFFFFFFFFFFFFFF AND DUP2 JUMP JUMPDEST PUSH0 DUP1 SLOAD SWAP1 PUSH2 0x100 EXP SWAP1 DIV PUSH20 0xFFFFFFFFFFFFFFFFFFFFFFFFFFFFFFFFFFFFFFFF AND PUSH20 0xFFFFFFFFFFFFFFFFFFFFFFFFFFFFFFFFFFFFFFFF AND CALLER PUSH20 0xFFFFFFFFFFFFFFFFFFFFFFFFFFFFFFFFFFFFFFFF AND EQ PUSH2 0xB22 JUMPI PUSH1 0x40 MLOAD PUSH32 0x8C379A000000000000000000000000000000000000000000000000000000000 DUP2 MSTORE PUSH1 0x4 ADD PUSH2 0xB19 SWAP1 PUSH2 0x19D7 JUMP JUMPDEST PUSH1 0x40 MLOAD DUP1 SWAP2 SUB SWAP1 REVERT JUMPDEST PUSH0 DUP2 SWAP1 POP DUP1 PUSH20 0xFFFFFFFFFFFFFFFFFFFFFFFFFFFFFFFFFFFFFFFF AND PUSH4 0xA9059CBB CALLER DUP4 PUSH20 0xFFFFFFFFFFFFFFFFFFFFFFFFFFFFFFFFFFFFFFFF AND PUSH4 0x70A08231 ADDRESS PUSH1 0x40 MLOAD DUP3 PUSH4 0xFFFFFFFF AND PUSH1 0xE0 SHL DUP2 MSTORE PUSH1 0x4 ADD PUSH2 0xB7C SWAP2 SWAP1 PUSH2 0x12F7 JUMP JUMPDEST PUSH1 0x20 PUSH1 0x40 MLOAD DUP1 DUP4 SUB DUP2 DUP7 GAS STATICCALL ISZERO DUP1 ISZERO PUSH2 0xB97 JUMPI RETURNDATASIZE PUSH0 DUP1 RETURNDATACOPY RETURNDATASIZE PUSH0 REVERT JUMPDEST POP POP POP POP PUSH1 0x40 MLOAD RETURNDATASIZE PUSH1 0x1F NOT PUSH1 0x1F DUP3 ADD AND DUP3 ADD DUP1 PUSH1 0x40 MSTORE POP DUP2 ADD SWAP1 PUSH2 0xBBB SWAP2 SWAP1 PUSH2 0x18DC JUMP JUMPDEST PUSH1 0x40 MLOAD DUP4 PUSH4 0xFFFFFFFF AND PUSH1 0xE0 SHL DUP2 MSTORE PUSH1 0x4 ADD PUSH2 0xBD8 SWAP3 SWAP2 SWAP1 PUSH2 0x17FB JUMP JUMPDEST PUSH1 0x20 PUSH1 0x40 MLOAD DUP1 DUP4 SUB DUP2 PUSH0 DUP8 GAS CALL ISZERO DUP1 ISZERO PUSH2 0xBF4 JUMPI RETURNDATASIZE PUSH0 DUP1 RETURNDATACOPY RETURNDATASIZE PUSH0 REVERT JUMPDEST POP POP POP POP PUSH1 0x40 MLOAD RETURNDATASIZE PUSH1 0x1F NOT PUSH1 0x1F DUP3 ADD AND DUP3 ADD DUP1 PUSH1 0x40 MSTORE POP DUP2 ADD SWAP1 PUSH2 0xC18 SWAP2 SWAP1 PUSH2 0x184C JUMP JUMPDEST POP POP POP JUMP JUMPDEST PUSH32 0x0 DUP2 JUMP JUMPDEST PUSH1 0x1 SLOAD DUP2 JUMP JUMPDEST PUSH0 DUP1 SLOAD SWAP1 PUSH2 0x100 EXP SWAP1 DIV PUSH20 0xFFFFFFFFFFFFFFFFFFFFFFFFFFFFFFFFFFFFFFFF AND PUSH20 0xFFFFFFFFFFFFFFFFFFFFFFFFFFFFFFFFFFFFFFFF AND CALLER PUSH20 0xFFFFFFFFFFFFFFFFFFFFFFFFFFFFFFFFFFFFFFFF AND EQ PUSH2 0xCD4 JUMPI PUSH1 0x40 MLOAD PUSH32 0x8C379A000000000000000000000000000000000000000000000000000000000 DUP2 MSTORE PUSH1 0x4 ADD PUSH2 0xCCB SWAP1 PUSH2 0x19D7 JUMP JUMPDEST PUSH1 0x40 MLOAD DUP1 SWAP2 SUB SWAP1 REVERT JUMPDEST PUSH1 0x2 DUP4 MLOAD EQ PUSH2 0xD18 JUMPI PUSH1 0x40 MLOAD PUSH32 0x8C379A000000000000000000000000000000000000000000000000000000000 DUP2 MSTORE PUSH1 0x4 ADD PUSH2 0xD0F SWAP1 PUSH2 0x1A3F JUMP JUMPDEST PUSH1 0x40 MLOAD DUP1 SWAP2 SUB SWAP1 REVERT JUMPDEST DUP2 MLOAD DUP4 MLOAD EQ DUP1 ISZERO PUSH2 0xD2A JUMPI POP DUP1 MLOAD DUP4 MLOAD EQ JUMPDEST PUSH2 0xD69 JUMPI PUSH1 0x40 MLOAD PUSH32 0x8C379A000000000000000000000000000000000000000000000000000000000 DUP2 MSTORE PUSH1 0x4 ADD PUSH2 0xD60 SWAP1 PUSH2 0x1AA7 JUMP JUMPDEST PUSH1 0x40 MLOAD DUP1 SWAP2 SUB SWAP1 REVERT JUMPDEST DUP4 PUSH1 0x1 DUP2 SWAP1 SSTORE POP DUP3 PUSH1 0x2 SWAP1 DUP1 MLOAD SWAP1 PUSH1 0x20 ADD SWAP1 PUSH2 0xD86 SWAP3 SWAP2 SWAP1 PUSH2 0xEFF JUMP JUMPDEST POP DUP2 PUSH1 0x3 SWAP1 DUP1 MLOAD SWAP1 PUSH1 0x20 ADD SWAP1 PUSH2 0xD9D SWAP3 SWAP2 SWAP1 PUSH2 0xEFF JUMP JUMPDEST POP DUP1 PUSH1 0x4 SWAP1 DUP1 MLOAD SWAP1 PUSH1 0x20 ADD SWAP1 PUSH2 0xDB4 SWAP3 SWAP2 SWAP1 PUSH2 0xF86 JUMP JUMPDEST POP PUSH0 ADDRESS SWAP1 POP PUSH0 PUSH1 0x40 MLOAD DUP1 PUSH1 0x20 ADD PUSH1 0x40 MSTORE DUP1 PUSH0 DUP2 MSTORE POP SWAP1 POP PUSH0 PUSH32 0x0 PUSH20 0xFFFFFFFFFFFFFFFFFFFFFFFFFFFFFFFFFFFFFFFF AND PUSH4 0x42B0B77C DUP5 DUP9 PUSH0 DUP2 MLOAD DUP2 LT PUSH2 0xE1C JUMPI PUSH2 0xE1B PUSH2 0x1766 JUMP JUMPDEST JUMPDEST PUSH1 0x20 MUL PUSH1 0x20 ADD ADD MLOAD PUSH1 0x1 SLOAD DUP7 DUP7 PUSH1 0x40 MLOAD DUP7 PUSH4 0xFFFFFFFF AND PUSH1 0xE0 SHL DUP2 MSTORE PUSH1 0x4 ADD PUSH2 0xE49 SWAP6 SWAP5 SWAP4 SWAP3 SWAP2 SWAP1 PUSH2 0x1B41 JUMP JUMPDEST PUSH0 PUSH1 0x40 MLOAD DUP1 DUP4 SUB DUP2 PUSH0 DUP8 DUP1 EXTCODESIZE ISZERO DUP1 ISZERO PUSH2 0xE60 JUMPI PUSH0 DUP1 REVERT JUMPDEST POP GAS CALL ISZERO DUP1 ISZERO PUSH2 0xE72 JUMPI RETURNDATASIZE PUSH0 DUP1 RETURNDATACOPY RETURNDATASIZE PUSH0 REVERT JUMPDEST POP POP POP POP POP POP POP POP POP POP POP JUMP JUMPDEST PUSH0 DUP2 PUSH20 0xFFFFFFFFFFFFFFFFFFFFFFFFFFFFFFFFFFFFFFFF AND PUSH4 0x70A08231 ADDRESS PUSH1 0x40 MLOAD DUP3 PUSH4 0xFFFFFFFF AND PUSH1 0xE0 SHL DUP2 MSTORE PUSH1 0x4 ADD PUSH2 0xEB9 SWAP2 SWAP1 PUSH2 0x12F7 JUMP JUMPDEST PUSH1 0x20 PUSH1 0x40 MLOAD DUP1 DUP4 SUB DUP2 DUP7 GAS STATICCALL ISZERO DUP1 ISZERO PUSH2 0xED4 JUMPI RETURNDATASIZE PUSH0 DUP1 RETURNDATACOPY RETURNDATASIZE PUSH0 REVERT JUMPDEST POP POP POP POP PUSH1 0x40 MLOAD RETURNDATASIZE PUSH1 0x1F NOT PUSH1 0x1F DUP3 ADD AND DUP3 ADD DUP1 PUSH1 0x40 MSTORE POP DUP2 ADD SWAP1 PUSH2 0xEF8 SWAP2 SWAP1 PUSH2 0x18DC JUMP JUMPDEST SWAP1 POP SWAP2 SWAP1 POP JUMP JUMPDEST DUP3 DUP1 SLOAD DUP3 DUP3 SSTORE SWAP1 PUSH0 MSTORE PUSH1 0x20 PUSH0 KECCAK256 SWAP1 DUP2 ADD SWAP3 DUP3 ISZERO PUSH2 0xF75 JUMPI SWAP2 PUSH1 0x20 MUL DUP3 ADD JUMPDEST DUP3 DUP2 GT ISZERO PUSH2 0xF74 JUMPI DUP3 MLOAD DUP3 PUSH0 PUSH2 0x100 EXP DUP2 SLOAD DUP2 PUSH20 0xFFFFFFFFFFFFFFFFFFFFFFFFFFFFFFFFFFFFFFFF MUL NOT AND SWAP1 DUP4 PUSH20 0xFFFFFFFFFFFFFFFFFFFFFFFFFFFFFFFFFFFFFFFF AND MUL OR SWAP1 SSTORE POP SWAP2 PUSH1 0x20 ADD SWAP2 SWAP1 PUSH1 0x1 ADD SWAP1 PUSH2 0xF1D JUMP JUMPDEST JUMPDEST POP SWAP1 POP PUSH2 0xF82 SWAP2 SWAP1 PUSH2 0x1030 JUMP JUMPDEST POP SWAP1 JUMP JUMPDEST DUP3 DUP1 SLOAD DUP3 DUP3 SSTORE SWAP1 PUSH0 MSTORE PUSH1 0x20 PUSH0 KECCAK256 SWAP1 PUSH1 0x9 ADD PUSH1 0xA SWAP1 DIV DUP2 ADD SWAP3 DUP3 ISZERO PUSH2 0x101F JUMPI SWAP2 PUSH1 0x20 MUL DUP3 ADD PUSH0 JUMPDEST DUP4 DUP3 GT ISZERO PUSH2 0xFEE JUMPI DUP4 MLOAD DUP4 DUP3 PUSH2 0x100 EXP DUP2 SLOAD DUP2 PUSH3 0xFFFFFF MUL NOT AND SWAP1 DUP4 PUSH3 0xFFFFFF AND MUL OR SWAP1 SSTORE POP SWAP3 PUSH1 0x20 ADD SWAP3 PUSH1 0x3 ADD PUSH1 0x20 DUP2 PUSH1 0x2 ADD DIV SWAP3 DUP4 ADD SWAP3 PUSH1 0x1 SUB MUL PUSH2 0xFAC JUMP JUMPDEST DUP1 ISZERO PUSH2 0x101D JUMPI DUP3 DUP2 PUSH2 0x100 EXP DUP2 SLOAD SWAP1 PUSH3 0xFFFFFF MUL NOT AND SWAP1 SSTORE PUSH1 0x3 ADD PUSH1 0x20 DUP2 PUSH1 0x2 ADD DIV SWAP3 DUP4 ADD SWAP3 PUSH1 0x1 SUB MUL PUSH2 0xFEE JUMP JUMPDEST POP JUMPDEST POP SWAP1 POP PUSH2 0x102C SWAP2 SWAP1 PUSH2 0x1030 JUMP JUMPDEST POP SWAP1 JUMP JUMPDEST JUMPDEST DUP1 DUP3 GT ISZERO PUSH2 0x1047 JUMPI PUSH0 DUP2 PUSH0 SWAP1 SSTORE POP PUSH1 0x1 ADD PUSH2 0x1031 JUMP JUMPDEST POP SWAP1 JUMP JUMPDEST PUSH0 PUSH20 0xFFFFFFFFFFFFFFFFFFFFFFFFFFFFFFFFFFFFFFFF DUP3 AND SWAP1 POP SWAP2 SWAP1 POP JUMP JUMPDEST PUSH0 DUP2 SWAP1 POP SWAP2 SWAP1 POP JUMP JUMPDEST PUSH0 PUSH2 0x108D PUSH2 0x1088 PUSH2 0x1083 DUP5 PUSH2 0x104B JUMP JUMPDEST PUSH2 0x106A JUMP JUMPDEST PUSH2 0x104B JUMP JUMPDEST SWAP1 POP SWAP2 SWAP1 POP JUMP JUMPDEST PUSH0 PUSH2 0x109E DUP3 PUSH2 0x1073 JUMP JUMPDEST SWAP1 POP SWAP2 SWAP1 POP JUMP JUMPDEST PUSH0 PUSH2 0x10AF DUP3 PUSH2 0x1094 JUMP JUMPDEST SWAP1 POP SWAP2 SWAP1 POP JUMP JUMPDEST PUSH2 0x10BF DUP2 PUSH2 0x10A5 JUMP JUMPDEST DUP3 MSTORE POP POP JUMP JUMPDEST PUSH0 PUSH1 0x20 DUP3 ADD SWAP1 POP PUSH2 0x10D8 PUSH0 DUP4 ADD DUP5 PUSH2 0x10B6 JUMP JUMPDEST SWAP3 SWAP2 POP POP JUMP JUMPDEST PUSH0 PUSH1 0x40 MLOAD SWAP1 POP SWAP1 JUMP JUMPDEST PUSH0 DUP1 REVERT JUMPDEST PUSH0 DUP1 REVERT JUMPDEST PUSH0 DUP2 SWAP1 POP SWAP2 SWAP1 POP JUMP JUMPDEST PUSH2 0x1101 DUP2 PUSH2 0x10EF JUMP JUMPDEST DUP2 EQ PUSH2 0x110B JUMPI PUSH0 DUP1 REVERT JUMPDEST POP JUMP JUMPDEST PUSH0 DUP2 CALLDATALOAD SWAP1 POP PUSH2 0x111C DUP2 PUSH2 0x10F8 JUMP JUMPDEST SWAP3 SWAP2 POP POP JUMP JUMPDEST PUSH0 PUSH1 0x20 DUP3 DUP5 SUB SLT ISZERO PUSH2 0x1137 JUMPI PUSH2 0x1136 PUSH2 0x10E7 JUMP JUMPDEST JUMPDEST PUSH0 PUSH2 0x1144 DUP5 DUP3 DUP6 ADD PUSH2 0x110E JUMP JUMPDEST SWAP2 POP POP SWAP3 SWAP2 POP POP JUMP JUMPDEST PUSH0 PUSH3 0xFFFFFF DUP3 AND SWAP1 POP SWAP2 SWAP1 POP JUMP JUMPDEST PUSH2 0x1164 DUP2 PUSH2 0x114D JUMP JUMPDEST DUP3 MSTORE POP POP JUMP JUMPDEST PUSH0 PUSH1 0x20 DUP3 ADD SWAP1 POP PUSH2 0x117D PUSH0 DUP4 ADD DUP5 PUSH2 0x115B JUMP JUMPDEST SWAP3 SWAP2 POP POP JUMP JUMPDEST PUSH0 PUSH2 0x118D DUP3 PUSH2 0x104B JUMP JUMPDEST SWAP1 POP SWAP2 SWAP1 POP JUMP JUMPDEST PUSH2 0x119D DUP2 PUSH2 0x1183 JUMP JUMPDEST DUP2 EQ PUSH2 0x11A7 JUMPI PUSH0 DUP1 REVERT JUMPDEST POP JUMP JUMPDEST PUSH0 DUP2 CALLDATALOAD SWAP1 POP PUSH2 0x11B8 DUP2 PUSH2 0x1194 JUMP JUMPDEST SWAP3 SWAP2 POP POP JUMP JUMPDEST PUSH0 DUP1 REVERT JUMPDEST PUSH0 DUP1 REVERT JUMPDEST PUSH0 DUP1 REVERT JUMPDEST PUSH0 DUP1 DUP4 PUSH1 0x1F DUP5 ADD SLT PUSH2 0x11DF JUMPI PUSH2 0x11DE PUSH2 0x11BE JUMP JUMPDEST JUMPDEST DUP3 CALLDATALOAD SWAP1 POP PUSH8 0xFFFFFFFFFFFFFFFF DUP2 GT ISZERO PUSH2 0x11FC JUMPI PUSH2 0x11FB PUSH2 0x11C2 JUMP JUMPDEST JUMPDEST PUSH1 0x20 DUP4 ADD SWAP2 POP DUP4 PUSH1 0x1 DUP3 MUL DUP4 ADD GT ISZERO PUSH2 0x1218 JUMPI PUSH2 0x1217 PUSH2 0x11C6 JUMP JUMPDEST JUMPDEST SWAP3 POP SWAP3 SWAP1 POP JUMP JUMPDEST PUSH0 DUP1 PUSH0 DUP1 PUSH0 DUP1 PUSH1 0xA0 DUP8 DUP10 SUB SLT ISZERO PUSH2 0x1239 JUMPI PUSH2 0x1238 PUSH2 0x10E7 JUMP JUMPDEST JUMPDEST PUSH0 PUSH2 0x1246 DUP10 DUP3 DUP11 ADD PUSH2 0x11AA JUMP JUMPDEST SWAP7 POP POP PUSH1 0x20 PUSH2 0x1257 DUP10 DUP3 DUP11 ADD PUSH2 0x110E JUMP JUMPDEST SWAP6 POP POP PUSH1 0x40 PUSH2 0x1268 DUP10 DUP3 DUP11 ADD PUSH2 0x110E JUMP JUMPDEST SWAP5 POP POP PUSH1 0x60 PUSH2 0x1279 DUP10 DUP3 DUP11 ADD PUSH2 0x11AA JUMP JUMPDEST SWAP4 POP POP PUSH1 0x80 DUP8 ADD CALLDATALOAD PUSH8 0xFFFFFFFFFFFFFFFF DUP2 GT ISZERO PUSH2 0x129A JUMPI PUSH2 0x1299 PUSH2 0x10EB JUMP JUMPDEST JUMPDEST PUSH2 0x12A6 DUP10 DUP3 DUP11 ADD PUSH2 0x11CA JUMP JUMPDEST SWAP3 POP SWAP3 POP POP SWAP3 SWAP6 POP SWAP3 SWAP6 POP SWAP3 SWAP6 JUMP JUMPDEST PUSH0 DUP2 ISZERO ISZERO SWAP1 POP SWAP2 SWAP1 POP JUMP JUMPDEST PUSH2 0x12C9 DUP2 PUSH2 0x12B5 JUMP JUMPDEST DUP3 MSTORE POP POP JUMP JUMPDEST PUSH0 PUSH1 0x20 DUP3 ADD SWAP1 POP PUSH2 0x12E2 PUSH0 DUP4 ADD DUP5 PUSH2 0x12C0 JUMP JUMPDEST SWAP3 SWAP2 POP POP JUMP JUMPDEST PUSH2 0x12F1 DUP2 PUSH2 0x1183 JUMP JUMPDEST DUP3 MSTORE POP POP JUMP JUMPDEST PUSH0 PUSH1 0x20 DUP3 ADD SWAP1 POP PUSH2 0x130A PUSH0 DUP4 ADD DUP5 PUSH2 0x12E8 JUMP JUMPDEST SWAP3 SWAP2 POP POP JUMP JUMPDEST PUSH0 PUSH1 0x20 DUP3 DUP5 SUB SLT ISZERO PUSH2 0x1325 JUMPI PUSH2 0x1324 PUSH2 0x10E7 JUMP JUMPDEST JUMPDEST PUSH0 PUSH2 0x1332 DUP5 DUP3 DUP6 ADD PUSH2 0x11AA JUMP JUMPDEST SWAP2 POP POP SWAP3 SWAP2 POP POP JUMP JUMPDEST PUSH0 PUSH2 0x1345 DUP3 PUSH2 0x1094 JUMP JUMPDEST SWAP1 POP SWAP2 SWAP1 POP JUMP JUMPDEST PUSH2 0x1355 DUP2 PUSH2 0x133B JUMP JUMPDEST DUP3 MSTORE POP POP JUMP JUMPDEST PUSH0 PUSH1 0x20 DUP3 ADD SWAP1 POP PUSH2 0x136E PUSH0 DUP4 ADD DUP5 PUSH2 0x134C JUMP JUMPDEST SWAP3 SWAP2 POP POP JUMP JUMPDEST PUSH2 0x137D DUP2 PUSH2 0x10EF JUMP JUMPDEST DUP3 MSTORE POP POP JUMP JUMPDEST PUSH0 PUSH1 0x20 DUP3 ADD SWAP1 POP PUSH2 0x1396 PUSH0 DUP4 ADD DUP5 PUSH2 0x1374 JUMP JUMPDEST SWAP3 SWAP2 POP POP JUMP JUMPDEST PUSH0 PUSH1 0x1F NOT PUSH1 0x1F DUP4 ADD AND SWAP1 POP SWAP2 SWAP1 POP JUMP JUMPDEST PUSH32 0x4E487B7100000000000000000000000000000000000000000000000000000000 PUSH0 MSTORE PUSH1 0x41 PUSH1 0x4 MSTORE PUSH1 0x24 PUSH0 REVERT JUMPDEST PUSH2 0x13E2 DUP3 PUSH2 0x139C JUMP JUMPDEST DUP2 ADD DUP2 DUP2 LT PUSH8 0xFFFFFFFFFFFFFFFF DUP3 GT OR ISZERO PUSH2 0x1401 JUMPI PUSH2 0x1400 PUSH2 0x13AC JUMP JUMPDEST JUMPDEST DUP1 PUSH1 0x40 MSTORE POP POP POP JUMP JUMPDEST PUSH0 PUSH2 0x1413 PUSH2 0x10DE JUMP JUMPDEST SWAP1 POP PUSH2 0x141F DUP3 DUP3 PUSH2 0x13D9 JUMP JUMPDEST SWAP2 SWAP1 POP JUMP JUMPDEST PUSH0 PUSH8 0xFFFFFFFFFFFFFFFF DUP3 GT ISZERO PUSH2 0x143E JUMPI PUSH2 0x143D PUSH2 0x13AC JUMP JUMPDEST JUMPDEST PUSH1 0x20 DUP3 MUL SWAP1 POP PUSH1 0x20 DUP2 ADD SWAP1 POP SWAP2 SWAP1 POP JUMP JUMPDEST PUSH0 PUSH2 0x1461 PUSH2 0x145C DUP5 PUSH2 0x1424 JUMP JUMPDEST PUSH2 0x140A JUMP JUMPDEST SWAP1 POP DUP1 DUP4 DUP3 MSTORE PUSH1 0x20 DUP3 ADD SWAP1 POP PUSH1 0x20 DUP5 MUL DUP4 ADD DUP6 DUP2 GT ISZERO PUSH2 0x1484 JUMPI PUSH2 0x1483 PUSH2 0x11C6 JUMP JUMPDEST JUMPDEST DUP4 JUMPDEST DUP2 DUP2 LT ISZERO PUSH2 0x14AD JUMPI DUP1 PUSH2 0x1499 DUP9 DUP3 PUSH2 0x11AA JUMP JUMPDEST DUP5 MSTORE PUSH1 0x20 DUP5 ADD SWAP4 POP POP PUSH1 0x20 DUP2 ADD SWAP1 POP PUSH2 0x1486 JUMP JUMPDEST POP POP POP SWAP4 SWAP3 POP POP POP JUMP JUMPDEST PUSH0 DUP3 PUSH1 0x1F DUP4 ADD SLT PUSH2 0x14CB JUMPI PUSH2 0x14CA PUSH2 0x11BE JUMP JUMPDEST JUMPDEST DUP2 CALLDATALOAD PUSH2 0x14DB DUP5 DUP3 PUSH1 0x20 DUP7 ADD PUSH2 0x144F JUMP JUMPDEST SWAP2 POP POP SWAP3 SWAP2 POP POP JUMP JUMPDEST PUSH0 PUSH8 0xFFFFFFFFFFFFFFFF DUP3 GT ISZERO PUSH2 0x14FE JUMPI PUSH2 0x14FD PUSH2 0x13AC JUMP JUMPDEST JUMPDEST PUSH1 0x20 DUP3 MUL SWAP1 POP PUSH1 0x20 DUP2 ADD SWAP1 POP SWAP2 SWAP1 POP JUMP JUMPDEST PUSH2 0x1518 DUP2 PUSH2 0x114D JUMP JUMPDEST DUP2 EQ PUSH2 0x1522 JUMPI PUSH0 DUP1 REVERT JUMPDEST POP JUMP JUMPDEST PUSH0 DUP2 CALLDATALOAD SWAP1 POP PUSH2 0x1533 DUP2 PUSH2 0x150F JUMP JUMPDEST SWAP3 SWAP2 POP POP JUMP JUMPDEST PUSH0 PUSH2 0x154B PUSH2 0x1546 DUP5 PUSH2 0x14E4 JUMP JUMPDEST PUSH2 0x140A JUMP JUMPDEST SWAP1 POP DUP1 DUP4 DUP3 MSTORE PUSH1 0x20 DUP3 ADD SWAP1 POP PUSH1 0x20 DUP5 MUL DUP4 ADD DUP6 DUP2 GT ISZERO PUSH2 0x156E JUMPI PUSH2 0x156D PUSH2 0x11C6 JUMP JUMPDEST JUMPDEST DUP4 JUMPDEST DUP2 DUP2 LT ISZERO PUSH2 0x1597 JUMPI DUP1 PUSH2 0x1583 DUP9 DUP3 PUSH2 0x1525 JUMP JUMPDEST DUP5 MSTORE PUSH1 0x20 DUP5 ADD SWAP4 POP POP PUSH1 0x20 DUP2 ADD SWAP1 POP PUSH2 0x1570 JUMP JUMPDEST POP POP POP SWAP4 SWAP3 POP POP POP JUMP JUMPDEST PUSH0 DUP3 PUSH1 0x1F DUP4 ADD SLT PUSH2 0x15B5 JUMPI PUSH2 0x15B4 PUSH2 0x11BE JUMP JUMPDEST JUMPDEST DUP2 CALLDATALOAD PUSH2 0x15C5 DUP5 DUP3 PUSH1 0x20 DUP7 ADD PUSH2 0x1539 JUMP JUMPDEST SWAP2 POP POP SWAP3 SWAP2 POP POP JUMP JUMPDEST PUSH0 DUP1 PUSH0 DUP1 PUSH1 0x80 DUP6 DUP8 SUB SLT ISZERO PUSH2 0x15E6 JUMPI PUSH2 0x15E5 PUSH2 0x10E7 JUMP JUMPDEST JUMPDEST PUSH0 PUSH2 0x15F3 DUP8 DUP3 DUP9 ADD PUSH2 0x110E JUMP JUMPDEST SWAP5 POP POP PUSH1 0x20 DUP6 ADD CALLDATALOAD PUSH8 0xFFFFFFFFFFFFFFFF DUP2 GT ISZERO PUSH2 0x1614 JUMPI PUSH2 0x1613 PUSH2 0x10EB JUMP JUMPDEST JUMPDEST PUSH2 0x1620 DUP8 DUP3 DUP9 ADD PUSH2 0x14B7 JUMP JUMPDEST SWAP4 POP POP PUSH1 0x40 DUP6 ADD CALLDATALOAD PUSH8 0xFFFFFFFFFFFFFFFF DUP2 GT ISZERO PUSH2 0x1641 JUMPI PUSH2 0x1640 PUSH2 0x10EB JUMP JUMPDEST JUMPDEST PUSH2 0x164D DUP8 DUP3 DUP9 ADD PUSH2 0x14B7 JUMP JUMPDEST SWAP3 POP POP PUSH1 0x60 DUP6 ADD CALLDATALOAD PUSH8 0xFFFFFFFFFFFFFFFF DUP2 GT ISZERO PUSH2 0x166E JUMPI PUSH2 0x166D PUSH2 0x10EB JUMP JUMPDEST JUMPDEST PUSH2 0x167A DUP8 DUP3 DUP9 ADD PUSH2 0x15A1 JUMP JUMPDEST SWAP2 POP POP SWAP3 SWAP6 SWAP2 SWAP5 POP SWAP3 POP JUMP JUMPDEST PUSH0 DUP3 DUP3 MSTORE PUSH1 0x20 DUP3 ADD SWAP1 POP SWAP3 SWAP2 POP POP JUMP JUMPDEST PUSH32 0x496E69746961746F72206D757374206265207468697320636F6E747261637400 PUSH0 DUP3 ADD MSTORE POP JUMP JUMPDEST PUSH0 PUSH2 0x16CA PUSH1 0x1F DUP4 PUSH2 0x1686 JUMP JUMPDEST SWAP2 POP PUSH2 0x16D5 DUP3 PUSH2 0x1696 JUMP JUMPDEST PUSH1 0x20 DUP3 ADD SWAP1 POP SWAP2 SWAP1 POP JUMP JUMPDEST PUSH0 PUSH1 0x20 DUP3 ADD SWAP1 POP DUP2 DUP2 SUB PUSH0 DUP4 ADD MSTORE PUSH2 0x16F7 DUP2 PUSH2 0x16BE JUMP JUMPDEST SWAP1 POP SWAP2 SWAP1 POP JUMP JUMPDEST PUSH32 0x43616C6C206D75737420636F6D652066726F6D20504F4F4C0000000000000000 PUSH0 DUP3 ADD MSTORE POP JUMP JUMPDEST PUSH0 PUSH2 0x1732 PUSH1 0x18 DUP4 PUSH2 0x1686 JUMP JUMPDEST SWAP2 POP PUSH2 0x173D DUP3 PUSH2 0x16FE JUMP JUMPDEST PUSH1 0x20 DUP3 ADD SWAP1 POP SWAP2 SWAP1 POP JUMP JUMPDEST PUSH0 PUSH1 0x20 DUP3 ADD SWAP1 POP DUP2 DUP2 SUB PUSH0 DUP4 ADD MSTORE PUSH2 0x175F DUP2 PUSH2 0x1726 JUMP JUMPDEST SWAP1 POP SWAP2 SWAP1 POP JUMP JUMPDEST PUSH32 0x4E487B7100000000000000000000000000000000000000000000000000000000 PUSH0 MSTORE PUSH1 0x32 PUSH1 0x4 MSTORE PUSH1 0x24 PUSH0 REVERT JUMPDEST PUSH32 0x4173736574206D757374206D6174636820746865206C6F616E20746F6B656E00 PUSH0 DUP3 ADD MSTORE POP JUMP JUMPDEST PUSH0 PUSH2 0x17C7 PUSH1 0x1F DUP4 PUSH2 0x1686 JUMP JUMPDEST SWAP2 POP PUSH2 0x17D2 DUP3 PUSH2 0x1793 JUMP JUMPDEST PUSH1 0x20 DUP3 ADD SWAP1 POP SWAP2 SWAP1 POP JUMP JUMPDEST PUSH0 PUSH1 0x20 DUP3 ADD SWAP1 POP DUP2 DUP2 SUB PUSH0 DUP4 ADD MSTORE PUSH2 0x17F4 DUP2 PUSH2 0x17BB JUMP JUMPDEST SWAP1 POP SWAP2 SWAP1 POP JUMP JUMPDEST PUSH0 PUSH1 0x40 DUP3 ADD SWAP1 POP PUSH2 0x180E PUSH0 DUP4 ADD DUP6 PUSH2 0x12E8 JUMP JUMPDEST PUSH2 0x181B PUSH1 0x20 DUP4 ADD DUP5 PUSH2 0x1374 JUMP JUMPDEST SWAP4 SWAP3 POP POP POP JUMP JUMPDEST PUSH2 0x182B DUP2 PUSH2 0x12B5 JUMP JUMPDEST DUP2 EQ PUSH2 0x1835 JUMPI PUSH0 DUP1 REVERT JUMPDEST POP JUMP JUMPDEST PUSH0 DUP2 MLOAD SWAP1 POP PUSH2 0x1846 DUP2 PUSH2 0x1822 JUMP JUMPDEST SWAP3 SWAP2 POP POP JUMP JUMPDEST PUSH0 PUSH1 0x20 DUP3 DUP5 SUB SLT ISZERO PUSH2 0x1861 JUMPI PUSH2 0x1860 PUSH2 0x10E7 JUMP JUMPDEST JUMPDEST PUSH0 PUSH2 0x186E DUP5 DUP3 DUP6 ADD PUSH2 0x1838 JUMP JUMPDEST SWAP2 POP POP SWAP3 SWAP2 POP POP JUMP JUMPDEST PUSH0 PUSH1 0xA0 DUP3 ADD SWAP1 POP PUSH2 0x188A PUSH0 DUP4 ADD DUP9 PUSH2 0x12E8 JUMP JUMPDEST PUSH2 0x1897 PUSH1 0x20 DUP4 ADD DUP8 PUSH2 0x12E8 JUMP JUMPDEST PUSH2 0x18A4 PUSH1 0x40 DUP4 ADD DUP7 PUSH2 0x12E8 JUMP JUMPDEST PUSH2 0x18B1 PUSH1 0x60 DUP4 ADD DUP6 PUSH2 0x1374 JUMP JUMPDEST PUSH2 0x18BE PUSH1 0x80 DUP4 ADD DUP5 PUSH2 0x115B JUMP JUMPDEST SWAP7 SWAP6 POP POP POP POP POP POP JUMP JUMPDEST PUSH0 DUP2 MLOAD SWAP1 POP PUSH2 0x18D6 DUP2 PUSH2 0x10F8 JUMP JUMPDEST SWAP3 SWAP2 POP POP JUMP JUMPDEST PUSH0 PUSH1 0x20 DUP3 DUP5 SUB SLT ISZERO PUSH2 0x18F1 JUMPI PUSH2 0x18F0 PUSH2 0x10E7 JUMP JUMPDEST JUMPDEST PUSH0 PUSH2 0x18FE DUP5 DUP3 DUP6 ADD PUSH2 0x18C8 JUMP JUMPDEST SWAP2 POP POP SWAP3 SWAP2 POP POP JUMP JUMPDEST PUSH32 0x4E487B7100000000000000000000000000000000000000000000000000000000 PUSH0 MSTORE PUSH1 0x11 PUSH1 0x4 MSTORE PUSH1 0x24 PUSH0 REVERT JUMPDEST PUSH0 PUSH2 0x193E DUP3 PUSH2 0x10EF JUMP JUMPDEST SWAP2 POP PUSH2 0x1949 DUP4 PUSH2 0x10EF JUMP JUMPDEST SWAP3 POP DUP3 DUP3 ADD SWAP1 POP DUP1 DUP3 GT ISZERO PUSH2 0x1961 JUMPI PUSH2 0x1960 PUSH2 0x1907 JUMP JUMPDEST JUMPDEST SWAP3 SWAP2 POP POP JUMP JUMPDEST PUSH32 0x4F6E6C792074686520636F6E7472616374206F776E65722063616E2063616C6C PUSH0 DUP3 ADD MSTORE PUSH32 0x20746869732066756E6374696F6E000000000000000000000000000000000000 PUSH1 0x20 DUP3 ADD MSTORE POP JUMP JUMPDEST PUSH0 PUSH2 0x19C1 PUSH1 0x2E DUP4 PUSH2 0x1686 JUMP JUMPDEST SWAP2 POP PUSH2 0x19CC DUP3 PUSH2 0x1967 JUMP JUMPDEST PUSH1 0x40 DUP3 ADD SWAP1 POP SWAP2 SWAP1 POP JUMP JUMPDEST PUSH0 PUSH1 0x20 DUP3 ADD SWAP1 POP DUP2 DUP2 SUB PUSH0 DUP4 ADD MSTORE PUSH2 0x19EE DUP2 PUSH2 0x19B5 JUMP JUMPDEST SWAP1 POP SWAP2 SWAP1 POP JUMP JUMPDEST PUSH32 0x4172726179206C656E677468206D757374206265203200000000000000000000 PUSH0 DUP3 ADD MSTORE POP JUMP JUMPDEST PUSH0 PUSH2 0x1A29 PUSH1 0x16 DUP4 PUSH2 0x1686 JUMP JUMPDEST SWAP2 POP PUSH2 0x1A34 DUP3 PUSH2 0x19F5 JUMP JUMPDEST PUSH1 0x20 DUP3 ADD SWAP1 POP SWAP2 SWAP1 POP JUMP JUMPDEST PUSH0 PUSH1 0x20 DUP3 ADD SWAP1 POP DUP2 DUP2 SUB PUSH0 DUP4 ADD MSTORE PUSH2 0x1A56 DUP2 PUSH2 0x1A1D JUMP JUMPDEST SWAP1 POP SWAP2 SWAP1 POP JUMP JUMPDEST PUSH32 0x4172726179206C656E67746873206D757374206D617463680000000000000000 PUSH0 DUP3 ADD MSTORE POP JUMP JUMPDEST PUSH0 PUSH2 0x1A91 PUSH1 0x18 DUP4 PUSH2 0x1686 JUMP JUMPDEST SWAP2 POP PUSH2 0x1A9C DUP3 PUSH2 0x1A5D JUMP JUMPDEST PUSH1 0x20 DUP3 ADD SWAP1 POP SWAP2 SWAP1 POP JUMP JUMPDEST PUSH0 PUSH1 0x20 DUP3 ADD SWAP1 POP DUP2 DUP2 SUB PUSH0 DUP4 ADD MSTORE PUSH2 0x1ABE DUP2 PUSH2 0x1A85 JUMP JUMPDEST SWAP1 POP SWAP2 SWAP1 POP JUMP JUMPDEST PUSH0 DUP2 MLOAD SWAP1 POP SWAP2 SWAP1 POP JUMP JUMPDEST PUSH0 DUP3 DUP3 MSTORE PUSH1 0x20 DUP3 ADD SWAP1 POP SWAP3 SWAP2 POP POP JUMP JUMPDEST DUP3 DUP2 DUP4 MCOPY PUSH0 DUP4 DUP4 ADD MSTORE POP POP POP JUMP JUMPDEST PUSH0 PUSH2 0x1AF7 DUP3 PUSH2 0x1AC5 JUMP JUMPDEST PUSH2 0x1B01 DUP2 DUP6 PUSH2 0x1ACF JUMP JUMPDEST SWAP4 POP PUSH2 0x1B11 DUP2 DUP6 PUSH1 0x20 DUP7 ADD PUSH2 0x1ADF JUMP JUMPDEST PUSH2 0x1B1A DUP2 PUSH2 0x139C JUMP JUMPDEST DUP5 ADD SWAP2 POP POP SWAP3 SWAP2 POP POP JUMP JUMPDEST PUSH0 PUSH2 0xFFFF DUP3 AND SWAP1 POP SWAP2 SWAP1 POP JUMP JUMPDEST PUSH2 0x1B3B DUP2 PUSH2 0x1B25 JUMP JUMPDEST DUP3 MSTORE POP POP JUMP JUMPDEST PUSH0 PUSH1 0xA0 DUP3 ADD SWAP1 POP PUSH2 0x1B54 PUSH0 DUP4 ADD DUP9 PUSH2 0x12E8 JUMP JUMPDEST PUSH2 0x1B61 PUSH1 0x20 DUP4 ADD DUP8 PUSH2 0x12E8 JUMP JUMPDEST PUSH2 0x1B6E PUSH1 0x40 DUP4 ADD DUP7 PUSH2 0x1374 JUMP JUMPDEST DUP2 DUP2 SUB PUSH1 0x60 DUP4 ADD MSTORE PUSH2 0x1B80 DUP2 DUP6 PUSH2 0x1AED JUMP JUMPDEST SWAP1 POP PUSH2 0x1B8F PUSH1 0x80 DUP4 ADD DUP5 PUSH2 0x1B32 JUMP JUMPDEST SWAP7 SWAP6 POP POP POP POP POP POP JUMP INVALID LOG2 PUSH5 0x6970667358 0x22 SLT KECCAK256 SWAP3 0x1E 0xE6 PUSH12 0x85DCB003D0A22D3D674C39BD 0x1F COINBASE CALLDATASIZE 0xE7 DUP12 0xC0 DUP9 STOP 0xE3 0x2C PUSH12 0x87D203C60764736F6C634300 ADDMOD NOT STOP CALLER "
				},
				"gasEstimates": {
					"creation": {
						"codeDepositCost": "1423800",
						"executionCost": "infinite",
						"totalCost": "infinite"
					},
					"external": {
						"ADDRESSES_PROVIDER()": "infinite",
						"POOL()": "infinite",
						"executeOperation(address,uint256,uint256,address,bytes)": "infinite",
						"getBalance(address)": "infinite",
						"loanAmount()": "2469",
						"poolFees(uint256)": "6562",
						"requestFlashLoanArbitrageSimple(uint256,address[],address[],uint24[])": "infinite",
						"swapRouters(uint256)": "5011",
						"tokens(uint256)": "5033",
						"withdraw(address)": "infinite"
					}
				},
				"methodIdentifiers": {
					"ADDRESSES_PROVIDER()": "0542975c",
					"POOL()": "7535d246",
					"executeOperation(address,uint256,uint256,address,bytes)": "1b11d0ff",
					"getBalance(address)": "f8b2cb4f",
					"loanAmount()": "9d585f7f",
					"poolFees(uint256)": "11236758",
					"requestFlashLoanArbitrageSimple(uint256,address[],address[],uint24[])": "a9448971",
					"swapRouters(uint256)": "1d4794d0",
					"tokens(uint256)": "4f64b2be",
					"withdraw(address)": "51cff8d9"
				}
			},
			"storageLayout": {
				"storage": [
					{
						"astId": 1757,
						"contract": "contracts/FlashLoanOriol.sol:FlashLoanOriol",
						"label": "owner",
						"offset": 0,
						"slot": "0",
						"type": "t_address_payable"
					},
					{
						"astId": 1759,
						"contract": "contracts/FlashLoanOriol.sol:FlashLoanOriol",
						"label": "loanAmount",
						"offset": 0,
						"slot": "1",
						"type": "t_uint256"
					},
					{
						"astId": 1762,
						"contract": "contracts/FlashLoanOriol.sol:FlashLoanOriol",
						"label": "tokens",
						"offset": 0,
						"slot": "2",
						"type": "t_array(t_address)dyn_storage"
					},
					{
						"astId": 1765,
						"contract": "contracts/FlashLoanOriol.sol:FlashLoanOriol",
						"label": "swapRouters",
						"offset": 0,
						"slot": "3",
						"type": "t_array(t_address)dyn_storage"
					},
					{
						"astId": 1768,
						"contract": "contracts/FlashLoanOriol.sol:FlashLoanOriol",
						"label": "poolFees",
						"offset": 0,
						"slot": "4",
						"type": "t_array(t_uint24)dyn_storage"
					},
					{
						"astId": 1771,
						"contract": "contracts/FlashLoanOriol.sol:FlashLoanOriol",
						"label": "swapContract",
						"offset": 0,
						"slot": "5",
						"type": "t_contract(SwapContract)2222"
					}
				],
				"types": {
					"t_address": {
						"encoding": "inplace",
						"label": "address",
						"numberOfBytes": "20"
					},
					"t_address_payable": {
						"encoding": "inplace",
						"label": "address payable",
						"numberOfBytes": "20"
					},
					"t_array(t_address)dyn_storage": {
						"base": "t_address",
						"encoding": "dynamic_array",
						"label": "address[]",
						"numberOfBytes": "32"
					},
					"t_array(t_uint24)dyn_storage": {
						"base": "t_uint24",
						"encoding": "dynamic_array",
						"label": "uint24[]",
						"numberOfBytes": "32"
					},
					"t_contract(SwapContract)2222": {
						"encoding": "inplace",
						"label": "contract SwapContract",
						"numberOfBytes": "20"
					},
					"t_uint24": {
						"encoding": "inplace",
						"label": "uint24",
						"numberOfBytes": "3"
					},
					"t_uint256": {
						"encoding": "inplace",
						"label": "uint256",
						"numberOfBytes": "32"
					}
				}
			},
			"userdoc": {
				"kind": "user",
				"methods": {
					"executeOperation(address,uint256,uint256,address,bytes)": {
						"notice": "This function is called after your contract has received the flash loaned amount. Here we execute the trades as per the directions provided."
					},
					"requestFlashLoanArbitrageSimple(uint256,address[],address[],uint24[])": {
						"notice": "requestFlashLoanArbitrageSimple is the entry point for the contract. it will store the arbitrage details and initiate the flash loan"
					}
				},
				"version": 1
			}
		}
	}
}