{
	"contracts/FlashLoanV3.sol": {
		"FlashLoanV3": {
			"abi": [
				{
					"inputs": [
						{
							"internalType": "address",
							"name": "_addressProvider",
							"type": "address"
						}
					],
					"stateMutability": "nonpayable",
					"type": "constructor"
				},
				{
					"inputs": [],
					"name": "ADDRESSES_PROVIDER",
					"outputs": [
						{
							"internalType": "contract IPoolAddressesProvider",
							"name": "",
							"type": "address"
						}
					],
					"stateMutability": "view",
					"type": "function"
				},
				{
					"inputs": [],
					"name": "POOL",
					"outputs": [
						{
							"internalType": "contract IPool",
							"name": "",
							"type": "address"
						}
					],
					"stateMutability": "view",
					"type": "function"
				},
				{
					"inputs": [
						{
							"internalType": "address",
							"name": "asset",
							"type": "address"
						},
						{
							"internalType": "uint256",
							"name": "amount",
							"type": "uint256"
						},
						{
							"internalType": "uint256",
							"name": "premium",
							"type": "uint256"
						},
						{
							"internalType": "address",
							"name": "initiator",
							"type": "address"
						},
						{
							"internalType": "bytes",
							"name": "params",
							"type": "bytes"
						}
					],
					"name": "executeOperation",
					"outputs": [
						{
							"internalType": "bool",
							"name": "",
							"type": "bool"
						}
					],
					"stateMutability": "nonpayable",
					"type": "function"
				},
				{
					"inputs": [
						{
							"internalType": "address",
							"name": "_tokenAddress",
							"type": "address"
						}
					],
					"name": "getBalance",
					"outputs": [
						{
							"internalType": "uint256",
							"name": "",
							"type": "uint256"
						}
					],
					"stateMutability": "view",
					"type": "function"
				},
				{
					"inputs": [
						{
							"internalType": "address",
							"name": "_token",
							"type": "address"
						},
						{
							"internalType": "uint256",
							"name": "_amount",
							"type": "uint256"
						}
					],
					"name": "requestFlashLoan",
					"outputs": [],
					"stateMutability": "nonpayable",
					"type": "function"
				},
				{
					"inputs": [
						{
							"internalType": "address",
							"name": "_tokenAddress",
							"type": "address"
						}
					],
					"name": "withdraw",
					"outputs": [],
					"stateMutability": "nonpayable",
					"type": "function"
				},
				{
					"stateMutability": "payable",
					"type": "receive"
				}
			],
			"devdoc": {
				"kind": "dev",
				"methods": {},
				"version": 1
			},
			"evm": {
				"assembly": "    /* \"contracts/FlashLoanV3.sol\":401:2606  contract FlashLoanV3 is FlashLoanSimpleReceiverBase {... */\n  mstore(0x40, 0xc0)\n    /* \"contracts/FlashLoanV3.sol\":487:702  constructor(address _addressProvider)... */\n  callvalue\n  dup1\n  iszero\n  tag_1\n  jumpi\n  0x00\n  dup1\n  revert\ntag_1:\n  pop\n  mload(0x40)\n  sub(codesize, bytecodeSize)\n  dup1\n  bytecodeSize\n  dup4\n  codecopy\n  dup2\n  dup2\n  add\n  0x40\n  mstore\n  dup2\n  add\n  swap1\n  tag_2\n  swap2\n  swap1\n  tag_3\n  jump\t// in\ntag_2:\n    /* \"contracts/FlashLoanV3.sol\":584:600  _addressProvider */\n  dup1\n    /* \"@aave/core-v3/contracts/flashloan/base/FlashLoanSimpleReceiverBase.sol\":673:681  provider */\n  dup1\n    /* \"@aave/core-v3/contracts/flashloan/base/FlashLoanSimpleReceiverBase.sol\":652:681  ADDRESSES_PROVIDER = provider */\n  0xffffffffffffffffffffffffffffffffffffffff\n  and\n  0x80\n  dup2\n  0xffffffffffffffffffffffffffffffffffffffff\n  and\n  dup2\n  mstore\n  pop\n  pop\n    /* \"@aave/core-v3/contracts/flashloan/base/FlashLoanSimpleReceiverBase.sol\":700:708  provider */\n  dup1\n    /* \"@aave/core-v3/contracts/flashloan/base/FlashLoanSimpleReceiverBase.sol\":700:716  provider.getPool */\n  0xffffffffffffffffffffffffffffffffffffffff\n  and\n  0x026b1d5f\n    /* \"@aave/core-v3/contracts/flashloan/base/FlashLoanSimpleReceiverBase.sol\":700:718  provider.getPool() */\n  mload(0x40)\n  dup2\n  0xffffffff\n  and\n  0xe0\n  shl\n  dup2\n  mstore\n  0x04\n  add\n  0x20\n  mload(0x40)\n  dup1\n  dup4\n  sub\n  dup2\n  dup7\n  gas\n  staticcall\n  iszero\n  dup1\n  iszero\n  tag_8\n  jumpi\n  returndatasize\n  0x00\n  dup1\n  returndatacopy\n  revert(0x00, returndatasize)\ntag_8:\n  pop\n  pop\n  pop\n  pop\n  mload(0x40)\n  returndatasize\n  not(0x1f)\n  0x1f\n  dup3\n  add\n  and\n  dup3\n  add\n  dup1\n  0x40\n  mstore\n  pop\n  dup2\n  add\n  swap1\n  tag_9\n  swap2\n  swap1\n  tag_3\n  jump\t// in\ntag_9:\n    /* \"@aave/core-v3/contracts/flashloan/base/FlashLoanSimpleReceiverBase.sol\":687:719  POOL = IPool(provider.getPool()) */\n  0xffffffffffffffffffffffffffffffffffffffff\n  and\n  0xa0\n  dup2\n  0xffffffffffffffffffffffffffffffffffffffff\n  and\n  dup2\n  mstore\n  pop\n  pop\n    /* \"@aave/core-v3/contracts/flashloan/base/FlashLoanSimpleReceiverBase.sol\":601:724  constructor(IPoolAddressesProvider provider) {... */\n  pop\n    /* \"contracts/FlashLoanV3.sol\":637:647  msg.sender */\n  caller\n    /* \"contracts/FlashLoanV3.sol\":621:626  owner */\n  0x00\n  dup1\n    /* \"contracts/FlashLoanV3.sol\":621:648  owner = payable(msg.sender) */\n  0x0100\n  exp\n  dup2\n  sload\n  dup2\n  0xffffffffffffffffffffffffffffffffffffffff\n  mul\n  not\n  and\n  swap1\n  dup4\n  0xffffffffffffffffffffffffffffffffffffffff\n  and\n  mul\n  or\n  swap1\n  sstore\n  pop\n    /* \"contracts/FlashLoanV3.sol\":487:702  constructor(address _addressProvider)... */\n  pop\n    /* \"contracts/FlashLoanV3.sol\":401:2606  contract FlashLoanV3 is FlashLoanSimpleReceiverBase {... */\n  jump(tag_11)\n    /* \"#utility.yul\":88:205   */\ntag_13:\n    /* \"#utility.yul\":197:198   */\n  0x00\n    /* \"#utility.yul\":194:195   */\n  dup1\n    /* \"#utility.yul\":187:199   */\n  revert\n    /* \"#utility.yul\":334:460   */\ntag_15:\n    /* \"#utility.yul\":371:378   */\n  0x00\n    /* \"#utility.yul\":411:453   */\n  0xffffffffffffffffffffffffffffffffffffffff\n    /* \"#utility.yul\":404:409   */\n  dup3\n    /* \"#utility.yul\":400:454   */\n  and\n    /* \"#utility.yul\":389:454   */\n  swap1\n  pop\n    /* \"#utility.yul\":334:460   */\n  swap2\n  swap1\n  pop\n  jump\t// out\n    /* \"#utility.yul\":466:562   */\ntag_16:\n    /* \"#utility.yul\":503:510   */\n  0x00\n    /* \"#utility.yul\":532:556   */\n  tag_25\n    /* \"#utility.yul\":550:555   */\n  dup3\n    /* \"#utility.yul\":532:556   */\n  tag_15\n  jump\t// in\ntag_25:\n    /* \"#utility.yul\":521:556   */\n  swap1\n  pop\n    /* \"#utility.yul\":466:562   */\n  swap2\n  swap1\n  pop\n  jump\t// out\n    /* \"#utility.yul\":568:690   */\ntag_17:\n    /* \"#utility.yul\":641:665   */\n  tag_27\n    /* \"#utility.yul\":659:664   */\n  dup2\n    /* \"#utility.yul\":641:665   */\n  tag_16\n  jump\t// in\ntag_27:\n    /* \"#utility.yul\":634:639   */\n  dup2\n    /* \"#utility.yul\":631:666   */\n  eq\n    /* \"#utility.yul\":621:684   */\n  tag_28\n  jumpi\n    /* \"#utility.yul\":680:681   */\n  0x00\n    /* \"#utility.yul\":677:678   */\n  dup1\n    /* \"#utility.yul\":670:682   */\n  revert\n    /* \"#utility.yul\":621:684   */\ntag_28:\n    /* \"#utility.yul\":568:690   */\n  pop\n  jump\t// out\n    /* \"#utility.yul\":696:839   */\ntag_18:\n    /* \"#utility.yul\":753:758   */\n  0x00\n    /* \"#utility.yul\":784:790   */\n  dup2\n    /* \"#utility.yul\":778:791   */\n  mload\n    /* \"#utility.yul\":769:791   */\n  swap1\n  pop\n    /* \"#utility.yul\":800:833   */\n  tag_30\n    /* \"#utility.yul\":827:832   */\n  dup2\n    /* \"#utility.yul\":800:833   */\n  tag_17\n  jump\t// in\ntag_30:\n    /* \"#utility.yul\":696:839   */\n  swap3\n  swap2\n  pop\n  pop\n  jump\t// out\n    /* \"#utility.yul\":845:1196   */\ntag_3:\n    /* \"#utility.yul\":915:921   */\n  0x00\n    /* \"#utility.yul\":964:966   */\n  0x20\n    /* \"#utility.yul\":952:961   */\n  dup3\n    /* \"#utility.yul\":943:950   */\n  dup5\n    /* \"#utility.yul\":939:962   */\n  sub\n    /* \"#utility.yul\":935:967   */\n  slt\n    /* \"#utility.yul\":932:1051   */\n  iszero\n  tag_32\n  jumpi\n    /* \"#utility.yul\":970:1049   */\n  tag_33\n  tag_13\n  jump\t// in\ntag_33:\n    /* \"#utility.yul\":932:1051   */\ntag_32:\n    /* \"#utility.yul\":1090:1091   */\n  0x00\n    /* \"#utility.yul\":1115:1179   */\n  tag_34\n    /* \"#utility.yul\":1171:1178   */\n  dup5\n    /* \"#utility.yul\":1162:1168   */\n  dup3\n    /* \"#utility.yul\":1151:1160   */\n  dup6\n    /* \"#utility.yul\":1147:1169   */\n  add\n    /* \"#utility.yul\":1115:1179   */\n  tag_18\n  jump\t// in\ntag_34:\n    /* \"#utility.yul\":1105:1179   */\n  swap2\n  pop\n    /* \"#utility.yul\":1061:1189   */\n  pop\n    /* \"#utility.yul\":845:1196   */\n  swap3\n  swap2\n  pop\n  pop\n  jump\t// out\n    /* \"contracts/FlashLoanV3.sol\":401:2606  contract FlashLoanV3 is FlashLoanSimpleReceiverBase {... */\ntag_11:\n  mload(0x80)\n  mload(0xa0)\n  codecopy(0x00, dataOffset(sub_0), dataSize(sub_0))\n  0x00\n  assignImmutable(\"0xdab92d3cfd2fb10847c732668f5be4f526313d660461529e6720c950cca9ea28\")\n  0x00\n  assignImmutable(\"0xaf057546d61dd28804ca035e688a36db5f311bb8c4c9d2e1e5e44c0555cfe3bf\")\n  return(0x00, dataSize(sub_0))\nstop\n\nsub_0: assembly {\n        /* \"contracts/FlashLoanV3.sol\":401:2606  contract FlashLoanV3 is FlashLoanSimpleReceiverBase {... */\n      mstore(0x40, 0x80)\n      jumpi(tag_1, lt(calldatasize, 0x04))\n      shr(0xe0, calldataload(0x00))\n      dup1\n      0x0542975c\n      eq\n      tag_3\n      jumpi\n      dup1\n      0x1b11d0ff\n      eq\n      tag_4\n      jumpi\n      dup1\n      0x51cff8d9\n      eq\n      tag_5\n      jumpi\n      dup1\n      0x7535d246\n      eq\n      tag_6\n      jumpi\n      dup1\n      0xd54ba954\n      eq\n      tag_7\n      jumpi\n      dup1\n      0xf8b2cb4f\n      eq\n      tag_8\n      jumpi\n      jump(tag_2)\n    tag_1:\n      jumpi(tag_2, calldatasize)\n      stop\n    tag_2:\n      0x00\n      dup1\n      revert\n        /* \"@aave/core-v3/contracts/flashloan/base/FlashLoanSimpleReceiverBase.sol\":489:556  IPoolAddressesProvider public immutable override ADDRESSES_PROVIDER */\n    tag_3:\n      callvalue\n      dup1\n      iszero\n      tag_11\n      jumpi\n      0x00\n      dup1\n      revert\n    tag_11:\n      pop\n      tag_12\n      tag_13\n      jump\t// in\n    tag_12:\n      mload(0x40)\n      tag_14\n      swap2\n      swap1\n      tag_15\n      jump\t// in\n    tag_14:\n      mload(0x40)\n      dup1\n      swap2\n      sub\n      swap1\n      return\n        /* \"contracts/FlashLoanV3.sol\":813:1648  function executeOperation(... */\n    tag_4:\n      callvalue\n      dup1\n      iszero\n      tag_16\n      jumpi\n      0x00\n      dup1\n      revert\n    tag_16:\n      pop\n      tag_17\n      0x04\n      dup1\n      calldatasize\n      sub\n      dup2\n      add\n      swap1\n      tag_18\n      swap2\n      swap1\n      tag_19\n      jump\t// in\n    tag_18:\n      tag_20\n      jump\t// in\n    tag_17:\n      mload(0x40)\n      tag_21\n      swap2\n      swap1\n      tag_22\n      jump\t// in\n    tag_21:\n      mload(0x40)\n      dup1\n      swap2\n      sub\n      swap1\n      return\n        /* \"contracts/FlashLoanV3.sol\":2221:2402  function withdraw(address _tokenAddress) external onlyOwner {... */\n    tag_5:\n      callvalue\n      dup1\n      iszero\n      tag_23\n      jumpi\n      0x00\n      dup1\n      revert\n    tag_23:\n      pop\n      tag_24\n      0x04\n      dup1\n      calldatasize\n      sub\n      dup2\n      add\n      swap1\n      tag_25\n      swap2\n      swap1\n      tag_26\n      jump\t// in\n    tag_25:\n      tag_27\n      jump\t// in\n    tag_24:\n      stop\n        /* \"@aave/core-v3/contracts/flashloan/base/FlashLoanSimpleReceiverBase.sol\":560:596  IPool public immutable override POOL */\n    tag_6:\n      callvalue\n      dup1\n      iszero\n      tag_28\n      jumpi\n      0x00\n      dup1\n      revert\n    tag_28:\n      pop\n      tag_29\n      tag_30\n      jump\t// in\n    tag_29:\n      mload(0x40)\n      tag_31\n      swap2\n      swap1\n      tag_32\n      jump\t// in\n    tag_31:\n      mload(0x40)\n      dup1\n      swap2\n      sub\n      swap1\n      return\n        /* \"contracts/FlashLoanV3.sol\":1654:2064  function requestFlashLoan(address _token, uint256 _amount) public {... */\n    tag_7:\n      callvalue\n      dup1\n      iszero\n      tag_33\n      jumpi\n      0x00\n      dup1\n      revert\n    tag_33:\n      pop\n      tag_34\n      0x04\n      dup1\n      calldatasize\n      sub\n      dup2\n      add\n      swap1\n      tag_35\n      swap2\n      swap1\n      tag_36\n      jump\t// in\n    tag_35:\n      tag_37\n      jump\t// in\n    tag_34:\n      stop\n        /* \"contracts/FlashLoanV3.sol\":2070:2215  function getBalance(address _tokenAddress) external view returns (uint256) {... */\n    tag_8:\n      callvalue\n      dup1\n      iszero\n      tag_38\n      jumpi\n      0x00\n      dup1\n      revert\n    tag_38:\n      pop\n      tag_39\n      0x04\n      dup1\n      calldatasize\n      sub\n      dup2\n      add\n      swap1\n      tag_40\n      swap2\n      swap1\n      tag_26\n      jump\t// in\n    tag_40:\n      tag_41\n      jump\t// in\n    tag_39:\n      mload(0x40)\n      tag_42\n      swap2\n      swap1\n      tag_43\n      jump\t// in\n    tag_42:\n      mload(0x40)\n      dup1\n      swap2\n      sub\n      swap1\n      return\n        /* \"@aave/core-v3/contracts/flashloan/base/FlashLoanSimpleReceiverBase.sol\":489:556  IPoolAddressesProvider public immutable override ADDRESSES_PROVIDER */\n    tag_13:\n      immutable(\"0xaf057546d61dd28804ca035e688a36db5f311bb8c4c9d2e1e5e44c0555cfe3bf\")\n      dup2\n      jump\t// out\n        /* \"contracts/FlashLoanV3.sol\":813:1648  function executeOperation(... */\n    tag_20:\n        /* \"contracts/FlashLoanV3.sol\":1128:1132  bool */\n      0x00\n        /* \"contracts/FlashLoanV3.sol\":1524:1542  uint256 amountOwed */\n      dup1\n        /* \"contracts/FlashLoanV3.sol\":1554:1561  premium */\n      dup6\n        /* \"contracts/FlashLoanV3.sol\":1545:1551  amount */\n      dup8\n        /* \"contracts/FlashLoanV3.sol\":1545:1561  amount + premium */\n      tag_45\n      swap2\n      swap1\n      tag_46\n      jump\t// in\n    tag_45:\n        /* \"contracts/FlashLoanV3.sol\":1524:1561  uint256 amountOwed = amount + premium */\n      swap1\n      pop\n        /* \"contracts/FlashLoanV3.sol\":1578:1583  asset */\n      dup8\n        /* \"contracts/FlashLoanV3.sol\":1571:1592  IERC20(asset).approve */\n      0xffffffffffffffffffffffffffffffffffffffff\n      and\n      0x095ea7b3\n        /* \"contracts/FlashLoanV3.sol\":1601:1605  POOL */\n      immutable(\"0xdab92d3cfd2fb10847c732668f5be4f526313d660461529e6720c950cca9ea28\")\n        /* \"contracts/FlashLoanV3.sol\":1608:1618  amountOwed */\n      dup4\n        /* \"contracts/FlashLoanV3.sol\":1571:1619  IERC20(asset).approve(address(POOL), amountOwed) */\n      mload(0x40)\n      dup4\n      0xffffffff\n      and\n      0xe0\n      shl\n      dup2\n      mstore\n      0x04\n      add\n      tag_47\n      swap3\n      swap2\n      swap1\n      tag_48\n      jump\t// in\n    tag_47:\n      0x20\n      mload(0x40)\n      dup1\n      dup4\n      sub\n      dup2\n      0x00\n      dup8\n      gas\n      call\n      iszero\n      dup1\n      iszero\n      tag_50\n      jumpi\n      returndatasize\n      0x00\n      dup1\n      returndatacopy\n      revert(0x00, returndatasize)\n    tag_50:\n      pop\n      pop\n      pop\n      pop\n      mload(0x40)\n      returndatasize\n      not(0x1f)\n      0x1f\n      dup3\n      add\n      and\n      dup3\n      add\n      dup1\n      0x40\n      mstore\n      pop\n      dup2\n      add\n      swap1\n      tag_51\n      swap2\n      swap1\n      tag_52\n      jump\t// in\n    tag_51:\n      pop\n        /* \"contracts/FlashLoanV3.sol\":1637:1641  true */\n      0x01\n        /* \"contracts/FlashLoanV3.sol\":1630:1641  return true */\n      swap2\n      pop\n      pop\n        /* \"contracts/FlashLoanV3.sol\":813:1648  function executeOperation(... */\n      swap7\n      swap6\n      pop\n      pop\n      pop\n      pop\n      pop\n      pop\n      jump\t// out\n        /* \"contracts/FlashLoanV3.sol\":2221:2402  function withdraw(address _tokenAddress) external onlyOwner {... */\n    tag_27:\n        /* \"contracts/FlashLoanV3.sol\":2474:2479  owner */\n      0x00\n      dup1\n      sload\n      swap1\n      0x0100\n      exp\n      swap1\n      div\n      0xffffffffffffffffffffffffffffffffffffffff\n      and\n        /* \"contracts/FlashLoanV3.sol\":2460:2479  msg.sender == owner */\n      0xffffffffffffffffffffffffffffffffffffffff\n      and\n        /* \"contracts/FlashLoanV3.sol\":2460:2470  msg.sender */\n      caller\n        /* \"contracts/FlashLoanV3.sol\":2460:2479  msg.sender == owner */\n      0xffffffffffffffffffffffffffffffffffffffff\n      and\n      eq\n        /* \"contracts/FlashLoanV3.sol\":2439:2551  require(... */\n      tag_54\n      jumpi\n      mload(0x40)\n      0x08c379a000000000000000000000000000000000000000000000000000000000\n      dup2\n      mstore\n      0x04\n      add\n      tag_55\n      swap1\n      tag_56\n      jump\t// in\n    tag_55:\n      mload(0x40)\n      dup1\n      swap2\n      sub\n      swap1\n      revert\n    tag_54:\n        /* \"contracts/FlashLoanV3.sol\":2291:2303  IERC20 token */\n      0x00\n        /* \"contracts/FlashLoanV3.sol\":2313:2326  _tokenAddress */\n      dup2\n        /* \"contracts/FlashLoanV3.sol\":2291:2327  IERC20 token = IERC20(_tokenAddress) */\n      swap1\n      pop\n        /* \"contracts/FlashLoanV3.sol\":2337:2342  token */\n      dup1\n        /* \"contracts/FlashLoanV3.sol\":2337:2351  token.transfer */\n      0xffffffffffffffffffffffffffffffffffffffff\n      and\n      0xa9059cbb\n        /* \"contracts/FlashLoanV3.sol\":2352:2362  msg.sender */\n      caller\n        /* \"contracts/FlashLoanV3.sol\":2364:2369  token */\n      dup4\n        /* \"contracts/FlashLoanV3.sol\":2364:2379  token.balanceOf */\n      0xffffffffffffffffffffffffffffffffffffffff\n      and\n      0x70a08231\n        /* \"contracts/FlashLoanV3.sol\":2388:2392  this */\n      address\n        /* \"contracts/FlashLoanV3.sol\":2364:2394  token.balanceOf(address(this)) */\n      mload(0x40)\n      dup3\n      0xffffffff\n      and\n      0xe0\n      shl\n      dup2\n      mstore\n      0x04\n      add\n      tag_58\n      swap2\n      swap1\n      tag_59\n      jump\t// in\n    tag_58:\n      0x20\n      mload(0x40)\n      dup1\n      dup4\n      sub\n      dup2\n      dup7\n      gas\n      staticcall\n      iszero\n      dup1\n      iszero\n      tag_61\n      jumpi\n      returndatasize\n      0x00\n      dup1\n      returndatacopy\n      revert(0x00, returndatasize)\n    tag_61:\n      pop\n      pop\n      pop\n      pop\n      mload(0x40)\n      returndatasize\n      not(0x1f)\n      0x1f\n      dup3\n      add\n      and\n      dup3\n      add\n      dup1\n      0x40\n      mstore\n      pop\n      dup2\n      add\n      swap1\n      tag_62\n      swap2\n      swap1\n      tag_63\n      jump\t// in\n    tag_62:\n        /* \"contracts/FlashLoanV3.sol\":2337:2395  token.transfer(msg.sender, token.balanceOf(address(this))) */\n      mload(0x40)\n      dup4\n      0xffffffff\n      and\n      0xe0\n      shl\n      dup2\n      mstore\n      0x04\n      add\n      tag_64\n      swap3\n      swap2\n      swap1\n      tag_48\n      jump\t// in\n    tag_64:\n      0x20\n      mload(0x40)\n      dup1\n      dup4\n      sub\n      dup2\n      0x00\n      dup8\n      gas\n      call\n      iszero\n      dup1\n      iszero\n      tag_66\n      jumpi\n      returndatasize\n      0x00\n      dup1\n      returndatacopy\n      revert(0x00, returndatasize)\n    tag_66:\n      pop\n      pop\n      pop\n      pop\n      mload(0x40)\n      returndatasize\n      not(0x1f)\n      0x1f\n      dup3\n      add\n      and\n      dup3\n      add\n      dup1\n      0x40\n      mstore\n      pop\n      dup2\n      add\n      swap1\n      tag_67\n      swap2\n      swap1\n      tag_52\n      jump\t// in\n    tag_67:\n      pop\n        /* \"contracts/FlashLoanV3.sol\":2281:2402  {... */\n      pop\n        /* \"contracts/FlashLoanV3.sol\":2221:2402  function withdraw(address _tokenAddress) external onlyOwner {... */\n      pop\n      jump\t// out\n        /* \"@aave/core-v3/contracts/flashloan/base/FlashLoanSimpleReceiverBase.sol\":560:596  IPool public immutable override POOL */\n    tag_30:\n      immutable(\"0xdab92d3cfd2fb10847c732668f5be4f526313d660461529e6720c950cca9ea28\")\n      dup2\n      jump\t// out\n        /* \"contracts/FlashLoanV3.sol\":1654:2064  function requestFlashLoan(address _token, uint256 _amount) public {... */\n    tag_37:\n        /* \"contracts/FlashLoanV3.sol\":1730:1753  address receiverAddress */\n      0x00\n        /* \"contracts/FlashLoanV3.sol\":1764:1768  this */\n      address\n        /* \"contracts/FlashLoanV3.sol\":1730:1769  address receiverAddress = address(this) */\n      swap1\n      pop\n        /* \"contracts/FlashLoanV3.sol\":1779:1792  address asset */\n      0x00\n        /* \"contracts/FlashLoanV3.sol\":1795:1801  _token */\n      dup4\n        /* \"contracts/FlashLoanV3.sol\":1779:1801  address asset = _token */\n      swap1\n      pop\n        /* \"contracts/FlashLoanV3.sol\":1811:1825  uint256 amount */\n      0x00\n        /* \"contracts/FlashLoanV3.sol\":1828:1835  _amount */\n      dup4\n        /* \"contracts/FlashLoanV3.sol\":1811:1835  uint256 amount = _amount */\n      swap1\n      pop\n        /* \"contracts/FlashLoanV3.sol\":1845:1864  bytes memory params */\n      0x00\n        /* \"contracts/FlashLoanV3.sol\":1845:1869  bytes memory params = \"\" */\n      mload(0x40)\n      dup1\n      0x20\n      add\n      0x40\n      mstore\n      dup1\n      0x00\n      dup2\n      mstore\n      pop\n      swap1\n      pop\n        /* \"contracts/FlashLoanV3.sol\":1879:1898  uint16 referralCode */\n      0x00\n        /* \"contracts/FlashLoanV3.sol\":1913:1917  POOL */\n      immutable(\"0xdab92d3cfd2fb10847c732668f5be4f526313d660461529e6720c950cca9ea28\")\n        /* \"contracts/FlashLoanV3.sol\":1913:1933  POOL.flashLoanSimple */\n      0xffffffffffffffffffffffffffffffffffffffff\n      and\n      0x42b0b77c\n        /* \"contracts/FlashLoanV3.sol\":1947:1962  receiverAddress */\n      dup7\n        /* \"contracts/FlashLoanV3.sol\":1976:1981  asset */\n      dup7\n        /* \"contracts/FlashLoanV3.sol\":1995:2001  amount */\n      dup7\n        /* \"contracts/FlashLoanV3.sol\":2015:2021  params */\n      dup7\n        /* \"contracts/FlashLoanV3.sol\":2035:2047  referralCode */\n      dup7\n        /* \"contracts/FlashLoanV3.sol\":1913:2057  POOL.flashLoanSimple(... */\n      mload(0x40)\n      dup7\n      0xffffffff\n      and\n      0xe0\n      shl\n      dup2\n      mstore\n      0x04\n      add\n      tag_69\n      swap6\n      swap5\n      swap4\n      swap3\n      swap2\n      swap1\n      tag_70\n      jump\t// in\n    tag_69:\n      0x00\n      mload(0x40)\n      dup1\n      dup4\n      sub\n      dup2\n      0x00\n      dup8\n      dup1\n      extcodesize\n      iszero\n      dup1\n      iszero\n      tag_71\n      jumpi\n      0x00\n      dup1\n      revert\n    tag_71:\n      pop\n      gas\n      call\n      iszero\n      dup1\n      iszero\n      tag_73\n      jumpi\n      returndatasize\n      0x00\n      dup1\n      returndatacopy\n      revert(0x00, returndatasize)\n    tag_73:\n      pop\n      pop\n      pop\n      pop\n        /* \"contracts/FlashLoanV3.sol\":1720:2064  {... */\n      pop\n      pop\n      pop\n      pop\n      pop\n        /* \"contracts/FlashLoanV3.sol\":1654:2064  function requestFlashLoan(address _token, uint256 _amount) public {... */\n      pop\n      pop\n      jump\t// out\n        /* \"contracts/FlashLoanV3.sol\":2070:2215  function getBalance(address _tokenAddress) external view returns (uint256) {... */\n    tag_41:\n        /* \"contracts/FlashLoanV3.sol\":2136:2143  uint256 */\n      0x00\n        /* \"contracts/FlashLoanV3.sol\":2169:2182  _tokenAddress */\n      dup2\n        /* \"contracts/FlashLoanV3.sol\":2162:2193  IERC20(_tokenAddress).balanceOf */\n      0xffffffffffffffffffffffffffffffffffffffff\n      and\n      0x70a08231\n        /* \"contracts/FlashLoanV3.sol\":2202:2206  this */\n      address\n        /* \"contracts/FlashLoanV3.sol\":2162:2208  IERC20(_tokenAddress).balanceOf(address(this)) */\n      mload(0x40)\n      dup3\n      0xffffffff\n      and\n      0xe0\n      shl\n      dup2\n      mstore\n      0x04\n      add\n      tag_75\n      swap2\n      swap1\n      tag_59\n      jump\t// in\n    tag_75:\n      0x20\n      mload(0x40)\n      dup1\n      dup4\n      sub\n      dup2\n      dup7\n      gas\n      staticcall\n      iszero\n      dup1\n      iszero\n      tag_77\n      jumpi\n      returndatasize\n      0x00\n      dup1\n      returndatacopy\n      revert(0x00, returndatasize)\n    tag_77:\n      pop\n      pop\n      pop\n      pop\n      mload(0x40)\n      returndatasize\n      not(0x1f)\n      0x1f\n      dup3\n      add\n      and\n      dup3\n      add\n      dup1\n      0x40\n      mstore\n      pop\n      dup2\n      add\n      swap1\n      tag_78\n      swap2\n      swap1\n      tag_63\n      jump\t// in\n    tag_78:\n        /* \"contracts/FlashLoanV3.sol\":2155:2208  return IERC20(_tokenAddress).balanceOf(address(this)) */\n      swap1\n      pop\n        /* \"contracts/FlashLoanV3.sol\":2070:2215  function getBalance(address _tokenAddress) external view returns (uint256) {... */\n      swap2\n      swap1\n      pop\n      jump\t// out\n        /* \"#utility.yul\":7:133   */\n    tag_79:\n        /* \"#utility.yul\":44:51   */\n      0x00\n        /* \"#utility.yul\":84:126   */\n      0xffffffffffffffffffffffffffffffffffffffff\n        /* \"#utility.yul\":77:82   */\n      dup3\n        /* \"#utility.yul\":73:127   */\n      and\n        /* \"#utility.yul\":62:127   */\n      swap1\n      pop\n        /* \"#utility.yul\":7:133   */\n      swap2\n      swap1\n      pop\n      jump\t// out\n        /* \"#utility.yul\":139:199   */\n    tag_80:\n        /* \"#utility.yul\":167:170   */\n      0x00\n        /* \"#utility.yul\":188:193   */\n      dup2\n        /* \"#utility.yul\":181:193   */\n      swap1\n      pop\n        /* \"#utility.yul\":139:199   */\n      swap2\n      swap1\n      pop\n      jump\t// out\n        /* \"#utility.yul\":205:347   */\n    tag_81:\n        /* \"#utility.yul\":255:264   */\n      0x00\n        /* \"#utility.yul\":288:341   */\n      tag_122\n        /* \"#utility.yul\":306:340   */\n      tag_123\n        /* \"#utility.yul\":315:339   */\n      tag_124\n        /* \"#utility.yul\":333:338   */\n      dup5\n        /* \"#utility.yul\":315:339   */\n      tag_79\n      jump\t// in\n    tag_124:\n        /* \"#utility.yul\":306:340   */\n      tag_80\n      jump\t// in\n    tag_123:\n        /* \"#utility.yul\":288:341   */\n      tag_79\n      jump\t// in\n    tag_122:\n        /* \"#utility.yul\":275:341   */\n      swap1\n      pop\n        /* \"#utility.yul\":205:347   */\n      swap2\n      swap1\n      pop\n      jump\t// out\n        /* \"#utility.yul\":353:479   */\n    tag_82:\n        /* \"#utility.yul\":403:412   */\n      0x00\n        /* \"#utility.yul\":436:473   */\n      tag_126\n        /* \"#utility.yul\":467:472   */\n      dup3\n        /* \"#utility.yul\":436:473   */\n      tag_81\n      jump\t// in\n    tag_126:\n        /* \"#utility.yul\":423:473   */\n      swap1\n      pop\n        /* \"#utility.yul\":353:479   */\n      swap2\n      swap1\n      pop\n      jump\t// out\n        /* \"#utility.yul\":485:642   */\n    tag_83:\n        /* \"#utility.yul\":566:575   */\n      0x00\n        /* \"#utility.yul\":599:636   */\n      tag_128\n        /* \"#utility.yul\":630:635   */\n      dup3\n        /* \"#utility.yul\":599:636   */\n      tag_82\n      jump\t// in\n    tag_128:\n        /* \"#utility.yul\":586:636   */\n      swap1\n      pop\n        /* \"#utility.yul\":485:642   */\n      swap2\n      swap1\n      pop\n      jump\t// out\n        /* \"#utility.yul\":648:841   */\n    tag_84:\n        /* \"#utility.yul\":766:834   */\n      tag_130\n        /* \"#utility.yul\":828:833   */\n      dup2\n        /* \"#utility.yul\":766:834   */\n      tag_83\n      jump\t// in\n    tag_130:\n        /* \"#utility.yul\":761:764   */\n      dup3\n        /* \"#utility.yul\":754:835   */\n      mstore\n        /* \"#utility.yul\":648:841   */\n      pop\n      pop\n      jump\t// out\n        /* \"#utility.yul\":847:1131   */\n    tag_15:\n        /* \"#utility.yul\":971:975   */\n      0x00\n        /* \"#utility.yul\":1009:1011   */\n      0x20\n        /* \"#utility.yul\":998:1007   */\n      dup3\n        /* \"#utility.yul\":994:1012   */\n      add\n        /* \"#utility.yul\":986:1012   */\n      swap1\n      pop\n        /* \"#utility.yul\":1022:1124   */\n      tag_132\n        /* \"#utility.yul\":1121:1122   */\n      0x00\n        /* \"#utility.yul\":1110:1119   */\n      dup4\n        /* \"#utility.yul\":1106:1123   */\n      add\n        /* \"#utility.yul\":1097:1103   */\n      dup5\n        /* \"#utility.yul\":1022:1124   */\n      tag_84\n      jump\t// in\n    tag_132:\n        /* \"#utility.yul\":847:1131   */\n      swap3\n      swap2\n      pop\n      pop\n      jump\t// out\n        /* \"#utility.yul\":1218:1335   */\n    tag_86:\n        /* \"#utility.yul\":1327:1328   */\n      0x00\n        /* \"#utility.yul\":1324:1325   */\n      dup1\n        /* \"#utility.yul\":1317:1329   */\n      revert\n        /* \"#utility.yul\":1341:1458   */\n    tag_87:\n        /* \"#utility.yul\":1450:1451   */\n      0x00\n        /* \"#utility.yul\":1447:1448   */\n      dup1\n        /* \"#utility.yul\":1440:1452   */\n      revert\n        /* \"#utility.yul\":1464:1560   */\n    tag_88:\n        /* \"#utility.yul\":1501:1508   */\n      0x00\n        /* \"#utility.yul\":1530:1554   */\n      tag_137\n        /* \"#utility.yul\":1548:1553   */\n      dup3\n        /* \"#utility.yul\":1530:1554   */\n      tag_79\n      jump\t// in\n    tag_137:\n        /* \"#utility.yul\":1519:1554   */\n      swap1\n      pop\n        /* \"#utility.yul\":1464:1560   */\n      swap2\n      swap1\n      pop\n      jump\t// out\n        /* \"#utility.yul\":1566:1688   */\n    tag_89:\n        /* \"#utility.yul\":1639:1663   */\n      tag_139\n        /* \"#utility.yul\":1657:1662   */\n      dup2\n        /* \"#utility.yul\":1639:1663   */\n      tag_88\n      jump\t// in\n    tag_139:\n        /* \"#utility.yul\":1632:1637   */\n      dup2\n        /* \"#utility.yul\":1629:1664   */\n      eq\n        /* \"#utility.yul\":1619:1682   */\n      tag_140\n      jumpi\n        /* \"#utility.yul\":1678:1679   */\n      0x00\n        /* \"#utility.yul\":1675:1676   */\n      dup1\n        /* \"#utility.yul\":1668:1680   */\n      revert\n        /* \"#utility.yul\":1619:1682   */\n    tag_140:\n        /* \"#utility.yul\":1566:1688   */\n      pop\n      jump\t// out\n        /* \"#utility.yul\":1694:1833   */\n    tag_90:\n        /* \"#utility.yul\":1740:1745   */\n      0x00\n        /* \"#utility.yul\":1778:1784   */\n      dup2\n        /* \"#utility.yul\":1765:1785   */\n      calldataload\n        /* \"#utility.yul\":1756:1785   */\n      swap1\n      pop\n        /* \"#utility.yul\":1794:1827   */\n      tag_142\n        /* \"#utility.yul\":1821:1826   */\n      dup2\n        /* \"#utility.yul\":1794:1827   */\n      tag_89\n      jump\t// in\n    tag_142:\n        /* \"#utility.yul\":1694:1833   */\n      swap3\n      swap2\n      pop\n      pop\n      jump\t// out\n        /* \"#utility.yul\":1839:1916   */\n    tag_91:\n        /* \"#utility.yul\":1876:1883   */\n      0x00\n        /* \"#utility.yul\":1905:1910   */\n      dup2\n        /* \"#utility.yul\":1894:1910   */\n      swap1\n      pop\n        /* \"#utility.yul\":1839:1916   */\n      swap2\n      swap1\n      pop\n      jump\t// out\n        /* \"#utility.yul\":1922:2044   */\n    tag_92:\n        /* \"#utility.yul\":1995:2019   */\n      tag_145\n        /* \"#utility.yul\":2013:2018   */\n      dup2\n        /* \"#utility.yul\":1995:2019   */\n      tag_91\n      jump\t// in\n    tag_145:\n        /* \"#utility.yul\":1988:1993   */\n      dup2\n        /* \"#utility.yul\":1985:2020   */\n      eq\n        /* \"#utility.yul\":1975:2038   */\n      tag_146\n      jumpi\n        /* \"#utility.yul\":2034:2035   */\n      0x00\n        /* \"#utility.yul\":2031:2032   */\n      dup1\n        /* \"#utility.yul\":2024:2036   */\n      revert\n        /* \"#utility.yul\":1975:2038   */\n    tag_146:\n        /* \"#utility.yul\":1922:2044   */\n      pop\n      jump\t// out\n        /* \"#utility.yul\":2050:2189   */\n    tag_93:\n        /* \"#utility.yul\":2096:2101   */\n      0x00\n        /* \"#utility.yul\":2134:2140   */\n      dup2\n        /* \"#utility.yul\":2121:2141   */\n      calldataload\n        /* \"#utility.yul\":2112:2141   */\n      swap1\n      pop\n        /* \"#utility.yul\":2150:2183   */\n      tag_148\n        /* \"#utility.yul\":2177:2182   */\n      dup2\n        /* \"#utility.yul\":2150:2183   */\n      tag_92\n      jump\t// in\n    tag_148:\n        /* \"#utility.yul\":2050:2189   */\n      swap3\n      swap2\n      pop\n      pop\n      jump\t// out\n        /* \"#utility.yul\":2195:2312   */\n    tag_94:\n        /* \"#utility.yul\":2304:2305   */\n      0x00\n        /* \"#utility.yul\":2301:2302   */\n      dup1\n        /* \"#utility.yul\":2294:2306   */\n      revert\n        /* \"#utility.yul\":2318:2435   */\n    tag_95:\n        /* \"#utility.yul\":2427:2428   */\n      0x00\n        /* \"#utility.yul\":2424:2425   */\n      dup1\n        /* \"#utility.yul\":2417:2429   */\n      revert\n        /* \"#utility.yul\":2441:2558   */\n    tag_96:\n        /* \"#utility.yul\":2550:2551   */\n      0x00\n        /* \"#utility.yul\":2547:2548   */\n      dup1\n        /* \"#utility.yul\":2540:2552   */\n      revert\n        /* \"#utility.yul\":2577:3129   */\n    tag_97:\n        /* \"#utility.yul\":2634:2642   */\n      0x00\n        /* \"#utility.yul\":2644:2650   */\n      dup1\n        /* \"#utility.yul\":2694:2697   */\n      dup4\n        /* \"#utility.yul\":2687:2691   */\n      0x1f\n        /* \"#utility.yul\":2679:2685   */\n      dup5\n        /* \"#utility.yul\":2675:2692   */\n      add\n        /* \"#utility.yul\":2671:2698   */\n      slt\n        /* \"#utility.yul\":2661:2783   */\n      tag_153\n      jumpi\n        /* \"#utility.yul\":2702:2781   */\n      tag_154\n      tag_94\n      jump\t// in\n    tag_154:\n        /* \"#utility.yul\":2661:2783   */\n    tag_153:\n        /* \"#utility.yul\":2815:2821   */\n      dup3\n        /* \"#utility.yul\":2802:2822   */\n      calldataload\n        /* \"#utility.yul\":2792:2822   */\n      swap1\n      pop\n        /* \"#utility.yul\":2845:2863   */\n      0xffffffffffffffff\n        /* \"#utility.yul\":2837:2843   */\n      dup2\n        /* \"#utility.yul\":2834:2864   */\n      gt\n        /* \"#utility.yul\":2831:2948   */\n      iszero\n      tag_155\n      jumpi\n        /* \"#utility.yul\":2867:2946   */\n      tag_156\n      tag_95\n      jump\t// in\n    tag_156:\n        /* \"#utility.yul\":2831:2948   */\n    tag_155:\n        /* \"#utility.yul\":2981:2985   */\n      0x20\n        /* \"#utility.yul\":2973:2979   */\n      dup4\n        /* \"#utility.yul\":2969:2986   */\n      add\n        /* \"#utility.yul\":2957:2986   */\n      swap2\n      pop\n        /* \"#utility.yul\":3035:3038   */\n      dup4\n        /* \"#utility.yul\":3027:3031   */\n      0x01\n        /* \"#utility.yul\":3019:3025   */\n      dup3\n        /* \"#utility.yul\":3015:3032   */\n      mul\n        /* \"#utility.yul\":3005:3013   */\n      dup4\n        /* \"#utility.yul\":3001:3033   */\n      add\n        /* \"#utility.yul\":2998:3039   */\n      gt\n        /* \"#utility.yul\":2995:3123   */\n      iszero\n      tag_157\n      jumpi\n        /* \"#utility.yul\":3042:3121   */\n      tag_158\n      tag_96\n      jump\t// in\n    tag_158:\n        /* \"#utility.yul\":2995:3123   */\n    tag_157:\n        /* \"#utility.yul\":2577:3129   */\n      swap3\n      pop\n      swap3\n      swap1\n      pop\n      jump\t// out\n        /* \"#utility.yul\":3135:4244   */\n    tag_19:\n        /* \"#utility.yul\":3241:3247   */\n      0x00\n        /* \"#utility.yul\":3249:3255   */\n      dup1\n        /* \"#utility.yul\":3257:3263   */\n      0x00\n        /* \"#utility.yul\":3265:3271   */\n      dup1\n        /* \"#utility.yul\":3273:3279   */\n      0x00\n        /* \"#utility.yul\":3281:3287   */\n      dup1\n        /* \"#utility.yul\":3330:3333   */\n      0xa0\n        /* \"#utility.yul\":3318:3327   */\n      dup8\n        /* \"#utility.yul\":3309:3316   */\n      dup10\n        /* \"#utility.yul\":3305:3328   */\n      sub\n        /* \"#utility.yul\":3301:3334   */\n      slt\n        /* \"#utility.yul\":3298:3418   */\n      iszero\n      tag_160\n      jumpi\n        /* \"#utility.yul\":3337:3416   */\n      tag_161\n      tag_86\n      jump\t// in\n    tag_161:\n        /* \"#utility.yul\":3298:3418   */\n    tag_160:\n        /* \"#utility.yul\":3457:3458   */\n      0x00\n        /* \"#utility.yul\":3482:3535   */\n      tag_162\n        /* \"#utility.yul\":3527:3534   */\n      dup10\n        /* \"#utility.yul\":3518:3524   */\n      dup3\n        /* \"#utility.yul\":3507:3516   */\n      dup11\n        /* \"#utility.yul\":3503:3525   */\n      add\n        /* \"#utility.yul\":3482:3535   */\n      tag_90\n      jump\t// in\n    tag_162:\n        /* \"#utility.yul\":3472:3535   */\n      swap7\n      pop\n        /* \"#utility.yul\":3428:3545   */\n      pop\n        /* \"#utility.yul\":3584:3586   */\n      0x20\n        /* \"#utility.yul\":3610:3663   */\n      tag_163\n        /* \"#utility.yul\":3655:3662   */\n      dup10\n        /* \"#utility.yul\":3646:3652   */\n      dup3\n        /* \"#utility.yul\":3635:3644   */\n      dup11\n        /* \"#utility.yul\":3631:3653   */\n      add\n        /* \"#utility.yul\":3610:3663   */\n      tag_93\n      jump\t// in\n    tag_163:\n        /* \"#utility.yul\":3600:3663   */\n      swap6\n      pop\n        /* \"#utility.yul\":3555:3673   */\n      pop\n        /* \"#utility.yul\":3712:3714   */\n      0x40\n        /* \"#utility.yul\":3738:3791   */\n      tag_164\n        /* \"#utility.yul\":3783:3790   */\n      dup10\n        /* \"#utility.yul\":3774:3780   */\n      dup3\n        /* \"#utility.yul\":3763:3772   */\n      dup11\n        /* \"#utility.yul\":3759:3781   */\n      add\n        /* \"#utility.yul\":3738:3791   */\n      tag_93\n      jump\t// in\n    tag_164:\n        /* \"#utility.yul\":3728:3791   */\n      swap5\n      pop\n        /* \"#utility.yul\":3683:3801   */\n      pop\n        /* \"#utility.yul\":3840:3842   */\n      0x60\n        /* \"#utility.yul\":3866:3919   */\n      tag_165\n        /* \"#utility.yul\":3911:3918   */\n      dup10\n        /* \"#utility.yul\":3902:3908   */\n      dup3\n        /* \"#utility.yul\":3891:3900   */\n      dup11\n        /* \"#utility.yul\":3887:3909   */\n      add\n        /* \"#utility.yul\":3866:3919   */\n      tag_90\n      jump\t// in\n    tag_165:\n        /* \"#utility.yul\":3856:3919   */\n      swap4\n      pop\n        /* \"#utility.yul\":3811:3929   */\n      pop\n        /* \"#utility.yul\":3996:3999   */\n      0x80\n        /* \"#utility.yul\":3985:3994   */\n      dup8\n        /* \"#utility.yul\":3981:4000   */\n      add\n        /* \"#utility.yul\":3968:4001   */\n      calldataload\n        /* \"#utility.yul\":4028:4046   */\n      0xffffffffffffffff\n        /* \"#utility.yul\":4020:4026   */\n      dup2\n        /* \"#utility.yul\":4017:4047   */\n      gt\n        /* \"#utility.yul\":4014:4131   */\n      iszero\n      tag_166\n      jumpi\n        /* \"#utility.yul\":4050:4129   */\n      tag_167\n      tag_87\n      jump\t// in\n    tag_167:\n        /* \"#utility.yul\":4014:4131   */\n    tag_166:\n        /* \"#utility.yul\":4163:4227   */\n      tag_168\n        /* \"#utility.yul\":4219:4226   */\n      dup10\n        /* \"#utility.yul\":4210:4216   */\n      dup3\n        /* \"#utility.yul\":4199:4208   */\n      dup11\n        /* \"#utility.yul\":4195:4217   */\n      add\n        /* \"#utility.yul\":4163:4227   */\n      tag_97\n      jump\t// in\n    tag_168:\n        /* \"#utility.yul\":4145:4227   */\n      swap3\n      pop\n      swap3\n      pop\n        /* \"#utility.yul\":3939:4237   */\n      pop\n        /* \"#utility.yul\":3135:4244   */\n      swap3\n      swap6\n      pop\n      swap3\n      swap6\n      pop\n      swap3\n      swap6\n      jump\t// out\n        /* \"#utility.yul\":4250:4340   */\n    tag_98:\n        /* \"#utility.yul\":4284:4291   */\n      0x00\n        /* \"#utility.yul\":4327:4332   */\n      dup2\n        /* \"#utility.yul\":4320:4333   */\n      iszero\n        /* \"#utility.yul\":4313:4334   */\n      iszero\n        /* \"#utility.yul\":4302:4334   */\n      swap1\n      pop\n        /* \"#utility.yul\":4250:4340   */\n      swap2\n      swap1\n      pop\n      jump\t// out\n        /* \"#utility.yul\":4346:4455   */\n    tag_99:\n        /* \"#utility.yul\":4427:4448   */\n      tag_171\n        /* \"#utility.yul\":4442:4447   */\n      dup2\n        /* \"#utility.yul\":4427:4448   */\n      tag_98\n      jump\t// in\n    tag_171:\n        /* \"#utility.yul\":4422:4425   */\n      dup3\n        /* \"#utility.yul\":4415:4449   */\n      mstore\n        /* \"#utility.yul\":4346:4455   */\n      pop\n      pop\n      jump\t// out\n        /* \"#utility.yul\":4461:4671   */\n    tag_22:\n        /* \"#utility.yul\":4548:4552   */\n      0x00\n        /* \"#utility.yul\":4586:4588   */\n      0x20\n        /* \"#utility.yul\":4575:4584   */\n      dup3\n        /* \"#utility.yul\":4571:4589   */\n      add\n        /* \"#utility.yul\":4563:4589   */\n      swap1\n      pop\n        /* \"#utility.yul\":4599:4664   */\n      tag_173\n        /* \"#utility.yul\":4661:4662   */\n      0x00\n        /* \"#utility.yul\":4650:4659   */\n      dup4\n        /* \"#utility.yul\":4646:4663   */\n      add\n        /* \"#utility.yul\":4637:4643   */\n      dup5\n        /* \"#utility.yul\":4599:4664   */\n      tag_99\n      jump\t// in\n    tag_173:\n        /* \"#utility.yul\":4461:4671   */\n      swap3\n      swap2\n      pop\n      pop\n      jump\t// out\n        /* \"#utility.yul\":4677:5006   */\n    tag_26:\n        /* \"#utility.yul\":4736:4742   */\n      0x00\n        /* \"#utility.yul\":4785:4787   */\n      0x20\n        /* \"#utility.yul\":4773:4782   */\n      dup3\n        /* \"#utility.yul\":4764:4771   */\n      dup5\n        /* \"#utility.yul\":4760:4783   */\n      sub\n        /* \"#utility.yul\":4756:4788   */\n      slt\n        /* \"#utility.yul\":4753:4872   */\n      iszero\n      tag_175\n      jumpi\n        /* \"#utility.yul\":4791:4870   */\n      tag_176\n      tag_86\n      jump\t// in\n    tag_176:\n        /* \"#utility.yul\":4753:4872   */\n    tag_175:\n        /* \"#utility.yul\":4911:4912   */\n      0x00\n        /* \"#utility.yul\":4936:4989   */\n      tag_177\n        /* \"#utility.yul\":4981:4988   */\n      dup5\n        /* \"#utility.yul\":4972:4978   */\n      dup3\n        /* \"#utility.yul\":4961:4970   */\n      dup6\n        /* \"#utility.yul\":4957:4979   */\n      add\n        /* \"#utility.yul\":4936:4989   */\n      tag_90\n      jump\t// in\n    tag_177:\n        /* \"#utility.yul\":4926:4989   */\n      swap2\n      pop\n        /* \"#utility.yul\":4882:4999   */\n      pop\n        /* \"#utility.yul\":4677:5006   */\n      swap3\n      swap2\n      pop\n      pop\n      jump\t// out\n        /* \"#utility.yul\":5012:5151   */\n    tag_100:\n        /* \"#utility.yul\":5075:5084   */\n      0x00\n        /* \"#utility.yul\":5108:5145   */\n      tag_179\n        /* \"#utility.yul\":5139:5144   */\n      dup3\n        /* \"#utility.yul\":5108:5145   */\n      tag_82\n      jump\t// in\n    tag_179:\n        /* \"#utility.yul\":5095:5145   */\n      swap1\n      pop\n        /* \"#utility.yul\":5012:5151   */\n      swap2\n      swap1\n      pop\n      jump\t// out\n        /* \"#utility.yul\":5157:5314   */\n    tag_101:\n        /* \"#utility.yul\":5257:5307   */\n      tag_181\n        /* \"#utility.yul\":5301:5306   */\n      dup2\n        /* \"#utility.yul\":5257:5307   */\n      tag_100\n      jump\t// in\n    tag_181:\n        /* \"#utility.yul\":5252:5255   */\n      dup3\n        /* \"#utility.yul\":5245:5308   */\n      mstore\n        /* \"#utility.yul\":5157:5314   */\n      pop\n      pop\n      jump\t// out\n        /* \"#utility.yul\":5320:5568   */\n    tag_32:\n        /* \"#utility.yul\":5426:5430   */\n      0x00\n        /* \"#utility.yul\":5464:5466   */\n      0x20\n        /* \"#utility.yul\":5453:5462   */\n      dup3\n        /* \"#utility.yul\":5449:5467   */\n      add\n        /* \"#utility.yul\":5441:5467   */\n      swap1\n      pop\n        /* \"#utility.yul\":5477:5561   */\n      tag_183\n        /* \"#utility.yul\":5558:5559   */\n      0x00\n        /* \"#utility.yul\":5547:5556   */\n      dup4\n        /* \"#utility.yul\":5543:5560   */\n      add\n        /* \"#utility.yul\":5534:5540   */\n      dup5\n        /* \"#utility.yul\":5477:5561   */\n      tag_101\n      jump\t// in\n    tag_183:\n        /* \"#utility.yul\":5320:5568   */\n      swap3\n      swap2\n      pop\n      pop\n      jump\t// out\n        /* \"#utility.yul\":5574:6048   */\n    tag_36:\n        /* \"#utility.yul\":5642:5648   */\n      0x00\n        /* \"#utility.yul\":5650:5656   */\n      dup1\n        /* \"#utility.yul\":5699:5701   */\n      0x40\n        /* \"#utility.yul\":5687:5696   */\n      dup4\n        /* \"#utility.yul\":5678:5685   */\n      dup6\n        /* \"#utility.yul\":5674:5697   */\n      sub\n        /* \"#utility.yul\":5670:5702   */\n      slt\n        /* \"#utility.yul\":5667:5786   */\n      iszero\n      tag_185\n      jumpi\n        /* \"#utility.yul\":5705:5784   */\n      tag_186\n      tag_86\n      jump\t// in\n    tag_186:\n        /* \"#utility.yul\":5667:5786   */\n    tag_185:\n        /* \"#utility.yul\":5825:5826   */\n      0x00\n        /* \"#utility.yul\":5850:5903   */\n      tag_187\n        /* \"#utility.yul\":5895:5902   */\n      dup6\n        /* \"#utility.yul\":5886:5892   */\n      dup3\n        /* \"#utility.yul\":5875:5884   */\n      dup7\n        /* \"#utility.yul\":5871:5893   */\n      add\n        /* \"#utility.yul\":5850:5903   */\n      tag_90\n      jump\t// in\n    tag_187:\n        /* \"#utility.yul\":5840:5903   */\n      swap3\n      pop\n        /* \"#utility.yul\":5796:5913   */\n      pop\n        /* \"#utility.yul\":5952:5954   */\n      0x20\n        /* \"#utility.yul\":5978:6031   */\n      tag_188\n        /* \"#utility.yul\":6023:6030   */\n      dup6\n        /* \"#utility.yul\":6014:6020   */\n      dup3\n        /* \"#utility.yul\":6003:6012   */\n      dup7\n        /* \"#utility.yul\":5999:6021   */\n      add\n        /* \"#utility.yul\":5978:6031   */\n      tag_93\n      jump\t// in\n    tag_188:\n        /* \"#utility.yul\":5968:6031   */\n      swap2\n      pop\n        /* \"#utility.yul\":5923:6041   */\n      pop\n        /* \"#utility.yul\":5574:6048   */\n      swap3\n      pop\n      swap3\n      swap1\n      pop\n      jump\t// out\n        /* \"#utility.yul\":6054:6172   */\n    tag_102:\n        /* \"#utility.yul\":6141:6165   */\n      tag_190\n        /* \"#utility.yul\":6159:6164   */\n      dup2\n        /* \"#utility.yul\":6141:6165   */\n      tag_91\n      jump\t// in\n    tag_190:\n        /* \"#utility.yul\":6136:6139   */\n      dup3\n        /* \"#utility.yul\":6129:6166   */\n      mstore\n        /* \"#utility.yul\":6054:6172   */\n      pop\n      pop\n      jump\t// out\n        /* \"#utility.yul\":6178:6400   */\n    tag_43:\n        /* \"#utility.yul\":6271:6275   */\n      0x00\n        /* \"#utility.yul\":6309:6311   */\n      0x20\n        /* \"#utility.yul\":6298:6307   */\n      dup3\n        /* \"#utility.yul\":6294:6312   */\n      add\n        /* \"#utility.yul\":6286:6312   */\n      swap1\n      pop\n        /* \"#utility.yul\":6322:6393   */\n      tag_192\n        /* \"#utility.yul\":6390:6391   */\n      0x00\n        /* \"#utility.yul\":6379:6388   */\n      dup4\n        /* \"#utility.yul\":6375:6392   */\n      add\n        /* \"#utility.yul\":6366:6372   */\n      dup5\n        /* \"#utility.yul\":6322:6393   */\n      tag_102\n      jump\t// in\n    tag_192:\n        /* \"#utility.yul\":6178:6400   */\n      swap3\n      swap2\n      pop\n      pop\n      jump\t// out\n        /* \"#utility.yul\":6406:6586   */\n    tag_103:\n        /* \"#utility.yul\":6454:6531   */\n      0x4e487b7100000000000000000000000000000000000000000000000000000000\n        /* \"#utility.yul\":6451:6452   */\n      0x00\n        /* \"#utility.yul\":6444:6532   */\n      mstore\n        /* \"#utility.yul\":6551:6555   */\n      0x11\n        /* \"#utility.yul\":6548:6549   */\n      0x04\n        /* \"#utility.yul\":6541:6556   */\n      mstore\n        /* \"#utility.yul\":6575:6579   */\n      0x24\n        /* \"#utility.yul\":6572:6573   */\n      0x00\n        /* \"#utility.yul\":6565:6580   */\n      revert\n        /* \"#utility.yul\":6592:6783   */\n    tag_46:\n        /* \"#utility.yul\":6632:6635   */\n      0x00\n        /* \"#utility.yul\":6651:6671   */\n      tag_195\n        /* \"#utility.yul\":6669:6670   */\n      dup3\n        /* \"#utility.yul\":6651:6671   */\n      tag_91\n      jump\t// in\n    tag_195:\n        /* \"#utility.yul\":6646:6671   */\n      swap2\n      pop\n        /* \"#utility.yul\":6685:6705   */\n      tag_196\n        /* \"#utility.yul\":6703:6704   */\n      dup4\n        /* \"#utility.yul\":6685:6705   */\n      tag_91\n      jump\t// in\n    tag_196:\n        /* \"#utility.yul\":6680:6705   */\n      swap3\n      pop\n        /* \"#utility.yul\":6728:6729   */\n      dup3\n        /* \"#utility.yul\":6725:6726   */\n      dup3\n        /* \"#utility.yul\":6721:6730   */\n      add\n        /* \"#utility.yul\":6714:6730   */\n      swap1\n      pop\n        /* \"#utility.yul\":6749:6752   */\n      dup1\n        /* \"#utility.yul\":6746:6747   */\n      dup3\n        /* \"#utility.yul\":6743:6753   */\n      gt\n        /* \"#utility.yul\":6740:6776   */\n      iszero\n      tag_197\n      jumpi\n        /* \"#utility.yul\":6756:6774   */\n      tag_198\n      tag_103\n      jump\t// in\n    tag_198:\n        /* \"#utility.yul\":6740:6776   */\n    tag_197:\n        /* \"#utility.yul\":6592:6783   */\n      swap3\n      swap2\n      pop\n      pop\n      jump\t// out\n        /* \"#utility.yul\":6789:6907   */\n    tag_104:\n        /* \"#utility.yul\":6876:6900   */\n      tag_200\n        /* \"#utility.yul\":6894:6899   */\n      dup2\n        /* \"#utility.yul\":6876:6900   */\n      tag_88\n      jump\t// in\n    tag_200:\n        /* \"#utility.yul\":6871:6874   */\n      dup3\n        /* \"#utility.yul\":6864:6901   */\n      mstore\n        /* \"#utility.yul\":6789:6907   */\n      pop\n      pop\n      jump\t// out\n        /* \"#utility.yul\":6913:7245   */\n    tag_48:\n        /* \"#utility.yul\":7034:7038   */\n      0x00\n        /* \"#utility.yul\":7072:7074   */\n      0x40\n        /* \"#utility.yul\":7061:7070   */\n      dup3\n        /* \"#utility.yul\":7057:7075   */\n      add\n        /* \"#utility.yul\":7049:7075   */\n      swap1\n      pop\n        /* \"#utility.yul\":7085:7156   */\n      tag_202\n        /* \"#utility.yul\":7153:7154   */\n      0x00\n        /* \"#utility.yul\":7142:7151   */\n      dup4\n        /* \"#utility.yul\":7138:7155   */\n      add\n        /* \"#utility.yul\":7129:7135   */\n      dup6\n        /* \"#utility.yul\":7085:7156   */\n      tag_104\n      jump\t// in\n    tag_202:\n        /* \"#utility.yul\":7166:7238   */\n      tag_203\n        /* \"#utility.yul\":7234:7236   */\n      0x20\n        /* \"#utility.yul\":7223:7232   */\n      dup4\n        /* \"#utility.yul\":7219:7237   */\n      add\n        /* \"#utility.yul\":7210:7216   */\n      dup5\n        /* \"#utility.yul\":7166:7238   */\n      tag_102\n      jump\t// in\n    tag_203:\n        /* \"#utility.yul\":6913:7245   */\n      swap4\n      swap3\n      pop\n      pop\n      pop\n      jump\t// out\n        /* \"#utility.yul\":7251:7367   */\n    tag_105:\n        /* \"#utility.yul\":7321:7342   */\n      tag_205\n        /* \"#utility.yul\":7336:7341   */\n      dup2\n        /* \"#utility.yul\":7321:7342   */\n      tag_98\n      jump\t// in\n    tag_205:\n        /* \"#utility.yul\":7314:7319   */\n      dup2\n        /* \"#utility.yul\":7311:7343   */\n      eq\n        /* \"#utility.yul\":7301:7361   */\n      tag_206\n      jumpi\n        /* \"#utility.yul\":7357:7358   */\n      0x00\n        /* \"#utility.yul\":7354:7355   */\n      dup1\n        /* \"#utility.yul\":7347:7359   */\n      revert\n        /* \"#utility.yul\":7301:7361   */\n    tag_206:\n        /* \"#utility.yul\":7251:7367   */\n      pop\n      jump\t// out\n        /* \"#utility.yul\":7373:7510   */\n    tag_106:\n        /* \"#utility.yul\":7427:7432   */\n      0x00\n        /* \"#utility.yul\":7458:7464   */\n      dup2\n        /* \"#utility.yul\":7452:7465   */\n      mload\n        /* \"#utility.yul\":7443:7465   */\n      swap1\n      pop\n        /* \"#utility.yul\":7474:7504   */\n      tag_208\n        /* \"#utility.yul\":7498:7503   */\n      dup2\n        /* \"#utility.yul\":7474:7504   */\n      tag_105\n      jump\t// in\n    tag_208:\n        /* \"#utility.yul\":7373:7510   */\n      swap3\n      swap2\n      pop\n      pop\n      jump\t// out\n        /* \"#utility.yul\":7516:7861   */\n    tag_52:\n        /* \"#utility.yul\":7583:7589   */\n      0x00\n        /* \"#utility.yul\":7632:7634   */\n      0x20\n        /* \"#utility.yul\":7620:7629   */\n      dup3\n        /* \"#utility.yul\":7611:7618   */\n      dup5\n        /* \"#utility.yul\":7607:7630   */\n      sub\n        /* \"#utility.yul\":7603:7635   */\n      slt\n        /* \"#utility.yul\":7600:7719   */\n      iszero\n      tag_210\n      jumpi\n        /* \"#utility.yul\":7638:7717   */\n      tag_211\n      tag_86\n      jump\t// in\n    tag_211:\n        /* \"#utility.yul\":7600:7719   */\n    tag_210:\n        /* \"#utility.yul\":7758:7759   */\n      0x00\n        /* \"#utility.yul\":7783:7844   */\n      tag_212\n        /* \"#utility.yul\":7836:7843   */\n      dup5\n        /* \"#utility.yul\":7827:7833   */\n      dup3\n        /* \"#utility.yul\":7816:7825   */\n      dup6\n        /* \"#utility.yul\":7812:7834   */\n      add\n        /* \"#utility.yul\":7783:7844   */\n      tag_106\n      jump\t// in\n    tag_212:\n        /* \"#utility.yul\":7773:7844   */\n      swap2\n      pop\n        /* \"#utility.yul\":7729:7854   */\n      pop\n        /* \"#utility.yul\":7516:7861   */\n      swap3\n      swap2\n      pop\n      pop\n      jump\t// out\n        /* \"#utility.yul\":7867:8036   */\n    tag_107:\n        /* \"#utility.yul\":7951:7962   */\n      0x00\n        /* \"#utility.yul\":7985:7991   */\n      dup3\n        /* \"#utility.yul\":7980:7983   */\n      dup3\n        /* \"#utility.yul\":7973:7992   */\n      mstore\n        /* \"#utility.yul\":8025:8029   */\n      0x20\n        /* \"#utility.yul\":8020:8023   */\n      dup3\n        /* \"#utility.yul\":8016:8030   */\n      add\n        /* \"#utility.yul\":8001:8030   */\n      swap1\n      pop\n        /* \"#utility.yul\":7867:8036   */\n      swap3\n      swap2\n      pop\n      pop\n      jump\t// out\n        /* \"#utility.yul\":8042:8275   */\n    tag_108:\n        /* \"#utility.yul\":8182:8216   */\n      0x4f6e6c792074686520636f6e7472616374206f776e65722063616e2063616c6c\n        /* \"#utility.yul\":8178:8179   */\n      0x00\n        /* \"#utility.yul\":8170:8176   */\n      dup3\n        /* \"#utility.yul\":8166:8180   */\n      add\n        /* \"#utility.yul\":8159:8217   */\n      mstore\n        /* \"#utility.yul\":8251:8267   */\n      0x20746869732066756e6374696f6e000000000000000000000000000000000000\n        /* \"#utility.yul\":8246:8248   */\n      0x20\n        /* \"#utility.yul\":8238:8244   */\n      dup3\n        /* \"#utility.yul\":8234:8249   */\n      add\n        /* \"#utility.yul\":8227:8268   */\n      mstore\n        /* \"#utility.yul\":8042:8275   */\n      pop\n      jump\t// out\n        /* \"#utility.yul\":8281:8647   */\n    tag_109:\n        /* \"#utility.yul\":8423:8426   */\n      0x00\n        /* \"#utility.yul\":8444:8511   */\n      tag_216\n        /* \"#utility.yul\":8508:8510   */\n      0x2e\n        /* \"#utility.yul\":8503:8506   */\n      dup4\n        /* \"#utility.yul\":8444:8511   */\n      tag_107\n      jump\t// in\n    tag_216:\n        /* \"#utility.yul\":8437:8511   */\n      swap2\n      pop\n        /* \"#utility.yul\":8520:8613   */\n      tag_217\n        /* \"#utility.yul\":8609:8612   */\n      dup3\n        /* \"#utility.yul\":8520:8613   */\n      tag_108\n      jump\t// in\n    tag_217:\n        /* \"#utility.yul\":8638:8640   */\n      0x40\n        /* \"#utility.yul\":8633:8636   */\n      dup3\n        /* \"#utility.yul\":8629:8641   */\n      add\n        /* \"#utility.yul\":8622:8641   */\n      swap1\n      pop\n        /* \"#utility.yul\":8281:8647   */\n      swap2\n      swap1\n      pop\n      jump\t// out\n        /* \"#utility.yul\":8653:9072   */\n    tag_56:\n        /* \"#utility.yul\":8819:8823   */\n      0x00\n        /* \"#utility.yul\":8857:8859   */\n      0x20\n        /* \"#utility.yul\":8846:8855   */\n      dup3\n        /* \"#utility.yul\":8842:8860   */\n      add\n        /* \"#utility.yul\":8834:8860   */\n      swap1\n      pop\n        /* \"#utility.yul\":8906:8915   */\n      dup2\n        /* \"#utility.yul\":8900:8904   */\n      dup2\n        /* \"#utility.yul\":8896:8916   */\n      sub\n        /* \"#utility.yul\":8892:8893   */\n      0x00\n        /* \"#utility.yul\":8881:8890   */\n      dup4\n        /* \"#utility.yul\":8877:8894   */\n      add\n        /* \"#utility.yul\":8870:8917   */\n      mstore\n        /* \"#utility.yul\":8934:9065   */\n      tag_219\n        /* \"#utility.yul\":9060:9064   */\n      dup2\n        /* \"#utility.yul\":8934:9065   */\n      tag_109\n      jump\t// in\n    tag_219:\n        /* \"#utility.yul\":8926:9065   */\n      swap1\n      pop\n        /* \"#utility.yul\":8653:9072   */\n      swap2\n      swap1\n      pop\n      jump\t// out\n        /* \"#utility.yul\":9078:9300   */\n    tag_59:\n        /* \"#utility.yul\":9171:9175   */\n      0x00\n        /* \"#utility.yul\":9209:9211   */\n      0x20\n        /* \"#utility.yul\":9198:9207   */\n      dup3\n        /* \"#utility.yul\":9194:9212   */\n      add\n        /* \"#utility.yul\":9186:9212   */\n      swap1\n      pop\n        /* \"#utility.yul\":9222:9293   */\n      tag_221\n        /* \"#utility.yul\":9290:9291   */\n      0x00\n        /* \"#utility.yul\":9279:9288   */\n      dup4\n        /* \"#utility.yul\":9275:9292   */\n      add\n        /* \"#utility.yul\":9266:9272   */\n      dup5\n        /* \"#utility.yul\":9222:9293   */\n      tag_104\n      jump\t// in\n    tag_221:\n        /* \"#utility.yul\":9078:9300   */\n      swap3\n      swap2\n      pop\n      pop\n      jump\t// out\n        /* \"#utility.yul\":9306:9449   */\n    tag_110:\n        /* \"#utility.yul\":9363:9368   */\n      0x00\n        /* \"#utility.yul\":9394:9400   */\n      dup2\n        /* \"#utility.yul\":9388:9401   */\n      mload\n        /* \"#utility.yul\":9379:9401   */\n      swap1\n      pop\n        /* \"#utility.yul\":9410:9443   */\n      tag_223\n        /* \"#utility.yul\":9437:9442   */\n      dup2\n        /* \"#utility.yul\":9410:9443   */\n      tag_92\n      jump\t// in\n    tag_223:\n        /* \"#utility.yul\":9306:9449   */\n      swap3\n      swap2\n      pop\n      pop\n      jump\t// out\n        /* \"#utility.yul\":9455:9806   */\n    tag_63:\n        /* \"#utility.yul\":9525:9531   */\n      0x00\n        /* \"#utility.yul\":9574:9576   */\n      0x20\n        /* \"#utility.yul\":9562:9571   */\n      dup3\n        /* \"#utility.yul\":9553:9560   */\n      dup5\n        /* \"#utility.yul\":9549:9572   */\n      sub\n        /* \"#utility.yul\":9545:9577   */\n      slt\n        /* \"#utility.yul\":9542:9661   */\n      iszero\n      tag_225\n      jumpi\n        /* \"#utility.yul\":9580:9659   */\n      tag_226\n      tag_86\n      jump\t// in\n    tag_226:\n        /* \"#utility.yul\":9542:9661   */\n    tag_225:\n        /* \"#utility.yul\":9700:9701   */\n      0x00\n        /* \"#utility.yul\":9725:9789   */\n      tag_227\n        /* \"#utility.yul\":9781:9788   */\n      dup5\n        /* \"#utility.yul\":9772:9778   */\n      dup3\n        /* \"#utility.yul\":9761:9770   */\n      dup6\n        /* \"#utility.yul\":9757:9779   */\n      add\n        /* \"#utility.yul\":9725:9789   */\n      tag_110\n      jump\t// in\n    tag_227:\n        /* \"#utility.yul\":9715:9789   */\n      swap2\n      pop\n        /* \"#utility.yul\":9671:9799   */\n      pop\n        /* \"#utility.yul\":9455:9806   */\n      swap3\n      swap2\n      pop\n      pop\n      jump\t// out\n        /* \"#utility.yul\":9812:9910   */\n    tag_111:\n        /* \"#utility.yul\":9863:9869   */\n      0x00\n        /* \"#utility.yul\":9897:9902   */\n      dup2\n        /* \"#utility.yul\":9891:9903   */\n      mload\n        /* \"#utility.yul\":9881:9903   */\n      swap1\n      pop\n        /* \"#utility.yul\":9812:9910   */\n      swap2\n      swap1\n      pop\n      jump\t// out\n        /* \"#utility.yul\":9916:10084   */\n    tag_112:\n        /* \"#utility.yul\":9999:10010   */\n      0x00\n        /* \"#utility.yul\":10033:10039   */\n      dup3\n        /* \"#utility.yul\":10028:10031   */\n      dup3\n        /* \"#utility.yul\":10021:10040   */\n      mstore\n        /* \"#utility.yul\":10073:10077   */\n      0x20\n        /* \"#utility.yul\":10068:10071   */\n      dup3\n        /* \"#utility.yul\":10064:10078   */\n      add\n        /* \"#utility.yul\":10049:10078   */\n      swap1\n      pop\n        /* \"#utility.yul\":9916:10084   */\n      swap3\n      swap2\n      pop\n      pop\n      jump\t// out\n        /* \"#utility.yul\":10090:10229   */\n    tag_113:\n        /* \"#utility.yul\":10179:10185   */\n      dup3\n        /* \"#utility.yul\":10174:10177   */\n      dup2\n        /* \"#utility.yul\":10169:10172   */\n      dup4\n        /* \"#utility.yul\":10163:10186   */\n      mcopy\n        /* \"#utility.yul\":10220:10221   */\n      0x00\n        /* \"#utility.yul\":10211:10217   */\n      dup4\n        /* \"#utility.yul\":10206:10209   */\n      dup4\n        /* \"#utility.yul\":10202:10218   */\n      add\n        /* \"#utility.yul\":10195:10222   */\n      mstore\n        /* \"#utility.yul\":10090:10229   */\n      pop\n      pop\n      pop\n      jump\t// out\n        /* \"#utility.yul\":10235:10337   */\n    tag_114:\n        /* \"#utility.yul\":10276:10282   */\n      0x00\n        /* \"#utility.yul\":10327:10329   */\n      0x1f\n        /* \"#utility.yul\":10323:10330   */\n      not\n        /* \"#utility.yul\":10318:10320   */\n      0x1f\n        /* \"#utility.yul\":10311:10316   */\n      dup4\n        /* \"#utility.yul\":10307:10321   */\n      add\n        /* \"#utility.yul\":10303:10331   */\n      and\n        /* \"#utility.yul\":10293:10331   */\n      swap1\n      pop\n        /* \"#utility.yul\":10235:10337   */\n      swap2\n      swap1\n      pop\n      jump\t// out\n        /* \"#utility.yul\":10343:10716   */\n    tag_115:\n        /* \"#utility.yul\":10429:10432   */\n      0x00\n        /* \"#utility.yul\":10457:10495   */\n      tag_233\n        /* \"#utility.yul\":10489:10494   */\n      dup3\n        /* \"#utility.yul\":10457:10495   */\n      tag_111\n      jump\t// in\n    tag_233:\n        /* \"#utility.yul\":10511:10581   */\n      tag_234\n        /* \"#utility.yul\":10574:10580   */\n      dup2\n        /* \"#utility.yul\":10569:10572   */\n      dup6\n        /* \"#utility.yul\":10511:10581   */\n      tag_112\n      jump\t// in\n    tag_234:\n        /* \"#utility.yul\":10504:10581   */\n      swap4\n      pop\n        /* \"#utility.yul\":10590:10655   */\n      tag_235\n        /* \"#utility.yul\":10648:10654   */\n      dup2\n        /* \"#utility.yul\":10643:10646   */\n      dup6\n        /* \"#utility.yul\":10636:10640   */\n      0x20\n        /* \"#utility.yul\":10629:10634   */\n      dup7\n        /* \"#utility.yul\":10625:10641   */\n      add\n        /* \"#utility.yul\":10590:10655   */\n      tag_113\n      jump\t// in\n    tag_235:\n        /* \"#utility.yul\":10680:10709   */\n      tag_236\n        /* \"#utility.yul\":10702:10708   */\n      dup2\n        /* \"#utility.yul\":10680:10709   */\n      tag_114\n      jump\t// in\n    tag_236:\n        /* \"#utility.yul\":10675:10678   */\n      dup5\n        /* \"#utility.yul\":10671:10710   */\n      add\n        /* \"#utility.yul\":10664:10710   */\n      swap2\n      pop\n        /* \"#utility.yul\":10433:10716   */\n      pop\n        /* \"#utility.yul\":10343:10716   */\n      swap3\n      swap2\n      pop\n      pop\n      jump\t// out\n        /* \"#utility.yul\":10722:10811   */\n    tag_116:\n        /* \"#utility.yul\":10758:10765   */\n      0x00\n        /* \"#utility.yul\":10798:10804   */\n      0xffff\n        /* \"#utility.yul\":10791:10796   */\n      dup3\n        /* \"#utility.yul\":10787:10805   */\n      and\n        /* \"#utility.yul\":10776:10805   */\n      swap1\n      pop\n        /* \"#utility.yul\":10722:10811   */\n      swap2\n      swap1\n      pop\n      jump\t// out\n        /* \"#utility.yul\":10817:10932   */\n    tag_117:\n        /* \"#utility.yul\":10902:10925   */\n      tag_239\n        /* \"#utility.yul\":10919:10924   */\n      dup2\n        /* \"#utility.yul\":10902:10925   */\n      tag_116\n      jump\t// in\n    tag_239:\n        /* \"#utility.yul\":10897:10900   */\n      dup3\n        /* \"#utility.yul\":10890:10926   */\n      mstore\n        /* \"#utility.yul\":10817:10932   */\n      pop\n      pop\n      jump\t// out\n        /* \"#utility.yul\":10938:11685   */\n    tag_70:\n        /* \"#utility.yul\":11159:11163   */\n      0x00\n        /* \"#utility.yul\":11197:11200   */\n      0xa0\n        /* \"#utility.yul\":11186:11195   */\n      dup3\n        /* \"#utility.yul\":11182:11201   */\n      add\n        /* \"#utility.yul\":11174:11201   */\n      swap1\n      pop\n        /* \"#utility.yul\":11211:11282   */\n      tag_241\n        /* \"#utility.yul\":11279:11280   */\n      0x00\n        /* \"#utility.yul\":11268:11277   */\n      dup4\n        /* \"#utility.yul\":11264:11281   */\n      add\n        /* \"#utility.yul\":11255:11261   */\n      dup9\n        /* \"#utility.yul\":11211:11282   */\n      tag_104\n      jump\t// in\n    tag_241:\n        /* \"#utility.yul\":11292:11364   */\n      tag_242\n        /* \"#utility.yul\":11360:11362   */\n      0x20\n        /* \"#utility.yul\":11349:11358   */\n      dup4\n        /* \"#utility.yul\":11345:11363   */\n      add\n        /* \"#utility.yul\":11336:11342   */\n      dup8\n        /* \"#utility.yul\":11292:11364   */\n      tag_104\n      jump\t// in\n    tag_242:\n        /* \"#utility.yul\":11374:11446   */\n      tag_243\n        /* \"#utility.yul\":11442:11444   */\n      0x40\n        /* \"#utility.yul\":11431:11440   */\n      dup4\n        /* \"#utility.yul\":11427:11445   */\n      add\n        /* \"#utility.yul\":11418:11424   */\n      dup7\n        /* \"#utility.yul\":11374:11446   */\n      tag_102\n      jump\t// in\n    tag_243:\n        /* \"#utility.yul\":11493:11502   */\n      dup2\n        /* \"#utility.yul\":11487:11491   */\n      dup2\n        /* \"#utility.yul\":11483:11503   */\n      sub\n        /* \"#utility.yul\":11478:11480   */\n      0x60\n        /* \"#utility.yul\":11467:11476   */\n      dup4\n        /* \"#utility.yul\":11463:11481   */\n      add\n        /* \"#utility.yul\":11456:11504   */\n      mstore\n        /* \"#utility.yul\":11521:11597   */\n      tag_244\n        /* \"#utility.yul\":11592:11596   */\n      dup2\n        /* \"#utility.yul\":11583:11589   */\n      dup6\n        /* \"#utility.yul\":11521:11597   */\n      tag_115\n      jump\t// in\n    tag_244:\n        /* \"#utility.yul\":11513:11597   */\n      swap1\n      pop\n        /* \"#utility.yul\":11607:11678   */\n      tag_245\n        /* \"#utility.yul\":11673:11676   */\n      0x80\n        /* \"#utility.yul\":11662:11671   */\n      dup4\n        /* \"#utility.yul\":11658:11677   */\n      add\n        /* \"#utility.yul\":11649:11655   */\n      dup5\n        /* \"#utility.yul\":11607:11678   */\n      tag_117\n      jump\t// in\n    tag_245:\n        /* \"#utility.yul\":10938:11685   */\n      swap7\n      swap6\n      pop\n      pop\n      pop\n      pop\n      pop\n      pop\n      jump\t// out\n\n    auxdata: 0xa264697066735822122011f07af6b4423ab8949c1d817c02aba691cd5a13ca9edc0ce2c753b988a5361564736f6c63430008190033\n}\n",
				"bytecode": {
					"linkReferences": {},
					"object": "60c060405234801561000f575f80fd5b50604051610d3c380380610d3c833981810160405281019061003191906101aa565b808073ffffffffffffffffffffffffffffffffffffffff1660808173ffffffffffffffffffffffffffffffffffffffff16815250508073ffffffffffffffffffffffffffffffffffffffff1663026b1d5f6040518163ffffffff1660e01b8152600401602060405180830381865afa1580156100af573d5f803e3d5ffd5b505050506040513d601f19601f820116820180604052508101906100d391906101aa565b73ffffffffffffffffffffffffffffffffffffffff1660a08173ffffffffffffffffffffffffffffffffffffffff168152505050335f806101000a81548173ffffffffffffffffffffffffffffffffffffffff021916908373ffffffffffffffffffffffffffffffffffffffff160217905550506101d5565b5f80fd5b5f73ffffffffffffffffffffffffffffffffffffffff82169050919050565b5f61017982610150565b9050919050565b6101898161016f565b8114610193575f80fd5b50565b5f815190506101a481610180565b92915050565b5f602082840312156101bf576101be61014c565b5b5f6101cc84828501610196565b91505092915050565b60805160a051610b386102045f395f81816101d1015281816103e8015261042b01525f6101810152610b385ff3fe608060405260043610610058575f3560e01c80630542975c146100635780631b11d0ff1461008d57806351cff8d9146100c95780637535d246146100f1578063d54ba9541461011b578063f8b2cb4f146101435761005f565b3661005f57005b5f80fd5b34801561006e575f80fd5b5061007761017f565b60405161008491906105ba565b60405180910390f35b348015610098575f80fd5b506100b360048036038101906100ae91906106aa565b6101a3565b6040516100c0919061075a565b60405180910390f35b3480156100d4575f80fd5b506100ef60048036038101906100ea9190610773565b61025e565b005b3480156100fc575f80fd5b506101056103e6565b60405161011291906107be565b60405180910390f35b348015610126575f80fd5b50610141600480360381019061013c91906107d7565b61040a565b005b34801561014e575f80fd5b5061016960048036038101906101649190610773565b6104c0565b6040516101769190610824565b60405180910390f35b7f000000000000000000000000000000000000000000000000000000000000000081565b5f8085876101b1919061086a565b90508773ffffffffffffffffffffffffffffffffffffffff1663095ea7b37f0000000000000000000000000000000000000000000000000000000000000000836040518363ffffffff1660e01b815260040161020e9291906108ac565b6020604051808303815f875af115801561022a573d5f803e3d5ffd5b505050506040513d601f19601f8201168201806040525081019061024e91906108fd565b5060019150509695505050505050565b5f8054906101000a900473ffffffffffffffffffffffffffffffffffffffff1673ffffffffffffffffffffffffffffffffffffffff163373ffffffffffffffffffffffffffffffffffffffff16146102eb576040517f08c379a00000000000000000000000000000000000000000000000000000000081526004016102e2906109a8565b60405180910390fd5b5f8190508073ffffffffffffffffffffffffffffffffffffffff1663a9059cbb338373ffffffffffffffffffffffffffffffffffffffff166370a08231306040518263ffffffff1660e01b815260040161034591906109c6565b602060405180830381865afa158015610360573d5f803e3d5ffd5b505050506040513d601f19601f8201168201806040525081019061038491906109f3565b6040518363ffffffff1660e01b81526004016103a19291906108ac565b6020604051808303815f875af11580156103bd573d5f803e3d5ffd5b505050506040513d601f19601f820116820180604052508101906103e191906108fd565b505050565b7f000000000000000000000000000000000000000000000000000000000000000081565b5f3090505f8390505f8390505f60405180602001604052805f81525090505f7f000000000000000000000000000000000000000000000000000000000000000073ffffffffffffffffffffffffffffffffffffffff166342b0b77c86868686866040518663ffffffff1660e01b815260040161048a959493929190610aaa565b5f604051808303815f87803b1580156104a1575f80fd5b505af11580156104b3573d5f803e3d5ffd5b5050505050505050505050565b5f8173ffffffffffffffffffffffffffffffffffffffff166370a08231306040518263ffffffff1660e01b81526004016104fa91906109c6565b602060405180830381865afa158015610515573d5f803e3d5ffd5b505050506040513d601f19601f8201168201806040525081019061053991906109f3565b9050919050565b5f73ffffffffffffffffffffffffffffffffffffffff82169050919050565b5f819050919050565b5f61058261057d61057884610540565b61055f565b610540565b9050919050565b5f61059382610568565b9050919050565b5f6105a482610589565b9050919050565b6105b48161059a565b82525050565b5f6020820190506105cd5f8301846105ab565b92915050565b5f80fd5b5f80fd5b5f6105e582610540565b9050919050565b6105f5816105db565b81146105ff575f80fd5b50565b5f81359050610610816105ec565b92915050565b5f819050919050565b61062881610616565b8114610632575f80fd5b50565b5f813590506106438161061f565b92915050565b5f80fd5b5f80fd5b5f80fd5b5f8083601f84011261066a57610669610649565b5b8235905067ffffffffffffffff8111156106875761068661064d565b5b6020830191508360018202830111156106a3576106a2610651565b5b9250929050565b5f805f805f8060a087890312156106c4576106c36105d3565b5b5f6106d189828a01610602565b96505060206106e289828a01610635565b95505060406106f389828a01610635565b945050606061070489828a01610602565b935050608087013567ffffffffffffffff811115610725576107246105d7565b5b61073189828a01610655565b92509250509295509295509295565b5f8115159050919050565b61075481610740565b82525050565b5f60208201905061076d5f83018461074b565b92915050565b5f60208284031215610788576107876105d3565b5b5f61079584828501610602565b91505092915050565b5f6107a882610589565b9050919050565b6107b88161079e565b82525050565b5f6020820190506107d15f8301846107af565b92915050565b5f80604083850312156107ed576107ec6105d3565b5b5f6107fa85828601610602565b925050602061080b85828601610635565b9150509250929050565b61081e81610616565b82525050565b5f6020820190506108375f830184610815565b92915050565b7f4e487b71000000000000000000000000000000000000000000000000000000005f52601160045260245ffd5b5f61087482610616565b915061087f83610616565b92508282019050808211156108975761089661083d565b5b92915050565b6108a6816105db565b82525050565b5f6040820190506108bf5f83018561089d565b6108cc6020830184610815565b9392505050565b6108dc81610740565b81146108e6575f80fd5b50565b5f815190506108f7816108d3565b92915050565b5f60208284031215610912576109116105d3565b5b5f61091f848285016108e9565b91505092915050565b5f82825260208201905092915050565b7f4f6e6c792074686520636f6e7472616374206f776e65722063616e2063616c6c5f8201527f20746869732066756e6374696f6e000000000000000000000000000000000000602082015250565b5f610992602e83610928565b915061099d82610938565b604082019050919050565b5f6020820190508181035f8301526109bf81610986565b9050919050565b5f6020820190506109d95f83018461089d565b92915050565b5f815190506109ed8161061f565b92915050565b5f60208284031215610a0857610a076105d3565b5b5f610a15848285016109df565b91505092915050565b5f81519050919050565b5f82825260208201905092915050565b8281835e5f83830152505050565b5f601f19601f8301169050919050565b5f610a6082610a1e565b610a6a8185610a28565b9350610a7a818560208601610a38565b610a8381610a46565b840191505092915050565b5f61ffff82169050919050565b610aa481610a8e565b82525050565b5f60a082019050610abd5f83018861089d565b610aca602083018761089d565b610ad76040830186610815565b8181036060830152610ae98185610a56565b9050610af86080830184610a9b565b969550505050505056fea264697066735822122011f07af6b4423ab8949c1d817c02aba691cd5a13ca9edc0ce2c753b988a5361564736f6c63430008190033",
					"opcodes": "PUSH1 0xC0 PUSH1 0x40 MSTORE CALLVALUE DUP1 ISZERO PUSH2 0xF JUMPI PUSH0 DUP1 REVERT JUMPDEST POP PUSH1 0x40 MLOAD PUSH2 0xD3C CODESIZE SUB DUP1 PUSH2 0xD3C DUP4 CODECOPY DUP2 DUP2 ADD PUSH1 0x40 MSTORE DUP2 ADD SWAP1 PUSH2 0x31 SWAP2 SWAP1 PUSH2 0x1AA JUMP JUMPDEST DUP1 DUP1 PUSH20 0xFFFFFFFFFFFFFFFFFFFFFFFFFFFFFFFFFFFFFFFF AND PUSH1 0x80 DUP2 PUSH20 0xFFFFFFFFFFFFFFFFFFFFFFFFFFFFFFFFFFFFFFFF AND DUP2 MSTORE POP POP DUP1 PUSH20 0xFFFFFFFFFFFFFFFFFFFFFFFFFFFFFFFFFFFFFFFF AND PUSH4 0x26B1D5F PUSH1 0x40 MLOAD DUP2 PUSH4 0xFFFFFFFF AND PUSH1 0xE0 SHL DUP2 MSTORE PUSH1 0x4 ADD PUSH1 0x20 PUSH1 0x40 MLOAD DUP1 DUP4 SUB DUP2 DUP7 GAS STATICCALL ISZERO DUP1 ISZERO PUSH2 0xAF JUMPI RETURNDATASIZE PUSH0 DUP1 RETURNDATACOPY RETURNDATASIZE PUSH0 REVERT JUMPDEST POP POP POP POP PUSH1 0x40 MLOAD RETURNDATASIZE PUSH1 0x1F NOT PUSH1 0x1F DUP3 ADD AND DUP3 ADD DUP1 PUSH1 0x40 MSTORE POP DUP2 ADD SWAP1 PUSH2 0xD3 SWAP2 SWAP1 PUSH2 0x1AA JUMP JUMPDEST PUSH20 0xFFFFFFFFFFFFFFFFFFFFFFFFFFFFFFFFFFFFFFFF AND PUSH1 0xA0 DUP2 PUSH20 0xFFFFFFFFFFFFFFFFFFFFFFFFFFFFFFFFFFFFFFFF AND DUP2 MSTORE POP POP POP CALLER PUSH0 DUP1 PUSH2 0x100 EXP DUP2 SLOAD DUP2 PUSH20 0xFFFFFFFFFFFFFFFFFFFFFFFFFFFFFFFFFFFFFFFF MUL NOT AND SWAP1 DUP4 PUSH20 0xFFFFFFFFFFFFFFFFFFFFFFFFFFFFFFFFFFFFFFFF AND MUL OR SWAP1 SSTORE POP POP PUSH2 0x1D5 JUMP JUMPDEST PUSH0 DUP1 REVERT JUMPDEST PUSH0 PUSH20 0xFFFFFFFFFFFFFFFFFFFFFFFFFFFFFFFFFFFFFFFF DUP3 AND SWAP1 POP SWAP2 SWAP1 POP JUMP JUMPDEST PUSH0 PUSH2 0x179 DUP3 PUSH2 0x150 JUMP JUMPDEST SWAP1 POP SWAP2 SWAP1 POP JUMP JUMPDEST PUSH2 0x189 DUP2 PUSH2 0x16F JUMP JUMPDEST DUP2 EQ PUSH2 0x193 JUMPI PUSH0 DUP1 REVERT JUMPDEST POP JUMP JUMPDEST PUSH0 DUP2 MLOAD SWAP1 POP PUSH2 0x1A4 DUP2 PUSH2 0x180 JUMP JUMPDEST SWAP3 SWAP2 POP POP JUMP JUMPDEST PUSH0 PUSH1 0x20 DUP3 DUP5 SUB SLT ISZERO PUSH2 0x1BF JUMPI PUSH2 0x1BE PUSH2 0x14C JUMP JUMPDEST JUMPDEST PUSH0 PUSH2 0x1CC DUP5 DUP3 DUP6 ADD PUSH2 0x196 JUMP JUMPDEST SWAP2 POP POP SWAP3 SWAP2 POP POP JUMP JUMPDEST PUSH1 0x80 MLOAD PUSH1 0xA0 MLOAD PUSH2 0xB38 PUSH2 0x204 PUSH0 CODECOPY PUSH0 DUP2 DUP2 PUSH2 0x1D1 ADD MSTORE DUP2 DUP2 PUSH2 0x3E8 ADD MSTORE PUSH2 0x42B ADD MSTORE PUSH0 PUSH2 0x181 ADD MSTORE PUSH2 0xB38 PUSH0 RETURN INVALID PUSH1 0x80 PUSH1 0x40 MSTORE PUSH1 0x4 CALLDATASIZE LT PUSH2 0x58 JUMPI PUSH0 CALLDATALOAD PUSH1 0xE0 SHR DUP1 PUSH4 0x542975C EQ PUSH2 0x63 JUMPI DUP1 PUSH4 0x1B11D0FF EQ PUSH2 0x8D JUMPI DUP1 PUSH4 0x51CFF8D9 EQ PUSH2 0xC9 JUMPI DUP1 PUSH4 0x7535D246 EQ PUSH2 0xF1 JUMPI DUP1 PUSH4 0xD54BA954 EQ PUSH2 0x11B JUMPI DUP1 PUSH4 0xF8B2CB4F EQ PUSH2 0x143 JUMPI PUSH2 0x5F JUMP JUMPDEST CALLDATASIZE PUSH2 0x5F JUMPI STOP JUMPDEST PUSH0 DUP1 REVERT JUMPDEST CALLVALUE DUP1 ISZERO PUSH2 0x6E JUMPI PUSH0 DUP1 REVERT JUMPDEST POP PUSH2 0x77 PUSH2 0x17F JUMP JUMPDEST PUSH1 0x40 MLOAD PUSH2 0x84 SWAP2 SWAP1 PUSH2 0x5BA JUMP JUMPDEST PUSH1 0x40 MLOAD DUP1 SWAP2 SUB SWAP1 RETURN JUMPDEST CALLVALUE DUP1 ISZERO PUSH2 0x98 JUMPI PUSH0 DUP1 REVERT JUMPDEST POP PUSH2 0xB3 PUSH1 0x4 DUP1 CALLDATASIZE SUB DUP2 ADD SWAP1 PUSH2 0xAE SWAP2 SWAP1 PUSH2 0x6AA JUMP JUMPDEST PUSH2 0x1A3 JUMP JUMPDEST PUSH1 0x40 MLOAD PUSH2 0xC0 SWAP2 SWAP1 PUSH2 0x75A JUMP JUMPDEST PUSH1 0x40 MLOAD DUP1 SWAP2 SUB SWAP1 RETURN JUMPDEST CALLVALUE DUP1 ISZERO PUSH2 0xD4 JUMPI PUSH0 DUP1 REVERT JUMPDEST POP PUSH2 0xEF PUSH1 0x4 DUP1 CALLDATASIZE SUB DUP2 ADD SWAP1 PUSH2 0xEA SWAP2 SWAP1 PUSH2 0x773 JUMP JUMPDEST PUSH2 0x25E JUMP JUMPDEST STOP JUMPDEST CALLVALUE DUP1 ISZERO PUSH2 0xFC JUMPI PUSH0 DUP1 REVERT JUMPDEST POP PUSH2 0x105 PUSH2 0x3E6 JUMP JUMPDEST PUSH1 0x40 MLOAD PUSH2 0x112 SWAP2 SWAP1 PUSH2 0x7BE JUMP JUMPDEST PUSH1 0x40 MLOAD DUP1 SWAP2 SUB SWAP1 RETURN JUMPDEST CALLVALUE DUP1 ISZERO PUSH2 0x126 JUMPI PUSH0 DUP1 REVERT JUMPDEST POP PUSH2 0x141 PUSH1 0x4 DUP1 CALLDATASIZE SUB DUP2 ADD SWAP1 PUSH2 0x13C SWAP2 SWAP1 PUSH2 0x7D7 JUMP JUMPDEST PUSH2 0x40A JUMP JUMPDEST STOP JUMPDEST CALLVALUE DUP1 ISZERO PUSH2 0x14E JUMPI PUSH0 DUP1 REVERT JUMPDEST POP PUSH2 0x169 PUSH1 0x4 DUP1 CALLDATASIZE SUB DUP2 ADD SWAP1 PUSH2 0x164 SWAP2 SWAP1 PUSH2 0x773 JUMP JUMPDEST PUSH2 0x4C0 JUMP JUMPDEST PUSH1 0x40 MLOAD PUSH2 0x176 SWAP2 SWAP1 PUSH2 0x824 JUMP JUMPDEST PUSH1 0x40 MLOAD DUP1 SWAP2 SUB SWAP1 RETURN JUMPDEST PUSH32 0x0 DUP2 JUMP JUMPDEST PUSH0 DUP1 DUP6 DUP8 PUSH2 0x1B1 SWAP2 SWAP1 PUSH2 0x86A JUMP JUMPDEST SWAP1 POP DUP8 PUSH20 0xFFFFFFFFFFFFFFFFFFFFFFFFFFFFFFFFFFFFFFFF AND PUSH4 0x95EA7B3 PUSH32 0x0 DUP4 PUSH1 0x40 MLOAD DUP4 PUSH4 0xFFFFFFFF AND PUSH1 0xE0 SHL DUP2 MSTORE PUSH1 0x4 ADD PUSH2 0x20E SWAP3 SWAP2 SWAP1 PUSH2 0x8AC JUMP JUMPDEST PUSH1 0x20 PUSH1 0x40 MLOAD DUP1 DUP4 SUB DUP2 PUSH0 DUP8 GAS CALL ISZERO DUP1 ISZERO PUSH2 0x22A JUMPI RETURNDATASIZE PUSH0 DUP1 RETURNDATACOPY RETURNDATASIZE PUSH0 REVERT JUMPDEST POP POP POP POP PUSH1 0x40 MLOAD RETURNDATASIZE PUSH1 0x1F NOT PUSH1 0x1F DUP3 ADD AND DUP3 ADD DUP1 PUSH1 0x40 MSTORE POP DUP2 ADD SWAP1 PUSH2 0x24E SWAP2 SWAP1 PUSH2 0x8FD JUMP JUMPDEST POP PUSH1 0x1 SWAP2 POP POP SWAP7 SWAP6 POP POP POP POP POP POP JUMP JUMPDEST PUSH0 DUP1 SLOAD SWAP1 PUSH2 0x100 EXP SWAP1 DIV PUSH20 0xFFFFFFFFFFFFFFFFFFFFFFFFFFFFFFFFFFFFFFFF AND PUSH20 0xFFFFFFFFFFFFFFFFFFFFFFFFFFFFFFFFFFFFFFFF AND CALLER PUSH20 0xFFFFFFFFFFFFFFFFFFFFFFFFFFFFFFFFFFFFFFFF AND EQ PUSH2 0x2EB JUMPI PUSH1 0x40 MLOAD PUSH32 0x8C379A000000000000000000000000000000000000000000000000000000000 DUP2 MSTORE PUSH1 0x4 ADD PUSH2 0x2E2 SWAP1 PUSH2 0x9A8 JUMP JUMPDEST PUSH1 0x40 MLOAD DUP1 SWAP2 SUB SWAP1 REVERT JUMPDEST PUSH0 DUP2 SWAP1 POP DUP1 PUSH20 0xFFFFFFFFFFFFFFFFFFFFFFFFFFFFFFFFFFFFFFFF AND PUSH4 0xA9059CBB CALLER DUP4 PUSH20 0xFFFFFFFFFFFFFFFFFFFFFFFFFFFFFFFFFFFFFFFF AND PUSH4 0x70A08231 ADDRESS PUSH1 0x40 MLOAD DUP3 PUSH4 0xFFFFFFFF AND PUSH1 0xE0 SHL DUP2 MSTORE PUSH1 0x4 ADD PUSH2 0x345 SWAP2 SWAP1 PUSH2 0x9C6 JUMP JUMPDEST PUSH1 0x20 PUSH1 0x40 MLOAD DUP1 DUP4 SUB DUP2 DUP7 GAS STATICCALL ISZERO DUP1 ISZERO PUSH2 0x360 JUMPI RETURNDATASIZE PUSH0 DUP1 RETURNDATACOPY RETURNDATASIZE PUSH0 REVERT JUMPDEST POP POP POP POP PUSH1 0x40 MLOAD RETURNDATASIZE PUSH1 0x1F NOT PUSH1 0x1F DUP3 ADD AND DUP3 ADD DUP1 PUSH1 0x40 MSTORE POP DUP2 ADD SWAP1 PUSH2 0x384 SWAP2 SWAP1 PUSH2 0x9F3 JUMP JUMPDEST PUSH1 0x40 MLOAD DUP4 PUSH4 0xFFFFFFFF AND PUSH1 0xE0 SHL DUP2 MSTORE PUSH1 0x4 ADD PUSH2 0x3A1 SWAP3 SWAP2 SWAP1 PUSH2 0x8AC JUMP JUMPDEST PUSH1 0x20 PUSH1 0x40 MLOAD DUP1 DUP4 SUB DUP2 PUSH0 DUP8 GAS CALL ISZERO DUP1 ISZERO PUSH2 0x3BD JUMPI RETURNDATASIZE PUSH0 DUP1 RETURNDATACOPY RETURNDATASIZE PUSH0 REVERT JUMPDEST POP POP POP POP PUSH1 0x40 MLOAD RETURNDATASIZE PUSH1 0x1F NOT PUSH1 0x1F DUP3 ADD AND DUP3 ADD DUP1 PUSH1 0x40 MSTORE POP DUP2 ADD SWAP1 PUSH2 0x3E1 SWAP2 SWAP1 PUSH2 0x8FD JUMP JUMPDEST POP POP POP JUMP JUMPDEST PUSH32 0x0 DUP2 JUMP JUMPDEST PUSH0 ADDRESS SWAP1 POP PUSH0 DUP4 SWAP1 POP PUSH0 DUP4 SWAP1 POP PUSH0 PUSH1 0x40 MLOAD DUP1 PUSH1 0x20 ADD PUSH1 0x40 MSTORE DUP1 PUSH0 DUP2 MSTORE POP SWAP1 POP PUSH0 PUSH32 0x0 PUSH20 0xFFFFFFFFFFFFFFFFFFFFFFFFFFFFFFFFFFFFFFFF AND PUSH4 0x42B0B77C DUP7 DUP7 DUP7 DUP7 DUP7 PUSH1 0x40 MLOAD DUP7 PUSH4 0xFFFFFFFF AND PUSH1 0xE0 SHL DUP2 MSTORE PUSH1 0x4 ADD PUSH2 0x48A SWAP6 SWAP5 SWAP4 SWAP3 SWAP2 SWAP1 PUSH2 0xAAA JUMP JUMPDEST PUSH0 PUSH1 0x40 MLOAD DUP1 DUP4 SUB DUP2 PUSH0 DUP8 DUP1 EXTCODESIZE ISZERO DUP1 ISZERO PUSH2 0x4A1 JUMPI PUSH0 DUP1 REVERT JUMPDEST POP GAS CALL ISZERO DUP1 ISZERO PUSH2 0x4B3 JUMPI RETURNDATASIZE PUSH0 DUP1 RETURNDATACOPY RETURNDATASIZE PUSH0 REVERT JUMPDEST POP POP POP POP POP POP POP POP POP POP POP JUMP JUMPDEST PUSH0 DUP2 PUSH20 0xFFFFFFFFFFFFFFFFFFFFFFFFFFFFFFFFFFFFFFFF AND PUSH4 0x70A08231 ADDRESS PUSH1 0x40 MLOAD DUP3 PUSH4 0xFFFFFFFF AND PUSH1 0xE0 SHL DUP2 MSTORE PUSH1 0x4 ADD PUSH2 0x4FA SWAP2 SWAP1 PUSH2 0x9C6 JUMP JUMPDEST PUSH1 0x20 PUSH1 0x40 MLOAD DUP1 DUP4 SUB DUP2 DUP7 GAS STATICCALL ISZERO DUP1 ISZERO PUSH2 0x515 JUMPI RETURNDATASIZE PUSH0 DUP1 RETURNDATACOPY RETURNDATASIZE PUSH0 REVERT JUMPDEST POP POP POP POP PUSH1 0x40 MLOAD RETURNDATASIZE PUSH1 0x1F NOT PUSH1 0x1F DUP3 ADD AND DUP3 ADD DUP1 PUSH1 0x40 MSTORE POP DUP2 ADD SWAP1 PUSH2 0x539 SWAP2 SWAP1 PUSH2 0x9F3 JUMP JUMPDEST SWAP1 POP SWAP2 SWAP1 POP JUMP JUMPDEST PUSH0 PUSH20 0xFFFFFFFFFFFFFFFFFFFFFFFFFFFFFFFFFFFFFFFF DUP3 AND SWAP1 POP SWAP2 SWAP1 POP JUMP JUMPDEST PUSH0 DUP2 SWAP1 POP SWAP2 SWAP1 POP JUMP JUMPDEST PUSH0 PUSH2 0x582 PUSH2 0x57D PUSH2 0x578 DUP5 PUSH2 0x540 JUMP JUMPDEST PUSH2 0x55F JUMP JUMPDEST PUSH2 0x540 JUMP JUMPDEST SWAP1 POP SWAP2 SWAP1 POP JUMP JUMPDEST PUSH0 PUSH2 0x593 DUP3 PUSH2 0x568 JUMP JUMPDEST SWAP1 POP SWAP2 SWAP1 POP JUMP JUMPDEST PUSH0 PUSH2 0x5A4 DUP3 PUSH2 0x589 JUMP JUMPDEST SWAP1 POP SWAP2 SWAP1 POP JUMP JUMPDEST PUSH2 0x5B4 DUP2 PUSH2 0x59A JUMP JUMPDEST DUP3 MSTORE POP POP JUMP JUMPDEST PUSH0 PUSH1 0x20 DUP3 ADD SWAP1 POP PUSH2 0x5CD PUSH0 DUP4 ADD DUP5 PUSH2 0x5AB JUMP JUMPDEST SWAP3 SWAP2 POP POP JUMP JUMPDEST PUSH0 DUP1 REVERT JUMPDEST PUSH0 DUP1 REVERT JUMPDEST PUSH0 PUSH2 0x5E5 DUP3 PUSH2 0x540 JUMP JUMPDEST SWAP1 POP SWAP2 SWAP1 POP JUMP JUMPDEST PUSH2 0x5F5 DUP2 PUSH2 0x5DB JUMP JUMPDEST DUP2 EQ PUSH2 0x5FF JUMPI PUSH0 DUP1 REVERT JUMPDEST POP JUMP JUMPDEST PUSH0 DUP2 CALLDATALOAD SWAP1 POP PUSH2 0x610 DUP2 PUSH2 0x5EC JUMP JUMPDEST SWAP3 SWAP2 POP POP JUMP JUMPDEST PUSH0 DUP2 SWAP1 POP SWAP2 SWAP1 POP JUMP JUMPDEST PUSH2 0x628 DUP2 PUSH2 0x616 JUMP JUMPDEST DUP2 EQ PUSH2 0x632 JUMPI PUSH0 DUP1 REVERT JUMPDEST POP JUMP JUMPDEST PUSH0 DUP2 CALLDATALOAD SWAP1 POP PUSH2 0x643 DUP2 PUSH2 0x61F JUMP JUMPDEST SWAP3 SWAP2 POP POP JUMP JUMPDEST PUSH0 DUP1 REVERT JUMPDEST PUSH0 DUP1 REVERT JUMPDEST PUSH0 DUP1 REVERT JUMPDEST PUSH0 DUP1 DUP4 PUSH1 0x1F DUP5 ADD SLT PUSH2 0x66A JUMPI PUSH2 0x669 PUSH2 0x649 JUMP JUMPDEST JUMPDEST DUP3 CALLDATALOAD SWAP1 POP PUSH8 0xFFFFFFFFFFFFFFFF DUP2 GT ISZERO PUSH2 0x687 JUMPI PUSH2 0x686 PUSH2 0x64D JUMP JUMPDEST JUMPDEST PUSH1 0x20 DUP4 ADD SWAP2 POP DUP4 PUSH1 0x1 DUP3 MUL DUP4 ADD GT ISZERO PUSH2 0x6A3 JUMPI PUSH2 0x6A2 PUSH2 0x651 JUMP JUMPDEST JUMPDEST SWAP3 POP SWAP3 SWAP1 POP JUMP JUMPDEST PUSH0 DUP1 PUSH0 DUP1 PUSH0 DUP1 PUSH1 0xA0 DUP8 DUP10 SUB SLT ISZERO PUSH2 0x6C4 JUMPI PUSH2 0x6C3 PUSH2 0x5D3 JUMP JUMPDEST JUMPDEST PUSH0 PUSH2 0x6D1 DUP10 DUP3 DUP11 ADD PUSH2 0x602 JUMP JUMPDEST SWAP7 POP POP PUSH1 0x20 PUSH2 0x6E2 DUP10 DUP3 DUP11 ADD PUSH2 0x635 JUMP JUMPDEST SWAP6 POP POP PUSH1 0x40 PUSH2 0x6F3 DUP10 DUP3 DUP11 ADD PUSH2 0x635 JUMP JUMPDEST SWAP5 POP POP PUSH1 0x60 PUSH2 0x704 DUP10 DUP3 DUP11 ADD PUSH2 0x602 JUMP JUMPDEST SWAP4 POP POP PUSH1 0x80 DUP8 ADD CALLDATALOAD PUSH8 0xFFFFFFFFFFFFFFFF DUP2 GT ISZERO PUSH2 0x725 JUMPI PUSH2 0x724 PUSH2 0x5D7 JUMP JUMPDEST JUMPDEST PUSH2 0x731 DUP10 DUP3 DUP11 ADD PUSH2 0x655 JUMP JUMPDEST SWAP3 POP SWAP3 POP POP SWAP3 SWAP6 POP SWAP3 SWAP6 POP SWAP3 SWAP6 JUMP JUMPDEST PUSH0 DUP2 ISZERO ISZERO SWAP1 POP SWAP2 SWAP1 POP JUMP JUMPDEST PUSH2 0x754 DUP2 PUSH2 0x740 JUMP JUMPDEST DUP3 MSTORE POP POP JUMP JUMPDEST PUSH0 PUSH1 0x20 DUP3 ADD SWAP1 POP PUSH2 0x76D PUSH0 DUP4 ADD DUP5 PUSH2 0x74B JUMP JUMPDEST SWAP3 SWAP2 POP POP JUMP JUMPDEST PUSH0 PUSH1 0x20 DUP3 DUP5 SUB SLT ISZERO PUSH2 0x788 JUMPI PUSH2 0x787 PUSH2 0x5D3 JUMP JUMPDEST JUMPDEST PUSH0 PUSH2 0x795 DUP5 DUP3 DUP6 ADD PUSH2 0x602 JUMP JUMPDEST SWAP2 POP POP SWAP3 SWAP2 POP POP JUMP JUMPDEST PUSH0 PUSH2 0x7A8 DUP3 PUSH2 0x589 JUMP JUMPDEST SWAP1 POP SWAP2 SWAP1 POP JUMP JUMPDEST PUSH2 0x7B8 DUP2 PUSH2 0x79E JUMP JUMPDEST DUP3 MSTORE POP POP JUMP JUMPDEST PUSH0 PUSH1 0x20 DUP3 ADD SWAP1 POP PUSH2 0x7D1 PUSH0 DUP4 ADD DUP5 PUSH2 0x7AF JUMP JUMPDEST SWAP3 SWAP2 POP POP JUMP JUMPDEST PUSH0 DUP1 PUSH1 0x40 DUP4 DUP6 SUB SLT ISZERO PUSH2 0x7ED JUMPI PUSH2 0x7EC PUSH2 0x5D3 JUMP JUMPDEST JUMPDEST PUSH0 PUSH2 0x7FA DUP6 DUP3 DUP7 ADD PUSH2 0x602 JUMP JUMPDEST SWAP3 POP POP PUSH1 0x20 PUSH2 0x80B DUP6 DUP3 DUP7 ADD PUSH2 0x635 JUMP JUMPDEST SWAP2 POP POP SWAP3 POP SWAP3 SWAP1 POP JUMP JUMPDEST PUSH2 0x81E DUP2 PUSH2 0x616 JUMP JUMPDEST DUP3 MSTORE POP POP JUMP JUMPDEST PUSH0 PUSH1 0x20 DUP3 ADD SWAP1 POP PUSH2 0x837 PUSH0 DUP4 ADD DUP5 PUSH2 0x815 JUMP JUMPDEST SWAP3 SWAP2 POP POP JUMP JUMPDEST PUSH32 0x4E487B7100000000000000000000000000000000000000000000000000000000 PUSH0 MSTORE PUSH1 0x11 PUSH1 0x4 MSTORE PUSH1 0x24 PUSH0 REVERT JUMPDEST PUSH0 PUSH2 0x874 DUP3 PUSH2 0x616 JUMP JUMPDEST SWAP2 POP PUSH2 0x87F DUP4 PUSH2 0x616 JUMP JUMPDEST SWAP3 POP DUP3 DUP3 ADD SWAP1 POP DUP1 DUP3 GT ISZERO PUSH2 0x897 JUMPI PUSH2 0x896 PUSH2 0x83D JUMP JUMPDEST JUMPDEST SWAP3 SWAP2 POP POP JUMP JUMPDEST PUSH2 0x8A6 DUP2 PUSH2 0x5DB JUMP JUMPDEST DUP3 MSTORE POP POP JUMP JUMPDEST PUSH0 PUSH1 0x40 DUP3 ADD SWAP1 POP PUSH2 0x8BF PUSH0 DUP4 ADD DUP6 PUSH2 0x89D JUMP JUMPDEST PUSH2 0x8CC PUSH1 0x20 DUP4 ADD DUP5 PUSH2 0x815 JUMP JUMPDEST SWAP4 SWAP3 POP POP POP JUMP JUMPDEST PUSH2 0x8DC DUP2 PUSH2 0x740 JUMP JUMPDEST DUP2 EQ PUSH2 0x8E6 JUMPI PUSH0 DUP1 REVERT JUMPDEST POP JUMP JUMPDEST PUSH0 DUP2 MLOAD SWAP1 POP PUSH2 0x8F7 DUP2 PUSH2 0x8D3 JUMP JUMPDEST SWAP3 SWAP2 POP POP JUMP JUMPDEST PUSH0 PUSH1 0x20 DUP3 DUP5 SUB SLT ISZERO PUSH2 0x912 JUMPI PUSH2 0x911 PUSH2 0x5D3 JUMP JUMPDEST JUMPDEST PUSH0 PUSH2 0x91F DUP5 DUP3 DUP6 ADD PUSH2 0x8E9 JUMP JUMPDEST SWAP2 POP POP SWAP3 SWAP2 POP POP JUMP JUMPDEST PUSH0 DUP3 DUP3 MSTORE PUSH1 0x20 DUP3 ADD SWAP1 POP SWAP3 SWAP2 POP POP JUMP JUMPDEST PUSH32 0x4F6E6C792074686520636F6E7472616374206F776E65722063616E2063616C6C PUSH0 DUP3 ADD MSTORE PUSH32 0x20746869732066756E6374696F6E000000000000000000000000000000000000 PUSH1 0x20 DUP3 ADD MSTORE POP JUMP JUMPDEST PUSH0 PUSH2 0x992 PUSH1 0x2E DUP4 PUSH2 0x928 JUMP JUMPDEST SWAP2 POP PUSH2 0x99D DUP3 PUSH2 0x938 JUMP JUMPDEST PUSH1 0x40 DUP3 ADD SWAP1 POP SWAP2 SWAP1 POP JUMP JUMPDEST PUSH0 PUSH1 0x20 DUP3 ADD SWAP1 POP DUP2 DUP2 SUB PUSH0 DUP4 ADD MSTORE PUSH2 0x9BF DUP2 PUSH2 0x986 JUMP JUMPDEST SWAP1 POP SWAP2 SWAP1 POP JUMP JUMPDEST PUSH0 PUSH1 0x20 DUP3 ADD SWAP1 POP PUSH2 0x9D9 PUSH0 DUP4 ADD DUP5 PUSH2 0x89D JUMP JUMPDEST SWAP3 SWAP2 POP POP JUMP JUMPDEST PUSH0 DUP2 MLOAD SWAP1 POP PUSH2 0x9ED DUP2 PUSH2 0x61F JUMP JUMPDEST SWAP3 SWAP2 POP POP JUMP JUMPDEST PUSH0 PUSH1 0x20 DUP3 DUP5 SUB SLT ISZERO PUSH2 0xA08 JUMPI PUSH2 0xA07 PUSH2 0x5D3 JUMP JUMPDEST JUMPDEST PUSH0 PUSH2 0xA15 DUP5 DUP3 DUP6 ADD PUSH2 0x9DF JUMP JUMPDEST SWAP2 POP POP SWAP3 SWAP2 POP POP JUMP JUMPDEST PUSH0 DUP2 MLOAD SWAP1 POP SWAP2 SWAP1 POP JUMP JUMPDEST PUSH0 DUP3 DUP3 MSTORE PUSH1 0x20 DUP3 ADD SWAP1 POP SWAP3 SWAP2 POP POP JUMP JUMPDEST DUP3 DUP2 DUP4 MCOPY PUSH0 DUP4 DUP4 ADD MSTORE POP POP POP JUMP JUMPDEST PUSH0 PUSH1 0x1F NOT PUSH1 0x1F DUP4 ADD AND SWAP1 POP SWAP2 SWAP1 POP JUMP JUMPDEST PUSH0 PUSH2 0xA60 DUP3 PUSH2 0xA1E JUMP JUMPDEST PUSH2 0xA6A DUP2 DUP6 PUSH2 0xA28 JUMP JUMPDEST SWAP4 POP PUSH2 0xA7A DUP2 DUP6 PUSH1 0x20 DUP7 ADD PUSH2 0xA38 JUMP JUMPDEST PUSH2 0xA83 DUP2 PUSH2 0xA46 JUMP JUMPDEST DUP5 ADD SWAP2 POP POP SWAP3 SWAP2 POP POP JUMP JUMPDEST PUSH0 PUSH2 0xFFFF DUP3 AND SWAP1 POP SWAP2 SWAP1 POP JUMP JUMPDEST PUSH2 0xAA4 DUP2 PUSH2 0xA8E JUMP JUMPDEST DUP3 MSTORE POP POP JUMP JUMPDEST PUSH0 PUSH1 0xA0 DUP3 ADD SWAP1 POP PUSH2 0xABD PUSH0 DUP4 ADD DUP9 PUSH2 0x89D JUMP JUMPDEST PUSH2 0xACA PUSH1 0x20 DUP4 ADD DUP8 PUSH2 0x89D JUMP JUMPDEST PUSH2 0xAD7 PUSH1 0x40 DUP4 ADD DUP7 PUSH2 0x815 JUMP JUMPDEST DUP2 DUP2 SUB PUSH1 0x60 DUP4 ADD MSTORE PUSH2 0xAE9 DUP2 DUP6 PUSH2 0xA56 JUMP JUMPDEST SWAP1 POP PUSH2 0xAF8 PUSH1 0x80 DUP4 ADD DUP5 PUSH2 0xA9B JUMP JUMPDEST SWAP7 SWAP6 POP POP POP POP POP POP JUMP INVALID LOG2 PUSH5 0x6970667358 0x22 SLT KECCAK256 GT CREATE PUSH27 0xF6B4423AB8949C1D817C02ABA691CD5A13CA9EDC0CE2C753B988A5 CALLDATASIZE ISZERO PUSH5 0x736F6C6343 STOP ADDMOD NOT STOP CALLER "
				},
				"gasEstimates": {
					"creation": {
						"codeDepositCost": "574400",
						"executionCost": "infinite",
						"totalCost": "infinite"
					},
					"external": {
						"ADDRESSES_PROVIDER()": "infinite",
						"POOL()": "infinite",
						"executeOperation(address,uint256,uint256,address,bytes)": "infinite",
						"getBalance(address)": "infinite",
						"requestFlashLoan(address,uint256)": "infinite",
						"withdraw(address)": "infinite"
					}
				},
				"methodIdentifiers": {
					"ADDRESSES_PROVIDER()": "0542975c",
					"POOL()": "7535d246",
					"executeOperation(address,uint256,uint256,address,bytes)": "1b11d0ff",
					"getBalance(address)": "f8b2cb4f",
					"requestFlashLoan(address,uint256)": "d54ba954",
					"withdraw(address)": "51cff8d9"
				}
			},
			"storageLayout": {
				"storage": [
					{
						"astId": 1364,
						"contract": "contracts/FlashLoanV3.sol:FlashLoanV3",
						"label": "owner",
						"offset": 0,
						"slot": "0",
						"type": "t_address_payable"
					}
				],
				"types": {
					"t_address_payable": {
						"encoding": "inplace",
						"label": "address payable",
						"numberOfBytes": "20"
					}
				}
			},
			"userdoc": {
				"kind": "user",
				"methods": {
					"executeOperation(address,uint256,uint256,address,bytes)": {
						"notice": "This function is called after your contract has received the flash loaned amount"
					}
				},
				"version": 1
			}
		}
	}
}